{
	"Lab11/contracts/Voting.sol": {
		"Election": {
			"abi": [
				{
					"inputs": [
						{
							"internalType": "address[]",
							"name": "_candidates",
							"type": "address[]"
						}
					],
					"stateMutability": "nonpayable",
					"type": "constructor"
				},
				{
					"inputs": [],
					"name": "electionCandidates",
					"outputs": [
						{
							"internalType": "address[]",
							"name": "_addresses",
							"type": "address[]"
						}
					],
					"stateMutability": "view",
					"type": "function"
				},
				{
					"inputs": [],
					"name": "endElection",
					"outputs": [],
					"stateMutability": "nonpayable",
					"type": "function"
				},
				{
					"inputs": [
						{
							"internalType": "uint256",
							"name": "_candidateId",
							"type": "uint256"
						}
					],
					"name": "getCandidate",
					"outputs": [
						{
							"internalType": "address",
							"name": "",
							"type": "address"
						}
					],
					"stateMutability": "view",
					"type": "function"
				},
				{
					"inputs": [],
					"name": "getWinningCandidate",
					"outputs": [
						{
							"internalType": "address",
							"name": "",
							"type": "address"
						}
					],
					"stateMutability": "view",
					"type": "function"
				},
				{
					"inputs": [
						{
							"internalType": "address",
							"name": "_candidate",
							"type": "address"
						}
					],
					"name": "voteCandidate",
					"outputs": [],
					"stateMutability": "nonpayable",
					"type": "function"
				},
				{
					"inputs": [
						{
							"internalType": "address",
							"name": "_voter",
							"type": "address"
						}
					],
					"name": "whitelistVoter",
					"outputs": [],
					"stateMutability": "nonpayable",
					"type": "function"
				}
			],
			"devdoc": {
				"kind": "dev",
				"methods": {},
				"version": 1
			},
			"evm": {
				"assembly": "    /* \"Lab11/contracts/Voting.sol\":74:4498  contract Election {... */\n  mstore(0x40, 0x80)\n    /* \"Lab11/contracts/Voting.sol\":387:388  0 */\n  0x00\n    /* \"Lab11/contracts/Voting.sol\":366:388  uint numCandidates = 0 */\n  dup1\n  sstore\n    /* \"Lab11/contracts/Voting.sol\":412:413  0 */\n  0x00\n    /* \"Lab11/contracts/Voting.sol\":395:413  uint numVoters = 0 */\n  0x01\n  sstore\n    /* \"Lab11/contracts/Voting.sol\":721:722  0 */\n  0x00\n    /* \"Lab11/contracts/Voting.sol\":697:722  uint endElectionCount = 0 */\n  0x09\n  sstore\n    /* \"Lab11/contracts/Voting.sol\":731:1050  constructor(address[] memory _candidates) {... */\n  callvalue\n  dup1\n  iszero\n  tag_1\n  jumpi\n  0x00\n  dup1\n  revert\ntag_1:\n  pop\n  mload(0x40)\n  sub(codesize, bytecodeSize)\n  dup1\n  bytecodeSize\n  dup4\n  codecopy\n  dup2\n  dup2\n  add\n  0x40\n  mstore\n  dup2\n  add\n  swap1\n  tag_2\n  swap2\n  swap1\n  tag_3\n  jump\t// in\ntag_2:\n    /* \"Lab11/contracts/Voting.sol\":788:794  uint i */\n  0x00\n    /* \"Lab11/contracts/Voting.sol\":784:993  for(uint i = 0; i < _candidates.length; i ++) {... */\ntag_6:\n    /* \"Lab11/contracts/Voting.sol\":804:815  _candidates */\n  dup2\n    /* \"Lab11/contracts/Voting.sol\":804:822  _candidates.length */\n  mload\n    /* \"Lab11/contracts/Voting.sol\":800:801  i */\n  dup2\n    /* \"Lab11/contracts/Voting.sol\":800:822  i < _candidates.length */\n  lt\n    /* \"Lab11/contracts/Voting.sol\":784:993  for(uint i = 0; i < _candidates.length; i ++) {... */\n  iszero\n  tag_7\n  jumpi\n    /* \"Lab11/contracts/Voting.sol\":845:855  candidates */\n  0x06\n    /* \"Lab11/contracts/Voting.sol\":861:889  Candidate(_candidates[i], 0) */\n  mload(0x40)\n  dup1\n  0x40\n  add\n  0x40\n  mstore\n  dup1\n    /* \"Lab11/contracts/Voting.sol\":871:882  _candidates */\n  dup5\n    /* \"Lab11/contracts/Voting.sol\":883:884  i */\n  dup5\n    /* \"Lab11/contracts/Voting.sol\":871:885  _candidates[i] */\n  dup2\n  mload\n  dup2\n  lt\n  tag_9\n  jumpi\n  tag_10\n  tag_11\n  jump\t// in\ntag_10:\ntag_9:\n  0x20\n  mul\n  0x20\n  add\n  add\n  mload\n    /* \"Lab11/contracts/Voting.sol\":861:889  Candidate(_candidates[i], 0) */\n  0xffffffffffffffffffffffffffffffffffffffff\n  and\n  dup2\n  mstore\n  0x20\n  add\n    /* \"Lab11/contracts/Voting.sol\":887:888  0 */\n  0x00\n    /* \"Lab11/contracts/Voting.sol\":861:889  Candidate(_candidates[i], 0) */\n  dup2\n  mstore\n  pop\n    /* \"Lab11/contracts/Voting.sol\":845:890  candidates.push(Candidate(_candidates[i], 0)) */\n  swap1\n  dup1\n  0x01\n  dup2\n  sload\n  add\n  dup1\n  dup3\n  sstore\n  dup1\n  swap2\n  pop\n  pop\n  0x01\n  swap1\n  sub\n  swap1\n  0x00\n  mstore\n  keccak256(0x00, 0x20)\n  swap1\n  0x02\n  mul\n  add\n  0x00\n  swap1\n  swap2\n  swap1\n  swap2\n  swap1\n  swap2\n  pop\n  0x00\n  dup3\n  add\n  mload\n  dup2\n  0x00\n  add\n  exp(0x0100, 0x00)\n  dup2\n  sload\n  dup2\n  0xffffffffffffffffffffffffffffffffffffffff\n  mul\n  not\n  and\n  swap1\n  dup4\n  0xffffffffffffffffffffffffffffffffffffffff\n  and\n  mul\n  or\n  swap1\n  sstore\n  pop\n  0x20\n  dup3\n  add\n  mload\n  dup2\n  0x01\n  add\n  sstore\n  pop\n  pop\n    /* \"Lab11/contracts/Voting.sol\":922:923  1 */\n  0x01\n    /* \"Lab11/contracts/Voting.sol\":905:918  numCandidates */\n  0x00\n  dup1\n    /* \"Lab11/contracts/Voting.sol\":905:923  numCandidates += 1 */\n  dup3\n  dup3\n  sload\n  tag_13\n  swap2\n  swap1\n  tag_14\n  jump\t// in\ntag_13:\n  swap3\n  pop\n  pop\n  dup2\n  swap1\n  sstore\n  pop\n    /* \"Lab11/contracts/Voting.sol\":968:981  numCandidates */\n  sload(0x00)\n    /* \"Lab11/contracts/Voting.sol\":938:949  candidateId */\n  0x02\n    /* \"Lab11/contracts/Voting.sol\":938:965  candidateId[_candidates[i]] */\n  0x00\n    /* \"Lab11/contracts/Voting.sol\":950:961  _candidates */\n  dup5\n    /* \"Lab11/contracts/Voting.sol\":962:963  i */\n  dup5\n    /* \"Lab11/contracts/Voting.sol\":950:964  _candidates[i] */\n  dup2\n  mload\n  dup2\n  lt\n  tag_15\n  jumpi\n  tag_16\n  tag_11\n  jump\t// in\ntag_16:\ntag_15:\n  0x20\n  mul\n  0x20\n  add\n  add\n  mload\n    /* \"Lab11/contracts/Voting.sol\":938:965  candidateId[_candidates[i]] */\n  0xffffffffffffffffffffffffffffffffffffffff\n  and\n  0xffffffffffffffffffffffffffffffffffffffff\n  and\n  dup2\n  mstore\n  0x20\n  add\n  swap1\n  dup2\n  mstore\n  0x20\n  add\n  0x00\n  keccak256\n    /* \"Lab11/contracts/Voting.sol\":938:981  candidateId[_candidates[i]] = numCandidates */\n  dup2\n  swap1\n  sstore\n  pop\n    /* \"Lab11/contracts/Voting.sol\":824:828  i ++ */\n  dup1\n  dup1\n  0x01\n  add\n  swap2\n  pop\n  pop\n    /* \"Lab11/contracts/Voting.sol\":784:993  for(uint i = 0; i < _candidates.length; i ++) {... */\n  jump(tag_6)\ntag_7:\n  pop\n    /* \"Lab11/contracts/Voting.sol\":1014:1019  false */\n  0x00\n    /* \"Lab11/contracts/Voting.sol\":1003:1011  finished */\n  0x05\n  0x00\n    /* \"Lab11/contracts/Voting.sol\":1003:1019  finished = false */\n  0x0100\n  exp\n  dup2\n  sload\n  dup2\n  0xff\n  mul\n  not\n  and\n  swap1\n  dup4\n  iszero\n  iszero\n  mul\n  or\n  swap1\n  sstore\n  pop\n    /* \"Lab11/contracts/Voting.sol\":1041:1042  0 */\n  0x00\n    /* \"Lab11/contracts/Voting.sol\":1030:1038  winnerId */\n  0x04\n    /* \"Lab11/contracts/Voting.sol\":1030:1042  winnerId = 0 */\n  dup2\n  swap1\n  sstore\n  pop\n    /* \"Lab11/contracts/Voting.sol\":731:1050  constructor(address[] memory _candidates) {... */\n  pop\n    /* \"Lab11/contracts/Voting.sol\":74:4498  contract Election {... */\n  jump(tag_17)\n    /* \"#utility.yul\":7:82   */\ntag_18:\n    /* \"#utility.yul\":40:46   */\n  0x00\n    /* \"#utility.yul\":73:75   */\n  0x40\n    /* \"#utility.yul\":67:76   */\n  mload\n    /* \"#utility.yul\":57:76   */\n  swap1\n  pop\n    /* \"#utility.yul\":7:82   */\n  swap1\n  jump\t// out\n    /* \"#utility.yul\":88:205   */\ntag_19:\n    /* \"#utility.yul\":197:198   */\n  0x00\n    /* \"#utility.yul\":194:195   */\n  dup1\n    /* \"#utility.yul\":187:199   */\n  revert\n    /* \"#utility.yul\":211:328   */\ntag_20:\n    /* \"#utility.yul\":320:321   */\n  0x00\n    /* \"#utility.yul\":317:318   */\n  dup1\n    /* \"#utility.yul\":310:322   */\n  revert\n    /* \"#utility.yul\":334:451   */\ntag_21:\n    /* \"#utility.yul\":443:444   */\n  0x00\n    /* \"#utility.yul\":440:441   */\n  dup1\n    /* \"#utility.yul\":433:445   */\n  revert\n    /* \"#utility.yul\":457:559   */\ntag_22:\n    /* \"#utility.yul\":498:504   */\n  0x00\n    /* \"#utility.yul\":549:551   */\n  0x1f\n    /* \"#utility.yul\":545:552   */\n  not\n    /* \"#utility.yul\":540:542   */\n  0x1f\n    /* \"#utility.yul\":533:538   */\n  dup4\n    /* \"#utility.yul\":529:543   */\n  add\n    /* \"#utility.yul\":525:553   */\n  and\n    /* \"#utility.yul\":515:553   */\n  swap1\n  pop\n    /* \"#utility.yul\":457:559   */\n  swap2\n  swap1\n  pop\n  jump\t// out\n    /* \"#utility.yul\":565:745   */\ntag_23:\n    /* \"#utility.yul\":613:690   */\n  0x4e487b7100000000000000000000000000000000000000000000000000000000\n    /* \"#utility.yul\":610:611   */\n  0x00\n    /* \"#utility.yul\":603:691   */\n  mstore\n    /* \"#utility.yul\":710:714   */\n  0x41\n    /* \"#utility.yul\":707:708   */\n  0x04\n    /* \"#utility.yul\":700:715   */\n  mstore\n    /* \"#utility.yul\":734:738   */\n  0x24\n    /* \"#utility.yul\":731:732   */\n  0x00\n    /* \"#utility.yul\":724:739   */\n  revert\n    /* \"#utility.yul\":751:1032   */\ntag_24:\n    /* \"#utility.yul\":834:861   */\n  tag_44\n    /* \"#utility.yul\":856:860   */\n  dup3\n    /* \"#utility.yul\":834:861   */\n  tag_22\n  jump\t// in\ntag_44:\n    /* \"#utility.yul\":826:832   */\n  dup2\n    /* \"#utility.yul\":822:862   */\n  add\n    /* \"#utility.yul\":964:970   */\n  dup2\n    /* \"#utility.yul\":952:962   */\n  dup2\n    /* \"#utility.yul\":949:971   */\n  lt\n    /* \"#utility.yul\":928:946   */\n  0xffffffffffffffff\n    /* \"#utility.yul\":916:926   */\n  dup3\n    /* \"#utility.yul\":913:947   */\n  gt\n    /* \"#utility.yul\":910:972   */\n  or\n    /* \"#utility.yul\":907:995   */\n  iszero\n  tag_45\n  jumpi\n    /* \"#utility.yul\":975:993   */\n  tag_46\n  tag_23\n  jump\t// in\ntag_46:\n    /* \"#utility.yul\":907:995   */\ntag_45:\n    /* \"#utility.yul\":1015:1025   */\n  dup1\n    /* \"#utility.yul\":1011:1013   */\n  0x40\n    /* \"#utility.yul\":1004:1026   */\n  mstore\n    /* \"#utility.yul\":794:1032   */\n  pop\n    /* \"#utility.yul\":751:1032   */\n  pop\n  pop\n  jump\t// out\n    /* \"#utility.yul\":1038:1167   */\ntag_25:\n    /* \"#utility.yul\":1072:1078   */\n  0x00\n    /* \"#utility.yul\":1099:1119   */\n  tag_48\n  tag_18\n  jump\t// in\ntag_48:\n    /* \"#utility.yul\":1089:1119   */\n  swap1\n  pop\n    /* \"#utility.yul\":1128:1161   */\n  tag_49\n    /* \"#utility.yul\":1156:1160   */\n  dup3\n    /* \"#utility.yul\":1148:1154   */\n  dup3\n    /* \"#utility.yul\":1128:1161   */\n  tag_24\n  jump\t// in\ntag_49:\n    /* \"#utility.yul\":1038:1167   */\n  swap2\n  swap1\n  pop\n  jump\t// out\n    /* \"#utility.yul\":1173:1484   */\ntag_26:\n    /* \"#utility.yul\":1250:1254   */\n  0x00\n    /* \"#utility.yul\":1340:1358   */\n  0xffffffffffffffff\n    /* \"#utility.yul\":1332:1338   */\n  dup3\n    /* \"#utility.yul\":1329:1359   */\n  gt\n    /* \"#utility.yul\":1326:1382   */\n  iszero\n  tag_51\n  jumpi\n    /* \"#utility.yul\":1362:1380   */\n  tag_52\n  tag_23\n  jump\t// in\ntag_52:\n    /* \"#utility.yul\":1326:1382   */\ntag_51:\n    /* \"#utility.yul\":1412:1416   */\n  0x20\n    /* \"#utility.yul\":1404:1410   */\n  dup3\n    /* \"#utility.yul\":1400:1417   */\n  mul\n    /* \"#utility.yul\":1392:1417   */\n  swap1\n  pop\n    /* \"#utility.yul\":1472:1476   */\n  0x20\n    /* \"#utility.yul\":1466:1470   */\n  dup2\n    /* \"#utility.yul\":1462:1477   */\n  add\n    /* \"#utility.yul\":1454:1477   */\n  swap1\n  pop\n    /* \"#utility.yul\":1173:1484   */\n  swap2\n  swap1\n  pop\n  jump\t// out\n    /* \"#utility.yul\":1490:1607   */\ntag_27:\n    /* \"#utility.yul\":1599:1600   */\n  0x00\n    /* \"#utility.yul\":1596:1597   */\n  dup1\n    /* \"#utility.yul\":1589:1601   */\n  revert\n    /* \"#utility.yul\":1613:1739   */\ntag_28:\n    /* \"#utility.yul\":1650:1657   */\n  0x00\n    /* \"#utility.yul\":1690:1732   */\n  0xffffffffffffffffffffffffffffffffffffffff\n    /* \"#utility.yul\":1683:1688   */\n  dup3\n    /* \"#utility.yul\":1679:1733   */\n  and\n    /* \"#utility.yul\":1668:1733   */\n  swap1\n  pop\n    /* \"#utility.yul\":1613:1739   */\n  swap2\n  swap1\n  pop\n  jump\t// out\n    /* \"#utility.yul\":1745:1841   */\ntag_29:\n    /* \"#utility.yul\":1782:1789   */\n  0x00\n    /* \"#utility.yul\":1811:1835   */\n  tag_56\n    /* \"#utility.yul\":1829:1834   */\n  dup3\n    /* \"#utility.yul\":1811:1835   */\n  tag_28\n  jump\t// in\ntag_56:\n    /* \"#utility.yul\":1800:1835   */\n  swap1\n  pop\n    /* \"#utility.yul\":1745:1841   */\n  swap2\n  swap1\n  pop\n  jump\t// out\n    /* \"#utility.yul\":1847:1969   */\ntag_30:\n    /* \"#utility.yul\":1920:1944   */\n  tag_58\n    /* \"#utility.yul\":1938:1943   */\n  dup2\n    /* \"#utility.yul\":1920:1944   */\n  tag_29\n  jump\t// in\ntag_58:\n    /* \"#utility.yul\":1913:1918   */\n  dup2\n    /* \"#utility.yul\":1910:1945   */\n  eq\n    /* \"#utility.yul\":1900:1963   */\n  tag_59\n  jumpi\n    /* \"#utility.yul\":1959:1960   */\n  0x00\n    /* \"#utility.yul\":1956:1957   */\n  dup1\n    /* \"#utility.yul\":1949:1961   */\n  revert\n    /* \"#utility.yul\":1900:1963   */\ntag_59:\n    /* \"#utility.yul\":1847:1969   */\n  pop\n  jump\t// out\n    /* \"#utility.yul\":1975:2118   */\ntag_31:\n    /* \"#utility.yul\":2032:2037   */\n  0x00\n    /* \"#utility.yul\":2063:2069   */\n  dup2\n    /* \"#utility.yul\":2057:2070   */\n  mload\n    /* \"#utility.yul\":2048:2070   */\n  swap1\n  pop\n    /* \"#utility.yul\":2079:2112   */\n  tag_61\n    /* \"#utility.yul\":2106:2111   */\n  dup2\n    /* \"#utility.yul\":2079:2112   */\n  tag_30\n  jump\t// in\ntag_61:\n    /* \"#utility.yul\":1975:2118   */\n  swap3\n  swap2\n  pop\n  pop\n  jump\t// out\n    /* \"#utility.yul\":2141:2873   */\ntag_32:\n    /* \"#utility.yul\":2248:2253   */\n  0x00\n    /* \"#utility.yul\":2273:2354   */\n  tag_63\n    /* \"#utility.yul\":2289:2353   */\n  tag_64\n    /* \"#utility.yul\":2346:2352   */\n  dup5\n    /* \"#utility.yul\":2289:2353   */\n  tag_26\n  jump\t// in\ntag_64:\n    /* \"#utility.yul\":2273:2354   */\n  tag_25\n  jump\t// in\ntag_63:\n    /* \"#utility.yul\":2264:2354   */\n  swap1\n  pop\n    /* \"#utility.yul\":2374:2379   */\n  dup1\n    /* \"#utility.yul\":2403:2409   */\n  dup4\n    /* \"#utility.yul\":2396:2401   */\n  dup3\n    /* \"#utility.yul\":2389:2410   */\n  mstore\n    /* \"#utility.yul\":2437:2441   */\n  0x20\n    /* \"#utility.yul\":2430:2435   */\n  dup3\n    /* \"#utility.yul\":2426:2442   */\n  add\n    /* \"#utility.yul\":2419:2442   */\n  swap1\n  pop\n    /* \"#utility.yul\":2490:2494   */\n  0x20\n    /* \"#utility.yul\":2482:2488   */\n  dup5\n    /* \"#utility.yul\":2478:2495   */\n  mul\n    /* \"#utility.yul\":2470:2476   */\n  dup4\n    /* \"#utility.yul\":2466:2496   */\n  add\n    /* \"#utility.yul\":2519:2522   */\n  dup6\n    /* \"#utility.yul\":2511:2517   */\n  dup2\n    /* \"#utility.yul\":2508:2523   */\n  gt\n    /* \"#utility.yul\":2505:2627   */\n  iszero\n  tag_65\n  jumpi\n    /* \"#utility.yul\":2538:2617   */\n  tag_66\n  tag_27\n  jump\t// in\ntag_66:\n    /* \"#utility.yul\":2505:2627   */\ntag_65:\n    /* \"#utility.yul\":2653:2659   */\n  dup4\n    /* \"#utility.yul\":2636:2867   */\ntag_67:\n    /* \"#utility.yul\":2670:2676   */\n  dup2\n    /* \"#utility.yul\":2665:2668   */\n  dup2\n    /* \"#utility.yul\":2662:2677   */\n  lt\n    /* \"#utility.yul\":2636:2867   */\n  iszero\n  tag_69\n  jumpi\n    /* \"#utility.yul\":2745:2748   */\n  dup1\n    /* \"#utility.yul\":2774:2822   */\n  tag_70\n    /* \"#utility.yul\":2818:2821   */\n  dup9\n    /* \"#utility.yul\":2806:2816   */\n  dup3\n    /* \"#utility.yul\":2774:2822   */\n  tag_31\n  jump\t// in\ntag_70:\n    /* \"#utility.yul\":2769:2772   */\n  dup5\n    /* \"#utility.yul\":2762:2823   */\n  mstore\n    /* \"#utility.yul\":2852:2856   */\n  0x20\n    /* \"#utility.yul\":2847:2850   */\n  dup5\n    /* \"#utility.yul\":2843:2857   */\n  add\n    /* \"#utility.yul\":2836:2857   */\n  swap4\n  pop\n    /* \"#utility.yul\":2712:2867   */\n  pop\n    /* \"#utility.yul\":2696:2700   */\n  0x20\n    /* \"#utility.yul\":2691:2694   */\n  dup2\n    /* \"#utility.yul\":2687:2701   */\n  add\n    /* \"#utility.yul\":2680:2701   */\n  swap1\n  pop\n    /* \"#utility.yul\":2636:2867   */\n  jump(tag_67)\ntag_69:\n    /* \"#utility.yul\":2640:2661   */\n  pop\n    /* \"#utility.yul\":2254:2873   */\n  pop\n  pop\n    /* \"#utility.yul\":2141:2873   */\n  swap4\n  swap3\n  pop\n  pop\n  pop\n  jump\t// out\n    /* \"#utility.yul\":2896:3281   */\ntag_33:\n    /* \"#utility.yul\":2978:2983   */\n  0x00\n    /* \"#utility.yul\":3027:3030   */\n  dup3\n    /* \"#utility.yul\":3020:3024   */\n  0x1f\n    /* \"#utility.yul\":3012:3018   */\n  dup4\n    /* \"#utility.yul\":3008:3025   */\n  add\n    /* \"#utility.yul\":3004:3031   */\n  slt\n    /* \"#utility.yul\":2994:3116   */\n  tag_72\n  jumpi\n    /* \"#utility.yul\":3035:3114   */\n  tag_73\n  tag_21\n  jump\t// in\ntag_73:\n    /* \"#utility.yul\":2994:3116   */\ntag_72:\n    /* \"#utility.yul\":3145:3151   */\n  dup2\n    /* \"#utility.yul\":3139:3152   */\n  mload\n    /* \"#utility.yul\":3170:3275   */\n  tag_74\n    /* \"#utility.yul\":3271:3274   */\n  dup5\n    /* \"#utility.yul\":3263:3269   */\n  dup3\n    /* \"#utility.yul\":3256:3260   */\n  0x20\n    /* \"#utility.yul\":3248:3254   */\n  dup7\n    /* \"#utility.yul\":3244:3261   */\n  add\n    /* \"#utility.yul\":3170:3275   */\n  tag_32\n  jump\t// in\ntag_74:\n    /* \"#utility.yul\":3161:3275   */\n  swap2\n  pop\n    /* \"#utility.yul\":2984:3281   */\n  pop\n    /* \"#utility.yul\":2896:3281   */\n  swap3\n  swap2\n  pop\n  pop\n  jump\t// out\n    /* \"#utility.yul\":3287:3841   */\ntag_3:\n    /* \"#utility.yul\":3382:3388   */\n  0x00\n    /* \"#utility.yul\":3431:3433   */\n  0x20\n    /* \"#utility.yul\":3419:3428   */\n  dup3\n    /* \"#utility.yul\":3410:3417   */\n  dup5\n    /* \"#utility.yul\":3406:3429   */\n  sub\n    /* \"#utility.yul\":3402:3434   */\n  slt\n    /* \"#utility.yul\":3399:3518   */\n  iszero\n  tag_76\n  jumpi\n    /* \"#utility.yul\":3437:3516   */\n  tag_77\n  tag_19\n  jump\t// in\ntag_77:\n    /* \"#utility.yul\":3399:3518   */\ntag_76:\n    /* \"#utility.yul\":3578:3579   */\n  0x00\n    /* \"#utility.yul\":3567:3576   */\n  dup3\n    /* \"#utility.yul\":3563:3580   */\n  add\n    /* \"#utility.yul\":3557:3581   */\n  mload\n    /* \"#utility.yul\":3608:3626   */\n  0xffffffffffffffff\n    /* \"#utility.yul\":3600:3606   */\n  dup2\n    /* \"#utility.yul\":3597:3627   */\n  gt\n    /* \"#utility.yul\":3594:3711   */\n  iszero\n  tag_78\n  jumpi\n    /* \"#utility.yul\":3630:3709   */\n  tag_79\n  tag_20\n  jump\t// in\ntag_79:\n    /* \"#utility.yul\":3594:3711   */\ntag_78:\n    /* \"#utility.yul\":3735:3824   */\n  tag_80\n    /* \"#utility.yul\":3816:3823   */\n  dup5\n    /* \"#utility.yul\":3807:3813   */\n  dup3\n    /* \"#utility.yul\":3796:3805   */\n  dup6\n    /* \"#utility.yul\":3792:3814   */\n  add\n    /* \"#utility.yul\":3735:3824   */\n  tag_33\n  jump\t// in\ntag_80:\n    /* \"#utility.yul\":3725:3824   */\n  swap2\n  pop\n    /* \"#utility.yul\":3528:3834   */\n  pop\n    /* \"#utility.yul\":3287:3841   */\n  swap3\n  swap2\n  pop\n  pop\n  jump\t// out\n    /* \"#utility.yul\":3847:4027   */\ntag_11:\n    /* \"#utility.yul\":3895:3972   */\n  0x4e487b7100000000000000000000000000000000000000000000000000000000\n    /* \"#utility.yul\":3892:3893   */\n  0x00\n    /* \"#utility.yul\":3885:3973   */\n  mstore\n    /* \"#utility.yul\":3992:3996   */\n  0x32\n    /* \"#utility.yul\":3989:3990   */\n  0x04\n    /* \"#utility.yul\":3982:3997   */\n  mstore\n    /* \"#utility.yul\":4016:4020   */\n  0x24\n    /* \"#utility.yul\":4013:4014   */\n  0x00\n    /* \"#utility.yul\":4006:4021   */\n  revert\n    /* \"#utility.yul\":4033:4110   */\ntag_34:\n    /* \"#utility.yul\":4070:4077   */\n  0x00\n    /* \"#utility.yul\":4099:4104   */\n  dup2\n    /* \"#utility.yul\":4088:4104   */\n  swap1\n  pop\n    /* \"#utility.yul\":4033:4110   */\n  swap2\n  swap1\n  pop\n  jump\t// out\n    /* \"#utility.yul\":4116:4296   */\ntag_35:\n    /* \"#utility.yul\":4164:4241   */\n  0x4e487b7100000000000000000000000000000000000000000000000000000000\n    /* \"#utility.yul\":4161:4162   */\n  0x00\n    /* \"#utility.yul\":4154:4242   */\n  mstore\n    /* \"#utility.yul\":4261:4265   */\n  0x11\n    /* \"#utility.yul\":4258:4259   */\n  0x04\n    /* \"#utility.yul\":4251:4266   */\n  mstore\n    /* \"#utility.yul\":4285:4289   */\n  0x24\n    /* \"#utility.yul\":4282:4283   */\n  0x00\n    /* \"#utility.yul\":4275:4290   */\n  revert\n    /* \"#utility.yul\":4302:4493   */\ntag_14:\n    /* \"#utility.yul\":4342:4345   */\n  0x00\n    /* \"#utility.yul\":4361:4381   */\n  tag_85\n    /* \"#utility.yul\":4379:4380   */\n  dup3\n    /* \"#utility.yul\":4361:4381   */\n  tag_34\n  jump\t// in\ntag_85:\n    /* \"#utility.yul\":4356:4381   */\n  swap2\n  pop\n    /* \"#utility.yul\":4395:4415   */\n  tag_86\n    /* \"#utility.yul\":4413:4414   */\n  dup4\n    /* \"#utility.yul\":4395:4415   */\n  tag_34\n  jump\t// in\ntag_86:\n    /* \"#utility.yul\":4390:4415   */\n  swap3\n  pop\n    /* \"#utility.yul\":4438:4439   */\n  dup3\n    /* \"#utility.yul\":4435:4436   */\n  dup3\n    /* \"#utility.yul\":4431:4440   */\n  add\n    /* \"#utility.yul\":4424:4440   */\n  swap1\n  pop\n    /* \"#utility.yul\":4459:4462   */\n  dup1\n    /* \"#utility.yul\":4456:4457   */\n  dup3\n    /* \"#utility.yul\":4453:4463   */\n  gt\n    /* \"#utility.yul\":4450:4486   */\n  iszero\n  tag_87\n  jumpi\n    /* \"#utility.yul\":4466:4484   */\n  tag_88\n  tag_35\n  jump\t// in\ntag_88:\n    /* \"#utility.yul\":4450:4486   */\ntag_87:\n    /* \"#utility.yul\":4302:4493   */\n  swap3\n  swap2\n  pop\n  pop\n  jump\t// out\n    /* \"Lab11/contracts/Voting.sol\":74:4498  contract Election {... */\ntag_17:\n  dataSize(sub_0)\n  dup1\n  dataOffset(sub_0)\n  0x00\n  codecopy\n  0x00\n  return\nstop\n\nsub_0: assembly {\n        /* \"Lab11/contracts/Voting.sol\":74:4498  contract Election {... */\n      mstore(0x40, 0x80)\n      callvalue\n      dup1\n      iszero\n      tag_1\n      jumpi\n      0x00\n      dup1\n      revert\n    tag_1:\n      pop\n      jumpi(tag_2, lt(calldatasize, 0x04))\n      shr(0xe0, calldataload(0x00))\n      dup1\n      0x26bb886d\n      eq\n      tag_3\n      jumpi\n      dup1\n      0x35b8e820\n      eq\n      tag_4\n      jumpi\n      dup1\n      0x59f78468\n      eq\n      tag_5\n      jumpi\n      dup1\n      0x721f720c\n      eq\n      tag_6\n      jumpi\n      dup1\n      0xbddf1ce9\n      eq\n      tag_7\n      jumpi\n      dup1\n      0xf927cc29\n      eq\n      tag_8\n      jumpi\n    tag_2:\n      0x00\n      dup1\n      revert\n        /* \"Lab11/contracts/Voting.sol\":2039:2793  function voteCandidate(address _candidate) external {... */\n    tag_3:\n      tag_9\n      0x04\n      dup1\n      calldatasize\n      sub\n      dup2\n      add\n      swap1\n      tag_10\n      swap2\n      swap1\n      tag_11\n      jump\t// in\n    tag_10:\n      tag_12\n      jump\t// in\n    tag_9:\n      stop\n        /* \"Lab11/contracts/Voting.sol\":3069:3345  function getCandidate(uint _candidateId) public view returns (address) {... */\n    tag_4:\n      tag_13\n      0x04\n      dup1\n      calldatasize\n      sub\n      dup2\n      add\n      swap1\n      tag_14\n      swap2\n      swap1\n      tag_15\n      jump\t// in\n    tag_14:\n      tag_16\n      jump\t// in\n    tag_13:\n      mload(0x40)\n      tag_17\n      swap2\n      swap1\n      tag_18\n      jump\t// in\n    tag_17:\n      mload(0x40)\n      dup1\n      swap2\n      sub\n      swap1\n      return\n        /* \"Lab11/contracts/Voting.sol\":3353:4308  function endElection() external {... */\n    tag_5:\n      tag_19\n      tag_20\n      jump\t// in\n    tag_19:\n      stop\n        /* \"Lab11/contracts/Voting.sol\":2801:3061  function electionCandidates() public view returns (address[] memory _addresses) {... */\n    tag_6:\n      tag_21\n      tag_22\n      jump\t// in\n    tag_21:\n      mload(0x40)\n      tag_23\n      swap2\n      swap1\n      tag_24\n      jump\t// in\n    tag_23:\n      mload(0x40)\n      dup1\n      swap2\n      sub\n      swap1\n      return\n        /* \"Lab11/contracts/Voting.sol\":1058:2031  function whitelistVoter(address _voter) external {... */\n    tag_7:\n      tag_25\n      0x04\n      dup1\n      calldatasize\n      sub\n      dup2\n      add\n      swap1\n      tag_26\n      swap2\n      swap1\n      tag_11\n      jump\t// in\n    tag_26:\n      tag_27\n      jump\t// in\n    tag_25:\n      stop\n        /* \"Lab11/contracts/Voting.sol\":4316:4493  function getWinningCandidate() public view returns (address) {... */\n    tag_8:\n      tag_28\n      tag_29\n      jump\t// in\n    tag_28:\n      mload(0x40)\n      tag_30\n      swap2\n      swap1\n      tag_18\n      jump\t// in\n    tag_30:\n      mload(0x40)\n      dup1\n      swap2\n      sub\n      swap1\n      return\n        /* \"Lab11/contracts/Voting.sol\":2039:2793  function voteCandidate(address _candidate) external {... */\n    tag_12:\n        /* \"Lab11/contracts/Voting.sol\":2111:2119  finished */\n      0x05\n      0x00\n      swap1\n      sload\n      swap1\n      0x0100\n      exp\n      swap1\n      div\n      0xff\n      and\n        /* \"Lab11/contracts/Voting.sol\":2110:2119  !finished */\n      iszero\n        /* \"Lab11/contracts/Voting.sol\":2102:2153  require(!finished, \"Election has already finished\") */\n      tag_32\n      jumpi\n      mload(0x40)\n      0x08c379a000000000000000000000000000000000000000000000000000000000\n      dup2\n      mstore\n      0x04\n      add\n      tag_33\n      swap1\n      tag_34\n      jump\t// in\n    tag_33:\n      mload(0x40)\n      dup1\n      swap2\n      sub\n      swap1\n      revert\n    tag_32:\n        /* \"Lab11/contracts/Voting.sol\":2198:2199  0 */\n      0x00\n        /* \"Lab11/contracts/Voting.sol\":2172:2183  candidateId */\n      0x02\n        /* \"Lab11/contracts/Voting.sol\":2172:2195  candidateId[_candidate] */\n      0x00\n        /* \"Lab11/contracts/Voting.sol\":2184:2194  _candidate */\n      dup4\n        /* \"Lab11/contracts/Voting.sol\":2172:2195  candidateId[_candidate] */\n      0xffffffffffffffffffffffffffffffffffffffff\n      and\n      0xffffffffffffffffffffffffffffffffffffffff\n      and\n      dup2\n      mstore\n      0x20\n      add\n      swap1\n      dup2\n      mstore\n      0x20\n      add\n      0x00\n      keccak256\n      sload\n        /* \"Lab11/contracts/Voting.sol\":2172:2199  candidateId[_candidate] > 0 */\n      gt\n        /* \"Lab11/contracts/Voting.sol\":2164:2226  require(candidateId[_candidate] > 0, \"Candidate do not exist\") */\n      tag_35\n      jumpi\n      mload(0x40)\n      0x08c379a000000000000000000000000000000000000000000000000000000000\n      dup2\n      mstore\n      0x04\n      add\n      tag_36\n      swap1\n      tag_37\n      jump\t// in\n    tag_36:\n      mload(0x40)\n      dup1\n      swap2\n      sub\n      swap1\n      revert\n    tag_35:\n        /* \"Lab11/contracts/Voting.sol\":2272:2273  0 */\n      0x00\n        /* \"Lab11/contracts/Voting.sol\":2245:2256  candidateId */\n      0x02\n        /* \"Lab11/contracts/Voting.sol\":2245:2268  candidateId[msg.sender] */\n      0x00\n        /* \"Lab11/contracts/Voting.sol\":2257:2267  msg.sender */\n      caller\n        /* \"Lab11/contracts/Voting.sol\":2245:2268  candidateId[msg.sender] */\n      0xffffffffffffffffffffffffffffffffffffffff\n      and\n      0xffffffffffffffffffffffffffffffffffffffff\n      and\n      dup2\n      mstore\n      0x20\n      add\n      swap1\n      dup2\n      mstore\n      0x20\n      add\n      0x00\n      keccak256\n      sload\n        /* \"Lab11/contracts/Voting.sol\":2245:2273  candidateId[msg.sender] == 0 */\n      eq\n        /* \"Lab11/contracts/Voting.sol\":2237:2303  require(candidateId[msg.sender] == 0, \"Only voters can cast vote\") */\n      tag_38\n      jumpi\n      mload(0x40)\n      0x08c379a000000000000000000000000000000000000000000000000000000000\n      dup2\n      mstore\n      0x04\n      add\n      tag_39\n      swap1\n      tag_40\n      jump\t// in\n    tag_39:\n      mload(0x40)\n      dup1\n      swap2\n      sub\n      swap1\n      revert\n    tag_38:\n        /* \"Lab11/contracts/Voting.sol\":2344:2345  0 */\n      0x00\n        /* \"Lab11/contracts/Voting.sol\":2322:2329  voterId */\n      0x03\n        /* \"Lab11/contracts/Voting.sol\":2322:2341  voterId[msg.sender] */\n      0x00\n        /* \"Lab11/contracts/Voting.sol\":2330:2340  msg.sender */\n      caller\n        /* \"Lab11/contracts/Voting.sol\":2322:2341  voterId[msg.sender] */\n      0xffffffffffffffffffffffffffffffffffffffff\n      and\n      0xffffffffffffffffffffffffffffffffffffffff\n      and\n      dup2\n      mstore\n      0x20\n      add\n      swap1\n      dup2\n      mstore\n      0x20\n      add\n      0x00\n      keccak256\n      sload\n        /* \"Lab11/contracts/Voting.sol\":2322:2345  voterId[msg.sender] > 0 */\n      gt\n        /* \"Lab11/contracts/Voting.sol\":2314:2384  require(voterId[msg.sender] > 0, \"Voter is not added in the election\") */\n      tag_41\n      jumpi\n      mload(0x40)\n      0x08c379a000000000000000000000000000000000000000000000000000000000\n      dup2\n      mstore\n      0x04\n      add\n      tag_42\n      swap1\n      tag_43\n      jump\t// in\n    tag_42:\n      mload(0x40)\n      dup1\n      swap2\n      sub\n      swap1\n      revert\n    tag_41:\n        /* \"Lab11/contracts/Voting.sol\":2395:2414  Voter storage voter */\n      0x00\n        /* \"Lab11/contracts/Voting.sol\":2417:2423  voters */\n      0x07\n        /* \"Lab11/contracts/Voting.sol\":2446:2447  1 */\n      0x01\n        /* \"Lab11/contracts/Voting.sol\":2424:2431  voterId */\n      0x03\n        /* \"Lab11/contracts/Voting.sol\":2424:2443  voterId[msg.sender] */\n      0x00\n        /* \"Lab11/contracts/Voting.sol\":2432:2442  msg.sender */\n      caller\n        /* \"Lab11/contracts/Voting.sol\":2424:2443  voterId[msg.sender] */\n      0xffffffffffffffffffffffffffffffffffffffff\n      and\n      0xffffffffffffffffffffffffffffffffffffffff\n      and\n      dup2\n      mstore\n      0x20\n      add\n      swap1\n      dup2\n      mstore\n      0x20\n      add\n      0x00\n      keccak256\n      sload\n        /* \"Lab11/contracts/Voting.sol\":2424:2447  voterId[msg.sender] - 1 */\n      tag_44\n      swap2\n      swap1\n      tag_45\n      jump\t// in\n    tag_44:\n        /* \"Lab11/contracts/Voting.sol\":2417:2448  voters[voterId[msg.sender] - 1] */\n      dup2\n      sload\n      dup2\n      lt\n      tag_46\n      jumpi\n      tag_47\n      tag_48\n      jump\t// in\n    tag_47:\n    tag_46:\n      swap1\n      0x00\n      mstore\n      keccak256(0x00, 0x20)\n      swap1\n      0x04\n      mul\n      add\n        /* \"Lab11/contracts/Voting.sol\":2395:2448  Voter storage voter = voters[voterId[msg.sender] - 1] */\n      swap1\n      pop\n        /* \"Lab11/contracts/Voting.sol\":2467:2472  voter */\n      dup1\n        /* \"Lab11/contracts/Voting.sol\":2467:2481  voter.eligible */\n      0x00\n      add\n      0x14\n      swap1\n      sload\n      swap1\n      0x0100\n      exp\n      swap1\n      div\n      0xff\n      and\n        /* \"Lab11/contracts/Voting.sol\":2459:2524  require(voter.eligible, \"Voter is not yet eligible to cast vote\") */\n      tag_50\n      jumpi\n      mload(0x40)\n      0x08c379a000000000000000000000000000000000000000000000000000000000\n      dup2\n      mstore\n      0x04\n      add\n      tag_51\n      swap1\n      tag_52\n      jump\t// in\n    tag_51:\n      mload(0x40)\n      dup1\n      swap2\n      sub\n      swap1\n      revert\n    tag_50:\n        /* \"Lab11/contracts/Voting.sol\":2544:2549  voter */\n      dup1\n        /* \"Lab11/contracts/Voting.sol\":2544:2555  voter.voted */\n      0x00\n      add\n      0x15\n      swap1\n      sload\n      swap1\n      0x0100\n      exp\n      swap1\n      div\n      0xff\n      and\n        /* \"Lab11/contracts/Voting.sol\":2543:2555  !voter.voted */\n      iszero\n        /* \"Lab11/contracts/Voting.sol\":2535:2591  require(!voter.voted, \"Voter has already cast its vote\") */\n      tag_53\n      jumpi\n      mload(0x40)\n      0x08c379a000000000000000000000000000000000000000000000000000000000\n      dup2\n      mstore\n      0x04\n      add\n      tag_54\n      swap1\n      tag_55\n      jump\t// in\n    tag_54:\n      mload(0x40)\n      dup1\n      swap2\n      sub\n      swap1\n      revert\n    tag_53:\n        /* \"Lab11/contracts/Voting.sol\":2622:2633  candidateId */\n      0x02\n        /* \"Lab11/contracts/Voting.sol\":2622:2645  candidateId[_candidate] */\n      0x00\n        /* \"Lab11/contracts/Voting.sol\":2634:2644  _candidate */\n      dup4\n        /* \"Lab11/contracts/Voting.sol\":2622:2645  candidateId[_candidate] */\n      0xffffffffffffffffffffffffffffffffffffffff\n      and\n      0xffffffffffffffffffffffffffffffffffffffff\n      and\n      dup2\n      mstore\n      0x20\n      add\n      swap1\n      dup2\n      mstore\n      0x20\n      add\n      0x00\n      keccak256\n      sload\n        /* \"Lab11/contracts/Voting.sol\":2602:2607  voter */\n      dup2\n        /* \"Lab11/contracts/Voting.sol\":2602:2619  voter.candidateId */\n      0x01\n      add\n        /* \"Lab11/contracts/Voting.sol\":2602:2645  voter.candidateId = candidateId[_candidate] */\n      dup2\n      swap1\n      sstore\n      pop\n        /* \"Lab11/contracts/Voting.sol\":2670:2674  true */\n      0x01\n        /* \"Lab11/contracts/Voting.sol\":2656:2661  voter */\n      dup2\n        /* \"Lab11/contracts/Voting.sol\":2656:2667  voter.voted */\n      0x00\n      add\n      0x15\n        /* \"Lab11/contracts/Voting.sol\":2656:2674  voter.voted = true */\n      0x0100\n      exp\n      dup2\n      sload\n      dup2\n      0xff\n      mul\n      not\n      and\n      swap1\n      dup4\n      iszero\n      iszero\n      mul\n      or\n      swap1\n      sstore\n      pop\n        /* \"Lab11/contracts/Voting.sol\":2685:2712  Candidate storage candidate */\n      0x00\n        /* \"Lab11/contracts/Voting.sol\":2715:2725  candidates */\n      0x06\n        /* \"Lab11/contracts/Voting.sol\":2752:2753  1 */\n      0x01\n        /* \"Lab11/contracts/Voting.sol\":2726:2737  candidateId */\n      0x02\n        /* \"Lab11/contracts/Voting.sol\":2726:2749  candidateId[_candidate] */\n      0x00\n        /* \"Lab11/contracts/Voting.sol\":2738:2748  _candidate */\n      dup7\n        /* \"Lab11/contracts/Voting.sol\":2726:2749  candidateId[_candidate] */\n      0xffffffffffffffffffffffffffffffffffffffff\n      and\n      0xffffffffffffffffffffffffffffffffffffffff\n      and\n      dup2\n      mstore\n      0x20\n      add\n      swap1\n      dup2\n      mstore\n      0x20\n      add\n      0x00\n      keccak256\n      sload\n        /* \"Lab11/contracts/Voting.sol\":2726:2753  candidateId[_candidate] - 1 */\n      tag_56\n      swap2\n      swap1\n      tag_45\n      jump\t// in\n    tag_56:\n        /* \"Lab11/contracts/Voting.sol\":2715:2754  candidates[candidateId[_candidate] - 1] */\n      dup2\n      sload\n      dup2\n      lt\n      tag_57\n      jumpi\n      tag_58\n      tag_48\n      jump\t// in\n    tag_58:\n    tag_57:\n      swap1\n      0x00\n      mstore\n      keccak256(0x00, 0x20)\n      swap1\n      0x02\n      mul\n      add\n        /* \"Lab11/contracts/Voting.sol\":2685:2754  Candidate storage candidate = candidates[candidateId[_candidate] - 1] */\n      swap1\n      pop\n        /* \"Lab11/contracts/Voting.sol\":2784:2785  1 */\n      0x01\n        /* \"Lab11/contracts/Voting.sol\":2765:2774  candidate */\n      dup2\n        /* \"Lab11/contracts/Voting.sol\":2765:2780  candidate.votes */\n      0x01\n      add\n      0x00\n        /* \"Lab11/contracts/Voting.sol\":2765:2785  candidate.votes += 1 */\n      dup3\n      dup3\n      sload\n      tag_60\n      swap2\n      swap1\n      tag_61\n      jump\t// in\n    tag_60:\n      swap3\n      pop\n      pop\n      dup2\n      swap1\n      sstore\n      pop\n        /* \"Lab11/contracts/Voting.sol\":2091:2793  {... */\n      pop\n      pop\n        /* \"Lab11/contracts/Voting.sol\":2039:2793  function voteCandidate(address _candidate) external {... */\n      pop\n      jump\t// out\n        /* \"Lab11/contracts/Voting.sol\":3069:3345  function getCandidate(uint _candidateId) public view returns (address) {... */\n    tag_16:\n        /* \"Lab11/contracts/Voting.sol\":3131:3138  address */\n      0x00\n        /* \"Lab11/contracts/Voting.sol\":3174:3175  0 */\n      dup1\n        /* \"Lab11/contracts/Voting.sol\":3159:3171  _candidateId */\n      dup3\n        /* \"Lab11/contracts/Voting.sol\":3159:3175  _candidateId > 0 */\n      gt\n        /* \"Lab11/contracts/Voting.sol\":3151:3204  require(_candidateId > 0, \"Candidate Id must be > 0\") */\n      tag_63\n      jumpi\n      mload(0x40)\n      0x08c379a000000000000000000000000000000000000000000000000000000000\n      dup2\n      mstore\n      0x04\n      add\n      tag_64\n      swap1\n      tag_65\n      jump\t// in\n    tag_64:\n      mload(0x40)\n      dup1\n      swap2\n      sub\n      swap1\n      revert\n    tag_63:\n        /* \"Lab11/contracts/Voting.sol\":3239:3249  candidates */\n      0x06\n        /* \"Lab11/contracts/Voting.sol\":3239:3256  candidates.length */\n      dup1\n      sload\n      swap1\n      pop\n        /* \"Lab11/contracts/Voting.sol\":3223:3235  _candidateId */\n      dup3\n        /* \"Lab11/contracts/Voting.sol\":3223:3256  _candidateId <= candidates.length */\n      gt\n      iszero\n        /* \"Lab11/contracts/Voting.sol\":3215:3286  require(_candidateId <= candidates.length, \"Candidate Id do not exist\") */\n      tag_66\n      jumpi\n      mload(0x40)\n      0x08c379a000000000000000000000000000000000000000000000000000000000\n      dup2\n      mstore\n      0x04\n      add\n      tag_67\n      swap1\n      tag_68\n      jump\t// in\n    tag_67:\n      mload(0x40)\n      dup1\n      swap2\n      sub\n      swap1\n      revert\n    tag_66:\n        /* \"Lab11/contracts/Voting.sol\":3304:3314  candidates */\n      0x06\n        /* \"Lab11/contracts/Voting.sol\":3330:3331  1 */\n      0x01\n        /* \"Lab11/contracts/Voting.sol\":3315:3327  _candidateId */\n      dup4\n        /* \"Lab11/contracts/Voting.sol\":3315:3331  _candidateId - 1 */\n      tag_69\n      swap2\n      swap1\n      tag_45\n      jump\t// in\n    tag_69:\n        /* \"Lab11/contracts/Voting.sol\":3304:3332  candidates[_candidateId - 1] */\n      dup2\n      sload\n      dup2\n      lt\n      tag_70\n      jumpi\n      tag_71\n      tag_48\n      jump\t// in\n    tag_71:\n    tag_70:\n      swap1\n      0x00\n      mstore\n      keccak256(0x00, 0x20)\n      swap1\n      0x02\n      mul\n      add\n        /* \"Lab11/contracts/Voting.sol\":3304:3337  candidates[_candidateId - 1].addr */\n      0x00\n      add\n      0x00\n      swap1\n      sload\n      swap1\n      0x0100\n      exp\n      swap1\n      div\n      0xffffffffffffffffffffffffffffffffffffffff\n      and\n        /* \"Lab11/contracts/Voting.sol\":3297:3337  return candidates[_candidateId - 1].addr */\n      swap1\n      pop\n        /* \"Lab11/contracts/Voting.sol\":3069:3345  function getCandidate(uint _candidateId) public view returns (address) {... */\n      swap2\n      swap1\n      pop\n      jump\t// out\n        /* \"Lab11/contracts/Voting.sol\":3353:4308  function endElection() external {... */\n    tag_20:\n        /* \"Lab11/contracts/Voting.sol\":3522:3530  finished */\n      0x05\n      0x00\n      swap1\n      sload\n      swap1\n      0x0100\n      exp\n      swap1\n      div\n      0xff\n      and\n        /* \"Lab11/contracts/Voting.sol\":3521:3530  !finished */\n      iszero\n        /* \"Lab11/contracts/Voting.sol\":3513:3564  require(!finished, \"Election has already finished\") */\n      tag_74\n      jumpi\n      mload(0x40)\n      0x08c379a000000000000000000000000000000000000000000000000000000000\n      dup2\n      mstore\n      0x04\n      add\n      tag_75\n      swap1\n      tag_34\n      jump\t// in\n    tag_75:\n      mload(0x40)\n      dup1\n      swap2\n      sub\n      swap1\n      revert\n    tag_74:\n        /* \"Lab11/contracts/Voting.sol\":3609:3610  0 */\n      0x00\n        /* \"Lab11/contracts/Voting.sol\":3583:3594  candidateId */\n      0x02\n        /* \"Lab11/contracts/Voting.sol\":3583:3606  candidateId[msg.sender] */\n      0x00\n        /* \"Lab11/contracts/Voting.sol\":3595:3605  msg.sender */\n      caller\n        /* \"Lab11/contracts/Voting.sol\":3583:3606  candidateId[msg.sender] */\n      0xffffffffffffffffffffffffffffffffffffffff\n      and\n      0xffffffffffffffffffffffffffffffffffffffff\n      and\n      dup2\n      mstore\n      0x20\n      add\n      swap1\n      dup2\n      mstore\n      0x20\n      add\n      0x00\n      keccak256\n      sload\n        /* \"Lab11/contracts/Voting.sol\":3583:3610  candidateId[msg.sender] > 0 */\n      gt\n        /* \"Lab11/contracts/Voting.sol\":3575:3652  require(candidateId[msg.sender] > 0, \"Only candidate can call this function\") */\n      tag_76\n      jumpi\n      mload(0x40)\n      0x08c379a000000000000000000000000000000000000000000000000000000000\n      dup2\n      mstore\n      0x04\n      add\n      tag_77\n      swap1\n      tag_78\n      jump\t// in\n    tag_77:\n      mload(0x40)\n      dup1\n      swap2\n      sub\n      swap1\n      revert\n    tag_76:\n        /* \"Lab11/contracts/Voting.sol\":3702:3707  false */\n      0x00\n        /* \"Lab11/contracts/Voting.sol\":3671:3707  callEndElection[msg.sender] == false */\n      iszero\n      iszero\n        /* \"Lab11/contracts/Voting.sol\":3671:3686  callEndElection */\n      0x08\n        /* \"Lab11/contracts/Voting.sol\":3671:3698  callEndElection[msg.sender] */\n      0x00\n        /* \"Lab11/contracts/Voting.sol\":3687:3697  msg.sender */\n      caller\n        /* \"Lab11/contracts/Voting.sol\":3671:3698  callEndElection[msg.sender] */\n      0xffffffffffffffffffffffffffffffffffffffff\n      and\n      0xffffffffffffffffffffffffffffffffffffffff\n      and\n      dup2\n      mstore\n      0x20\n      add\n      swap1\n      dup2\n      mstore\n      0x20\n      add\n      0x00\n      keccak256\n      0x00\n      swap1\n      sload\n      swap1\n      0x0100\n      exp\n      swap1\n      div\n      0xff\n      and\n        /* \"Lab11/contracts/Voting.sol\":3671:3707  callEndElection[msg.sender] == false */\n      iszero\n      iszero\n      eq\n        /* \"Lab11/contracts/Voting.sol\":3663:3800  require(callEndElection[msg.sender] == false, \"You have already called this function. Wait for other candidates to call end to election\") */\n      tag_79\n      jumpi\n      mload(0x40)\n      0x08c379a000000000000000000000000000000000000000000000000000000000\n      dup2\n      mstore\n      0x04\n      add\n      tag_80\n      swap1\n      tag_81\n      jump\t// in\n    tag_80:\n      mload(0x40)\n      dup1\n      swap2\n      sub\n      swap1\n      revert\n    tag_79:\n        /* \"Lab11/contracts/Voting.sol\":3841:3845  true */\n      0x01\n        /* \"Lab11/contracts/Voting.sol\":3811:3826  callEndElection */\n      0x08\n        /* \"Lab11/contracts/Voting.sol\":3811:3838  callEndElection[msg.sender] */\n      0x00\n        /* \"Lab11/contracts/Voting.sol\":3827:3837  msg.sender */\n      caller\n        /* \"Lab11/contracts/Voting.sol\":3811:3838  callEndElection[msg.sender] */\n      0xffffffffffffffffffffffffffffffffffffffff\n      and\n      0xffffffffffffffffffffffffffffffffffffffff\n      and\n      dup2\n      mstore\n      0x20\n      add\n      swap1\n      dup2\n      mstore\n      0x20\n      add\n      0x00\n      keccak256\n      0x00\n        /* \"Lab11/contracts/Voting.sol\":3811:3845  callEndElection[msg.sender] = true */\n      0x0100\n      exp\n      dup2\n      sload\n      dup2\n      0xff\n      mul\n      not\n      and\n      swap1\n      dup4\n      iszero\n      iszero\n      mul\n      or\n      swap1\n      sstore\n      pop\n        /* \"Lab11/contracts/Voting.sol\":3876:3877  1 */\n      0x01\n        /* \"Lab11/contracts/Voting.sol\":3856:3872  endElectionCount */\n      0x09\n      0x00\n        /* \"Lab11/contracts/Voting.sol\":3856:3877  endElectionCount += 1 */\n      dup3\n      dup3\n      sload\n      tag_82\n      swap2\n      swap1\n      tag_61\n      jump\t// in\n    tag_82:\n      swap3\n      pop\n      pop\n      dup2\n      swap1\n      sstore\n      pop\n        /* \"Lab11/contracts/Voting.sol\":3912:3925  numCandidates */\n      sload(0x00)\n        /* \"Lab11/contracts/Voting.sol\":3892:3908  endElectionCount */\n      sload(0x09)\n        /* \"Lab11/contracts/Voting.sol\":3892:3925  endElectionCount == numCandidates */\n      sub\n        /* \"Lab11/contracts/Voting.sol\":3888:4299  if (endElectionCount == numCandidates) {... */\n      tag_83\n      jumpi\n        /* \"Lab11/contracts/Voting.sol\":4003:4016  uint maxVotes */\n      0x00\n        /* \"Lab11/contracts/Voting.sol\":4039:4045  uint i */\n      dup1\n        /* \"Lab11/contracts/Voting.sol\":4035:4258  for(uint i = 0; i < numCandidates; i ++) {... */\n    tag_84:\n        /* \"Lab11/contracts/Voting.sol\":4055:4068  numCandidates */\n      sload(0x00)\n        /* \"Lab11/contracts/Voting.sol\":4051:4052  i */\n      dup2\n        /* \"Lab11/contracts/Voting.sol\":4051:4068  i < numCandidates */\n      lt\n        /* \"Lab11/contracts/Voting.sol\":4035:4258  for(uint i = 0; i < numCandidates; i ++) {... */\n      iszero\n      tag_85\n      jumpi\n        /* \"Lab11/contracts/Voting.sol\":4121:4129  maxVotes */\n      dup2\n        /* \"Lab11/contracts/Voting.sol\":4099:4109  candidates */\n      0x06\n        /* \"Lab11/contracts/Voting.sol\":4110:4111  i */\n      dup3\n        /* \"Lab11/contracts/Voting.sol\":4099:4112  candidates[i] */\n      dup2\n      sload\n      dup2\n      lt\n      tag_87\n      jumpi\n      tag_88\n      tag_48\n      jump\t// in\n    tag_88:\n    tag_87:\n      swap1\n      0x00\n      mstore\n      keccak256(0x00, 0x20)\n      swap1\n      0x02\n      mul\n      add\n        /* \"Lab11/contracts/Voting.sol\":4099:4118  candidates[i].votes */\n      0x01\n      add\n      sload\n        /* \"Lab11/contracts/Voting.sol\":4099:4129  candidates[i].votes > maxVotes */\n      gt\n        /* \"Lab11/contracts/Voting.sol\":4095:4243  if (candidates[i].votes > maxVotes) {... */\n      iszero\n      tag_90\n      jumpi\n        /* \"Lab11/contracts/Voting.sol\":4165:4175  candidates */\n      0x06\n        /* \"Lab11/contracts/Voting.sol\":4176:4177  i */\n      dup2\n        /* \"Lab11/contracts/Voting.sol\":4165:4178  candidates[i] */\n      dup2\n      sload\n      dup2\n      lt\n      tag_91\n      jumpi\n      tag_92\n      tag_48\n      jump\t// in\n    tag_92:\n    tag_91:\n      swap1\n      0x00\n      mstore\n      keccak256(0x00, 0x20)\n      swap1\n      0x02\n      mul\n      add\n        /* \"Lab11/contracts/Voting.sol\":4165:4184  candidates[i].votes */\n      0x01\n      add\n      sload\n        /* \"Lab11/contracts/Voting.sol\":4154:4184  maxVotes = candidates[i].votes */\n      swap2\n      pop\n        /* \"Lab11/contracts/Voting.sol\":4222:4223  1 */\n      0x01\n        /* \"Lab11/contracts/Voting.sol\":4218:4219  i */\n      dup2\n        /* \"Lab11/contracts/Voting.sol\":4218:4223  i + 1 */\n      tag_94\n      swap2\n      swap1\n      tag_61\n      jump\t// in\n    tag_94:\n        /* \"Lab11/contracts/Voting.sol\":4207:4215  winnerId */\n      0x04\n        /* \"Lab11/contracts/Voting.sol\":4207:4223  winnerId = i + 1 */\n      dup2\n      swap1\n      sstore\n      pop\n        /* \"Lab11/contracts/Voting.sol\":4095:4243  if (candidates[i].votes > maxVotes) {... */\n    tag_90:\n        /* \"Lab11/contracts/Voting.sol\":4070:4074  i ++ */\n      dup1\n      dup1\n      0x01\n      add\n      swap2\n      pop\n      pop\n        /* \"Lab11/contracts/Voting.sol\":4035:4258  for(uint i = 0; i < numCandidates; i ++) {... */\n      jump(tag_84)\n    tag_85:\n      pop\n        /* \"Lab11/contracts/Voting.sol\":4283:4287  true */\n      0x01\n        /* \"Lab11/contracts/Voting.sol\":4272:4280  finished */\n      0x05\n      0x00\n        /* \"Lab11/contracts/Voting.sol\":4272:4287  finished = true */\n      0x0100\n      exp\n      dup2\n      sload\n      dup2\n      0xff\n      mul\n      not\n      and\n      swap1\n      dup4\n      iszero\n      iszero\n      mul\n      or\n      swap1\n      sstore\n      pop\n        /* \"Lab11/contracts/Voting.sol\":3927:4299  {... */\n      pop\n        /* \"Lab11/contracts/Voting.sol\":3888:4299  if (endElectionCount == numCandidates) {... */\n    tag_83:\n        /* \"Lab11/contracts/Voting.sol\":3353:4308  function endElection() external {... */\n      jump\t// out\n        /* \"Lab11/contracts/Voting.sol\":2801:3061  function electionCandidates() public view returns (address[] memory _addresses) {... */\n    tag_22:\n        /* \"Lab11/contracts/Voting.sol\":2852:2879  address[] memory _addresses */\n      0x60\n        /* \"Lab11/contracts/Voting.sol\":2919:2929  candidates */\n      0x06\n        /* \"Lab11/contracts/Voting.sol\":2919:2936  candidates.length */\n      dup1\n      sload\n      swap1\n      pop\n        /* \"Lab11/contracts/Voting.sol\":2905:2937  new address[](candidates.length) */\n      0xffffffffffffffff\n      dup2\n      gt\n      iszero\n      tag_96\n      jumpi\n      tag_97\n      tag_98\n      jump\t// in\n    tag_97:\n    tag_96:\n      mload(0x40)\n      swap1\n      dup1\n      dup3\n      mstore\n      dup1\n      0x20\n      mul\n      0x20\n      add\n      dup3\n      add\n      0x40\n      mstore\n      dup1\n      iszero\n      tag_99\n      jumpi\n      dup2\n      0x20\n      add\n      0x20\n      dup3\n      mul\n      dup1\n      calldatasize\n      dup4\n      calldatacopy\n      dup1\n      dup3\n      add\n      swap2\n      pop\n      pop\n      swap1\n      pop\n    tag_99:\n      pop\n        /* \"Lab11/contracts/Voting.sol\":2892:2937  _addresses = new address[](candidates.length) */\n      swap1\n      pop\n        /* \"Lab11/contracts/Voting.sol\":2952:2958  uint i */\n      0x00\n        /* \"Lab11/contracts/Voting.sol\":2948:3054  for(uint i = 0; i < candidates.length; i ++) {... */\n    tag_100:\n        /* \"Lab11/contracts/Voting.sol\":2968:2978  candidates */\n      0x06\n        /* \"Lab11/contracts/Voting.sol\":2968:2985  candidates.length */\n      dup1\n      sload\n      swap1\n      pop\n        /* \"Lab11/contracts/Voting.sol\":2964:2965  i */\n      dup2\n        /* \"Lab11/contracts/Voting.sol\":2964:2985  i < candidates.length */\n      lt\n        /* \"Lab11/contracts/Voting.sol\":2948:3054  for(uint i = 0; i < candidates.length; i ++) {... */\n      iszero\n      tag_101\n      jumpi\n        /* \"Lab11/contracts/Voting.sol\":3024:3034  candidates */\n      0x06\n        /* \"Lab11/contracts/Voting.sol\":3035:3036  i */\n      dup2\n        /* \"Lab11/contracts/Voting.sol\":3024:3037  candidates[i] */\n      dup2\n      sload\n      dup2\n      lt\n      tag_103\n      jumpi\n      tag_104\n      tag_48\n      jump\t// in\n    tag_104:\n    tag_103:\n      swap1\n      0x00\n      mstore\n      keccak256(0x00, 0x20)\n      swap1\n      0x02\n      mul\n      add\n        /* \"Lab11/contracts/Voting.sol\":3024:3042  candidates[i].addr */\n      0x00\n      add\n      0x00\n      swap1\n      sload\n      swap1\n      0x0100\n      exp\n      swap1\n      div\n      0xffffffffffffffffffffffffffffffffffffffff\n      and\n        /* \"Lab11/contracts/Voting.sol\":3008:3018  _addresses */\n      dup3\n        /* \"Lab11/contracts/Voting.sol\":3019:3020  i */\n      dup3\n        /* \"Lab11/contracts/Voting.sol\":3008:3021  _addresses[i] */\n      dup2\n      mload\n      dup2\n      lt\n      tag_106\n      jumpi\n      tag_107\n      tag_48\n      jump\t// in\n    tag_107:\n    tag_106:\n      0x20\n      mul\n      0x20\n      add\n      add\n        /* \"Lab11/contracts/Voting.sol\":3008:3042  _addresses[i] = candidates[i].addr */\n      swap1\n      0xffffffffffffffffffffffffffffffffffffffff\n      and\n      swap1\n      dup2\n      0xffffffffffffffffffffffffffffffffffffffff\n      and\n      dup2\n      mstore\n      pop\n      pop\n        /* \"Lab11/contracts/Voting.sol\":2987:2991  i ++ */\n      dup1\n      dup1\n      0x01\n      add\n      swap2\n      pop\n      pop\n        /* \"Lab11/contracts/Voting.sol\":2948:3054  for(uint i = 0; i < candidates.length; i ++) {... */\n      jump(tag_100)\n    tag_101:\n      pop\n        /* \"Lab11/contracts/Voting.sol\":2801:3061  function electionCandidates() public view returns (address[] memory _addresses) {... */\n      swap1\n      jump\t// out\n        /* \"Lab11/contracts/Voting.sol\":1058:2031  function whitelistVoter(address _voter) external {... */\n    tag_27:\n        /* \"Lab11/contracts/Voting.sol\":1127:1135  finished */\n      0x05\n      0x00\n      swap1\n      sload\n      swap1\n      0x0100\n      exp\n      swap1\n      div\n      0xff\n      and\n        /* \"Lab11/contracts/Voting.sol\":1126:1135  !finished */\n      iszero\n        /* \"Lab11/contracts/Voting.sol\":1118:1169  require(!finished, \"Election has already finished\") */\n      tag_109\n      jumpi\n      mload(0x40)\n      0x08c379a000000000000000000000000000000000000000000000000000000000\n      dup2\n      mstore\n      0x04\n      add\n      tag_110\n      swap1\n      tag_34\n      jump\t// in\n    tag_110:\n      mload(0x40)\n      dup1\n      swap2\n      sub\n      swap1\n      revert\n    tag_109:\n        /* \"Lab11/contracts/Voting.sol\":1214:1215  0 */\n      0x00\n        /* \"Lab11/contracts/Voting.sol\":1188:1199  candidateId */\n      0x02\n        /* \"Lab11/contracts/Voting.sol\":1188:1211  candidateId[msg.sender] */\n      0x00\n        /* \"Lab11/contracts/Voting.sol\":1200:1210  msg.sender */\n      caller\n        /* \"Lab11/contracts/Voting.sol\":1188:1211  candidateId[msg.sender] */\n      0xffffffffffffffffffffffffffffffffffffffff\n      and\n      0xffffffffffffffffffffffffffffffffffffffff\n      and\n      dup2\n      mstore\n      0x20\n      add\n      swap1\n      dup2\n      mstore\n      0x20\n      add\n      0x00\n      keccak256\n      sload\n        /* \"Lab11/contracts/Voting.sol\":1188:1215  candidateId[msg.sender] > 0 */\n      gt\n        /* \"Lab11/contracts/Voting.sol\":1180:1258  require(candidateId[msg.sender] > 0, \"Only candidate can whitelist the voter\") */\n      tag_111\n      jumpi\n      mload(0x40)\n      0x08c379a000000000000000000000000000000000000000000000000000000000\n      dup2\n      mstore\n      0x04\n      add\n      tag_112\n      swap1\n      tag_113\n      jump\t// in\n    tag_112:\n      mload(0x40)\n      dup1\n      swap2\n      sub\n      swap1\n      revert\n    tag_111:\n        /* \"Lab11/contracts/Voting.sol\":1291:1292  0 */\n      0x00\n        /* \"Lab11/contracts/Voting.sol\":1272:1279  voterId */\n      0x03\n        /* \"Lab11/contracts/Voting.sol\":1272:1287  voterId[_voter] */\n      0x00\n        /* \"Lab11/contracts/Voting.sol\":1280:1286  _voter */\n      dup4\n        /* \"Lab11/contracts/Voting.sol\":1272:1287  voterId[_voter] */\n      0xffffffffffffffffffffffffffffffffffffffff\n      and\n      0xffffffffffffffffffffffffffffffffffffffff\n      and\n      dup2\n      mstore\n      0x20\n      add\n      swap1\n      dup2\n      mstore\n      0x20\n      add\n      0x00\n      keccak256\n      sload\n        /* \"Lab11/contracts/Voting.sol\":1272:1292  voterId[_voter] == 0 */\n      sub\n        /* \"Lab11/contracts/Voting.sol\":1269:1515  if(voterId[_voter] == 0) {... */\n      tag_114\n      jumpi\n        /* \"Lab11/contracts/Voting.sol\":1356:1362  voters */\n      0x07\n        /* \"Lab11/contracts/Voting.sol\":1368:1431  Voter(_voter, false, false, 0, new address[](numCandidates), 0) */\n      mload(0x40)\n      dup1\n      0xc0\n      add\n      0x40\n      mstore\n      dup1\n        /* \"Lab11/contracts/Voting.sol\":1374:1380  _voter */\n      dup4\n        /* \"Lab11/contracts/Voting.sol\":1368:1431  Voter(_voter, false, false, 0, new address[](numCandidates), 0) */\n      0xffffffffffffffffffffffffffffffffffffffff\n      and\n      dup2\n      mstore\n      0x20\n      add\n        /* \"Lab11/contracts/Voting.sol\":1382:1387  false */\n      0x00\n        /* \"Lab11/contracts/Voting.sol\":1368:1431  Voter(_voter, false, false, 0, new address[](numCandidates), 0) */\n      iszero\n      iszero\n      dup2\n      mstore\n      0x20\n      add\n        /* \"Lab11/contracts/Voting.sol\":1389:1394  false */\n      0x00\n        /* \"Lab11/contracts/Voting.sol\":1368:1431  Voter(_voter, false, false, 0, new address[](numCandidates), 0) */\n      iszero\n      iszero\n      dup2\n      mstore\n      0x20\n      add\n        /* \"Lab11/contracts/Voting.sol\":1396:1397  0 */\n      0x00\n        /* \"Lab11/contracts/Voting.sol\":1368:1431  Voter(_voter, false, false, 0, new address[](numCandidates), 0) */\n      dup2\n      mstore\n      0x20\n      add\n        /* \"Lab11/contracts/Voting.sol\":1413:1426  numCandidates */\n      sload(0x00)\n        /* \"Lab11/contracts/Voting.sol\":1399:1427  new address[](numCandidates) */\n      0xffffffffffffffff\n      dup2\n      gt\n      iszero\n      tag_115\n      jumpi\n      tag_116\n      tag_98\n      jump\t// in\n    tag_116:\n    tag_115:\n      mload(0x40)\n      swap1\n      dup1\n      dup3\n      mstore\n      dup1\n      0x20\n      mul\n      0x20\n      add\n      dup3\n      add\n      0x40\n      mstore\n      dup1\n      iszero\n      tag_117\n      jumpi\n      dup2\n      0x20\n      add\n      0x20\n      dup3\n      mul\n      dup1\n      calldatasize\n      dup4\n      calldatacopy\n      dup1\n      dup3\n      add\n      swap2\n      pop\n      pop\n      swap1\n      pop\n    tag_117:\n      pop\n        /* \"Lab11/contracts/Voting.sol\":1368:1431  Voter(_voter, false, false, 0, new address[](numCandidates), 0) */\n      dup2\n      mstore\n      0x20\n      add\n        /* \"Lab11/contracts/Voting.sol\":1429:1430  0 */\n      0x00\n        /* \"Lab11/contracts/Voting.sol\":1368:1431  Voter(_voter, false, false, 0, new address[](numCandidates), 0) */\n      dup2\n      mstore\n      pop\n        /* \"Lab11/contracts/Voting.sol\":1356:1432  voters.push(Voter(_voter, false, false, 0, new address[](numCandidates), 0)) */\n      swap1\n      dup1\n      0x01\n      dup2\n      sload\n      add\n      dup1\n      dup3\n      sstore\n      dup1\n      swap2\n      pop\n      pop\n      0x01\n      swap1\n      sub\n      swap1\n      0x00\n      mstore\n      keccak256(0x00, 0x20)\n      swap1\n      0x04\n      mul\n      add\n      0x00\n      swap1\n      swap2\n      swap1\n      swap2\n      swap1\n      swap2\n      pop\n      0x00\n      dup3\n      add\n      mload\n      dup2\n      0x00\n      add\n      exp(0x0100, 0x00)\n      dup2\n      sload\n      dup2\n      0xffffffffffffffffffffffffffffffffffffffff\n      mul\n      not\n      and\n      swap1\n      dup4\n      0xffffffffffffffffffffffffffffffffffffffff\n      and\n      mul\n      or\n      swap1\n      sstore\n      pop\n      0x20\n      dup3\n      add\n      mload\n      dup2\n      0x00\n      add\n      exp(0x0100, 0x14)\n      dup2\n      sload\n      dup2\n      0xff\n      mul\n      not\n      and\n      swap1\n      dup4\n      iszero\n      iszero\n      mul\n      or\n      swap1\n      sstore\n      pop\n      0x40\n      dup3\n      add\n      mload\n      dup2\n      0x00\n      add\n      exp(0x0100, 0x15)\n      dup2\n      sload\n      dup2\n      0xff\n      mul\n      not\n      and\n      swap1\n      dup4\n      iszero\n      iszero\n      mul\n      or\n      swap1\n      sstore\n      pop\n      0x60\n      dup3\n      add\n      mload\n      dup2\n      0x01\n      add\n      sstore\n      0x80\n      dup3\n      add\n      mload\n      dup2\n      0x02\n      add\n      swap1\n      dup1\n      mload\n      swap1\n      0x20\n      add\n      swap1\n      tag_119\n      swap3\n      swap2\n      swap1\n      tag_120\n      jump\t// in\n    tag_119:\n      pop\n      0xa0\n      dup3\n      add\n      mload\n      dup2\n      0x03\n      add\n      sstore\n      pop\n      pop\n        /* \"Lab11/contracts/Voting.sol\":1460:1461  1 */\n      0x01\n        /* \"Lab11/contracts/Voting.sol\":1447:1456  numVoters */\n      dup1\n      0x00\n        /* \"Lab11/contracts/Voting.sol\":1447:1461  numVoters += 1 */\n      dup3\n      dup3\n      sload\n      tag_121\n      swap2\n      swap1\n      tag_61\n      jump\t// in\n    tag_121:\n      swap3\n      pop\n      pop\n      dup2\n      swap1\n      sstore\n      pop\n        /* \"Lab11/contracts/Voting.sol\":1494:1503  numVoters */\n      sload(0x01)\n        /* \"Lab11/contracts/Voting.sol\":1476:1483  voterId */\n      0x03\n        /* \"Lab11/contracts/Voting.sol\":1476:1491  voterId[_voter] */\n      0x00\n        /* \"Lab11/contracts/Voting.sol\":1484:1490  _voter */\n      dup4\n        /* \"Lab11/contracts/Voting.sol\":1476:1491  voterId[_voter] */\n      0xffffffffffffffffffffffffffffffffffffffff\n      and\n      0xffffffffffffffffffffffffffffffffffffffff\n      and\n      dup2\n      mstore\n      0x20\n      add\n      swap1\n      dup2\n      mstore\n      0x20\n      add\n      0x00\n      keccak256\n        /* \"Lab11/contracts/Voting.sol\":1476:1503  voterId[_voter] = numVoters */\n      dup2\n      swap1\n      sstore\n      pop\n        /* \"Lab11/contracts/Voting.sol\":1269:1515  if(voterId[_voter] == 0) {... */\n    tag_114:\n        /* \"Lab11/contracts/Voting.sol\":1525:1544  Voter storage voter */\n      0x00\n        /* \"Lab11/contracts/Voting.sol\":1547:1553  voters */\n      0x07\n        /* \"Lab11/contracts/Voting.sol\":1572:1573  1 */\n      0x01\n        /* \"Lab11/contracts/Voting.sol\":1554:1561  voterId */\n      0x03\n        /* \"Lab11/contracts/Voting.sol\":1554:1569  voterId[_voter] */\n      0x00\n        /* \"Lab11/contracts/Voting.sol\":1562:1568  _voter */\n      dup6\n        /* \"Lab11/contracts/Voting.sol\":1554:1569  voterId[_voter] */\n      0xffffffffffffffffffffffffffffffffffffffff\n      and\n      0xffffffffffffffffffffffffffffffffffffffff\n      and\n      dup2\n      mstore\n      0x20\n      add\n      swap1\n      dup2\n      mstore\n      0x20\n      add\n      0x00\n      keccak256\n      sload\n        /* \"Lab11/contracts/Voting.sol\":1554:1573  voterId[_voter] - 1 */\n      tag_122\n      swap2\n      swap1\n      tag_45\n      jump\t// in\n    tag_122:\n        /* \"Lab11/contracts/Voting.sol\":1547:1574  voters[voterId[_voter] - 1] */\n      dup2\n      sload\n      dup2\n      lt\n      tag_123\n      jumpi\n      tag_124\n      tag_48\n      jump\t// in\n    tag_124:\n    tag_123:\n      swap1\n      0x00\n      mstore\n      keccak256(0x00, 0x20)\n      swap1\n      0x04\n      mul\n      add\n        /* \"Lab11/contracts/Voting.sol\":1525:1574  Voter storage voter = voters[voterId[_voter] - 1] */\n      swap1\n      pop\n        /* \"Lab11/contracts/Voting.sol\":1594:1599  voter */\n      dup1\n        /* \"Lab11/contracts/Voting.sol\":1594:1608  voter.eligible */\n      0x00\n      add\n      0x14\n      swap1\n      sload\n      swap1\n      0x0100\n      exp\n      swap1\n      div\n      0xff\n      and\n        /* \"Lab11/contracts/Voting.sol\":1593:1608  !voter.eligible */\n      iszero\n        /* \"Lab11/contracts/Voting.sol\":1585:1646  require(!voter.eligible, \"Voter is already eligible to vote\") */\n      tag_126\n      jumpi\n      mload(0x40)\n      0x08c379a000000000000000000000000000000000000000000000000000000000\n      dup2\n      mstore\n      0x04\n      add\n      tag_127\n      swap1\n      tag_128\n      jump\t// in\n    tag_127:\n      mload(0x40)\n      dup1\n      swap2\n      sub\n      swap1\n      revert\n    tag_126:\n        /* \"Lab11/contracts/Voting.sol\":1661:1667  uint i */\n      0x00\n        /* \"Lab11/contracts/Voting.sol\":1657:1822  for(uint i = 0; i < voter.whitelistCount; i ++) {... */\n    tag_129:\n        /* \"Lab11/contracts/Voting.sol\":1677:1682  voter */\n      dup2\n        /* \"Lab11/contracts/Voting.sol\":1677:1697  voter.whitelistCount */\n      0x03\n      add\n      sload\n        /* \"Lab11/contracts/Voting.sol\":1673:1674  i */\n      dup2\n        /* \"Lab11/contracts/Voting.sol\":1673:1697  i < voter.whitelistCount */\n      lt\n        /* \"Lab11/contracts/Voting.sol\":1657:1822  for(uint i = 0; i < voter.whitelistCount; i ++) {... */\n      iszero\n      tag_130\n      jumpi\n        /* \"Lab11/contracts/Voting.sol\":1742:1747  voter */\n      dup2\n        /* \"Lab11/contracts/Voting.sol\":1742:1761  voter.whitelistedBy */\n      0x02\n      add\n        /* \"Lab11/contracts/Voting.sol\":1762:1763  i */\n      dup2\n        /* \"Lab11/contracts/Voting.sol\":1742:1764  voter.whitelistedBy[i] */\n      dup2\n      sload\n      dup2\n      lt\n      tag_132\n      jumpi\n      tag_133\n      tag_48\n      jump\t// in\n    tag_133:\n    tag_132:\n      swap1\n      0x00\n      mstore\n      keccak256(0x00, 0x20)\n      add\n      0x00\n      swap1\n      sload\n      swap1\n      0x0100\n      exp\n      swap1\n      div\n      0xffffffffffffffffffffffffffffffffffffffff\n      and\n        /* \"Lab11/contracts/Voting.sol\":1728:1764  msg.sender != voter.whitelistedBy[i] */\n      0xffffffffffffffffffffffffffffffffffffffff\n      and\n        /* \"Lab11/contracts/Voting.sol\":1728:1738  msg.sender */\n      caller\n        /* \"Lab11/contracts/Voting.sol\":1728:1764  msg.sender != voter.whitelistedBy[i] */\n      0xffffffffffffffffffffffffffffffffffffffff\n      and\n      sub\n        /* \"Lab11/contracts/Voting.sol\":1720:1810  require(msg.sender != voter.whitelistedBy[i], \"Voter has already been whitelisted by you\") */\n      tag_135\n      jumpi\n      mload(0x40)\n      0x08c379a000000000000000000000000000000000000000000000000000000000\n      dup2\n      mstore\n      0x04\n      add\n      tag_136\n      swap1\n      tag_137\n      jump\t// in\n    tag_136:\n      mload(0x40)\n      dup1\n      swap2\n      sub\n      swap1\n      revert\n    tag_135:\n        /* \"Lab11/contracts/Voting.sol\":1699:1703  i ++ */\n      dup1\n      dup1\n      0x01\n      add\n      swap2\n      pop\n      pop\n        /* \"Lab11/contracts/Voting.sol\":1657:1822  for(uint i = 0; i < voter.whitelistCount; i ++) {... */\n      jump(tag_129)\n    tag_130:\n      pop\n        /* \"Lab11/contracts/Voting.sol\":1876:1886  msg.sender */\n      caller\n        /* \"Lab11/contracts/Voting.sol\":1832:1837  voter */\n      dup2\n        /* \"Lab11/contracts/Voting.sol\":1832:1851  voter.whitelistedBy */\n      0x02\n      add\n        /* \"Lab11/contracts/Voting.sol\":1852:1857  voter */\n      dup3\n        /* \"Lab11/contracts/Voting.sol\":1852:1872  voter.whitelistCount */\n      0x03\n      add\n      sload\n        /* \"Lab11/contracts/Voting.sol\":1832:1873  voter.whitelistedBy[voter.whitelistCount] */\n      dup2\n      sload\n      dup2\n      lt\n      tag_138\n      jumpi\n      tag_139\n      tag_48\n      jump\t// in\n    tag_139:\n    tag_138:\n      swap1\n      0x00\n      mstore\n      keccak256(0x00, 0x20)\n      add\n      0x00\n        /* \"Lab11/contracts/Voting.sol\":1832:1886  voter.whitelistedBy[voter.whitelistCount] = msg.sender */\n      0x0100\n      exp\n      dup2\n      sload\n      dup2\n      0xffffffffffffffffffffffffffffffffffffffff\n      mul\n      not\n      and\n      swap1\n      dup4\n      0xffffffffffffffffffffffffffffffffffffffff\n      and\n      mul\n      or\n      swap1\n      sstore\n      pop\n        /* \"Lab11/contracts/Voting.sol\":1921:1922  1 */\n      0x01\n        /* \"Lab11/contracts/Voting.sol\":1897:1902  voter */\n      dup2\n        /* \"Lab11/contracts/Voting.sol\":1897:1917  voter.whitelistCount */\n      0x03\n      add\n      0x00\n        /* \"Lab11/contracts/Voting.sol\":1897:1922  voter.whitelistCount += 1 */\n      dup3\n      dup3\n      sload\n      tag_141\n      swap2\n      swap1\n      tag_61\n      jump\t// in\n    tag_141:\n      swap3\n      pop\n      pop\n      dup2\n      swap1\n      sstore\n      pop\n        /* \"Lab11/contracts/Voting.sol\":1961:1974  numCandidates */\n      sload(0x00)\n        /* \"Lab11/contracts/Voting.sol\":1937:1942  voter */\n      dup2\n        /* \"Lab11/contracts/Voting.sol\":1937:1957  voter.whitelistCount */\n      0x03\n      add\n      sload\n        /* \"Lab11/contracts/Voting.sol\":1937:1974  voter.whitelistCount == numCandidates */\n      sub\n        /* \"Lab11/contracts/Voting.sol\":1933:2024  if (voter.whitelistCount == numCandidates) {... */\n      tag_142\n      jumpi\n        /* \"Lab11/contracts/Voting.sol\":2008:2012  true */\n      0x01\n        /* \"Lab11/contracts/Voting.sol\":1991:1996  voter */\n      dup2\n        /* \"Lab11/contracts/Voting.sol\":1991:2005  voter.eligible */\n      0x00\n      add\n      0x14\n        /* \"Lab11/contracts/Voting.sol\":1991:2012  voter.eligible = true */\n      0x0100\n      exp\n      dup2\n      sload\n      dup2\n      0xff\n      mul\n      not\n      and\n      swap1\n      dup4\n      iszero\n      iszero\n      mul\n      or\n      swap1\n      sstore\n      pop\n        /* \"Lab11/contracts/Voting.sol\":1933:2024  if (voter.whitelistCount == numCandidates) {... */\n    tag_142:\n        /* \"Lab11/contracts/Voting.sol\":1107:2031  {... */\n      pop\n        /* \"Lab11/contracts/Voting.sol\":1058:2031  function whitelistVoter(address _voter) external {... */\n      pop\n      jump\t// out\n        /* \"Lab11/contracts/Voting.sol\":4316:4493  function getWinningCandidate() public view returns (address) {... */\n    tag_29:\n        /* \"Lab11/contracts/Voting.sol\":4368:4375  address */\n      0x00\n        /* \"Lab11/contracts/Voting.sol\":4396:4404  finished */\n      0x05\n      0x00\n      swap1\n      sload\n      swap1\n      0x0100\n      exp\n      swap1\n      div\n      0xff\n      and\n        /* \"Lab11/contracts/Voting.sol\":4388:4438  require(finished, \"The election is still running\") */\n      tag_144\n      jumpi\n      mload(0x40)\n      0x08c379a000000000000000000000000000000000000000000000000000000000\n      dup2\n      mstore\n      0x04\n      add\n      tag_145\n      swap1\n      tag_146\n      jump\t// in\n    tag_145:\n      mload(0x40)\n      dup1\n      swap2\n      sub\n      swap1\n      revert\n    tag_144:\n        /* \"Lab11/contracts/Voting.sol\":4456:4466  candidates */\n      0x06\n        /* \"Lab11/contracts/Voting.sol\":4478:4479  1 */\n      0x01\n        /* \"Lab11/contracts/Voting.sol\":4467:4475  winnerId */\n      sload(0x04)\n        /* \"Lab11/contracts/Voting.sol\":4467:4479  winnerId - 1 */\n      tag_147\n      swap2\n      swap1\n      tag_45\n      jump\t// in\n    tag_147:\n        /* \"Lab11/contracts/Voting.sol\":4456:4480  candidates[winnerId - 1] */\n      dup2\n      sload\n      dup2\n      lt\n      tag_148\n      jumpi\n      tag_149\n      tag_48\n      jump\t// in\n    tag_149:\n    tag_148:\n      swap1\n      0x00\n      mstore\n      keccak256(0x00, 0x20)\n      swap1\n      0x02\n      mul\n      add\n        /* \"Lab11/contracts/Voting.sol\":4456:4485  candidates[winnerId - 1].addr */\n      0x00\n      add\n      0x00\n      swap1\n      sload\n      swap1\n      0x0100\n      exp\n      swap1\n      div\n      0xffffffffffffffffffffffffffffffffffffffff\n      and\n        /* \"Lab11/contracts/Voting.sol\":4449:4485  return candidates[winnerId - 1].addr */\n      swap1\n      pop\n        /* \"Lab11/contracts/Voting.sol\":4316:4493  function getWinningCandidate() public view returns (address) {... */\n      swap1\n      jump\t// out\n    tag_120:\n      dup3\n      dup1\n      sload\n      dup3\n      dup3\n      sstore\n      swap1\n      0x00\n      mstore\n      keccak256(0x00, 0x20)\n      swap1\n      dup2\n      add\n      swap3\n      dup3\n      iszero\n      tag_151\n      jumpi\n      swap2\n      0x20\n      mul\n      dup3\n      add\n    tag_152:\n      dup3\n      dup2\n      gt\n      iszero\n      tag_153\n      jumpi\n      dup3\n      mload\n      dup3\n      exp(0x0100, 0x00)\n      dup2\n      sload\n      dup2\n      0xffffffffffffffffffffffffffffffffffffffff\n      mul\n      not\n      and\n      swap1\n      dup4\n      0xffffffffffffffffffffffffffffffffffffffff\n      and\n      mul\n      or\n      swap1\n      sstore\n      pop\n      swap2\n      0x20\n      add\n      swap2\n      swap1\n      0x01\n      add\n      swap1\n      jump(tag_152)\n    tag_153:\n    tag_151:\n      pop\n      swap1\n      pop\n      tag_154\n      swap2\n      swap1\n      tag_155\n      jump\t// in\n    tag_154:\n      pop\n      swap1\n      jump\t// out\n    tag_155:\n    tag_156:\n      dup1\n      dup3\n      gt\n      iszero\n      tag_157\n      jumpi\n      0x00\n      dup2\n      0x00\n      swap1\n      sstore\n      pop\n      0x01\n      add\n      jump(tag_156)\n    tag_157:\n      pop\n      swap1\n      jump\t// out\n        /* \"#utility.yul\":88:205   */\n    tag_159:\n        /* \"#utility.yul\":197:198   */\n      0x00\n        /* \"#utility.yul\":194:195   */\n      dup1\n        /* \"#utility.yul\":187:199   */\n      revert\n        /* \"#utility.yul\":334:460   */\n    tag_161:\n        /* \"#utility.yul\":371:378   */\n      0x00\n        /* \"#utility.yul\":411:453   */\n      0xffffffffffffffffffffffffffffffffffffffff\n        /* \"#utility.yul\":404:409   */\n      dup3\n        /* \"#utility.yul\":400:454   */\n      and\n        /* \"#utility.yul\":389:454   */\n      swap1\n      pop\n        /* \"#utility.yul\":334:460   */\n      swap2\n      swap1\n      pop\n      jump\t// out\n        /* \"#utility.yul\":466:562   */\n    tag_162:\n        /* \"#utility.yul\":503:510   */\n      0x00\n        /* \"#utility.yul\":532:556   */\n      tag_212\n        /* \"#utility.yul\":550:555   */\n      dup3\n        /* \"#utility.yul\":532:556   */\n      tag_161\n      jump\t// in\n    tag_212:\n        /* \"#utility.yul\":521:556   */\n      swap1\n      pop\n        /* \"#utility.yul\":466:562   */\n      swap2\n      swap1\n      pop\n      jump\t// out\n        /* \"#utility.yul\":568:690   */\n    tag_163:\n        /* \"#utility.yul\":641:665   */\n      tag_214\n        /* \"#utility.yul\":659:664   */\n      dup2\n        /* \"#utility.yul\":641:665   */\n      tag_162\n      jump\t// in\n    tag_214:\n        /* \"#utility.yul\":634:639   */\n      dup2\n        /* \"#utility.yul\":631:666   */\n      eq\n        /* \"#utility.yul\":621:684   */\n      tag_215\n      jumpi\n        /* \"#utility.yul\":680:681   */\n      0x00\n        /* \"#utility.yul\":677:678   */\n      dup1\n        /* \"#utility.yul\":670:682   */\n      revert\n        /* \"#utility.yul\":621:684   */\n    tag_215:\n        /* \"#utility.yul\":568:690   */\n      pop\n      jump\t// out\n        /* \"#utility.yul\":696:835   */\n    tag_164:\n        /* \"#utility.yul\":742:747   */\n      0x00\n        /* \"#utility.yul\":780:786   */\n      dup2\n        /* \"#utility.yul\":767:787   */\n      calldataload\n        /* \"#utility.yul\":758:787   */\n      swap1\n      pop\n        /* \"#utility.yul\":796:829   */\n      tag_217\n        /* \"#utility.yul\":823:828   */\n      dup2\n        /* \"#utility.yul\":796:829   */\n      tag_163\n      jump\t// in\n    tag_217:\n        /* \"#utility.yul\":696:835   */\n      swap3\n      swap2\n      pop\n      pop\n      jump\t// out\n        /* \"#utility.yul\":841:1170   */\n    tag_11:\n        /* \"#utility.yul\":900:906   */\n      0x00\n        /* \"#utility.yul\":949:951   */\n      0x20\n        /* \"#utility.yul\":937:946   */\n      dup3\n        /* \"#utility.yul\":928:935   */\n      dup5\n        /* \"#utility.yul\":924:947   */\n      sub\n        /* \"#utility.yul\":920:952   */\n      slt\n        /* \"#utility.yul\":917:1036   */\n      iszero\n      tag_219\n      jumpi\n        /* \"#utility.yul\":955:1034   */\n      tag_220\n      tag_159\n      jump\t// in\n    tag_220:\n        /* \"#utility.yul\":917:1036   */\n    tag_219:\n        /* \"#utility.yul\":1075:1076   */\n      0x00\n        /* \"#utility.yul\":1100:1153   */\n      tag_221\n        /* \"#utility.yul\":1145:1152   */\n      dup5\n        /* \"#utility.yul\":1136:1142   */\n      dup3\n        /* \"#utility.yul\":1125:1134   */\n      dup6\n        /* \"#utility.yul\":1121:1143   */\n      add\n        /* \"#utility.yul\":1100:1153   */\n      tag_164\n      jump\t// in\n    tag_221:\n        /* \"#utility.yul\":1090:1153   */\n      swap2\n      pop\n        /* \"#utility.yul\":1046:1163   */\n      pop\n        /* \"#utility.yul\":841:1170   */\n      swap3\n      swap2\n      pop\n      pop\n      jump\t// out\n        /* \"#utility.yul\":1176:1253   */\n    tag_165:\n        /* \"#utility.yul\":1213:1220   */\n      0x00\n        /* \"#utility.yul\":1242:1247   */\n      dup2\n        /* \"#utility.yul\":1231:1247   */\n      swap1\n      pop\n        /* \"#utility.yul\":1176:1253   */\n      swap2\n      swap1\n      pop\n      jump\t// out\n        /* \"#utility.yul\":1259:1381   */\n    tag_166:\n        /* \"#utility.yul\":1332:1356   */\n      tag_224\n        /* \"#utility.yul\":1350:1355   */\n      dup2\n        /* \"#utility.yul\":1332:1356   */\n      tag_165\n      jump\t// in\n    tag_224:\n        /* \"#utility.yul\":1325:1330   */\n      dup2\n        /* \"#utility.yul\":1322:1357   */\n      eq\n        /* \"#utility.yul\":1312:1375   */\n      tag_225\n      jumpi\n        /* \"#utility.yul\":1371:1372   */\n      0x00\n        /* \"#utility.yul\":1368:1369   */\n      dup1\n        /* \"#utility.yul\":1361:1373   */\n      revert\n        /* \"#utility.yul\":1312:1375   */\n    tag_225:\n        /* \"#utility.yul\":1259:1381   */\n      pop\n      jump\t// out\n        /* \"#utility.yul\":1387:1526   */\n    tag_167:\n        /* \"#utility.yul\":1433:1438   */\n      0x00\n        /* \"#utility.yul\":1471:1477   */\n      dup2\n        /* \"#utility.yul\":1458:1478   */\n      calldataload\n        /* \"#utility.yul\":1449:1478   */\n      swap1\n      pop\n        /* \"#utility.yul\":1487:1520   */\n      tag_227\n        /* \"#utility.yul\":1514:1519   */\n      dup2\n        /* \"#utility.yul\":1487:1520   */\n      tag_166\n      jump\t// in\n    tag_227:\n        /* \"#utility.yul\":1387:1526   */\n      swap3\n      swap2\n      pop\n      pop\n      jump\t// out\n        /* \"#utility.yul\":1532:1861   */\n    tag_15:\n        /* \"#utility.yul\":1591:1597   */\n      0x00\n        /* \"#utility.yul\":1640:1642   */\n      0x20\n        /* \"#utility.yul\":1628:1637   */\n      dup3\n        /* \"#utility.yul\":1619:1626   */\n      dup5\n        /* \"#utility.yul\":1615:1638   */\n      sub\n        /* \"#utility.yul\":1611:1643   */\n      slt\n        /* \"#utility.yul\":1608:1727   */\n      iszero\n      tag_229\n      jumpi\n        /* \"#utility.yul\":1646:1725   */\n      tag_230\n      tag_159\n      jump\t// in\n    tag_230:\n        /* \"#utility.yul\":1608:1727   */\n    tag_229:\n        /* \"#utility.yul\":1766:1767   */\n      0x00\n        /* \"#utility.yul\":1791:1844   */\n      tag_231\n        /* \"#utility.yul\":1836:1843   */\n      dup5\n        /* \"#utility.yul\":1827:1833   */\n      dup3\n        /* \"#utility.yul\":1816:1825   */\n      dup6\n        /* \"#utility.yul\":1812:1834   */\n      add\n        /* \"#utility.yul\":1791:1844   */\n      tag_167\n      jump\t// in\n    tag_231:\n        /* \"#utility.yul\":1781:1844   */\n      swap2\n      pop\n        /* \"#utility.yul\":1737:1854   */\n      pop\n        /* \"#utility.yul\":1532:1861   */\n      swap3\n      swap2\n      pop\n      pop\n      jump\t// out\n        /* \"#utility.yul\":1867:1985   */\n    tag_168:\n        /* \"#utility.yul\":1954:1978   */\n      tag_233\n        /* \"#utility.yul\":1972:1977   */\n      dup2\n        /* \"#utility.yul\":1954:1978   */\n      tag_162\n      jump\t// in\n    tag_233:\n        /* \"#utility.yul\":1949:1952   */\n      dup3\n        /* \"#utility.yul\":1942:1979   */\n      mstore\n        /* \"#utility.yul\":1867:1985   */\n      pop\n      pop\n      jump\t// out\n        /* \"#utility.yul\":1991:2213   */\n    tag_18:\n        /* \"#utility.yul\":2084:2088   */\n      0x00\n        /* \"#utility.yul\":2122:2124   */\n      0x20\n        /* \"#utility.yul\":2111:2120   */\n      dup3\n        /* \"#utility.yul\":2107:2125   */\n      add\n        /* \"#utility.yul\":2099:2125   */\n      swap1\n      pop\n        /* \"#utility.yul\":2135:2206   */\n      tag_235\n        /* \"#utility.yul\":2203:2204   */\n      0x00\n        /* \"#utility.yul\":2192:2201   */\n      dup4\n        /* \"#utility.yul\":2188:2205   */\n      add\n        /* \"#utility.yul\":2179:2185   */\n      dup5\n        /* \"#utility.yul\":2135:2206   */\n      tag_168\n      jump\t// in\n    tag_235:\n        /* \"#utility.yul\":1991:2213   */\n      swap3\n      swap2\n      pop\n      pop\n      jump\t// out\n        /* \"#utility.yul\":2219:2333   */\n    tag_169:\n        /* \"#utility.yul\":2286:2292   */\n      0x00\n        /* \"#utility.yul\":2320:2325   */\n      dup2\n        /* \"#utility.yul\":2314:2326   */\n      mload\n        /* \"#utility.yul\":2304:2326   */\n      swap1\n      pop\n        /* \"#utility.yul\":2219:2333   */\n      swap2\n      swap1\n      pop\n      jump\t// out\n        /* \"#utility.yul\":2339:2523   */\n    tag_170:\n        /* \"#utility.yul\":2438:2449   */\n      0x00\n        /* \"#utility.yul\":2472:2478   */\n      dup3\n        /* \"#utility.yul\":2467:2470   */\n      dup3\n        /* \"#utility.yul\":2460:2479   */\n      mstore\n        /* \"#utility.yul\":2512:2516   */\n      0x20\n        /* \"#utility.yul\":2507:2510   */\n      dup3\n        /* \"#utility.yul\":2503:2517   */\n      add\n        /* \"#utility.yul\":2488:2517   */\n      swap1\n      pop\n        /* \"#utility.yul\":2339:2523   */\n      swap3\n      swap2\n      pop\n      pop\n      jump\t// out\n        /* \"#utility.yul\":2529:2661   */\n    tag_171:\n        /* \"#utility.yul\":2596:2600   */\n      0x00\n        /* \"#utility.yul\":2619:2622   */\n      dup2\n        /* \"#utility.yul\":2611:2622   */\n      swap1\n      pop\n        /* \"#utility.yul\":2649:2653   */\n      0x20\n        /* \"#utility.yul\":2644:2647   */\n      dup3\n        /* \"#utility.yul\":2640:2654   */\n      add\n        /* \"#utility.yul\":2632:2654   */\n      swap1\n      pop\n        /* \"#utility.yul\":2529:2661   */\n      swap2\n      swap1\n      pop\n      jump\t// out\n        /* \"#utility.yul\":2667:2775   */\n    tag_172:\n        /* \"#utility.yul\":2744:2768   */\n      tag_240\n        /* \"#utility.yul\":2762:2767   */\n      dup2\n        /* \"#utility.yul\":2744:2768   */\n      tag_162\n      jump\t// in\n    tag_240:\n        /* \"#utility.yul\":2739:2742   */\n      dup3\n        /* \"#utility.yul\":2732:2769   */\n      mstore\n        /* \"#utility.yul\":2667:2775   */\n      pop\n      pop\n      jump\t// out\n        /* \"#utility.yul\":2781:2960   */\n    tag_173:\n        /* \"#utility.yul\":2850:2860   */\n      0x00\n        /* \"#utility.yul\":2871:2917   */\n      tag_242\n        /* \"#utility.yul\":2913:2916   */\n      dup4\n        /* \"#utility.yul\":2905:2911   */\n      dup4\n        /* \"#utility.yul\":2871:2917   */\n      tag_172\n      jump\t// in\n    tag_242:\n        /* \"#utility.yul\":2949:2953   */\n      0x20\n        /* \"#utility.yul\":2944:2947   */\n      dup4\n        /* \"#utility.yul\":2940:2954   */\n      add\n        /* \"#utility.yul\":2926:2954   */\n      swap1\n      pop\n        /* \"#utility.yul\":2781:2960   */\n      swap3\n      swap2\n      pop\n      pop\n      jump\t// out\n        /* \"#utility.yul\":2966:3079   */\n    tag_174:\n        /* \"#utility.yul\":3036:3040   */\n      0x00\n        /* \"#utility.yul\":3068:3072   */\n      0x20\n        /* \"#utility.yul\":3063:3066   */\n      dup3\n        /* \"#utility.yul\":3059:3073   */\n      add\n        /* \"#utility.yul\":3051:3073   */\n      swap1\n      pop\n        /* \"#utility.yul\":2966:3079   */\n      swap2\n      swap1\n      pop\n      jump\t// out\n        /* \"#utility.yul\":3115:3847   */\n    tag_175:\n        /* \"#utility.yul\":3234:3237   */\n      0x00\n        /* \"#utility.yul\":3263:3317   */\n      tag_245\n        /* \"#utility.yul\":3311:3316   */\n      dup3\n        /* \"#utility.yul\":3263:3317   */\n      tag_169\n      jump\t// in\n    tag_245:\n        /* \"#utility.yul\":3333:3419   */\n      tag_246\n        /* \"#utility.yul\":3412:3418   */\n      dup2\n        /* \"#utility.yul\":3407:3410   */\n      dup6\n        /* \"#utility.yul\":3333:3419   */\n      tag_170\n      jump\t// in\n    tag_246:\n        /* \"#utility.yul\":3326:3419   */\n      swap4\n      pop\n        /* \"#utility.yul\":3443:3499   */\n      tag_247\n        /* \"#utility.yul\":3493:3498   */\n      dup4\n        /* \"#utility.yul\":3443:3499   */\n      tag_171\n      jump\t// in\n    tag_247:\n        /* \"#utility.yul\":3522:3529   */\n      dup1\n        /* \"#utility.yul\":3553:3554   */\n      0x00\n        /* \"#utility.yul\":3538:3822   */\n    tag_248:\n        /* \"#utility.yul\":3563:3569   */\n      dup4\n        /* \"#utility.yul\":3560:3561   */\n      dup2\n        /* \"#utility.yul\":3557:3570   */\n      lt\n        /* \"#utility.yul\":3538:3822   */\n      iszero\n      tag_250\n      jumpi\n        /* \"#utility.yul\":3639:3645   */\n      dup2\n        /* \"#utility.yul\":3633:3646   */\n      mload\n        /* \"#utility.yul\":3666:3729   */\n      tag_251\n        /* \"#utility.yul\":3725:3728   */\n      dup9\n        /* \"#utility.yul\":3710:3723   */\n      dup3\n        /* \"#utility.yul\":3666:3729   */\n      tag_173\n      jump\t// in\n    tag_251:\n        /* \"#utility.yul\":3659:3729   */\n      swap8\n      pop\n        /* \"#utility.yul\":3752:3812   */\n      tag_252\n        /* \"#utility.yul\":3805:3811   */\n      dup4\n        /* \"#utility.yul\":3752:3812   */\n      tag_174\n      jump\t// in\n    tag_252:\n        /* \"#utility.yul\":3742:3812   */\n      swap3\n      pop\n        /* \"#utility.yul\":3598:3822   */\n      pop\n        /* \"#utility.yul\":3585:3586   */\n      0x01\n        /* \"#utility.yul\":3582:3583   */\n      dup2\n        /* \"#utility.yul\":3578:3587   */\n      add\n        /* \"#utility.yul\":3573:3587   */\n      swap1\n      pop\n        /* \"#utility.yul\":3538:3822   */\n      jump(tag_248)\n    tag_250:\n        /* \"#utility.yul\":3542:3556   */\n      pop\n        /* \"#utility.yul\":3838:3841   */\n      dup6\n        /* \"#utility.yul\":3831:3841   */\n      swap4\n      pop\n        /* \"#utility.yul\":3239:3847   */\n      pop\n      pop\n      pop\n        /* \"#utility.yul\":3115:3847   */\n      swap3\n      swap2\n      pop\n      pop\n      jump\t// out\n        /* \"#utility.yul\":3853:4226   */\n    tag_24:\n        /* \"#utility.yul\":3996:4000   */\n      0x00\n        /* \"#utility.yul\":4034:4036   */\n      0x20\n        /* \"#utility.yul\":4023:4032   */\n      dup3\n        /* \"#utility.yul\":4019:4037   */\n      add\n        /* \"#utility.yul\":4011:4037   */\n      swap1\n      pop\n        /* \"#utility.yul\":4083:4092   */\n      dup2\n        /* \"#utility.yul\":4077:4081   */\n      dup2\n        /* \"#utility.yul\":4073:4093   */\n      sub\n        /* \"#utility.yul\":4069:4070   */\n      0x00\n        /* \"#utility.yul\":4058:4067   */\n      dup4\n        /* \"#utility.yul\":4054:4071   */\n      add\n        /* \"#utility.yul\":4047:4094   */\n      mstore\n        /* \"#utility.yul\":4111:4219   */\n      tag_254\n        /* \"#utility.yul\":4214:4218   */\n      dup2\n        /* \"#utility.yul\":4205:4211   */\n      dup5\n        /* \"#utility.yul\":4111:4219   */\n      tag_175\n      jump\t// in\n    tag_254:\n        /* \"#utility.yul\":4103:4219   */\n      swap1\n      pop\n        /* \"#utility.yul\":3853:4226   */\n      swap3\n      swap2\n      pop\n      pop\n      jump\t// out\n        /* \"#utility.yul\":4232:4401   */\n    tag_176:\n        /* \"#utility.yul\":4316:4327   */\n      0x00\n        /* \"#utility.yul\":4350:4356   */\n      dup3\n        /* \"#utility.yul\":4345:4348   */\n      dup3\n        /* \"#utility.yul\":4338:4357   */\n      mstore\n        /* \"#utility.yul\":4390:4394   */\n      0x20\n        /* \"#utility.yul\":4385:4388   */\n      dup3\n        /* \"#utility.yul\":4381:4395   */\n      add\n        /* \"#utility.yul\":4366:4395   */\n      swap1\n      pop\n        /* \"#utility.yul\":4232:4401   */\n      swap3\n      swap2\n      pop\n      pop\n      jump\t// out\n        /* \"#utility.yul\":4407:4586   */\n    tag_177:\n        /* \"#utility.yul\":4547:4578   */\n      0x456c656374696f6e2068617320616c72656164792066696e6973686564000000\n        /* \"#utility.yul\":4543:4544   */\n      0x00\n        /* \"#utility.yul\":4535:4541   */\n      dup3\n        /* \"#utility.yul\":4531:4545   */\n      add\n        /* \"#utility.yul\":4524:4579   */\n      mstore\n        /* \"#utility.yul\":4407:4586   */\n      pop\n      jump\t// out\n        /* \"#utility.yul\":4592:4958   */\n    tag_178:\n        /* \"#utility.yul\":4734:4737   */\n      0x00\n        /* \"#utility.yul\":4755:4822   */\n      tag_258\n        /* \"#utility.yul\":4819:4821   */\n      0x1d\n        /* \"#utility.yul\":4814:4817   */\n      dup4\n        /* \"#utility.yul\":4755:4822   */\n      tag_176\n      jump\t// in\n    tag_258:\n        /* \"#utility.yul\":4748:4822   */\n      swap2\n      pop\n        /* \"#utility.yul\":4831:4924   */\n      tag_259\n        /* \"#utility.yul\":4920:4923   */\n      dup3\n        /* \"#utility.yul\":4831:4924   */\n      tag_177\n      jump\t// in\n    tag_259:\n        /* \"#utility.yul\":4949:4951   */\n      0x20\n        /* \"#utility.yul\":4944:4947   */\n      dup3\n        /* \"#utility.yul\":4940:4952   */\n      add\n        /* \"#utility.yul\":4933:4952   */\n      swap1\n      pop\n        /* \"#utility.yul\":4592:4958   */\n      swap2\n      swap1\n      pop\n      jump\t// out\n        /* \"#utility.yul\":4964:5383   */\n    tag_34:\n        /* \"#utility.yul\":5130:5134   */\n      0x00\n        /* \"#utility.yul\":5168:5170   */\n      0x20\n        /* \"#utility.yul\":5157:5166   */\n      dup3\n        /* \"#utility.yul\":5153:5171   */\n      add\n        /* \"#utility.yul\":5145:5171   */\n      swap1\n      pop\n        /* \"#utility.yul\":5217:5226   */\n      dup2\n        /* \"#utility.yul\":5211:5215   */\n      dup2\n        /* \"#utility.yul\":5207:5227   */\n      sub\n        /* \"#utility.yul\":5203:5204   */\n      0x00\n        /* \"#utility.yul\":5192:5201   */\n      dup4\n        /* \"#utility.yul\":5188:5205   */\n      add\n        /* \"#utility.yul\":5181:5228   */\n      mstore\n        /* \"#utility.yul\":5245:5376   */\n      tag_261\n        /* \"#utility.yul\":5371:5375   */\n      dup2\n        /* \"#utility.yul\":5245:5376   */\n      tag_178\n      jump\t// in\n    tag_261:\n        /* \"#utility.yul\":5237:5376   */\n      swap1\n      pop\n        /* \"#utility.yul\":4964:5383   */\n      swap2\n      swap1\n      pop\n      jump\t// out\n        /* \"#utility.yul\":5389:5561   */\n    tag_179:\n        /* \"#utility.yul\":5529:5553   */\n      0x43616e64696461746520646f206e6f7420657869737400000000000000000000\n        /* \"#utility.yul\":5525:5526   */\n      0x00\n        /* \"#utility.yul\":5517:5523   */\n      dup3\n        /* \"#utility.yul\":5513:5527   */\n      add\n        /* \"#utility.yul\":5506:5554   */\n      mstore\n        /* \"#utility.yul\":5389:5561   */\n      pop\n      jump\t// out\n        /* \"#utility.yul\":5567:5933   */\n    tag_180:\n        /* \"#utility.yul\":5709:5712   */\n      0x00\n        /* \"#utility.yul\":5730:5797   */\n      tag_264\n        /* \"#utility.yul\":5794:5796   */\n      0x16\n        /* \"#utility.yul\":5789:5792   */\n      dup4\n        /* \"#utility.yul\":5730:5797   */\n      tag_176\n      jump\t// in\n    tag_264:\n        /* \"#utility.yul\":5723:5797   */\n      swap2\n      pop\n        /* \"#utility.yul\":5806:5899   */\n      tag_265\n        /* \"#utility.yul\":5895:5898   */\n      dup3\n        /* \"#utility.yul\":5806:5899   */\n      tag_179\n      jump\t// in\n    tag_265:\n        /* \"#utility.yul\":5924:5926   */\n      0x20\n        /* \"#utility.yul\":5919:5922   */\n      dup3\n        /* \"#utility.yul\":5915:5927   */\n      add\n        /* \"#utility.yul\":5908:5927   */\n      swap1\n      pop\n        /* \"#utility.yul\":5567:5933   */\n      swap2\n      swap1\n      pop\n      jump\t// out\n        /* \"#utility.yul\":5939:6358   */\n    tag_37:\n        /* \"#utility.yul\":6105:6109   */\n      0x00\n        /* \"#utility.yul\":6143:6145   */\n      0x20\n        /* \"#utility.yul\":6132:6141   */\n      dup3\n        /* \"#utility.yul\":6128:6146   */\n      add\n        /* \"#utility.yul\":6120:6146   */\n      swap1\n      pop\n        /* \"#utility.yul\":6192:6201   */\n      dup2\n        /* \"#utility.yul\":6186:6190   */\n      dup2\n        /* \"#utility.yul\":6182:6202   */\n      sub\n        /* \"#utility.yul\":6178:6179   */\n      0x00\n        /* \"#utility.yul\":6167:6176   */\n      dup4\n        /* \"#utility.yul\":6163:6180   */\n      add\n        /* \"#utility.yul\":6156:6203   */\n      mstore\n        /* \"#utility.yul\":6220:6351   */\n      tag_267\n        /* \"#utility.yul\":6346:6350   */\n      dup2\n        /* \"#utility.yul\":6220:6351   */\n      tag_180\n      jump\t// in\n    tag_267:\n        /* \"#utility.yul\":6212:6351   */\n      swap1\n      pop\n        /* \"#utility.yul\":5939:6358   */\n      swap2\n      swap1\n      pop\n      jump\t// out\n        /* \"#utility.yul\":6364:6539   */\n    tag_181:\n        /* \"#utility.yul\":6504:6531   */\n      0x4f6e6c7920766f746572732063616e206361737420766f746500000000000000\n        /* \"#utility.yul\":6500:6501   */\n      0x00\n        /* \"#utility.yul\":6492:6498   */\n      dup3\n        /* \"#utility.yul\":6488:6502   */\n      add\n        /* \"#utility.yul\":6481:6532   */\n      mstore\n        /* \"#utility.yul\":6364:6539   */\n      pop\n      jump\t// out\n        /* \"#utility.yul\":6545:6911   */\n    tag_182:\n        /* \"#utility.yul\":6687:6690   */\n      0x00\n        /* \"#utility.yul\":6708:6775   */\n      tag_270\n        /* \"#utility.yul\":6772:6774   */\n      0x19\n        /* \"#utility.yul\":6767:6770   */\n      dup4\n        /* \"#utility.yul\":6708:6775   */\n      tag_176\n      jump\t// in\n    tag_270:\n        /* \"#utility.yul\":6701:6775   */\n      swap2\n      pop\n        /* \"#utility.yul\":6784:6877   */\n      tag_271\n        /* \"#utility.yul\":6873:6876   */\n      dup3\n        /* \"#utility.yul\":6784:6877   */\n      tag_181\n      jump\t// in\n    tag_271:\n        /* \"#utility.yul\":6902:6904   */\n      0x20\n        /* \"#utility.yul\":6897:6900   */\n      dup3\n        /* \"#utility.yul\":6893:6905   */\n      add\n        /* \"#utility.yul\":6886:6905   */\n      swap1\n      pop\n        /* \"#utility.yul\":6545:6911   */\n      swap2\n      swap1\n      pop\n      jump\t// out\n        /* \"#utility.yul\":6917:7336   */\n    tag_40:\n        /* \"#utility.yul\":7083:7087   */\n      0x00\n        /* \"#utility.yul\":7121:7123   */\n      0x20\n        /* \"#utility.yul\":7110:7119   */\n      dup3\n        /* \"#utility.yul\":7106:7124   */\n      add\n        /* \"#utility.yul\":7098:7124   */\n      swap1\n      pop\n        /* \"#utility.yul\":7170:7179   */\n      dup2\n        /* \"#utility.yul\":7164:7168   */\n      dup2\n        /* \"#utility.yul\":7160:7180   */\n      sub\n        /* \"#utility.yul\":7156:7157   */\n      0x00\n        /* \"#utility.yul\":7145:7154   */\n      dup4\n        /* \"#utility.yul\":7141:7158   */\n      add\n        /* \"#utility.yul\":7134:7181   */\n      mstore\n        /* \"#utility.yul\":7198:7329   */\n      tag_273\n        /* \"#utility.yul\":7324:7328   */\n      dup2\n        /* \"#utility.yul\":7198:7329   */\n      tag_182\n      jump\t// in\n    tag_273:\n        /* \"#utility.yul\":7190:7329   */\n      swap1\n      pop\n        /* \"#utility.yul\":6917:7336   */\n      swap2\n      swap1\n      pop\n      jump\t// out\n        /* \"#utility.yul\":7342:7563   */\n    tag_183:\n        /* \"#utility.yul\":7482:7516   */\n      0x566f746572206973206e6f7420616464656420696e2074686520656c65637469\n        /* \"#utility.yul\":7478:7479   */\n      0x00\n        /* \"#utility.yul\":7470:7476   */\n      dup3\n        /* \"#utility.yul\":7466:7480   */\n      add\n        /* \"#utility.yul\":7459:7517   */\n      mstore\n        /* \"#utility.yul\":7551:7555   */\n      0x6f6e000000000000000000000000000000000000000000000000000000000000\n        /* \"#utility.yul\":7546:7548   */\n      0x20\n        /* \"#utility.yul\":7538:7544   */\n      dup3\n        /* \"#utility.yul\":7534:7549   */\n      add\n        /* \"#utility.yul\":7527:7556   */\n      mstore\n        /* \"#utility.yul\":7342:7563   */\n      pop\n      jump\t// out\n        /* \"#utility.yul\":7569:7935   */\n    tag_184:\n        /* \"#utility.yul\":7711:7714   */\n      0x00\n        /* \"#utility.yul\":7732:7799   */\n      tag_276\n        /* \"#utility.yul\":7796:7798   */\n      0x22\n        /* \"#utility.yul\":7791:7794   */\n      dup4\n        /* \"#utility.yul\":7732:7799   */\n      tag_176\n      jump\t// in\n    tag_276:\n        /* \"#utility.yul\":7725:7799   */\n      swap2\n      pop\n        /* \"#utility.yul\":7808:7901   */\n      tag_277\n        /* \"#utility.yul\":7897:7900   */\n      dup3\n        /* \"#utility.yul\":7808:7901   */\n      tag_183\n      jump\t// in\n    tag_277:\n        /* \"#utility.yul\":7926:7928   */\n      0x40\n        /* \"#utility.yul\":7921:7924   */\n      dup3\n        /* \"#utility.yul\":7917:7929   */\n      add\n        /* \"#utility.yul\":7910:7929   */\n      swap1\n      pop\n        /* \"#utility.yul\":7569:7935   */\n      swap2\n      swap1\n      pop\n      jump\t// out\n        /* \"#utility.yul\":7941:8360   */\n    tag_43:\n        /* \"#utility.yul\":8107:8111   */\n      0x00\n        /* \"#utility.yul\":8145:8147   */\n      0x20\n        /* \"#utility.yul\":8134:8143   */\n      dup3\n        /* \"#utility.yul\":8130:8148   */\n      add\n        /* \"#utility.yul\":8122:8148   */\n      swap1\n      pop\n        /* \"#utility.yul\":8194:8203   */\n      dup2\n        /* \"#utility.yul\":8188:8192   */\n      dup2\n        /* \"#utility.yul\":8184:8204   */\n      sub\n        /* \"#utility.yul\":8180:8181   */\n      0x00\n        /* \"#utility.yul\":8169:8178   */\n      dup4\n        /* \"#utility.yul\":8165:8182   */\n      add\n        /* \"#utility.yul\":8158:8205   */\n      mstore\n        /* \"#utility.yul\":8222:8353   */\n      tag_279\n        /* \"#utility.yul\":8348:8352   */\n      dup2\n        /* \"#utility.yul\":8222:8353   */\n      tag_184\n      jump\t// in\n    tag_279:\n        /* \"#utility.yul\":8214:8353   */\n      swap1\n      pop\n        /* \"#utility.yul\":7941:8360   */\n      swap2\n      swap1\n      pop\n      jump\t// out\n        /* \"#utility.yul\":8366:8546   */\n    tag_185:\n        /* \"#utility.yul\":8414:8491   */\n      0x4e487b7100000000000000000000000000000000000000000000000000000000\n        /* \"#utility.yul\":8411:8412   */\n      0x00\n        /* \"#utility.yul\":8404:8492   */\n      mstore\n        /* \"#utility.yul\":8511:8515   */\n      0x11\n        /* \"#utility.yul\":8508:8509   */\n      0x04\n        /* \"#utility.yul\":8501:8516   */\n      mstore\n        /* \"#utility.yul\":8535:8539   */\n      0x24\n        /* \"#utility.yul\":8532:8533   */\n      0x00\n        /* \"#utility.yul\":8525:8540   */\n      revert\n        /* \"#utility.yul\":8552:8746   */\n    tag_45:\n        /* \"#utility.yul\":8592:8596   */\n      0x00\n        /* \"#utility.yul\":8612:8632   */\n      tag_282\n        /* \"#utility.yul\":8630:8631   */\n      dup3\n        /* \"#utility.yul\":8612:8632   */\n      tag_165\n      jump\t// in\n    tag_282:\n        /* \"#utility.yul\":8607:8632   */\n      swap2\n      pop\n        /* \"#utility.yul\":8646:8666   */\n      tag_283\n        /* \"#utility.yul\":8664:8665   */\n      dup4\n        /* \"#utility.yul\":8646:8666   */\n      tag_165\n      jump\t// in\n    tag_283:\n        /* \"#utility.yul\":8641:8666   */\n      swap3\n      pop\n        /* \"#utility.yul\":8690:8691   */\n      dup3\n        /* \"#utility.yul\":8687:8688   */\n      dup3\n        /* \"#utility.yul\":8683:8692   */\n      sub\n        /* \"#utility.yul\":8675:8692   */\n      swap1\n      pop\n        /* \"#utility.yul\":8714:8715   */\n      dup2\n        /* \"#utility.yul\":8708:8712   */\n      dup2\n        /* \"#utility.yul\":8705:8716   */\n      gt\n        /* \"#utility.yul\":8702:8739   */\n      iszero\n      tag_284\n      jumpi\n        /* \"#utility.yul\":8719:8737   */\n      tag_285\n      tag_185\n      jump\t// in\n    tag_285:\n        /* \"#utility.yul\":8702:8739   */\n    tag_284:\n        /* \"#utility.yul\":8552:8746   */\n      swap3\n      swap2\n      pop\n      pop\n      jump\t// out\n        /* \"#utility.yul\":8752:8932   */\n    tag_48:\n        /* \"#utility.yul\":8800:8877   */\n      0x4e487b7100000000000000000000000000000000000000000000000000000000\n        /* \"#utility.yul\":8797:8798   */\n      0x00\n        /* \"#utility.yul\":8790:8878   */\n      mstore\n        /* \"#utility.yul\":8897:8901   */\n      0x32\n        /* \"#utility.yul\":8894:8895   */\n      0x04\n        /* \"#utility.yul\":8887:8902   */\n      mstore\n        /* \"#utility.yul\":8921:8925   */\n      0x24\n        /* \"#utility.yul\":8918:8919   */\n      0x00\n        /* \"#utility.yul\":8911:8926   */\n      revert\n        /* \"#utility.yul\":8938:9163   */\n    tag_186:\n        /* \"#utility.yul\":9078:9112   */\n      0x566f746572206973206e6f742079657420656c696769626c6520746f20636173\n        /* \"#utility.yul\":9074:9075   */\n      0x00\n        /* \"#utility.yul\":9066:9072   */\n      dup3\n        /* \"#utility.yul\":9062:9076   */\n      add\n        /* \"#utility.yul\":9055:9113   */\n      mstore\n        /* \"#utility.yul\":9147:9155   */\n      0x7420766f74650000000000000000000000000000000000000000000000000000\n        /* \"#utility.yul\":9142:9144   */\n      0x20\n        /* \"#utility.yul\":9134:9140   */\n      dup3\n        /* \"#utility.yul\":9130:9145   */\n      add\n        /* \"#utility.yul\":9123:9156   */\n      mstore\n        /* \"#utility.yul\":8938:9163   */\n      pop\n      jump\t// out\n        /* \"#utility.yul\":9169:9535   */\n    tag_187:\n        /* \"#utility.yul\":9311:9314   */\n      0x00\n        /* \"#utility.yul\":9332:9399   */\n      tag_289\n        /* \"#utility.yul\":9396:9398   */\n      0x26\n        /* \"#utility.yul\":9391:9394   */\n      dup4\n        /* \"#utility.yul\":9332:9399   */\n      tag_176\n      jump\t// in\n    tag_289:\n        /* \"#utility.yul\":9325:9399   */\n      swap2\n      pop\n        /* \"#utility.yul\":9408:9501   */\n      tag_290\n        /* \"#utility.yul\":9497:9500   */\n      dup3\n        /* \"#utility.yul\":9408:9501   */\n      tag_186\n      jump\t// in\n    tag_290:\n        /* \"#utility.yul\":9526:9528   */\n      0x40\n        /* \"#utility.yul\":9521:9524   */\n      dup3\n        /* \"#utility.yul\":9517:9529   */\n      add\n        /* \"#utility.yul\":9510:9529   */\n      swap1\n      pop\n        /* \"#utility.yul\":9169:9535   */\n      swap2\n      swap1\n      pop\n      jump\t// out\n        /* \"#utility.yul\":9541:9960   */\n    tag_52:\n        /* \"#utility.yul\":9707:9711   */\n      0x00\n        /* \"#utility.yul\":9745:9747   */\n      0x20\n        /* \"#utility.yul\":9734:9743   */\n      dup3\n        /* \"#utility.yul\":9730:9748   */\n      add\n        /* \"#utility.yul\":9722:9748   */\n      swap1\n      pop\n        /* \"#utility.yul\":9794:9803   */\n      dup2\n        /* \"#utility.yul\":9788:9792   */\n      dup2\n        /* \"#utility.yul\":9784:9804   */\n      sub\n        /* \"#utility.yul\":9780:9781   */\n      0x00\n        /* \"#utility.yul\":9769:9778   */\n      dup4\n        /* \"#utility.yul\":9765:9782   */\n      add\n        /* \"#utility.yul\":9758:9805   */\n      mstore\n        /* \"#utility.yul\":9822:9953   */\n      tag_292\n        /* \"#utility.yul\":9948:9952   */\n      dup2\n        /* \"#utility.yul\":9822:9953   */\n      tag_187\n      jump\t// in\n    tag_292:\n        /* \"#utility.yul\":9814:9953   */\n      swap1\n      pop\n        /* \"#utility.yul\":9541:9960   */\n      swap2\n      swap1\n      pop\n      jump\t// out\n        /* \"#utility.yul\":9966:10147   */\n    tag_188:\n        /* \"#utility.yul\":10106:10139   */\n      0x566f7465722068617320616c726561647920636173742069747320766f746500\n        /* \"#utility.yul\":10102:10103   */\n      0x00\n        /* \"#utility.yul\":10094:10100   */\n      dup3\n        /* \"#utility.yul\":10090:10104   */\n      add\n        /* \"#utility.yul\":10083:10140   */\n      mstore\n        /* \"#utility.yul\":9966:10147   */\n      pop\n      jump\t// out\n        /* \"#utility.yul\":10153:10519   */\n    tag_189:\n        /* \"#utility.yul\":10295:10298   */\n      0x00\n        /* \"#utility.yul\":10316:10383   */\n      tag_295\n        /* \"#utility.yul\":10380:10382   */\n      0x1f\n        /* \"#utility.yul\":10375:10378   */\n      dup4\n        /* \"#utility.yul\":10316:10383   */\n      tag_176\n      jump\t// in\n    tag_295:\n        /* \"#utility.yul\":10309:10383   */\n      swap2\n      pop\n        /* \"#utility.yul\":10392:10485   */\n      tag_296\n        /* \"#utility.yul\":10481:10484   */\n      dup3\n        /* \"#utility.yul\":10392:10485   */\n      tag_188\n      jump\t// in\n    tag_296:\n        /* \"#utility.yul\":10510:10512   */\n      0x20\n        /* \"#utility.yul\":10505:10508   */\n      dup3\n        /* \"#utility.yul\":10501:10513   */\n      add\n        /* \"#utility.yul\":10494:10513   */\n      swap1\n      pop\n        /* \"#utility.yul\":10153:10519   */\n      swap2\n      swap1\n      pop\n      jump\t// out\n        /* \"#utility.yul\":10525:10944   */\n    tag_55:\n        /* \"#utility.yul\":10691:10695   */\n      0x00\n        /* \"#utility.yul\":10729:10731   */\n      0x20\n        /* \"#utility.yul\":10718:10727   */\n      dup3\n        /* \"#utility.yul\":10714:10732   */\n      add\n        /* \"#utility.yul\":10706:10732   */\n      swap1\n      pop\n        /* \"#utility.yul\":10778:10787   */\n      dup2\n        /* \"#utility.yul\":10772:10776   */\n      dup2\n        /* \"#utility.yul\":10768:10788   */\n      sub\n        /* \"#utility.yul\":10764:10765   */\n      0x00\n        /* \"#utility.yul\":10753:10762   */\n      dup4\n        /* \"#utility.yul\":10749:10766   */\n      add\n        /* \"#utility.yul\":10742:10789   */\n      mstore\n        /* \"#utility.yul\":10806:10937   */\n      tag_298\n        /* \"#utility.yul\":10932:10936   */\n      dup2\n        /* \"#utility.yul\":10806:10937   */\n      tag_189\n      jump\t// in\n    tag_298:\n        /* \"#utility.yul\":10798:10937   */\n      swap1\n      pop\n        /* \"#utility.yul\":10525:10944   */\n      swap2\n      swap1\n      pop\n      jump\t// out\n        /* \"#utility.yul\":10950:11141   */\n    tag_61:\n        /* \"#utility.yul\":10990:10993   */\n      0x00\n        /* \"#utility.yul\":11009:11029   */\n      tag_300\n        /* \"#utility.yul\":11027:11028   */\n      dup3\n        /* \"#utility.yul\":11009:11029   */\n      tag_165\n      jump\t// in\n    tag_300:\n        /* \"#utility.yul\":11004:11029   */\n      swap2\n      pop\n        /* \"#utility.yul\":11043:11063   */\n      tag_301\n        /* \"#utility.yul\":11061:11062   */\n      dup4\n        /* \"#utility.yul\":11043:11063   */\n      tag_165\n      jump\t// in\n    tag_301:\n        /* \"#utility.yul\":11038:11063   */\n      swap3\n      pop\n        /* \"#utility.yul\":11086:11087   */\n      dup3\n        /* \"#utility.yul\":11083:11084   */\n      dup3\n        /* \"#utility.yul\":11079:11088   */\n      add\n        /* \"#utility.yul\":11072:11088   */\n      swap1\n      pop\n        /* \"#utility.yul\":11107:11110   */\n      dup1\n        /* \"#utility.yul\":11104:11105   */\n      dup3\n        /* \"#utility.yul\":11101:11111   */\n      gt\n        /* \"#utility.yul\":11098:11134   */\n      iszero\n      tag_302\n      jumpi\n        /* \"#utility.yul\":11114:11132   */\n      tag_303\n      tag_185\n      jump\t// in\n    tag_303:\n        /* \"#utility.yul\":11098:11134   */\n    tag_302:\n        /* \"#utility.yul\":10950:11141   */\n      swap3\n      swap2\n      pop\n      pop\n      jump\t// out\n        /* \"#utility.yul\":11147:11321   */\n    tag_190:\n        /* \"#utility.yul\":11287:11313   */\n      0x43616e646964617465204964206d757374206265203e20300000000000000000\n        /* \"#utility.yul\":11283:11284   */\n      0x00\n        /* \"#utility.yul\":11275:11281   */\n      dup3\n        /* \"#utility.yul\":11271:11285   */\n      add\n        /* \"#utility.yul\":11264:11314   */\n      mstore\n        /* \"#utility.yul\":11147:11321   */\n      pop\n      jump\t// out\n        /* \"#utility.yul\":11327:11693   */\n    tag_191:\n        /* \"#utility.yul\":11469:11472   */\n      0x00\n        /* \"#utility.yul\":11490:11557   */\n      tag_306\n        /* \"#utility.yul\":11554:11556   */\n      0x18\n        /* \"#utility.yul\":11549:11552   */\n      dup4\n        /* \"#utility.yul\":11490:11557   */\n      tag_176\n      jump\t// in\n    tag_306:\n        /* \"#utility.yul\":11483:11557   */\n      swap2\n      pop\n        /* \"#utility.yul\":11566:11659   */\n      tag_307\n        /* \"#utility.yul\":11655:11658   */\n      dup3\n        /* \"#utility.yul\":11566:11659   */\n      tag_190\n      jump\t// in\n    tag_307:\n        /* \"#utility.yul\":11684:11686   */\n      0x20\n        /* \"#utility.yul\":11679:11682   */\n      dup3\n        /* \"#utility.yul\":11675:11687   */\n      add\n        /* \"#utility.yul\":11668:11687   */\n      swap1\n      pop\n        /* \"#utility.yul\":11327:11693   */\n      swap2\n      swap1\n      pop\n      jump\t// out\n        /* \"#utility.yul\":11699:12118   */\n    tag_65:\n        /* \"#utility.yul\":11865:11869   */\n      0x00\n        /* \"#utility.yul\":11903:11905   */\n      0x20\n        /* \"#utility.yul\":11892:11901   */\n      dup3\n        /* \"#utility.yul\":11888:11906   */\n      add\n        /* \"#utility.yul\":11880:11906   */\n      swap1\n      pop\n        /* \"#utility.yul\":11952:11961   */\n      dup2\n        /* \"#utility.yul\":11946:11950   */\n      dup2\n        /* \"#utility.yul\":11942:11962   */\n      sub\n        /* \"#utility.yul\":11938:11939   */\n      0x00\n        /* \"#utility.yul\":11927:11936   */\n      dup4\n        /* \"#utility.yul\":11923:11940   */\n      add\n        /* \"#utility.yul\":11916:11963   */\n      mstore\n        /* \"#utility.yul\":11980:12111   */\n      tag_309\n        /* \"#utility.yul\":12106:12110   */\n      dup2\n        /* \"#utility.yul\":11980:12111   */\n      tag_191\n      jump\t// in\n    tag_309:\n        /* \"#utility.yul\":11972:12111   */\n      swap1\n      pop\n        /* \"#utility.yul\":11699:12118   */\n      swap2\n      swap1\n      pop\n      jump\t// out\n        /* \"#utility.yul\":12124:12299   */\n    tag_192:\n        /* \"#utility.yul\":12264:12291   */\n      0x43616e64696461746520496420646f206e6f7420657869737400000000000000\n        /* \"#utility.yul\":12260:12261   */\n      0x00\n        /* \"#utility.yul\":12252:12258   */\n      dup3\n        /* \"#utility.yul\":12248:12262   */\n      add\n        /* \"#utility.yul\":12241:12292   */\n      mstore\n        /* \"#utility.yul\":12124:12299   */\n      pop\n      jump\t// out\n        /* \"#utility.yul\":12305:12671   */\n    tag_193:\n        /* \"#utility.yul\":12447:12450   */\n      0x00\n        /* \"#utility.yul\":12468:12535   */\n      tag_312\n        /* \"#utility.yul\":12532:12534   */\n      0x19\n        /* \"#utility.yul\":12527:12530   */\n      dup4\n        /* \"#utility.yul\":12468:12535   */\n      tag_176\n      jump\t// in\n    tag_312:\n        /* \"#utility.yul\":12461:12535   */\n      swap2\n      pop\n        /* \"#utility.yul\":12544:12637   */\n      tag_313\n        /* \"#utility.yul\":12633:12636   */\n      dup3\n        /* \"#utility.yul\":12544:12637   */\n      tag_192\n      jump\t// in\n    tag_313:\n        /* \"#utility.yul\":12662:12664   */\n      0x20\n        /* \"#utility.yul\":12657:12660   */\n      dup3\n        /* \"#utility.yul\":12653:12665   */\n      add\n        /* \"#utility.yul\":12646:12665   */\n      swap1\n      pop\n        /* \"#utility.yul\":12305:12671   */\n      swap2\n      swap1\n      pop\n      jump\t// out\n        /* \"#utility.yul\":12677:13096   */\n    tag_68:\n        /* \"#utility.yul\":12843:12847   */\n      0x00\n        /* \"#utility.yul\":12881:12883   */\n      0x20\n        /* \"#utility.yul\":12870:12879   */\n      dup3\n        /* \"#utility.yul\":12866:12884   */\n      add\n        /* \"#utility.yul\":12858:12884   */\n      swap1\n      pop\n        /* \"#utility.yul\":12930:12939   */\n      dup2\n        /* \"#utility.yul\":12924:12928   */\n      dup2\n        /* \"#utility.yul\":12920:12940   */\n      sub\n        /* \"#utility.yul\":12916:12917   */\n      0x00\n        /* \"#utility.yul\":12905:12914   */\n      dup4\n        /* \"#utility.yul\":12901:12918   */\n      add\n        /* \"#utility.yul\":12894:12941   */\n      mstore\n        /* \"#utility.yul\":12958:13089   */\n      tag_315\n        /* \"#utility.yul\":13084:13088   */\n      dup2\n        /* \"#utility.yul\":12958:13089   */\n      tag_193\n      jump\t// in\n    tag_315:\n        /* \"#utility.yul\":12950:13089   */\n      swap1\n      pop\n        /* \"#utility.yul\":12677:13096   */\n      swap2\n      swap1\n      pop\n      jump\t// out\n        /* \"#utility.yul\":13102:13326   */\n    tag_194:\n        /* \"#utility.yul\":13242:13276   */\n      0x4f6e6c792063616e6469646174652063616e2063616c6c20746869732066756e\n        /* \"#utility.yul\":13238:13239   */\n      0x00\n        /* \"#utility.yul\":13230:13236   */\n      dup3\n        /* \"#utility.yul\":13226:13240   */\n      add\n        /* \"#utility.yul\":13219:13277   */\n      mstore\n        /* \"#utility.yul\":13311:13318   */\n      0x6374696f6e000000000000000000000000000000000000000000000000000000\n        /* \"#utility.yul\":13306:13308   */\n      0x20\n        /* \"#utility.yul\":13298:13304   */\n      dup3\n        /* \"#utility.yul\":13294:13309   */\n      add\n        /* \"#utility.yul\":13287:13319   */\n      mstore\n        /* \"#utility.yul\":13102:13326   */\n      pop\n      jump\t// out\n        /* \"#utility.yul\":13332:13698   */\n    tag_195:\n        /* \"#utility.yul\":13474:13477   */\n      0x00\n        /* \"#utility.yul\":13495:13562   */\n      tag_318\n        /* \"#utility.yul\":13559:13561   */\n      0x25\n        /* \"#utility.yul\":13554:13557   */\n      dup4\n        /* \"#utility.yul\":13495:13562   */\n      tag_176\n      jump\t// in\n    tag_318:\n        /* \"#utility.yul\":13488:13562   */\n      swap2\n      pop\n        /* \"#utility.yul\":13571:13664   */\n      tag_319\n        /* \"#utility.yul\":13660:13663   */\n      dup3\n        /* \"#utility.yul\":13571:13664   */\n      tag_194\n      jump\t// in\n    tag_319:\n        /* \"#utility.yul\":13689:13691   */\n      0x40\n        /* \"#utility.yul\":13684:13687   */\n      dup3\n        /* \"#utility.yul\":13680:13692   */\n      add\n        /* \"#utility.yul\":13673:13692   */\n      swap1\n      pop\n        /* \"#utility.yul\":13332:13698   */\n      swap2\n      swap1\n      pop\n      jump\t// out\n        /* \"#utility.yul\":13704:14123   */\n    tag_78:\n        /* \"#utility.yul\":13870:13874   */\n      0x00\n        /* \"#utility.yul\":13908:13910   */\n      0x20\n        /* \"#utility.yul\":13897:13906   */\n      dup3\n        /* \"#utility.yul\":13893:13911   */\n      add\n        /* \"#utility.yul\":13885:13911   */\n      swap1\n      pop\n        /* \"#utility.yul\":13957:13966   */\n      dup2\n        /* \"#utility.yul\":13951:13955   */\n      dup2\n        /* \"#utility.yul\":13947:13967   */\n      sub\n        /* \"#utility.yul\":13943:13944   */\n      0x00\n        /* \"#utility.yul\":13932:13941   */\n      dup4\n        /* \"#utility.yul\":13928:13945   */\n      add\n        /* \"#utility.yul\":13921:13968   */\n      mstore\n        /* \"#utility.yul\":13985:14116   */\n      tag_321\n        /* \"#utility.yul\":14111:14115   */\n      dup2\n        /* \"#utility.yul\":13985:14116   */\n      tag_195\n      jump\t// in\n    tag_321:\n        /* \"#utility.yul\":13977:14116   */\n      swap1\n      pop\n        /* \"#utility.yul\":13704:14123   */\n      swap2\n      swap1\n      pop\n      jump\t// out\n        /* \"#utility.yul\":14129:14441   */\n    tag_196:\n        /* \"#utility.yul\":14269:14303   */\n      0x596f75206861766520616c72656164792063616c6c656420746869732066756e\n        /* \"#utility.yul\":14265:14266   */\n      0x00\n        /* \"#utility.yul\":14257:14263   */\n      dup3\n        /* \"#utility.yul\":14253:14267   */\n      add\n        /* \"#utility.yul\":14246:14304   */\n      mstore\n        /* \"#utility.yul\":14338:14372   */\n      0x6374696f6e2e205761697420666f72206f746865722063616e64696461746573\n        /* \"#utility.yul\":14333:14335   */\n      0x20\n        /* \"#utility.yul\":14325:14331   */\n      dup3\n        /* \"#utility.yul\":14321:14336   */\n      add\n        /* \"#utility.yul\":14314:14373   */\n      mstore\n        /* \"#utility.yul\":14407:14433   */\n      0x20746f2063616c6c20656e6420746f20656c656374696f6e0000000000000000\n        /* \"#utility.yul\":14402:14404   */\n      0x40\n        /* \"#utility.yul\":14394:14400   */\n      dup3\n        /* \"#utility.yul\":14390:14405   */\n      add\n        /* \"#utility.yul\":14383:14434   */\n      mstore\n        /* \"#utility.yul\":14129:14441   */\n      pop\n      jump\t// out\n        /* \"#utility.yul\":14447:14813   */\n    tag_197:\n        /* \"#utility.yul\":14589:14592   */\n      0x00\n        /* \"#utility.yul\":14610:14677   */\n      tag_324\n        /* \"#utility.yul\":14674:14676   */\n      0x58\n        /* \"#utility.yul\":14669:14672   */\n      dup4\n        /* \"#utility.yul\":14610:14677   */\n      tag_176\n      jump\t// in\n    tag_324:\n        /* \"#utility.yul\":14603:14677   */\n      swap2\n      pop\n        /* \"#utility.yul\":14686:14779   */\n      tag_325\n        /* \"#utility.yul\":14775:14778   */\n      dup3\n        /* \"#utility.yul\":14686:14779   */\n      tag_196\n      jump\t// in\n    tag_325:\n        /* \"#utility.yul\":14804:14806   */\n      0x60\n        /* \"#utility.yul\":14799:14802   */\n      dup3\n        /* \"#utility.yul\":14795:14807   */\n      add\n        /* \"#utility.yul\":14788:14807   */\n      swap1\n      pop\n        /* \"#utility.yul\":14447:14813   */\n      swap2\n      swap1\n      pop\n      jump\t// out\n        /* \"#utility.yul\":14819:15238   */\n    tag_81:\n        /* \"#utility.yul\":14985:14989   */\n      0x00\n        /* \"#utility.yul\":15023:15025   */\n      0x20\n        /* \"#utility.yul\":15012:15021   */\n      dup3\n        /* \"#utility.yul\":15008:15026   */\n      add\n        /* \"#utility.yul\":15000:15026   */\n      swap1\n      pop\n        /* \"#utility.yul\":15072:15081   */\n      dup2\n        /* \"#utility.yul\":15066:15070   */\n      dup2\n        /* \"#utility.yul\":15062:15082   */\n      sub\n        /* \"#utility.yul\":15058:15059   */\n      0x00\n        /* \"#utility.yul\":15047:15056   */\n      dup4\n        /* \"#utility.yul\":15043:15060   */\n      add\n        /* \"#utility.yul\":15036:15083   */\n      mstore\n        /* \"#utility.yul\":15100:15231   */\n      tag_327\n        /* \"#utility.yul\":15226:15230   */\n      dup2\n        /* \"#utility.yul\":15100:15231   */\n      tag_197\n      jump\t// in\n    tag_327:\n        /* \"#utility.yul\":15092:15231   */\n      swap1\n      pop\n        /* \"#utility.yul\":14819:15238   */\n      swap2\n      swap1\n      pop\n      jump\t// out\n        /* \"#utility.yul\":15244:15424   */\n    tag_98:\n        /* \"#utility.yul\":15292:15369   */\n      0x4e487b7100000000000000000000000000000000000000000000000000000000\n        /* \"#utility.yul\":15289:15290   */\n      0x00\n        /* \"#utility.yul\":15282:15370   */\n      mstore\n        /* \"#utility.yul\":15389:15393   */\n      0x41\n        /* \"#utility.yul\":15386:15387   */\n      0x04\n        /* \"#utility.yul\":15379:15394   */\n      mstore\n        /* \"#utility.yul\":15413:15417   */\n      0x24\n        /* \"#utility.yul\":15410:15411   */\n      0x00\n        /* \"#utility.yul\":15403:15418   */\n      revert\n        /* \"#utility.yul\":15430:15655   */\n    tag_198:\n        /* \"#utility.yul\":15570:15604   */\n      0x4f6e6c792063616e6469646174652063616e2077686974656c69737420746865\n        /* \"#utility.yul\":15566:15567   */\n      0x00\n        /* \"#utility.yul\":15558:15564   */\n      dup3\n        /* \"#utility.yul\":15554:15568   */\n      add\n        /* \"#utility.yul\":15547:15605   */\n      mstore\n        /* \"#utility.yul\":15639:15647   */\n      0x20766f7465720000000000000000000000000000000000000000000000000000\n        /* \"#utility.yul\":15634:15636   */\n      0x20\n        /* \"#utility.yul\":15626:15632   */\n      dup3\n        /* \"#utility.yul\":15622:15637   */\n      add\n        /* \"#utility.yul\":15615:15648   */\n      mstore\n        /* \"#utility.yul\":15430:15655   */\n      pop\n      jump\t// out\n        /* \"#utility.yul\":15661:16027   */\n    tag_199:\n        /* \"#utility.yul\":15803:15806   */\n      0x00\n        /* \"#utility.yul\":15824:15891   */\n      tag_331\n        /* \"#utility.yul\":15888:15890   */\n      0x26\n        /* \"#utility.yul\":15883:15886   */\n      dup4\n        /* \"#utility.yul\":15824:15891   */\n      tag_176\n      jump\t// in\n    tag_331:\n        /* \"#utility.yul\":15817:15891   */\n      swap2\n      pop\n        /* \"#utility.yul\":15900:15993   */\n      tag_332\n        /* \"#utility.yul\":15989:15992   */\n      dup3\n        /* \"#utility.yul\":15900:15993   */\n      tag_198\n      jump\t// in\n    tag_332:\n        /* \"#utility.yul\":16018:16020   */\n      0x40\n        /* \"#utility.yul\":16013:16016   */\n      dup3\n        /* \"#utility.yul\":16009:16021   */\n      add\n        /* \"#utility.yul\":16002:16021   */\n      swap1\n      pop\n        /* \"#utility.yul\":15661:16027   */\n      swap2\n      swap1\n      pop\n      jump\t// out\n        /* \"#utility.yul\":16033:16452   */\n    tag_113:\n        /* \"#utility.yul\":16199:16203   */\n      0x00\n        /* \"#utility.yul\":16237:16239   */\n      0x20\n        /* \"#utility.yul\":16226:16235   */\n      dup3\n        /* \"#utility.yul\":16222:16240   */\n      add\n        /* \"#utility.yul\":16214:16240   */\n      swap1\n      pop\n        /* \"#utility.yul\":16286:16295   */\n      dup2\n        /* \"#utility.yul\":16280:16284   */\n      dup2\n        /* \"#utility.yul\":16276:16296   */\n      sub\n        /* \"#utility.yul\":16272:16273   */\n      0x00\n        /* \"#utility.yul\":16261:16270   */\n      dup4\n        /* \"#utility.yul\":16257:16274   */\n      add\n        /* \"#utility.yul\":16250:16297   */\n      mstore\n        /* \"#utility.yul\":16314:16445   */\n      tag_334\n        /* \"#utility.yul\":16440:16444   */\n      dup2\n        /* \"#utility.yul\":16314:16445   */\n      tag_199\n      jump\t// in\n    tag_334:\n        /* \"#utility.yul\":16306:16445   */\n      swap1\n      pop\n        /* \"#utility.yul\":16033:16452   */\n      swap2\n      swap1\n      pop\n      jump\t// out\n        /* \"#utility.yul\":16458:16678   */\n    tag_200:\n        /* \"#utility.yul\":16598:16632   */\n      0x566f74657220697320616c726561647920656c696769626c6520746f20766f74\n        /* \"#utility.yul\":16594:16595   */\n      0x00\n        /* \"#utility.yul\":16586:16592   */\n      dup3\n        /* \"#utility.yul\":16582:16596   */\n      add\n        /* \"#utility.yul\":16575:16633   */\n      mstore\n        /* \"#utility.yul\":16667:16670   */\n      0x6500000000000000000000000000000000000000000000000000000000000000\n        /* \"#utility.yul\":16662:16664   */\n      0x20\n        /* \"#utility.yul\":16654:16660   */\n      dup3\n        /* \"#utility.yul\":16650:16665   */\n      add\n        /* \"#utility.yul\":16643:16671   */\n      mstore\n        /* \"#utility.yul\":16458:16678   */\n      pop\n      jump\t// out\n        /* \"#utility.yul\":16684:17050   */\n    tag_201:\n        /* \"#utility.yul\":16826:16829   */\n      0x00\n        /* \"#utility.yul\":16847:16914   */\n      tag_337\n        /* \"#utility.yul\":16911:16913   */\n      0x21\n        /* \"#utility.yul\":16906:16909   */\n      dup4\n        /* \"#utility.yul\":16847:16914   */\n      tag_176\n      jump\t// in\n    tag_337:\n        /* \"#utility.yul\":16840:16914   */\n      swap2\n      pop\n        /* \"#utility.yul\":16923:17016   */\n      tag_338\n        /* \"#utility.yul\":17012:17015   */\n      dup3\n        /* \"#utility.yul\":16923:17016   */\n      tag_200\n      jump\t// in\n    tag_338:\n        /* \"#utility.yul\":17041:17043   */\n      0x40\n        /* \"#utility.yul\":17036:17039   */\n      dup3\n        /* \"#utility.yul\":17032:17044   */\n      add\n        /* \"#utility.yul\":17025:17044   */\n      swap1\n      pop\n        /* \"#utility.yul\":16684:17050   */\n      swap2\n      swap1\n      pop\n      jump\t// out\n        /* \"#utility.yul\":17056:17475   */\n    tag_128:\n        /* \"#utility.yul\":17222:17226   */\n      0x00\n        /* \"#utility.yul\":17260:17262   */\n      0x20\n        /* \"#utility.yul\":17249:17258   */\n      dup3\n        /* \"#utility.yul\":17245:17263   */\n      add\n        /* \"#utility.yul\":17237:17263   */\n      swap1\n      pop\n        /* \"#utility.yul\":17309:17318   */\n      dup2\n        /* \"#utility.yul\":17303:17307   */\n      dup2\n        /* \"#utility.yul\":17299:17319   */\n      sub\n        /* \"#utility.yul\":17295:17296   */\n      0x00\n        /* \"#utility.yul\":17284:17293   */\n      dup4\n        /* \"#utility.yul\":17280:17297   */\n      add\n        /* \"#utility.yul\":17273:17320   */\n      mstore\n        /* \"#utility.yul\":17337:17468   */\n      tag_340\n        /* \"#utility.yul\":17463:17467   */\n      dup2\n        /* \"#utility.yul\":17337:17468   */\n      tag_201\n      jump\t// in\n    tag_340:\n        /* \"#utility.yul\":17329:17468   */\n      swap1\n      pop\n        /* \"#utility.yul\":17056:17475   */\n      swap2\n      swap1\n      pop\n      jump\t// out\n        /* \"#utility.yul\":17481:17709   */\n    tag_202:\n        /* \"#utility.yul\":17621:17655   */\n      0x566f7465722068617320616c7265616479206265656e2077686974656c697374\n        /* \"#utility.yul\":17617:17618   */\n      0x00\n        /* \"#utility.yul\":17609:17615   */\n      dup3\n        /* \"#utility.yul\":17605:17619   */\n      add\n        /* \"#utility.yul\":17598:17656   */\n      mstore\n        /* \"#utility.yul\":17690:17701   */\n      0x656420627920796f750000000000000000000000000000000000000000000000\n        /* \"#utility.yul\":17685:17687   */\n      0x20\n        /* \"#utility.yul\":17677:17683   */\n      dup3\n        /* \"#utility.yul\":17673:17688   */\n      add\n        /* \"#utility.yul\":17666:17702   */\n      mstore\n        /* \"#utility.yul\":17481:17709   */\n      pop\n      jump\t// out\n        /* \"#utility.yul\":17715:18081   */\n    tag_203:\n        /* \"#utility.yul\":17857:17860   */\n      0x00\n        /* \"#utility.yul\":17878:17945   */\n      tag_343\n        /* \"#utility.yul\":17942:17944   */\n      0x29\n        /* \"#utility.yul\":17937:17940   */\n      dup4\n        /* \"#utility.yul\":17878:17945   */\n      tag_176\n      jump\t// in\n    tag_343:\n        /* \"#utility.yul\":17871:17945   */\n      swap2\n      pop\n        /* \"#utility.yul\":17954:18047   */\n      tag_344\n        /* \"#utility.yul\":18043:18046   */\n      dup3\n        /* \"#utility.yul\":17954:18047   */\n      tag_202\n      jump\t// in\n    tag_344:\n        /* \"#utility.yul\":18072:18074   */\n      0x40\n        /* \"#utility.yul\":18067:18070   */\n      dup3\n        /* \"#utility.yul\":18063:18075   */\n      add\n        /* \"#utility.yul\":18056:18075   */\n      swap1\n      pop\n        /* \"#utility.yul\":17715:18081   */\n      swap2\n      swap1\n      pop\n      jump\t// out\n        /* \"#utility.yul\":18087:18506   */\n    tag_137:\n        /* \"#utility.yul\":18253:18257   */\n      0x00\n        /* \"#utility.yul\":18291:18293   */\n      0x20\n        /* \"#utility.yul\":18280:18289   */\n      dup3\n        /* \"#utility.yul\":18276:18294   */\n      add\n        /* \"#utility.yul\":18268:18294   */\n      swap1\n      pop\n        /* \"#utility.yul\":18340:18349   */\n      dup2\n        /* \"#utility.yul\":18334:18338   */\n      dup2\n        /* \"#utility.yul\":18330:18350   */\n      sub\n        /* \"#utility.yul\":18326:18327   */\n      0x00\n        /* \"#utility.yul\":18315:18324   */\n      dup4\n        /* \"#utility.yul\":18311:18328   */\n      add\n        /* \"#utility.yul\":18304:18351   */\n      mstore\n        /* \"#utility.yul\":18368:18499   */\n      tag_346\n        /* \"#utility.yul\":18494:18498   */\n      dup2\n        /* \"#utility.yul\":18368:18499   */\n      tag_203\n      jump\t// in\n    tag_346:\n        /* \"#utility.yul\":18360:18499   */\n      swap1\n      pop\n        /* \"#utility.yul\":18087:18506   */\n      swap2\n      swap1\n      pop\n      jump\t// out\n        /* \"#utility.yul\":18512:18691   */\n    tag_204:\n        /* \"#utility.yul\":18652:18683   */\n      0x54686520656c656374696f6e206973207374696c6c2072756e6e696e67000000\n        /* \"#utility.yul\":18648:18649   */\n      0x00\n        /* \"#utility.yul\":18640:18646   */\n      dup3\n        /* \"#utility.yul\":18636:18650   */\n      add\n        /* \"#utility.yul\":18629:18684   */\n      mstore\n        /* \"#utility.yul\":18512:18691   */\n      pop\n      jump\t// out\n        /* \"#utility.yul\":18697:19063   */\n    tag_205:\n        /* \"#utility.yul\":18839:18842   */\n      0x00\n        /* \"#utility.yul\":18860:18927   */\n      tag_349\n        /* \"#utility.yul\":18924:18926   */\n      0x1d\n        /* \"#utility.yul\":18919:18922   */\n      dup4\n        /* \"#utility.yul\":18860:18927   */\n      tag_176\n      jump\t// in\n    tag_349:\n        /* \"#utility.yul\":18853:18927   */\n      swap2\n      pop\n        /* \"#utility.yul\":18936:19029   */\n      tag_350\n        /* \"#utility.yul\":19025:19028   */\n      dup3\n        /* \"#utility.yul\":18936:19029   */\n      tag_204\n      jump\t// in\n    tag_350:\n        /* \"#utility.yul\":19054:19056   */\n      0x20\n        /* \"#utility.yul\":19049:19052   */\n      dup3\n        /* \"#utility.yul\":19045:19057   */\n      add\n        /* \"#utility.yul\":19038:19057   */\n      swap1\n      pop\n        /* \"#utility.yul\":18697:19063   */\n      swap2\n      swap1\n      pop\n      jump\t// out\n        /* \"#utility.yul\":19069:19488   */\n    tag_146:\n        /* \"#utility.yul\":19235:19239   */\n      0x00\n        /* \"#utility.yul\":19273:19275   */\n      0x20\n        /* \"#utility.yul\":19262:19271   */\n      dup3\n        /* \"#utility.yul\":19258:19276   */\n      add\n        /* \"#utility.yul\":19250:19276   */\n      swap1\n      pop\n        /* \"#utility.yul\":19322:19331   */\n      dup2\n        /* \"#utility.yul\":19316:19320   */\n      dup2\n        /* \"#utility.yul\":19312:19332   */\n      sub\n        /* \"#utility.yul\":19308:19309   */\n      0x00\n        /* \"#utility.yul\":19297:19306   */\n      dup4\n        /* \"#utility.yul\":19293:19310   */\n      add\n        /* \"#utility.yul\":19286:19333   */\n      mstore\n        /* \"#utility.yul\":19350:19481   */\n      tag_352\n        /* \"#utility.yul\":19476:19480   */\n      dup2\n        /* \"#utility.yul\":19350:19481   */\n      tag_205\n      jump\t// in\n    tag_352:\n        /* \"#utility.yul\":19342:19481   */\n      swap1\n      pop\n        /* \"#utility.yul\":19069:19488   */\n      swap2\n      swap1\n      pop\n      jump\t// out\n\n    auxdata: 0xa26469706673582212200db9d19b54f0fbe253864cb82d761ab27b5fd4f980d68b2189893cf423880cb264736f6c634300081a0033\n}\n",
				"bytecode": {
					"linkReferences": {},
					"object": "60806040525f80555f6001555f60095534801561001a575f80fd5b50604051611dc5380380611dc5833981810160405281019061003c9190610368565b5f5b81518110156101865760066040518060400160405280848481518110610067576100666103af565b5b602002602001015173ffffffffffffffffffffffffffffffffffffffff1681526020015f815250908060018154018082558091505060019003905f5260205f2090600202015f909190919091505f820151815f015f6101000a81548173ffffffffffffffffffffffffffffffffffffffff021916908373ffffffffffffffffffffffffffffffffffffffff16021790555060208201518160010155505060015f808282546101159190610412565b925050819055505f5460025f848481518110610134576101336103af565b5b602002602001015173ffffffffffffffffffffffffffffffffffffffff1673ffffffffffffffffffffffffffffffffffffffff1681526020019081526020015f2081905550808060010191505061003e565b505f60055f6101000a81548160ff0219169083151502179055505f60048190555050610445565b5f604051905090565b5f80fd5b5f80fd5b5f80fd5b5f601f19601f8301169050919050565b7f4e487b71000000000000000000000000000000000000000000000000000000005f52604160045260245ffd5b610208826101c2565b810181811067ffffffffffffffff82111715610227576102266101d2565b5b80604052505050565b5f6102396101ad565b905061024582826101ff565b919050565b5f67ffffffffffffffff821115610264576102636101d2565b5b602082029050602081019050919050565b5f80fd5b5f73ffffffffffffffffffffffffffffffffffffffff82169050919050565b5f6102a282610279565b9050919050565b6102b281610298565b81146102bc575f80fd5b50565b5f815190506102cd816102a9565b92915050565b5f6102e56102e08461024a565b610230565b9050808382526020820190506020840283018581111561030857610307610275565b5b835b81811015610331578061031d88826102bf565b84526020840193505060208101905061030a565b5050509392505050565b5f82601f83011261034f5761034e6101be565b5b815161035f8482602086016102d3565b91505092915050565b5f6020828403121561037d5761037c6101b6565b5b5f82015167ffffffffffffffff81111561039a576103996101ba565b5b6103a68482850161033b565b91505092915050565b7f4e487b71000000000000000000000000000000000000000000000000000000005f52603260045260245ffd5b5f819050919050565b7f4e487b71000000000000000000000000000000000000000000000000000000005f52601160045260245ffd5b5f61041c826103dc565b9150610427836103dc565b925082820190508082111561043f5761043e6103e5565b5b92915050565b611973806104525f395ff3fe608060405234801561000f575f80fd5b5060043610610060575f3560e01c806326bb886d1461006457806335b8e8201461008057806359f78468146100b0578063721f720c146100ba578063bddf1ce9146100d8578063f927cc29146100f4575b5f80fd5b61007e60048036038101906100799190610fd8565b610112565b005b61009a60048036038101906100959190611036565b6104d9565b6040516100a79190611070565b60405180910390f35b6100b86105b9565b005b6100c261082b565b6040516100cf9190611140565b60405180910390f35b6100f260048036038101906100ed9190610fd8565b61092c565b005b6100fc610e34565b6040516101099190611070565b60405180910390f35b60055f9054906101000a900460ff1615610161576040517f08c379a0000000000000000000000000000000000000000000000000000000008152600401610158906111ba565b60405180910390fd5b5f60025f8373ffffffffffffffffffffffffffffffffffffffff1673ffffffffffffffffffffffffffffffffffffffff1681526020019081526020015f2054116101e0576040517f08c379a00000000000000000000000000000000000000000000000000000000081526004016101d790611222565b60405180910390fd5b5f60025f3373ffffffffffffffffffffffffffffffffffffffff1673ffffffffffffffffffffffffffffffffffffffff1681526020019081526020015f20541461025f576040517f08c379a00000000000000000000000000000000000000000000000000000000081526004016102569061128a565b60405180910390fd5b5f60035f3373ffffffffffffffffffffffffffffffffffffffff1673ffffffffffffffffffffffffffffffffffffffff1681526020019081526020015f2054116102de576040517f08c379a00000000000000000000000000000000000000000000000000000000081526004016102d590611318565b60405180910390fd5b5f6007600160035f3373ffffffffffffffffffffffffffffffffffffffff1673ffffffffffffffffffffffffffffffffffffffff1681526020019081526020015f205461032b9190611363565b8154811061033c5761033b611396565b5b905f5260205f2090600402019050805f0160149054906101000a900460ff1661039a576040517f08c379a000000000000000000000000000000000000000000000000000000000815260040161039190611433565b60405180910390fd5b805f0160159054906101000a900460ff16156103eb576040517f08c379a00000000000000000000000000000000000000000000000000000000081526004016103e29061149b565b60405180910390fd5b60025f8373ffffffffffffffffffffffffffffffffffffffff1673ffffffffffffffffffffffffffffffffffffffff1681526020019081526020015f205481600101819055506001815f0160156101000a81548160ff0219169083151502179055505f6006600160025f8673ffffffffffffffffffffffffffffffffffffffff1673ffffffffffffffffffffffffffffffffffffffff1681526020019081526020015f205461049a9190611363565b815481106104ab576104aa611396565b5b905f5260205f20906002020190506001816001015f8282546104cd91906114b9565b92505081905550505050565b5f80821161051c576040517f08c379a000000000000000000000000000000000000000000000000000000000815260040161051390611536565b60405180910390fd5b600680549050821115610564576040517f08c379a000000000000000000000000000000000000000000000000000000000815260040161055b9061159e565b60405180910390fd5b60066001836105739190611363565b8154811061058457610583611396565b5b905f5260205f2090600202015f015f9054906101000a900473ffffffffffffffffffffffffffffffffffffffff169050919050565b60055f9054906101000a900460ff1615610608576040517f08c379a00000000000000000000000000000000000000000000000000000000081526004016105ff906111ba565b60405180910390fd5b5f60025f3373ffffffffffffffffffffffffffffffffffffffff1673ffffffffffffffffffffffffffffffffffffffff1681526020019081526020015f205411610687576040517f08c379a000000000000000000000000000000000000000000000000000000000815260040161067e9061162c565b60405180910390fd5b5f151560085f3373ffffffffffffffffffffffffffffffffffffffff1673ffffffffffffffffffffffffffffffffffffffff1681526020019081526020015f205f9054906101000a900460ff16151514610716576040517f08c379a000000000000000000000000000000000000000000000000000000000815260040161070d906116e0565b60405180910390fd5b600160085f3373ffffffffffffffffffffffffffffffffffffffff1673ffffffffffffffffffffffffffffffffffffffff1681526020019081526020015f205f6101000a81548160ff021916908315150217905550600160095f82825461077d91906114b9565b925050819055505f5460095403610829575f805b5f5481101561080c5781600682815481106107af576107ae611396565b5b905f5260205f2090600202016001015411156107ff57600681815481106107d9576107d8611396565b5b905f5260205f2090600202016001015491506001816107f891906114b9565b6004819055505b8080600101915050610791565b50600160055f6101000a81548160ff021916908315150217905550505b565b606060068054905067ffffffffffffffff81111561084c5761084b6116fe565b5b60405190808252806020026020018201604052801561087a5781602001602082028036833780820191505090505b5090505f5b60068054905081101561092857600681815481106108a05761089f611396565b5b905f5260205f2090600202015f015f9054906101000a900473ffffffffffffffffffffffffffffffffffffffff168282815181106108e1576108e0611396565b5b602002602001019073ffffffffffffffffffffffffffffffffffffffff16908173ffffffffffffffffffffffffffffffffffffffff1681525050808060010191505061087f565b5090565b60055f9054906101000a900460ff161561097b576040517f08c379a0000000000000000000000000000000000000000000000000000000008152600401610972906111ba565b60405180910390fd5b5f60025f3373ffffffffffffffffffffffffffffffffffffffff1673ffffffffffffffffffffffffffffffffffffffff1681526020019081526020015f2054116109fa576040517f08c379a00000000000000000000000000000000000000000000000000000000081526004016109f19061179b565b60405180910390fd5b5f60035f8373ffffffffffffffffffffffffffffffffffffffff1673ffffffffffffffffffffffffffffffffffffffff1681526020019081526020015f205403610c085760076040518060c001604052808373ffffffffffffffffffffffffffffffffffffffff1681526020015f151581526020015f151581526020015f81526020015f5467ffffffffffffffff811115610a9857610a976116fe565b5b604051908082528060200260200182016040528015610ac65781602001602082028036833780820191505090505b5081526020015f815250908060018154018082558091505060019003905f5260205f2090600402015f909190919091505f820151815f015f6101000a81548173ffffffffffffffffffffffffffffffffffffffff021916908373ffffffffffffffffffffffffffffffffffffffff1602179055506020820151815f0160146101000a81548160ff0219169083151502179055506040820151815f0160156101000a81548160ff021916908315150217905550606082015181600101556080820151816002019080519060200190610b9e929190610ed8565b5060a0820151816003015550506001805f828254610bbc91906114b9565b9250508190555060015460035f8373ffffffffffffffffffffffffffffffffffffffff1673ffffffffffffffffffffffffffffffffffffffff1681526020019081526020015f20819055505b5f6007600160035f8573ffffffffffffffffffffffffffffffffffffffff1673ffffffffffffffffffffffffffffffffffffffff1681526020019081526020015f2054610c559190611363565b81548110610c6657610c65611396565b5b905f5260205f2090600402019050805f0160149054906101000a900460ff1615610cc5576040517f08c379a0000000000000000000000000000000000000000000000000000000008152600401610cbc90611829565b60405180910390fd5b5f5b8160030154811015610d8b57816002018181548110610ce957610ce8611396565b5b905f5260205f20015f9054906101000a900473ffffffffffffffffffffffffffffffffffffffff1673ffffffffffffffffffffffffffffffffffffffff163373ffffffffffffffffffffffffffffffffffffffff1603610d7e576040517f08c379a0000000000000000000000000000000000000000000000000000000008152600401610d75906118b7565b60405180910390fd5b8080600101915050610cc7565b503381600201826003015481548110610da757610da6611396565b5b905f5260205f20015f6101000a81548173ffffffffffffffffffffffffffffffffffffffff021916908373ffffffffffffffffffffffffffffffffffffffff1602179055506001816003015f828254610e0091906114b9565b925050819055505f54816003015403610e30576001815f0160146101000a81548160ff0219169083151502179055505b5050565b5f60055f9054906101000a900460ff16610e83576040517f08c379a0000000000000000000000000000000000000000000000000000000008152600401610e7a9061191f565b60405180910390fd5b60066001600454610e949190611363565b81548110610ea557610ea4611396565b5b905f5260205f2090600202015f015f9054906101000a900473ffffffffffffffffffffffffffffffffffffffff16905090565b828054828255905f5260205f20908101928215610f4e579160200282015b82811115610f4d578251825f6101000a81548173ffffffffffffffffffffffffffffffffffffffff021916908373ffffffffffffffffffffffffffffffffffffffff16021790555091602001919060010190610ef6565b5b509050610f5b9190610f5f565b5090565b5b80821115610f76575f815f905550600101610f60565b5090565b5f80fd5b5f73ffffffffffffffffffffffffffffffffffffffff82169050919050565b5f610fa782610f7e565b9050919050565b610fb781610f9d565b8114610fc1575f80fd5b50565b5f81359050610fd281610fae565b92915050565b5f60208284031215610fed57610fec610f7a565b5b5f610ffa84828501610fc4565b91505092915050565b5f819050919050565b61101581611003565b811461101f575f80fd5b50565b5f813590506110308161100c565b92915050565b5f6020828403121561104b5761104a610f7a565b5b5f61105884828501611022565b91505092915050565b61106a81610f9d565b82525050565b5f6020820190506110835f830184611061565b92915050565b5f81519050919050565b5f82825260208201905092915050565b5f819050602082019050919050565b6110bb81610f9d565b82525050565b5f6110cc83836110b2565b60208301905092915050565b5f602082019050919050565b5f6110ee82611089565b6110f88185611093565b9350611103836110a3565b805f5b8381101561113357815161111a88826110c1565b9750611125836110d8565b925050600181019050611106565b5085935050505092915050565b5f6020820190508181035f83015261115881846110e4565b905092915050565b5f82825260208201905092915050565b7f456c656374696f6e2068617320616c72656164792066696e69736865640000005f82015250565b5f6111a4601d83611160565b91506111af82611170565b602082019050919050565b5f6020820190508181035f8301526111d181611198565b9050919050565b7f43616e64696461746520646f206e6f74206578697374000000000000000000005f82015250565b5f61120c601683611160565b9150611217826111d8565b602082019050919050565b5f6020820190508181035f83015261123981611200565b9050919050565b7f4f6e6c7920766f746572732063616e206361737420766f7465000000000000005f82015250565b5f611274601983611160565b915061127f82611240565b602082019050919050565b5f6020820190508181035f8301526112a181611268565b9050919050565b7f566f746572206973206e6f7420616464656420696e2074686520656c656374695f8201527f6f6e000000000000000000000000000000000000000000000000000000000000602082015250565b5f611302602283611160565b915061130d826112a8565b604082019050919050565b5f6020820190508181035f83015261132f816112f6565b9050919050565b7f4e487b71000000000000000000000000000000000000000000000000000000005f52601160045260245ffd5b5f61136d82611003565b915061137883611003565b92508282039050818111156113905761138f611336565b5b92915050565b7f4e487b71000000000000000000000000000000000000000000000000000000005f52603260045260245ffd5b7f566f746572206973206e6f742079657420656c696769626c6520746f206361735f8201527f7420766f74650000000000000000000000000000000000000000000000000000602082015250565b5f61141d602683611160565b9150611428826113c3565b604082019050919050565b5f6020820190508181035f83015261144a81611411565b9050919050565b7f566f7465722068617320616c726561647920636173742069747320766f7465005f82015250565b5f611485601f83611160565b915061149082611451565b602082019050919050565b5f6020820190508181035f8301526114b281611479565b9050919050565b5f6114c382611003565b91506114ce83611003565b92508282019050808211156114e6576114e5611336565b5b92915050565b7f43616e646964617465204964206d757374206265203e203000000000000000005f82015250565b5f611520601883611160565b915061152b826114ec565b602082019050919050565b5f6020820190508181035f83015261154d81611514565b9050919050565b7f43616e64696461746520496420646f206e6f74206578697374000000000000005f82015250565b5f611588601983611160565b915061159382611554565b602082019050919050565b5f6020820190508181035f8301526115b58161157c565b9050919050565b7f4f6e6c792063616e6469646174652063616e2063616c6c20746869732066756e5f8201527f6374696f6e000000000000000000000000000000000000000000000000000000602082015250565b5f611616602583611160565b9150611621826115bc565b604082019050919050565b5f6020820190508181035f8301526116438161160a565b9050919050565b7f596f75206861766520616c72656164792063616c6c656420746869732066756e5f8201527f6374696f6e2e205761697420666f72206f746865722063616e6469646174657360208201527f20746f2063616c6c20656e6420746f20656c656374696f6e0000000000000000604082015250565b5f6116ca605883611160565b91506116d58261164a565b606082019050919050565b5f6020820190508181035f8301526116f7816116be565b9050919050565b7f4e487b71000000000000000000000000000000000000000000000000000000005f52604160045260245ffd5b7f4f6e6c792063616e6469646174652063616e2077686974656c697374207468655f8201527f20766f7465720000000000000000000000000000000000000000000000000000602082015250565b5f611785602683611160565b91506117908261172b565b604082019050919050565b5f6020820190508181035f8301526117b281611779565b9050919050565b7f566f74657220697320616c726561647920656c696769626c6520746f20766f745f8201527f6500000000000000000000000000000000000000000000000000000000000000602082015250565b5f611813602183611160565b915061181e826117b9565b604082019050919050565b5f6020820190508181035f83015261184081611807565b9050919050565b7f566f7465722068617320616c7265616479206265656e2077686974656c6973745f8201527f656420627920796f750000000000000000000000000000000000000000000000602082015250565b5f6118a1602983611160565b91506118ac82611847565b604082019050919050565b5f6020820190508181035f8301526118ce81611895565b9050919050565b7f54686520656c656374696f6e206973207374696c6c2072756e6e696e670000005f82015250565b5f611909601d83611160565b9150611914826118d5565b602082019050919050565b5f6020820190508181035f830152611936816118fd565b905091905056fea26469706673582212200db9d19b54f0fbe253864cb82d761ab27b5fd4f980d68b2189893cf423880cb264736f6c634300081a0033",
					"opcodes": "PUSH1 0x80 PUSH1 0x40 MSTORE PUSH0 DUP1 SSTORE PUSH0 PUSH1 0x1 SSTORE PUSH0 PUSH1 0x9 SSTORE CALLVALUE DUP1 ISZERO PUSH2 0x1A JUMPI PUSH0 DUP1 REVERT JUMPDEST POP PUSH1 0x40 MLOAD PUSH2 0x1DC5 CODESIZE SUB DUP1 PUSH2 0x1DC5 DUP4 CODECOPY DUP2 DUP2 ADD PUSH1 0x40 MSTORE DUP2 ADD SWAP1 PUSH2 0x3C SWAP2 SWAP1 PUSH2 0x368 JUMP JUMPDEST PUSH0 JUMPDEST DUP2 MLOAD DUP2 LT ISZERO PUSH2 0x186 JUMPI PUSH1 0x6 PUSH1 0x40 MLOAD DUP1 PUSH1 0x40 ADD PUSH1 0x40 MSTORE DUP1 DUP5 DUP5 DUP2 MLOAD DUP2 LT PUSH2 0x67 JUMPI PUSH2 0x66 PUSH2 0x3AF JUMP JUMPDEST JUMPDEST PUSH1 0x20 MUL PUSH1 0x20 ADD ADD MLOAD PUSH20 0xFFFFFFFFFFFFFFFFFFFFFFFFFFFFFFFFFFFFFFFF AND DUP2 MSTORE PUSH1 0x20 ADD PUSH0 DUP2 MSTORE POP SWAP1 DUP1 PUSH1 0x1 DUP2 SLOAD ADD DUP1 DUP3 SSTORE DUP1 SWAP2 POP POP PUSH1 0x1 SWAP1 SUB SWAP1 PUSH0 MSTORE PUSH1 0x20 PUSH0 KECCAK256 SWAP1 PUSH1 0x2 MUL ADD PUSH0 SWAP1 SWAP2 SWAP1 SWAP2 SWAP1 SWAP2 POP PUSH0 DUP3 ADD MLOAD DUP2 PUSH0 ADD PUSH0 PUSH2 0x100 EXP DUP2 SLOAD DUP2 PUSH20 0xFFFFFFFFFFFFFFFFFFFFFFFFFFFFFFFFFFFFFFFF MUL NOT AND SWAP1 DUP4 PUSH20 0xFFFFFFFFFFFFFFFFFFFFFFFFFFFFFFFFFFFFFFFF AND MUL OR SWAP1 SSTORE POP PUSH1 0x20 DUP3 ADD MLOAD DUP2 PUSH1 0x1 ADD SSTORE POP POP PUSH1 0x1 PUSH0 DUP1 DUP3 DUP3 SLOAD PUSH2 0x115 SWAP2 SWAP1 PUSH2 0x412 JUMP JUMPDEST SWAP3 POP POP DUP2 SWAP1 SSTORE POP PUSH0 SLOAD PUSH1 0x2 PUSH0 DUP5 DUP5 DUP2 MLOAD DUP2 LT PUSH2 0x134 JUMPI PUSH2 0x133 PUSH2 0x3AF JUMP JUMPDEST JUMPDEST PUSH1 0x20 MUL PUSH1 0x20 ADD ADD MLOAD PUSH20 0xFFFFFFFFFFFFFFFFFFFFFFFFFFFFFFFFFFFFFFFF AND PUSH20 0xFFFFFFFFFFFFFFFFFFFFFFFFFFFFFFFFFFFFFFFF AND DUP2 MSTORE PUSH1 0x20 ADD SWAP1 DUP2 MSTORE PUSH1 0x20 ADD PUSH0 KECCAK256 DUP2 SWAP1 SSTORE POP DUP1 DUP1 PUSH1 0x1 ADD SWAP2 POP POP PUSH2 0x3E JUMP JUMPDEST POP PUSH0 PUSH1 0x5 PUSH0 PUSH2 0x100 EXP DUP2 SLOAD DUP2 PUSH1 0xFF MUL NOT AND SWAP1 DUP4 ISZERO ISZERO MUL OR SWAP1 SSTORE POP PUSH0 PUSH1 0x4 DUP2 SWAP1 SSTORE POP POP PUSH2 0x445 JUMP JUMPDEST PUSH0 PUSH1 0x40 MLOAD SWAP1 POP SWAP1 JUMP JUMPDEST PUSH0 DUP1 REVERT JUMPDEST PUSH0 DUP1 REVERT JUMPDEST PUSH0 DUP1 REVERT JUMPDEST PUSH0 PUSH1 0x1F NOT PUSH1 0x1F DUP4 ADD AND SWAP1 POP SWAP2 SWAP1 POP JUMP JUMPDEST PUSH32 0x4E487B7100000000000000000000000000000000000000000000000000000000 PUSH0 MSTORE PUSH1 0x41 PUSH1 0x4 MSTORE PUSH1 0x24 PUSH0 REVERT JUMPDEST PUSH2 0x208 DUP3 PUSH2 0x1C2 JUMP JUMPDEST DUP2 ADD DUP2 DUP2 LT PUSH8 0xFFFFFFFFFFFFFFFF DUP3 GT OR ISZERO PUSH2 0x227 JUMPI PUSH2 0x226 PUSH2 0x1D2 JUMP JUMPDEST JUMPDEST DUP1 PUSH1 0x40 MSTORE POP POP POP JUMP JUMPDEST PUSH0 PUSH2 0x239 PUSH2 0x1AD JUMP JUMPDEST SWAP1 POP PUSH2 0x245 DUP3 DUP3 PUSH2 0x1FF JUMP JUMPDEST SWAP2 SWAP1 POP JUMP JUMPDEST PUSH0 PUSH8 0xFFFFFFFFFFFFFFFF DUP3 GT ISZERO PUSH2 0x264 JUMPI PUSH2 0x263 PUSH2 0x1D2 JUMP JUMPDEST JUMPDEST PUSH1 0x20 DUP3 MUL SWAP1 POP PUSH1 0x20 DUP2 ADD SWAP1 POP SWAP2 SWAP1 POP JUMP JUMPDEST PUSH0 DUP1 REVERT JUMPDEST PUSH0 PUSH20 0xFFFFFFFFFFFFFFFFFFFFFFFFFFFFFFFFFFFFFFFF DUP3 AND SWAP1 POP SWAP2 SWAP1 POP JUMP JUMPDEST PUSH0 PUSH2 0x2A2 DUP3 PUSH2 0x279 JUMP JUMPDEST SWAP1 POP SWAP2 SWAP1 POP JUMP JUMPDEST PUSH2 0x2B2 DUP2 PUSH2 0x298 JUMP JUMPDEST DUP2 EQ PUSH2 0x2BC JUMPI PUSH0 DUP1 REVERT JUMPDEST POP JUMP JUMPDEST PUSH0 DUP2 MLOAD SWAP1 POP PUSH2 0x2CD DUP2 PUSH2 0x2A9 JUMP JUMPDEST SWAP3 SWAP2 POP POP JUMP JUMPDEST PUSH0 PUSH2 0x2E5 PUSH2 0x2E0 DUP5 PUSH2 0x24A JUMP JUMPDEST PUSH2 0x230 JUMP JUMPDEST SWAP1 POP DUP1 DUP4 DUP3 MSTORE PUSH1 0x20 DUP3 ADD SWAP1 POP PUSH1 0x20 DUP5 MUL DUP4 ADD DUP6 DUP2 GT ISZERO PUSH2 0x308 JUMPI PUSH2 0x307 PUSH2 0x275 JUMP JUMPDEST JUMPDEST DUP4 JUMPDEST DUP2 DUP2 LT ISZERO PUSH2 0x331 JUMPI DUP1 PUSH2 0x31D DUP9 DUP3 PUSH2 0x2BF JUMP JUMPDEST DUP5 MSTORE PUSH1 0x20 DUP5 ADD SWAP4 POP POP PUSH1 0x20 DUP2 ADD SWAP1 POP PUSH2 0x30A JUMP JUMPDEST POP POP POP SWAP4 SWAP3 POP POP POP JUMP JUMPDEST PUSH0 DUP3 PUSH1 0x1F DUP4 ADD SLT PUSH2 0x34F JUMPI PUSH2 0x34E PUSH2 0x1BE JUMP JUMPDEST JUMPDEST DUP2 MLOAD PUSH2 0x35F DUP5 DUP3 PUSH1 0x20 DUP7 ADD PUSH2 0x2D3 JUMP JUMPDEST SWAP2 POP POP SWAP3 SWAP2 POP POP JUMP JUMPDEST PUSH0 PUSH1 0x20 DUP3 DUP5 SUB SLT ISZERO PUSH2 0x37D JUMPI PUSH2 0x37C PUSH2 0x1B6 JUMP JUMPDEST JUMPDEST PUSH0 DUP3 ADD MLOAD PUSH8 0xFFFFFFFFFFFFFFFF DUP2 GT ISZERO PUSH2 0x39A JUMPI PUSH2 0x399 PUSH2 0x1BA JUMP JUMPDEST JUMPDEST PUSH2 0x3A6 DUP5 DUP3 DUP6 ADD PUSH2 0x33B JUMP JUMPDEST SWAP2 POP POP SWAP3 SWAP2 POP POP JUMP JUMPDEST PUSH32 0x4E487B7100000000000000000000000000000000000000000000000000000000 PUSH0 MSTORE PUSH1 0x32 PUSH1 0x4 MSTORE PUSH1 0x24 PUSH0 REVERT JUMPDEST PUSH0 DUP2 SWAP1 POP SWAP2 SWAP1 POP JUMP JUMPDEST PUSH32 0x4E487B7100000000000000000000000000000000000000000000000000000000 PUSH0 MSTORE PUSH1 0x11 PUSH1 0x4 MSTORE PUSH1 0x24 PUSH0 REVERT JUMPDEST PUSH0 PUSH2 0x41C DUP3 PUSH2 0x3DC JUMP JUMPDEST SWAP2 POP PUSH2 0x427 DUP4 PUSH2 0x3DC JUMP JUMPDEST SWAP3 POP DUP3 DUP3 ADD SWAP1 POP DUP1 DUP3 GT ISZERO PUSH2 0x43F JUMPI PUSH2 0x43E PUSH2 0x3E5 JUMP JUMPDEST JUMPDEST SWAP3 SWAP2 POP POP JUMP JUMPDEST PUSH2 0x1973 DUP1 PUSH2 0x452 PUSH0 CODECOPY PUSH0 RETURN INVALID PUSH1 0x80 PUSH1 0x40 MSTORE CALLVALUE DUP1 ISZERO PUSH2 0xF JUMPI PUSH0 DUP1 REVERT JUMPDEST POP PUSH1 0x4 CALLDATASIZE LT PUSH2 0x60 JUMPI PUSH0 CALLDATALOAD PUSH1 0xE0 SHR DUP1 PUSH4 0x26BB886D EQ PUSH2 0x64 JUMPI DUP1 PUSH4 0x35B8E820 EQ PUSH2 0x80 JUMPI DUP1 PUSH4 0x59F78468 EQ PUSH2 0xB0 JUMPI DUP1 PUSH4 0x721F720C EQ PUSH2 0xBA JUMPI DUP1 PUSH4 0xBDDF1CE9 EQ PUSH2 0xD8 JUMPI DUP1 PUSH4 0xF927CC29 EQ PUSH2 0xF4 JUMPI JUMPDEST PUSH0 DUP1 REVERT JUMPDEST PUSH2 0x7E PUSH1 0x4 DUP1 CALLDATASIZE SUB DUP2 ADD SWAP1 PUSH2 0x79 SWAP2 SWAP1 PUSH2 0xFD8 JUMP JUMPDEST PUSH2 0x112 JUMP JUMPDEST STOP JUMPDEST PUSH2 0x9A PUSH1 0x4 DUP1 CALLDATASIZE SUB DUP2 ADD SWAP1 PUSH2 0x95 SWAP2 SWAP1 PUSH2 0x1036 JUMP JUMPDEST PUSH2 0x4D9 JUMP JUMPDEST PUSH1 0x40 MLOAD PUSH2 0xA7 SWAP2 SWAP1 PUSH2 0x1070 JUMP JUMPDEST PUSH1 0x40 MLOAD DUP1 SWAP2 SUB SWAP1 RETURN JUMPDEST PUSH2 0xB8 PUSH2 0x5B9 JUMP JUMPDEST STOP JUMPDEST PUSH2 0xC2 PUSH2 0x82B JUMP JUMPDEST PUSH1 0x40 MLOAD PUSH2 0xCF SWAP2 SWAP1 PUSH2 0x1140 JUMP JUMPDEST PUSH1 0x40 MLOAD DUP1 SWAP2 SUB SWAP1 RETURN JUMPDEST PUSH2 0xF2 PUSH1 0x4 DUP1 CALLDATASIZE SUB DUP2 ADD SWAP1 PUSH2 0xED SWAP2 SWAP1 PUSH2 0xFD8 JUMP JUMPDEST PUSH2 0x92C JUMP JUMPDEST STOP JUMPDEST PUSH2 0xFC PUSH2 0xE34 JUMP JUMPDEST PUSH1 0x40 MLOAD PUSH2 0x109 SWAP2 SWAP1 PUSH2 0x1070 JUMP JUMPDEST PUSH1 0x40 MLOAD DUP1 SWAP2 SUB SWAP1 RETURN JUMPDEST PUSH1 0x5 PUSH0 SWAP1 SLOAD SWAP1 PUSH2 0x100 EXP SWAP1 DIV PUSH1 0xFF AND ISZERO PUSH2 0x161 JUMPI PUSH1 0x40 MLOAD PUSH32 0x8C379A000000000000000000000000000000000000000000000000000000000 DUP2 MSTORE PUSH1 0x4 ADD PUSH2 0x158 SWAP1 PUSH2 0x11BA JUMP JUMPDEST PUSH1 0x40 MLOAD DUP1 SWAP2 SUB SWAP1 REVERT JUMPDEST PUSH0 PUSH1 0x2 PUSH0 DUP4 PUSH20 0xFFFFFFFFFFFFFFFFFFFFFFFFFFFFFFFFFFFFFFFF AND PUSH20 0xFFFFFFFFFFFFFFFFFFFFFFFFFFFFFFFFFFFFFFFF AND DUP2 MSTORE PUSH1 0x20 ADD SWAP1 DUP2 MSTORE PUSH1 0x20 ADD PUSH0 KECCAK256 SLOAD GT PUSH2 0x1E0 JUMPI PUSH1 0x40 MLOAD PUSH32 0x8C379A000000000000000000000000000000000000000000000000000000000 DUP2 MSTORE PUSH1 0x4 ADD PUSH2 0x1D7 SWAP1 PUSH2 0x1222 JUMP JUMPDEST PUSH1 0x40 MLOAD DUP1 SWAP2 SUB SWAP1 REVERT JUMPDEST PUSH0 PUSH1 0x2 PUSH0 CALLER PUSH20 0xFFFFFFFFFFFFFFFFFFFFFFFFFFFFFFFFFFFFFFFF AND PUSH20 0xFFFFFFFFFFFFFFFFFFFFFFFFFFFFFFFFFFFFFFFF AND DUP2 MSTORE PUSH1 0x20 ADD SWAP1 DUP2 MSTORE PUSH1 0x20 ADD PUSH0 KECCAK256 SLOAD EQ PUSH2 0x25F JUMPI PUSH1 0x40 MLOAD PUSH32 0x8C379A000000000000000000000000000000000000000000000000000000000 DUP2 MSTORE PUSH1 0x4 ADD PUSH2 0x256 SWAP1 PUSH2 0x128A JUMP JUMPDEST PUSH1 0x40 MLOAD DUP1 SWAP2 SUB SWAP1 REVERT JUMPDEST PUSH0 PUSH1 0x3 PUSH0 CALLER PUSH20 0xFFFFFFFFFFFFFFFFFFFFFFFFFFFFFFFFFFFFFFFF AND PUSH20 0xFFFFFFFFFFFFFFFFFFFFFFFFFFFFFFFFFFFFFFFF AND DUP2 MSTORE PUSH1 0x20 ADD SWAP1 DUP2 MSTORE PUSH1 0x20 ADD PUSH0 KECCAK256 SLOAD GT PUSH2 0x2DE JUMPI PUSH1 0x40 MLOAD PUSH32 0x8C379A000000000000000000000000000000000000000000000000000000000 DUP2 MSTORE PUSH1 0x4 ADD PUSH2 0x2D5 SWAP1 PUSH2 0x1318 JUMP JUMPDEST PUSH1 0x40 MLOAD DUP1 SWAP2 SUB SWAP1 REVERT JUMPDEST PUSH0 PUSH1 0x7 PUSH1 0x1 PUSH1 0x3 PUSH0 CALLER PUSH20 0xFFFFFFFFFFFFFFFFFFFFFFFFFFFFFFFFFFFFFFFF AND PUSH20 0xFFFFFFFFFFFFFFFFFFFFFFFFFFFFFFFFFFFFFFFF AND DUP2 MSTORE PUSH1 0x20 ADD SWAP1 DUP2 MSTORE PUSH1 0x20 ADD PUSH0 KECCAK256 SLOAD PUSH2 0x32B SWAP2 SWAP1 PUSH2 0x1363 JUMP JUMPDEST DUP2 SLOAD DUP2 LT PUSH2 0x33C JUMPI PUSH2 0x33B PUSH2 0x1396 JUMP JUMPDEST JUMPDEST SWAP1 PUSH0 MSTORE PUSH1 0x20 PUSH0 KECCAK256 SWAP1 PUSH1 0x4 MUL ADD SWAP1 POP DUP1 PUSH0 ADD PUSH1 0x14 SWAP1 SLOAD SWAP1 PUSH2 0x100 EXP SWAP1 DIV PUSH1 0xFF AND PUSH2 0x39A JUMPI PUSH1 0x40 MLOAD PUSH32 0x8C379A000000000000000000000000000000000000000000000000000000000 DUP2 MSTORE PUSH1 0x4 ADD PUSH2 0x391 SWAP1 PUSH2 0x1433 JUMP JUMPDEST PUSH1 0x40 MLOAD DUP1 SWAP2 SUB SWAP1 REVERT JUMPDEST DUP1 PUSH0 ADD PUSH1 0x15 SWAP1 SLOAD SWAP1 PUSH2 0x100 EXP SWAP1 DIV PUSH1 0xFF AND ISZERO PUSH2 0x3EB JUMPI PUSH1 0x40 MLOAD PUSH32 0x8C379A000000000000000000000000000000000000000000000000000000000 DUP2 MSTORE PUSH1 0x4 ADD PUSH2 0x3E2 SWAP1 PUSH2 0x149B JUMP JUMPDEST PUSH1 0x40 MLOAD DUP1 SWAP2 SUB SWAP1 REVERT JUMPDEST PUSH1 0x2 PUSH0 DUP4 PUSH20 0xFFFFFFFFFFFFFFFFFFFFFFFFFFFFFFFFFFFFFFFF AND PUSH20 0xFFFFFFFFFFFFFFFFFFFFFFFFFFFFFFFFFFFFFFFF AND DUP2 MSTORE PUSH1 0x20 ADD SWAP1 DUP2 MSTORE PUSH1 0x20 ADD PUSH0 KECCAK256 SLOAD DUP2 PUSH1 0x1 ADD DUP2 SWAP1 SSTORE POP PUSH1 0x1 DUP2 PUSH0 ADD PUSH1 0x15 PUSH2 0x100 EXP DUP2 SLOAD DUP2 PUSH1 0xFF MUL NOT AND SWAP1 DUP4 ISZERO ISZERO MUL OR SWAP1 SSTORE POP PUSH0 PUSH1 0x6 PUSH1 0x1 PUSH1 0x2 PUSH0 DUP7 PUSH20 0xFFFFFFFFFFFFFFFFFFFFFFFFFFFFFFFFFFFFFFFF AND PUSH20 0xFFFFFFFFFFFFFFFFFFFFFFFFFFFFFFFFFFFFFFFF AND DUP2 MSTORE PUSH1 0x20 ADD SWAP1 DUP2 MSTORE PUSH1 0x20 ADD PUSH0 KECCAK256 SLOAD PUSH2 0x49A SWAP2 SWAP1 PUSH2 0x1363 JUMP JUMPDEST DUP2 SLOAD DUP2 LT PUSH2 0x4AB JUMPI PUSH2 0x4AA PUSH2 0x1396 JUMP JUMPDEST JUMPDEST SWAP1 PUSH0 MSTORE PUSH1 0x20 PUSH0 KECCAK256 SWAP1 PUSH1 0x2 MUL ADD SWAP1 POP PUSH1 0x1 DUP2 PUSH1 0x1 ADD PUSH0 DUP3 DUP3 SLOAD PUSH2 0x4CD SWAP2 SWAP1 PUSH2 0x14B9 JUMP JUMPDEST SWAP3 POP POP DUP2 SWAP1 SSTORE POP POP POP POP JUMP JUMPDEST PUSH0 DUP1 DUP3 GT PUSH2 0x51C JUMPI PUSH1 0x40 MLOAD PUSH32 0x8C379A000000000000000000000000000000000000000000000000000000000 DUP2 MSTORE PUSH1 0x4 ADD PUSH2 0x513 SWAP1 PUSH2 0x1536 JUMP JUMPDEST PUSH1 0x40 MLOAD DUP1 SWAP2 SUB SWAP1 REVERT JUMPDEST PUSH1 0x6 DUP1 SLOAD SWAP1 POP DUP3 GT ISZERO PUSH2 0x564 JUMPI PUSH1 0x40 MLOAD PUSH32 0x8C379A000000000000000000000000000000000000000000000000000000000 DUP2 MSTORE PUSH1 0x4 ADD PUSH2 0x55B SWAP1 PUSH2 0x159E JUMP JUMPDEST PUSH1 0x40 MLOAD DUP1 SWAP2 SUB SWAP1 REVERT JUMPDEST PUSH1 0x6 PUSH1 0x1 DUP4 PUSH2 0x573 SWAP2 SWAP1 PUSH2 0x1363 JUMP JUMPDEST DUP2 SLOAD DUP2 LT PUSH2 0x584 JUMPI PUSH2 0x583 PUSH2 0x1396 JUMP JUMPDEST JUMPDEST SWAP1 PUSH0 MSTORE PUSH1 0x20 PUSH0 KECCAK256 SWAP1 PUSH1 0x2 MUL ADD PUSH0 ADD PUSH0 SWAP1 SLOAD SWAP1 PUSH2 0x100 EXP SWAP1 DIV PUSH20 0xFFFFFFFFFFFFFFFFFFFFFFFFFFFFFFFFFFFFFFFF AND SWAP1 POP SWAP2 SWAP1 POP JUMP JUMPDEST PUSH1 0x5 PUSH0 SWAP1 SLOAD SWAP1 PUSH2 0x100 EXP SWAP1 DIV PUSH1 0xFF AND ISZERO PUSH2 0x608 JUMPI PUSH1 0x40 MLOAD PUSH32 0x8C379A000000000000000000000000000000000000000000000000000000000 DUP2 MSTORE PUSH1 0x4 ADD PUSH2 0x5FF SWAP1 PUSH2 0x11BA JUMP JUMPDEST PUSH1 0x40 MLOAD DUP1 SWAP2 SUB SWAP1 REVERT JUMPDEST PUSH0 PUSH1 0x2 PUSH0 CALLER PUSH20 0xFFFFFFFFFFFFFFFFFFFFFFFFFFFFFFFFFFFFFFFF AND PUSH20 0xFFFFFFFFFFFFFFFFFFFFFFFFFFFFFFFFFFFFFFFF AND DUP2 MSTORE PUSH1 0x20 ADD SWAP1 DUP2 MSTORE PUSH1 0x20 ADD PUSH0 KECCAK256 SLOAD GT PUSH2 0x687 JUMPI PUSH1 0x40 MLOAD PUSH32 0x8C379A000000000000000000000000000000000000000000000000000000000 DUP2 MSTORE PUSH1 0x4 ADD PUSH2 0x67E SWAP1 PUSH2 0x162C JUMP JUMPDEST PUSH1 0x40 MLOAD DUP1 SWAP2 SUB SWAP1 REVERT JUMPDEST PUSH0 ISZERO ISZERO PUSH1 0x8 PUSH0 CALLER PUSH20 0xFFFFFFFFFFFFFFFFFFFFFFFFFFFFFFFFFFFFFFFF AND PUSH20 0xFFFFFFFFFFFFFFFFFFFFFFFFFFFFFFFFFFFFFFFF AND DUP2 MSTORE PUSH1 0x20 ADD SWAP1 DUP2 MSTORE PUSH1 0x20 ADD PUSH0 KECCAK256 PUSH0 SWAP1 SLOAD SWAP1 PUSH2 0x100 EXP SWAP1 DIV PUSH1 0xFF AND ISZERO ISZERO EQ PUSH2 0x716 JUMPI PUSH1 0x40 MLOAD PUSH32 0x8C379A000000000000000000000000000000000000000000000000000000000 DUP2 MSTORE PUSH1 0x4 ADD PUSH2 0x70D SWAP1 PUSH2 0x16E0 JUMP JUMPDEST PUSH1 0x40 MLOAD DUP1 SWAP2 SUB SWAP1 REVERT JUMPDEST PUSH1 0x1 PUSH1 0x8 PUSH0 CALLER PUSH20 0xFFFFFFFFFFFFFFFFFFFFFFFFFFFFFFFFFFFFFFFF AND PUSH20 0xFFFFFFFFFFFFFFFFFFFFFFFFFFFFFFFFFFFFFFFF AND DUP2 MSTORE PUSH1 0x20 ADD SWAP1 DUP2 MSTORE PUSH1 0x20 ADD PUSH0 KECCAK256 PUSH0 PUSH2 0x100 EXP DUP2 SLOAD DUP2 PUSH1 0xFF MUL NOT AND SWAP1 DUP4 ISZERO ISZERO MUL OR SWAP1 SSTORE POP PUSH1 0x1 PUSH1 0x9 PUSH0 DUP3 DUP3 SLOAD PUSH2 0x77D SWAP2 SWAP1 PUSH2 0x14B9 JUMP JUMPDEST SWAP3 POP POP DUP2 SWAP1 SSTORE POP PUSH0 SLOAD PUSH1 0x9 SLOAD SUB PUSH2 0x829 JUMPI PUSH0 DUP1 JUMPDEST PUSH0 SLOAD DUP2 LT ISZERO PUSH2 0x80C JUMPI DUP2 PUSH1 0x6 DUP3 DUP2 SLOAD DUP2 LT PUSH2 0x7AF JUMPI PUSH2 0x7AE PUSH2 0x1396 JUMP JUMPDEST JUMPDEST SWAP1 PUSH0 MSTORE PUSH1 0x20 PUSH0 KECCAK256 SWAP1 PUSH1 0x2 MUL ADD PUSH1 0x1 ADD SLOAD GT ISZERO PUSH2 0x7FF JUMPI PUSH1 0x6 DUP2 DUP2 SLOAD DUP2 LT PUSH2 0x7D9 JUMPI PUSH2 0x7D8 PUSH2 0x1396 JUMP JUMPDEST JUMPDEST SWAP1 PUSH0 MSTORE PUSH1 0x20 PUSH0 KECCAK256 SWAP1 PUSH1 0x2 MUL ADD PUSH1 0x1 ADD SLOAD SWAP2 POP PUSH1 0x1 DUP2 PUSH2 0x7F8 SWAP2 SWAP1 PUSH2 0x14B9 JUMP JUMPDEST PUSH1 0x4 DUP2 SWAP1 SSTORE POP JUMPDEST DUP1 DUP1 PUSH1 0x1 ADD SWAP2 POP POP PUSH2 0x791 JUMP JUMPDEST POP PUSH1 0x1 PUSH1 0x5 PUSH0 PUSH2 0x100 EXP DUP2 SLOAD DUP2 PUSH1 0xFF MUL NOT AND SWAP1 DUP4 ISZERO ISZERO MUL OR SWAP1 SSTORE POP POP JUMPDEST JUMP JUMPDEST PUSH1 0x60 PUSH1 0x6 DUP1 SLOAD SWAP1 POP PUSH8 0xFFFFFFFFFFFFFFFF DUP2 GT ISZERO PUSH2 0x84C JUMPI PUSH2 0x84B PUSH2 0x16FE JUMP JUMPDEST JUMPDEST PUSH1 0x40 MLOAD SWAP1 DUP1 DUP3 MSTORE DUP1 PUSH1 0x20 MUL PUSH1 0x20 ADD DUP3 ADD PUSH1 0x40 MSTORE DUP1 ISZERO PUSH2 0x87A JUMPI DUP2 PUSH1 0x20 ADD PUSH1 0x20 DUP3 MUL DUP1 CALLDATASIZE DUP4 CALLDATACOPY DUP1 DUP3 ADD SWAP2 POP POP SWAP1 POP JUMPDEST POP SWAP1 POP PUSH0 JUMPDEST PUSH1 0x6 DUP1 SLOAD SWAP1 POP DUP2 LT ISZERO PUSH2 0x928 JUMPI PUSH1 0x6 DUP2 DUP2 SLOAD DUP2 LT PUSH2 0x8A0 JUMPI PUSH2 0x89F PUSH2 0x1396 JUMP JUMPDEST JUMPDEST SWAP1 PUSH0 MSTORE PUSH1 0x20 PUSH0 KECCAK256 SWAP1 PUSH1 0x2 MUL ADD PUSH0 ADD PUSH0 SWAP1 SLOAD SWAP1 PUSH2 0x100 EXP SWAP1 DIV PUSH20 0xFFFFFFFFFFFFFFFFFFFFFFFFFFFFFFFFFFFFFFFF AND DUP3 DUP3 DUP2 MLOAD DUP2 LT PUSH2 0x8E1 JUMPI PUSH2 0x8E0 PUSH2 0x1396 JUMP JUMPDEST JUMPDEST PUSH1 0x20 MUL PUSH1 0x20 ADD ADD SWAP1 PUSH20 0xFFFFFFFFFFFFFFFFFFFFFFFFFFFFFFFFFFFFFFFF AND SWAP1 DUP2 PUSH20 0xFFFFFFFFFFFFFFFFFFFFFFFFFFFFFFFFFFFFFFFF AND DUP2 MSTORE POP POP DUP1 DUP1 PUSH1 0x1 ADD SWAP2 POP POP PUSH2 0x87F JUMP JUMPDEST POP SWAP1 JUMP JUMPDEST PUSH1 0x5 PUSH0 SWAP1 SLOAD SWAP1 PUSH2 0x100 EXP SWAP1 DIV PUSH1 0xFF AND ISZERO PUSH2 0x97B JUMPI PUSH1 0x40 MLOAD PUSH32 0x8C379A000000000000000000000000000000000000000000000000000000000 DUP2 MSTORE PUSH1 0x4 ADD PUSH2 0x972 SWAP1 PUSH2 0x11BA JUMP JUMPDEST PUSH1 0x40 MLOAD DUP1 SWAP2 SUB SWAP1 REVERT JUMPDEST PUSH0 PUSH1 0x2 PUSH0 CALLER PUSH20 0xFFFFFFFFFFFFFFFFFFFFFFFFFFFFFFFFFFFFFFFF AND PUSH20 0xFFFFFFFFFFFFFFFFFFFFFFFFFFFFFFFFFFFFFFFF AND DUP2 MSTORE PUSH1 0x20 ADD SWAP1 DUP2 MSTORE PUSH1 0x20 ADD PUSH0 KECCAK256 SLOAD GT PUSH2 0x9FA JUMPI PUSH1 0x40 MLOAD PUSH32 0x8C379A000000000000000000000000000000000000000000000000000000000 DUP2 MSTORE PUSH1 0x4 ADD PUSH2 0x9F1 SWAP1 PUSH2 0x179B JUMP JUMPDEST PUSH1 0x40 MLOAD DUP1 SWAP2 SUB SWAP1 REVERT JUMPDEST PUSH0 PUSH1 0x3 PUSH0 DUP4 PUSH20 0xFFFFFFFFFFFFFFFFFFFFFFFFFFFFFFFFFFFFFFFF AND PUSH20 0xFFFFFFFFFFFFFFFFFFFFFFFFFFFFFFFFFFFFFFFF AND DUP2 MSTORE PUSH1 0x20 ADD SWAP1 DUP2 MSTORE PUSH1 0x20 ADD PUSH0 KECCAK256 SLOAD SUB PUSH2 0xC08 JUMPI PUSH1 0x7 PUSH1 0x40 MLOAD DUP1 PUSH1 0xC0 ADD PUSH1 0x40 MSTORE DUP1 DUP4 PUSH20 0xFFFFFFFFFFFFFFFFFFFFFFFFFFFFFFFFFFFFFFFF AND DUP2 MSTORE PUSH1 0x20 ADD PUSH0 ISZERO ISZERO DUP2 MSTORE PUSH1 0x20 ADD PUSH0 ISZERO ISZERO DUP2 MSTORE PUSH1 0x20 ADD PUSH0 DUP2 MSTORE PUSH1 0x20 ADD PUSH0 SLOAD PUSH8 0xFFFFFFFFFFFFFFFF DUP2 GT ISZERO PUSH2 0xA98 JUMPI PUSH2 0xA97 PUSH2 0x16FE JUMP JUMPDEST JUMPDEST PUSH1 0x40 MLOAD SWAP1 DUP1 DUP3 MSTORE DUP1 PUSH1 0x20 MUL PUSH1 0x20 ADD DUP3 ADD PUSH1 0x40 MSTORE DUP1 ISZERO PUSH2 0xAC6 JUMPI DUP2 PUSH1 0x20 ADD PUSH1 0x20 DUP3 MUL DUP1 CALLDATASIZE DUP4 CALLDATACOPY DUP1 DUP3 ADD SWAP2 POP POP SWAP1 POP JUMPDEST POP DUP2 MSTORE PUSH1 0x20 ADD PUSH0 DUP2 MSTORE POP SWAP1 DUP1 PUSH1 0x1 DUP2 SLOAD ADD DUP1 DUP3 SSTORE DUP1 SWAP2 POP POP PUSH1 0x1 SWAP1 SUB SWAP1 PUSH0 MSTORE PUSH1 0x20 PUSH0 KECCAK256 SWAP1 PUSH1 0x4 MUL ADD PUSH0 SWAP1 SWAP2 SWAP1 SWAP2 SWAP1 SWAP2 POP PUSH0 DUP3 ADD MLOAD DUP2 PUSH0 ADD PUSH0 PUSH2 0x100 EXP DUP2 SLOAD DUP2 PUSH20 0xFFFFFFFFFFFFFFFFFFFFFFFFFFFFFFFFFFFFFFFF MUL NOT AND SWAP1 DUP4 PUSH20 0xFFFFFFFFFFFFFFFFFFFFFFFFFFFFFFFFFFFFFFFF AND MUL OR SWAP1 SSTORE POP PUSH1 0x20 DUP3 ADD MLOAD DUP2 PUSH0 ADD PUSH1 0x14 PUSH2 0x100 EXP DUP2 SLOAD DUP2 PUSH1 0xFF MUL NOT AND SWAP1 DUP4 ISZERO ISZERO MUL OR SWAP1 SSTORE POP PUSH1 0x40 DUP3 ADD MLOAD DUP2 PUSH0 ADD PUSH1 0x15 PUSH2 0x100 EXP DUP2 SLOAD DUP2 PUSH1 0xFF MUL NOT AND SWAP1 DUP4 ISZERO ISZERO MUL OR SWAP1 SSTORE POP PUSH1 0x60 DUP3 ADD MLOAD DUP2 PUSH1 0x1 ADD SSTORE PUSH1 0x80 DUP3 ADD MLOAD DUP2 PUSH1 0x2 ADD SWAP1 DUP1 MLOAD SWAP1 PUSH1 0x20 ADD SWAP1 PUSH2 0xB9E SWAP3 SWAP2 SWAP1 PUSH2 0xED8 JUMP JUMPDEST POP PUSH1 0xA0 DUP3 ADD MLOAD DUP2 PUSH1 0x3 ADD SSTORE POP POP PUSH1 0x1 DUP1 PUSH0 DUP3 DUP3 SLOAD PUSH2 0xBBC SWAP2 SWAP1 PUSH2 0x14B9 JUMP JUMPDEST SWAP3 POP POP DUP2 SWAP1 SSTORE POP PUSH1 0x1 SLOAD PUSH1 0x3 PUSH0 DUP4 PUSH20 0xFFFFFFFFFFFFFFFFFFFFFFFFFFFFFFFFFFFFFFFF AND PUSH20 0xFFFFFFFFFFFFFFFFFFFFFFFFFFFFFFFFFFFFFFFF AND DUP2 MSTORE PUSH1 0x20 ADD SWAP1 DUP2 MSTORE PUSH1 0x20 ADD PUSH0 KECCAK256 DUP2 SWAP1 SSTORE POP JUMPDEST PUSH0 PUSH1 0x7 PUSH1 0x1 PUSH1 0x3 PUSH0 DUP6 PUSH20 0xFFFFFFFFFFFFFFFFFFFFFFFFFFFFFFFFFFFFFFFF AND PUSH20 0xFFFFFFFFFFFFFFFFFFFFFFFFFFFFFFFFFFFFFFFF AND DUP2 MSTORE PUSH1 0x20 ADD SWAP1 DUP2 MSTORE PUSH1 0x20 ADD PUSH0 KECCAK256 SLOAD PUSH2 0xC55 SWAP2 SWAP1 PUSH2 0x1363 JUMP JUMPDEST DUP2 SLOAD DUP2 LT PUSH2 0xC66 JUMPI PUSH2 0xC65 PUSH2 0x1396 JUMP JUMPDEST JUMPDEST SWAP1 PUSH0 MSTORE PUSH1 0x20 PUSH0 KECCAK256 SWAP1 PUSH1 0x4 MUL ADD SWAP1 POP DUP1 PUSH0 ADD PUSH1 0x14 SWAP1 SLOAD SWAP1 PUSH2 0x100 EXP SWAP1 DIV PUSH1 0xFF AND ISZERO PUSH2 0xCC5 JUMPI PUSH1 0x40 MLOAD PUSH32 0x8C379A000000000000000000000000000000000000000000000000000000000 DUP2 MSTORE PUSH1 0x4 ADD PUSH2 0xCBC SWAP1 PUSH2 0x1829 JUMP JUMPDEST PUSH1 0x40 MLOAD DUP1 SWAP2 SUB SWAP1 REVERT JUMPDEST PUSH0 JUMPDEST DUP2 PUSH1 0x3 ADD SLOAD DUP2 LT ISZERO PUSH2 0xD8B JUMPI DUP2 PUSH1 0x2 ADD DUP2 DUP2 SLOAD DUP2 LT PUSH2 0xCE9 JUMPI PUSH2 0xCE8 PUSH2 0x1396 JUMP JUMPDEST JUMPDEST SWAP1 PUSH0 MSTORE PUSH1 0x20 PUSH0 KECCAK256 ADD PUSH0 SWAP1 SLOAD SWAP1 PUSH2 0x100 EXP SWAP1 DIV PUSH20 0xFFFFFFFFFFFFFFFFFFFFFFFFFFFFFFFFFFFFFFFF AND PUSH20 0xFFFFFFFFFFFFFFFFFFFFFFFFFFFFFFFFFFFFFFFF AND CALLER PUSH20 0xFFFFFFFFFFFFFFFFFFFFFFFFFFFFFFFFFFFFFFFF AND SUB PUSH2 0xD7E JUMPI PUSH1 0x40 MLOAD PUSH32 0x8C379A000000000000000000000000000000000000000000000000000000000 DUP2 MSTORE PUSH1 0x4 ADD PUSH2 0xD75 SWAP1 PUSH2 0x18B7 JUMP JUMPDEST PUSH1 0x40 MLOAD DUP1 SWAP2 SUB SWAP1 REVERT JUMPDEST DUP1 DUP1 PUSH1 0x1 ADD SWAP2 POP POP PUSH2 0xCC7 JUMP JUMPDEST POP CALLER DUP2 PUSH1 0x2 ADD DUP3 PUSH1 0x3 ADD SLOAD DUP2 SLOAD DUP2 LT PUSH2 0xDA7 JUMPI PUSH2 0xDA6 PUSH2 0x1396 JUMP JUMPDEST JUMPDEST SWAP1 PUSH0 MSTORE PUSH1 0x20 PUSH0 KECCAK256 ADD PUSH0 PUSH2 0x100 EXP DUP2 SLOAD DUP2 PUSH20 0xFFFFFFFFFFFFFFFFFFFFFFFFFFFFFFFFFFFFFFFF MUL NOT AND SWAP1 DUP4 PUSH20 0xFFFFFFFFFFFFFFFFFFFFFFFFFFFFFFFFFFFFFFFF AND MUL OR SWAP1 SSTORE POP PUSH1 0x1 DUP2 PUSH1 0x3 ADD PUSH0 DUP3 DUP3 SLOAD PUSH2 0xE00 SWAP2 SWAP1 PUSH2 0x14B9 JUMP JUMPDEST SWAP3 POP POP DUP2 SWAP1 SSTORE POP PUSH0 SLOAD DUP2 PUSH1 0x3 ADD SLOAD SUB PUSH2 0xE30 JUMPI PUSH1 0x1 DUP2 PUSH0 ADD PUSH1 0x14 PUSH2 0x100 EXP DUP2 SLOAD DUP2 PUSH1 0xFF MUL NOT AND SWAP1 DUP4 ISZERO ISZERO MUL OR SWAP1 SSTORE POP JUMPDEST POP POP JUMP JUMPDEST PUSH0 PUSH1 0x5 PUSH0 SWAP1 SLOAD SWAP1 PUSH2 0x100 EXP SWAP1 DIV PUSH1 0xFF AND PUSH2 0xE83 JUMPI PUSH1 0x40 MLOAD PUSH32 0x8C379A000000000000000000000000000000000000000000000000000000000 DUP2 MSTORE PUSH1 0x4 ADD PUSH2 0xE7A SWAP1 PUSH2 0x191F JUMP JUMPDEST PUSH1 0x40 MLOAD DUP1 SWAP2 SUB SWAP1 REVERT JUMPDEST PUSH1 0x6 PUSH1 0x1 PUSH1 0x4 SLOAD PUSH2 0xE94 SWAP2 SWAP1 PUSH2 0x1363 JUMP JUMPDEST DUP2 SLOAD DUP2 LT PUSH2 0xEA5 JUMPI PUSH2 0xEA4 PUSH2 0x1396 JUMP JUMPDEST JUMPDEST SWAP1 PUSH0 MSTORE PUSH1 0x20 PUSH0 KECCAK256 SWAP1 PUSH1 0x2 MUL ADD PUSH0 ADD PUSH0 SWAP1 SLOAD SWAP1 PUSH2 0x100 EXP SWAP1 DIV PUSH20 0xFFFFFFFFFFFFFFFFFFFFFFFFFFFFFFFFFFFFFFFF AND SWAP1 POP SWAP1 JUMP JUMPDEST DUP3 DUP1 SLOAD DUP3 DUP3 SSTORE SWAP1 PUSH0 MSTORE PUSH1 0x20 PUSH0 KECCAK256 SWAP1 DUP2 ADD SWAP3 DUP3 ISZERO PUSH2 0xF4E JUMPI SWAP2 PUSH1 0x20 MUL DUP3 ADD JUMPDEST DUP3 DUP2 GT ISZERO PUSH2 0xF4D JUMPI DUP3 MLOAD DUP3 PUSH0 PUSH2 0x100 EXP DUP2 SLOAD DUP2 PUSH20 0xFFFFFFFFFFFFFFFFFFFFFFFFFFFFFFFFFFFFFFFF MUL NOT AND SWAP1 DUP4 PUSH20 0xFFFFFFFFFFFFFFFFFFFFFFFFFFFFFFFFFFFFFFFF AND MUL OR SWAP1 SSTORE POP SWAP2 PUSH1 0x20 ADD SWAP2 SWAP1 PUSH1 0x1 ADD SWAP1 PUSH2 0xEF6 JUMP JUMPDEST JUMPDEST POP SWAP1 POP PUSH2 0xF5B SWAP2 SWAP1 PUSH2 0xF5F JUMP JUMPDEST POP SWAP1 JUMP JUMPDEST JUMPDEST DUP1 DUP3 GT ISZERO PUSH2 0xF76 JUMPI PUSH0 DUP2 PUSH0 SWAP1 SSTORE POP PUSH1 0x1 ADD PUSH2 0xF60 JUMP JUMPDEST POP SWAP1 JUMP JUMPDEST PUSH0 DUP1 REVERT JUMPDEST PUSH0 PUSH20 0xFFFFFFFFFFFFFFFFFFFFFFFFFFFFFFFFFFFFFFFF DUP3 AND SWAP1 POP SWAP2 SWAP1 POP JUMP JUMPDEST PUSH0 PUSH2 0xFA7 DUP3 PUSH2 0xF7E JUMP JUMPDEST SWAP1 POP SWAP2 SWAP1 POP JUMP JUMPDEST PUSH2 0xFB7 DUP2 PUSH2 0xF9D JUMP JUMPDEST DUP2 EQ PUSH2 0xFC1 JUMPI PUSH0 DUP1 REVERT JUMPDEST POP JUMP JUMPDEST PUSH0 DUP2 CALLDATALOAD SWAP1 POP PUSH2 0xFD2 DUP2 PUSH2 0xFAE JUMP JUMPDEST SWAP3 SWAP2 POP POP JUMP JUMPDEST PUSH0 PUSH1 0x20 DUP3 DUP5 SUB SLT ISZERO PUSH2 0xFED JUMPI PUSH2 0xFEC PUSH2 0xF7A JUMP JUMPDEST JUMPDEST PUSH0 PUSH2 0xFFA DUP5 DUP3 DUP6 ADD PUSH2 0xFC4 JUMP JUMPDEST SWAP2 POP POP SWAP3 SWAP2 POP POP JUMP JUMPDEST PUSH0 DUP2 SWAP1 POP SWAP2 SWAP1 POP JUMP JUMPDEST PUSH2 0x1015 DUP2 PUSH2 0x1003 JUMP JUMPDEST DUP2 EQ PUSH2 0x101F JUMPI PUSH0 DUP1 REVERT JUMPDEST POP JUMP JUMPDEST PUSH0 DUP2 CALLDATALOAD SWAP1 POP PUSH2 0x1030 DUP2 PUSH2 0x100C JUMP JUMPDEST SWAP3 SWAP2 POP POP JUMP JUMPDEST PUSH0 PUSH1 0x20 DUP3 DUP5 SUB SLT ISZERO PUSH2 0x104B JUMPI PUSH2 0x104A PUSH2 0xF7A JUMP JUMPDEST JUMPDEST PUSH0 PUSH2 0x1058 DUP5 DUP3 DUP6 ADD PUSH2 0x1022 JUMP JUMPDEST SWAP2 POP POP SWAP3 SWAP2 POP POP JUMP JUMPDEST PUSH2 0x106A DUP2 PUSH2 0xF9D JUMP JUMPDEST DUP3 MSTORE POP POP JUMP JUMPDEST PUSH0 PUSH1 0x20 DUP3 ADD SWAP1 POP PUSH2 0x1083 PUSH0 DUP4 ADD DUP5 PUSH2 0x1061 JUMP JUMPDEST SWAP3 SWAP2 POP POP JUMP JUMPDEST PUSH0 DUP2 MLOAD SWAP1 POP SWAP2 SWAP1 POP JUMP JUMPDEST PUSH0 DUP3 DUP3 MSTORE PUSH1 0x20 DUP3 ADD SWAP1 POP SWAP3 SWAP2 POP POP JUMP JUMPDEST PUSH0 DUP2 SWAP1 POP PUSH1 0x20 DUP3 ADD SWAP1 POP SWAP2 SWAP1 POP JUMP JUMPDEST PUSH2 0x10BB DUP2 PUSH2 0xF9D JUMP JUMPDEST DUP3 MSTORE POP POP JUMP JUMPDEST PUSH0 PUSH2 0x10CC DUP4 DUP4 PUSH2 0x10B2 JUMP JUMPDEST PUSH1 0x20 DUP4 ADD SWAP1 POP SWAP3 SWAP2 POP POP JUMP JUMPDEST PUSH0 PUSH1 0x20 DUP3 ADD SWAP1 POP SWAP2 SWAP1 POP JUMP JUMPDEST PUSH0 PUSH2 0x10EE DUP3 PUSH2 0x1089 JUMP JUMPDEST PUSH2 0x10F8 DUP2 DUP6 PUSH2 0x1093 JUMP JUMPDEST SWAP4 POP PUSH2 0x1103 DUP4 PUSH2 0x10A3 JUMP JUMPDEST DUP1 PUSH0 JUMPDEST DUP4 DUP2 LT ISZERO PUSH2 0x1133 JUMPI DUP2 MLOAD PUSH2 0x111A DUP9 DUP3 PUSH2 0x10C1 JUMP JUMPDEST SWAP8 POP PUSH2 0x1125 DUP4 PUSH2 0x10D8 JUMP JUMPDEST SWAP3 POP POP PUSH1 0x1 DUP2 ADD SWAP1 POP PUSH2 0x1106 JUMP JUMPDEST POP DUP6 SWAP4 POP POP POP POP SWAP3 SWAP2 POP POP JUMP JUMPDEST PUSH0 PUSH1 0x20 DUP3 ADD SWAP1 POP DUP2 DUP2 SUB PUSH0 DUP4 ADD MSTORE PUSH2 0x1158 DUP2 DUP5 PUSH2 0x10E4 JUMP JUMPDEST SWAP1 POP SWAP3 SWAP2 POP POP JUMP JUMPDEST PUSH0 DUP3 DUP3 MSTORE PUSH1 0x20 DUP3 ADD SWAP1 POP SWAP3 SWAP2 POP POP JUMP JUMPDEST PUSH32 0x456C656374696F6E2068617320616C72656164792066696E6973686564000000 PUSH0 DUP3 ADD MSTORE POP JUMP JUMPDEST PUSH0 PUSH2 0x11A4 PUSH1 0x1D DUP4 PUSH2 0x1160 JUMP JUMPDEST SWAP2 POP PUSH2 0x11AF DUP3 PUSH2 0x1170 JUMP JUMPDEST PUSH1 0x20 DUP3 ADD SWAP1 POP SWAP2 SWAP1 POP JUMP JUMPDEST PUSH0 PUSH1 0x20 DUP3 ADD SWAP1 POP DUP2 DUP2 SUB PUSH0 DUP4 ADD MSTORE PUSH2 0x11D1 DUP2 PUSH2 0x1198 JUMP JUMPDEST SWAP1 POP SWAP2 SWAP1 POP JUMP JUMPDEST PUSH32 0x43616E64696461746520646F206E6F7420657869737400000000000000000000 PUSH0 DUP3 ADD MSTORE POP JUMP JUMPDEST PUSH0 PUSH2 0x120C PUSH1 0x16 DUP4 PUSH2 0x1160 JUMP JUMPDEST SWAP2 POP PUSH2 0x1217 DUP3 PUSH2 0x11D8 JUMP JUMPDEST PUSH1 0x20 DUP3 ADD SWAP1 POP SWAP2 SWAP1 POP JUMP JUMPDEST PUSH0 PUSH1 0x20 DUP3 ADD SWAP1 POP DUP2 DUP2 SUB PUSH0 DUP4 ADD MSTORE PUSH2 0x1239 DUP2 PUSH2 0x1200 JUMP JUMPDEST SWAP1 POP SWAP2 SWAP1 POP JUMP JUMPDEST PUSH32 0x4F6E6C7920766F746572732063616E206361737420766F746500000000000000 PUSH0 DUP3 ADD MSTORE POP JUMP JUMPDEST PUSH0 PUSH2 0x1274 PUSH1 0x19 DUP4 PUSH2 0x1160 JUMP JUMPDEST SWAP2 POP PUSH2 0x127F DUP3 PUSH2 0x1240 JUMP JUMPDEST PUSH1 0x20 DUP3 ADD SWAP1 POP SWAP2 SWAP1 POP JUMP JUMPDEST PUSH0 PUSH1 0x20 DUP3 ADD SWAP1 POP DUP2 DUP2 SUB PUSH0 DUP4 ADD MSTORE PUSH2 0x12A1 DUP2 PUSH2 0x1268 JUMP JUMPDEST SWAP1 POP SWAP2 SWAP1 POP JUMP JUMPDEST PUSH32 0x566F746572206973206E6F7420616464656420696E2074686520656C65637469 PUSH0 DUP3 ADD MSTORE PUSH32 0x6F6E000000000000000000000000000000000000000000000000000000000000 PUSH1 0x20 DUP3 ADD MSTORE POP JUMP JUMPDEST PUSH0 PUSH2 0x1302 PUSH1 0x22 DUP4 PUSH2 0x1160 JUMP JUMPDEST SWAP2 POP PUSH2 0x130D DUP3 PUSH2 0x12A8 JUMP JUMPDEST PUSH1 0x40 DUP3 ADD SWAP1 POP SWAP2 SWAP1 POP JUMP JUMPDEST PUSH0 PUSH1 0x20 DUP3 ADD SWAP1 POP DUP2 DUP2 SUB PUSH0 DUP4 ADD MSTORE PUSH2 0x132F DUP2 PUSH2 0x12F6 JUMP JUMPDEST SWAP1 POP SWAP2 SWAP1 POP JUMP JUMPDEST PUSH32 0x4E487B7100000000000000000000000000000000000000000000000000000000 PUSH0 MSTORE PUSH1 0x11 PUSH1 0x4 MSTORE PUSH1 0x24 PUSH0 REVERT JUMPDEST PUSH0 PUSH2 0x136D DUP3 PUSH2 0x1003 JUMP JUMPDEST SWAP2 POP PUSH2 0x1378 DUP4 PUSH2 0x1003 JUMP JUMPDEST SWAP3 POP DUP3 DUP3 SUB SWAP1 POP DUP2 DUP2 GT ISZERO PUSH2 0x1390 JUMPI PUSH2 0x138F PUSH2 0x1336 JUMP JUMPDEST JUMPDEST SWAP3 SWAP2 POP POP JUMP JUMPDEST PUSH32 0x4E487B7100000000000000000000000000000000000000000000000000000000 PUSH0 MSTORE PUSH1 0x32 PUSH1 0x4 MSTORE PUSH1 0x24 PUSH0 REVERT JUMPDEST PUSH32 0x566F746572206973206E6F742079657420656C696769626C6520746F20636173 PUSH0 DUP3 ADD MSTORE PUSH32 0x7420766F74650000000000000000000000000000000000000000000000000000 PUSH1 0x20 DUP3 ADD MSTORE POP JUMP JUMPDEST PUSH0 PUSH2 0x141D PUSH1 0x26 DUP4 PUSH2 0x1160 JUMP JUMPDEST SWAP2 POP PUSH2 0x1428 DUP3 PUSH2 0x13C3 JUMP JUMPDEST PUSH1 0x40 DUP3 ADD SWAP1 POP SWAP2 SWAP1 POP JUMP JUMPDEST PUSH0 PUSH1 0x20 DUP3 ADD SWAP1 POP DUP2 DUP2 SUB PUSH0 DUP4 ADD MSTORE PUSH2 0x144A DUP2 PUSH2 0x1411 JUMP JUMPDEST SWAP1 POP SWAP2 SWAP1 POP JUMP JUMPDEST PUSH32 0x566F7465722068617320616C726561647920636173742069747320766F746500 PUSH0 DUP3 ADD MSTORE POP JUMP JUMPDEST PUSH0 PUSH2 0x1485 PUSH1 0x1F DUP4 PUSH2 0x1160 JUMP JUMPDEST SWAP2 POP PUSH2 0x1490 DUP3 PUSH2 0x1451 JUMP JUMPDEST PUSH1 0x20 DUP3 ADD SWAP1 POP SWAP2 SWAP1 POP JUMP JUMPDEST PUSH0 PUSH1 0x20 DUP3 ADD SWAP1 POP DUP2 DUP2 SUB PUSH0 DUP4 ADD MSTORE PUSH2 0x14B2 DUP2 PUSH2 0x1479 JUMP JUMPDEST SWAP1 POP SWAP2 SWAP1 POP JUMP JUMPDEST PUSH0 PUSH2 0x14C3 DUP3 PUSH2 0x1003 JUMP JUMPDEST SWAP2 POP PUSH2 0x14CE DUP4 PUSH2 0x1003 JUMP JUMPDEST SWAP3 POP DUP3 DUP3 ADD SWAP1 POP DUP1 DUP3 GT ISZERO PUSH2 0x14E6 JUMPI PUSH2 0x14E5 PUSH2 0x1336 JUMP JUMPDEST JUMPDEST SWAP3 SWAP2 POP POP JUMP JUMPDEST PUSH32 0x43616E646964617465204964206D757374206265203E20300000000000000000 PUSH0 DUP3 ADD MSTORE POP JUMP JUMPDEST PUSH0 PUSH2 0x1520 PUSH1 0x18 DUP4 PUSH2 0x1160 JUMP JUMPDEST SWAP2 POP PUSH2 0x152B DUP3 PUSH2 0x14EC JUMP JUMPDEST PUSH1 0x20 DUP3 ADD SWAP1 POP SWAP2 SWAP1 POP JUMP JUMPDEST PUSH0 PUSH1 0x20 DUP3 ADD SWAP1 POP DUP2 DUP2 SUB PUSH0 DUP4 ADD MSTORE PUSH2 0x154D DUP2 PUSH2 0x1514 JUMP JUMPDEST SWAP1 POP SWAP2 SWAP1 POP JUMP JUMPDEST PUSH32 0x43616E64696461746520496420646F206E6F7420657869737400000000000000 PUSH0 DUP3 ADD MSTORE POP JUMP JUMPDEST PUSH0 PUSH2 0x1588 PUSH1 0x19 DUP4 PUSH2 0x1160 JUMP JUMPDEST SWAP2 POP PUSH2 0x1593 DUP3 PUSH2 0x1554 JUMP JUMPDEST PUSH1 0x20 DUP3 ADD SWAP1 POP SWAP2 SWAP1 POP JUMP JUMPDEST PUSH0 PUSH1 0x20 DUP3 ADD SWAP1 POP DUP2 DUP2 SUB PUSH0 DUP4 ADD MSTORE PUSH2 0x15B5 DUP2 PUSH2 0x157C JUMP JUMPDEST SWAP1 POP SWAP2 SWAP1 POP JUMP JUMPDEST PUSH32 0x4F6E6C792063616E6469646174652063616E2063616C6C20746869732066756E PUSH0 DUP3 ADD MSTORE PUSH32 0x6374696F6E000000000000000000000000000000000000000000000000000000 PUSH1 0x20 DUP3 ADD MSTORE POP JUMP JUMPDEST PUSH0 PUSH2 0x1616 PUSH1 0x25 DUP4 PUSH2 0x1160 JUMP JUMPDEST SWAP2 POP PUSH2 0x1621 DUP3 PUSH2 0x15BC JUMP JUMPDEST PUSH1 0x40 DUP3 ADD SWAP1 POP SWAP2 SWAP1 POP JUMP JUMPDEST PUSH0 PUSH1 0x20 DUP3 ADD SWAP1 POP DUP2 DUP2 SUB PUSH0 DUP4 ADD MSTORE PUSH2 0x1643 DUP2 PUSH2 0x160A JUMP JUMPDEST SWAP1 POP SWAP2 SWAP1 POP JUMP JUMPDEST PUSH32 0x596F75206861766520616C72656164792063616C6C656420746869732066756E PUSH0 DUP3 ADD MSTORE PUSH32 0x6374696F6E2E205761697420666F72206F746865722063616E64696461746573 PUSH1 0x20 DUP3 ADD MSTORE PUSH32 0x20746F2063616C6C20656E6420746F20656C656374696F6E0000000000000000 PUSH1 0x40 DUP3 ADD MSTORE POP JUMP JUMPDEST PUSH0 PUSH2 0x16CA PUSH1 0x58 DUP4 PUSH2 0x1160 JUMP JUMPDEST SWAP2 POP PUSH2 0x16D5 DUP3 PUSH2 0x164A JUMP JUMPDEST PUSH1 0x60 DUP3 ADD SWAP1 POP SWAP2 SWAP1 POP JUMP JUMPDEST PUSH0 PUSH1 0x20 DUP3 ADD SWAP1 POP DUP2 DUP2 SUB PUSH0 DUP4 ADD MSTORE PUSH2 0x16F7 DUP2 PUSH2 0x16BE JUMP JUMPDEST SWAP1 POP SWAP2 SWAP1 POP JUMP JUMPDEST PUSH32 0x4E487B7100000000000000000000000000000000000000000000000000000000 PUSH0 MSTORE PUSH1 0x41 PUSH1 0x4 MSTORE PUSH1 0x24 PUSH0 REVERT JUMPDEST PUSH32 0x4F6E6C792063616E6469646174652063616E2077686974656C69737420746865 PUSH0 DUP3 ADD MSTORE PUSH32 0x20766F7465720000000000000000000000000000000000000000000000000000 PUSH1 0x20 DUP3 ADD MSTORE POP JUMP JUMPDEST PUSH0 PUSH2 0x1785 PUSH1 0x26 DUP4 PUSH2 0x1160 JUMP JUMPDEST SWAP2 POP PUSH2 0x1790 DUP3 PUSH2 0x172B JUMP JUMPDEST PUSH1 0x40 DUP3 ADD SWAP1 POP SWAP2 SWAP1 POP JUMP JUMPDEST PUSH0 PUSH1 0x20 DUP3 ADD SWAP1 POP DUP2 DUP2 SUB PUSH0 DUP4 ADD MSTORE PUSH2 0x17B2 DUP2 PUSH2 0x1779 JUMP JUMPDEST SWAP1 POP SWAP2 SWAP1 POP JUMP JUMPDEST PUSH32 0x566F74657220697320616C726561647920656C696769626C6520746F20766F74 PUSH0 DUP3 ADD MSTORE PUSH32 0x6500000000000000000000000000000000000000000000000000000000000000 PUSH1 0x20 DUP3 ADD MSTORE POP JUMP JUMPDEST PUSH0 PUSH2 0x1813 PUSH1 0x21 DUP4 PUSH2 0x1160 JUMP JUMPDEST SWAP2 POP PUSH2 0x181E DUP3 PUSH2 0x17B9 JUMP JUMPDEST PUSH1 0x40 DUP3 ADD SWAP1 POP SWAP2 SWAP1 POP JUMP JUMPDEST PUSH0 PUSH1 0x20 DUP3 ADD SWAP1 POP DUP2 DUP2 SUB PUSH0 DUP4 ADD MSTORE PUSH2 0x1840 DUP2 PUSH2 0x1807 JUMP JUMPDEST SWAP1 POP SWAP2 SWAP1 POP JUMP JUMPDEST PUSH32 0x566F7465722068617320616C7265616479206265656E2077686974656C697374 PUSH0 DUP3 ADD MSTORE PUSH32 0x656420627920796F750000000000000000000000000000000000000000000000 PUSH1 0x20 DUP3 ADD MSTORE POP JUMP JUMPDEST PUSH0 PUSH2 0x18A1 PUSH1 0x29 DUP4 PUSH2 0x1160 JUMP JUMPDEST SWAP2 POP PUSH2 0x18AC DUP3 PUSH2 0x1847 JUMP JUMPDEST PUSH1 0x40 DUP3 ADD SWAP1 POP SWAP2 SWAP1 POP JUMP JUMPDEST PUSH0 PUSH1 0x20 DUP3 ADD SWAP1 POP DUP2 DUP2 SUB PUSH0 DUP4 ADD MSTORE PUSH2 0x18CE DUP2 PUSH2 0x1895 JUMP JUMPDEST SWAP1 POP SWAP2 SWAP1 POP JUMP JUMPDEST PUSH32 0x54686520656C656374696F6E206973207374696C6C2072756E6E696E67000000 PUSH0 DUP3 ADD MSTORE POP JUMP JUMPDEST PUSH0 PUSH2 0x1909 PUSH1 0x1D DUP4 PUSH2 0x1160 JUMP JUMPDEST SWAP2 POP PUSH2 0x1914 DUP3 PUSH2 0x18D5 JUMP JUMPDEST PUSH1 0x20 DUP3 ADD SWAP1 POP SWAP2 SWAP1 POP JUMP JUMPDEST PUSH0 PUSH1 0x20 DUP3 ADD SWAP1 POP DUP2 DUP2 SUB PUSH0 DUP4 ADD MSTORE PUSH2 0x1936 DUP2 PUSH2 0x18FD JUMP JUMPDEST SWAP1 POP SWAP2 SWAP1 POP JUMP INVALID LOG2 PUSH5 0x6970667358 0x22 SLT KECCAK256 0xD 0xB9 0xD1 SWAP12 SLOAD CREATE 0xFB 0xE2 MSTORE8 DUP7 0x4C 0xB8 0x2D PUSH23 0x1AB27B5FD4F980D68B2189893CF423880CB264736F6C63 NUMBER STOP ADDMOD BYTE STOP CALLER "
				},
				"gasEstimates": {
					"creation": {
						"codeDepositCost": "1303000",
						"executionCost": "infinite",
						"totalCost": "infinite"
					},
					"external": {
						"electionCandidates()": "infinite",
						"endElection()": "infinite",
						"getCandidate(uint256)": "infinite",
						"getWinningCandidate()": "infinite",
						"voteCandidate(address)": "infinite",
						"whitelistVoter(address)": "infinite"
					}
				},
				"methodIdentifiers": {
					"electionCandidates()": "721f720c",
					"endElection()": "59f78468",
					"getCandidate(uint256)": "35b8e820",
					"getWinningCandidate()": "f927cc29",
					"voteCandidate(address)": "26bb886d",
					"whitelistVoter(address)": "bddf1ce9"
				}
			},
			"storageLayout": {
				"storage": [
					{
						"astId": 23,
						"contract": "Lab11/contracts/Voting.sol:Election",
						"label": "numCandidates",
						"offset": 0,
						"slot": "0",
						"type": "t_uint256"
					},
					{
						"astId": 26,
						"contract": "Lab11/contracts/Voting.sol:Election",
						"label": "numVoters",
						"offset": 0,
						"slot": "1",
						"type": "t_uint256"
					},
					{
						"astId": 30,
						"contract": "Lab11/contracts/Voting.sol:Election",
						"label": "candidateId",
						"offset": 0,
						"slot": "2",
						"type": "t_mapping(t_address,t_uint256)"
					},
					{
						"astId": 34,
						"contract": "Lab11/contracts/Voting.sol:Election",
						"label": "voterId",
						"offset": 0,
						"slot": "3",
						"type": "t_mapping(t_address,t_uint256)"
					},
					{
						"astId": 36,
						"contract": "Lab11/contracts/Voting.sol:Election",
						"label": "winnerId",
						"offset": 0,
						"slot": "4",
						"type": "t_uint256"
					},
					{
						"astId": 38,
						"contract": "Lab11/contracts/Voting.sol:Election",
						"label": "finished",
						"offset": 0,
						"slot": "5",
						"type": "t_bool"
					},
					{
						"astId": 42,
						"contract": "Lab11/contracts/Voting.sol:Election",
						"label": "candidates",
						"offset": 0,
						"slot": "6",
						"type": "t_array(t_struct(Candidate)6_storage)dyn_storage"
					},
					{
						"astId": 46,
						"contract": "Lab11/contracts/Voting.sol:Election",
						"label": "voters",
						"offset": 0,
						"slot": "7",
						"type": "t_array(t_struct(Voter)20_storage)dyn_storage"
					},
					{
						"astId": 50,
						"contract": "Lab11/contracts/Voting.sol:Election",
						"label": "callEndElection",
						"offset": 0,
						"slot": "8",
						"type": "t_mapping(t_address,t_bool)"
					},
					{
						"astId": 53,
						"contract": "Lab11/contracts/Voting.sol:Election",
						"label": "endElectionCount",
						"offset": 0,
						"slot": "9",
						"type": "t_uint256"
					}
				],
				"types": {
					"t_address": {
						"encoding": "inplace",
						"label": "address",
						"numberOfBytes": "20"
					},
					"t_array(t_address)dyn_storage": {
						"base": "t_address",
						"encoding": "dynamic_array",
						"label": "address[]",
						"numberOfBytes": "32"
					},
					"t_array(t_struct(Candidate)6_storage)dyn_storage": {
						"base": "t_struct(Candidate)6_storage",
						"encoding": "dynamic_array",
						"label": "struct Election.Candidate[]",
						"numberOfBytes": "32"
					},
					"t_array(t_struct(Voter)20_storage)dyn_storage": {
						"base": "t_struct(Voter)20_storage",
						"encoding": "dynamic_array",
						"label": "struct Election.Voter[]",
						"numberOfBytes": "32"
					},
					"t_bool": {
						"encoding": "inplace",
						"label": "bool",
						"numberOfBytes": "1"
					},
					"t_mapping(t_address,t_bool)": {
						"encoding": "mapping",
						"key": "t_address",
						"label": "mapping(address => bool)",
						"numberOfBytes": "32",
						"value": "t_bool"
					},
					"t_mapping(t_address,t_uint256)": {
						"encoding": "mapping",
						"key": "t_address",
						"label": "mapping(address => uint256)",
						"numberOfBytes": "32",
						"value": "t_uint256"
					},
					"t_struct(Candidate)6_storage": {
						"encoding": "inplace",
						"label": "struct Election.Candidate",
						"members": [
							{
								"astId": 3,
								"contract": "Lab11/contracts/Voting.sol:Election",
								"label": "addr",
								"offset": 0,
								"slot": "0",
								"type": "t_address"
							},
							{
								"astId": 5,
								"contract": "Lab11/contracts/Voting.sol:Election",
								"label": "votes",
								"offset": 0,
								"slot": "1",
								"type": "t_uint256"
							}
						],
						"numberOfBytes": "64"
					},
					"t_struct(Voter)20_storage": {
						"encoding": "inplace",
						"label": "struct Election.Voter",
						"members": [
							{
								"astId": 8,
								"contract": "Lab11/contracts/Voting.sol:Election",
								"label": "addr",
								"offset": 0,
								"slot": "0",
								"type": "t_address"
							},
							{
								"astId": 10,
								"contract": "Lab11/contracts/Voting.sol:Election",
								"label": "eligible",
								"offset": 20,
								"slot": "0",
								"type": "t_bool"
							},
							{
								"astId": 12,
								"contract": "Lab11/contracts/Voting.sol:Election",
								"label": "voted",
								"offset": 21,
								"slot": "0",
								"type": "t_bool"
							},
							{
								"astId": 14,
								"contract": "Lab11/contracts/Voting.sol:Election",
								"label": "candidateId",
								"offset": 0,
								"slot": "1",
								"type": "t_uint256"
							},
							{
								"astId": 17,
								"contract": "Lab11/contracts/Voting.sol:Election",
								"label": "whitelistedBy",
								"offset": 0,
								"slot": "2",
								"type": "t_array(t_address)dyn_storage"
							},
							{
								"astId": 19,
								"contract": "Lab11/contracts/Voting.sol:Election",
								"label": "whitelistCount",
								"offset": 0,
								"slot": "3",
								"type": "t_uint256"
							}
						],
						"numberOfBytes": "128"
					},
					"t_uint256": {
						"encoding": "inplace",
						"label": "uint256",
						"numberOfBytes": "32"
					}
				}
			},
			"userdoc": {
				"kind": "user",
				"methods": {},
				"version": 1
			}
		}
	}
}