{
	"Lab10/LotteryFive.sol": {
		"LotteryFive": {
			"abi": [
				{
					"inputs": [],
					"stateMutability": "nonpayable",
					"type": "constructor"
				},
				{
					"anonymous": false,
					"inputs": [
						{
							"indexed": true,
							"internalType": "address",
							"name": "from",
							"type": "address"
						},
						{
							"indexed": true,
							"internalType": "address",
							"name": "to",
							"type": "address"
						}
					],
					"name": "OwnershipTransferRequested",
					"type": "event"
				},
				{
					"anonymous": false,
					"inputs": [
						{
							"indexed": true,
							"internalType": "address",
							"name": "from",
							"type": "address"
						},
						{
							"indexed": true,
							"internalType": "address",
							"name": "to",
							"type": "address"
						}
					],
					"name": "OwnershipTransferred",
					"type": "event"
				},
				{
					"inputs": [],
					"name": "acceptOwnership",
					"outputs": [],
					"stateMutability": "nonpayable",
					"type": "function"
				},
				{
					"inputs": [
						{
							"internalType": "uint256",
							"name": "_round",
							"type": "uint256"
						}
					],
					"name": "checkWinner",
					"outputs": [
						{
							"internalType": "address",
							"name": "",
							"type": "address"
						}
					],
					"stateMutability": "view",
					"type": "function"
				},
				{
					"inputs": [],
					"name": "contractBalance",
					"outputs": [
						{
							"internalType": "uint256",
							"name": "",
							"type": "uint256"
						}
					],
					"stateMutability": "view",
					"type": "function"
				},
				{
					"inputs": [],
					"name": "currentRound",
					"outputs": [
						{
							"internalType": "uint256",
							"name": "",
							"type": "uint256"
						}
					],
					"stateMutability": "view",
					"type": "function"
				},
				{
					"inputs": [],
					"name": "join",
					"outputs": [],
					"stateMutability": "payable",
					"type": "function"
				},
				{
					"inputs": [],
					"name": "owner",
					"outputs": [
						{
							"internalType": "address",
							"name": "",
							"type": "address"
						}
					],
					"stateMutability": "view",
					"type": "function"
				},
				{
					"inputs": [],
					"name": "performDraw",
					"outputs": [
						{
							"internalType": "uint256",
							"name": "",
							"type": "uint256"
						}
					],
					"stateMutability": "nonpayable",
					"type": "function"
				},
				{
					"inputs": [
						{
							"internalType": "uint256",
							"name": "_requestId",
							"type": "uint256"
						},
						{
							"internalType": "uint256[]",
							"name": "_randomWords",
							"type": "uint256[]"
						}
					],
					"name": "rawFulfillRandomWords",
					"outputs": [],
					"stateMutability": "nonpayable",
					"type": "function"
				},
				{
					"inputs": [
						{
							"internalType": "uint256",
							"name": "_round",
							"type": "uint256"
						}
					],
					"name": "redeemPrize",
					"outputs": [],
					"stateMutability": "nonpayable",
					"type": "function"
				},
				{
					"inputs": [
						{
							"internalType": "uint256",
							"name": "",
							"type": "uint256"
						}
					],
					"name": "roundsCompleted",
					"outputs": [
						{
							"internalType": "uint256",
							"name": "",
							"type": "uint256"
						}
					],
					"stateMutability": "view",
					"type": "function"
				},
				{
					"inputs": [
						{
							"internalType": "address",
							"name": "to",
							"type": "address"
						}
					],
					"name": "transferOwnership",
					"outputs": [],
					"stateMutability": "nonpayable",
					"type": "function"
				},
				{
					"inputs": [],
					"name": "withdraw",
					"outputs": [],
					"stateMutability": "nonpayable",
					"type": "function"
				},
				{
					"inputs": [],
					"name": "withdrawLink",
					"outputs": [],
					"stateMutability": "nonpayable",
					"type": "function"
				}
			],
			"devdoc": {
				"kind": "dev",
				"methods": {},
				"version": 1
			},
			"evm": {
				"assembly": "    /* \"Lab10/LotteryFive.sol\":2898:7479  contract LotteryFive is VRF {... */\n  mstore(0x40, 0xc0)\n    /* \"Lab10/LotteryFive.sol\":1034:1040  100000 */\n  0x0186a0\n    /* \"Lab10/LotteryFive.sol\":1008:1040  uint32 callbackGasLimit = 100000 */\n  0x05\n  exp(0x0100, 0x00)\n  dup2\n  sload\n  dup2\n  0xffffffff\n  mul\n  not\n  and\n  swap1\n  dup4\n  0xffffffff\n  and\n  mul\n  or\n  swap1\n  sstore\n  pop\n    /* \"Lab10/LotteryFive.sol\":1134:1135  3 */\n  0x03\n    /* \"Lab10/LotteryFive.sol\":1104:1135  uint16 requestConfirmations = 3 */\n  0x05\n  exp(0x0100, 0x04)\n  dup2\n  sload\n  dup2\n  0xffff\n  mul\n  not\n  and\n  swap1\n  dup4\n  0xffff\n  and\n  mul\n  or\n  swap1\n  sstore\n  pop\n    /* \"Lab10/LotteryFive.sol\":1289:1290  1 */\n  0x01\n    /* \"Lab10/LotteryFive.sol\":1271:1290  uint32 numWords = 1 */\n  0x05\n  exp(0x0100, 0x06)\n  dup2\n  sload\n  dup2\n  0xffffffff\n  mul\n  not\n  and\n  swap1\n  dup4\n  0xffffffff\n  and\n  mul\n  or\n  swap1\n  sstore\n  pop\n    /* \"Lab10/LotteryFive.sol\":1366:1408  0x779877A7B0D9E8603169DdbD7836e478b4624789 */\n  0x779877a7b0d9e8603169ddbd7836e478b4624789\n    /* \"Lab10/LotteryFive.sol\":1344:1408  address linkAddress = 0x779877A7B0D9E8603169DdbD7836e478b4624789 */\n  0x05\n  exp(0x0100, 0x0a)\n  dup2\n  sload\n  dup2\n  0xffffffffffffffffffffffffffffffffffffffff\n  mul\n  not\n  and\n  swap1\n  dup4\n  0xffffffffffffffffffffffffffffffffffffffff\n  and\n  mul\n  or\n  swap1\n  sstore\n  pop\n    /* \"Lab10/LotteryFive.sol\":1490:1532  0xab18414CD93297B0d12ac29E63Ca20f515b3DB46 */\n  0xab18414cd93297b0d12ac29e63ca20f515b3db46\n    /* \"Lab10/LotteryFive.sol\":1465:1532  address wrapperAddress = 0xab18414CD93297B0d12ac29E63Ca20f515b3DB46 */\n  0x06\n  exp(0x0100, 0x00)\n  dup2\n  sload\n  dup2\n  0xffffffffffffffffffffffffffffffffffffffff\n  mul\n  not\n  and\n  swap1\n  dup4\n  0xffffffffffffffffffffffffffffffffffffffff\n  and\n  mul\n  or\n  swap1\n  sstore\n  pop\n    /* \"Lab10/LotteryFive.sol\":3621:3899  constructor() VRF() {... */\n  callvalue\n  dup1\n  iszero\n  tag_1\n  jumpi\n  0x00\n  dup1\n  revert\ntag_1:\n  pop\n    /* \"Lab10/LotteryFive.sol\":1579:1589  msg.sender */\n  caller\n    /* \"@chainlink/contracts/src/v0.8/shared/access/ConfirmedOwner.sol\":355:363  newOwner */\n  dup1\n    /* \"@chainlink/contracts/src/v0.8/shared/access/ConfirmedOwner.sol\":373:374  0 */\n  0x00\n    /* \"Lab10/LotteryFive.sol\":1625:1636  linkAddress */\n  0x05\n  0x0a\n  swap1\n  sload\n  swap1\n  0x0100\n  exp\n  swap1\n  div\n  0xffffffffffffffffffffffffffffffffffffffff\n  and\n    /* \"Lab10/LotteryFive.sol\":1638:1652  wrapperAddress */\n  0x06\n  0x00\n  swap1\n  sload\n  swap1\n  0x0100\n  exp\n  swap1\n  div\n  0xffffffffffffffffffffffffffffffffffffffff\n  and\n    /* \"@chainlink/contracts/src/v0.8/vrf/VRFV2WrapperConsumerBase.sol\":2169:2174  _link */\n  dup2\n    /* \"@chainlink/contracts/src/v0.8/vrf/VRFV2WrapperConsumerBase.sol\":2143:2175  LINK = LinkTokenInterface(_link) */\n  0xffffffffffffffffffffffffffffffffffffffff\n  and\n  0x80\n  dup2\n  0xffffffffffffffffffffffffffffffffffffffff\n  and\n  dup2\n  mstore\n  pop\n  pop\n    /* \"@chainlink/contracts/src/v0.8/vrf/VRFV2WrapperConsumerBase.sol\":2220:2233  _vrfV2Wrapper */\n  dup1\n    /* \"@chainlink/contracts/src/v0.8/vrf/VRFV2WrapperConsumerBase.sol\":2181:2234  VRF_V2_WRAPPER = VRFV2WrapperInterface(_vrfV2Wrapper) */\n  0xffffffffffffffffffffffffffffffffffffffff\n  and\n  0xa0\n  dup2\n  0xffffffffffffffffffffffffffffffffffffffff\n  and\n  dup2\n  mstore\n  pop\n  pop\n    /* \"@chainlink/contracts/src/v0.8/vrf/VRFV2WrapperConsumerBase.sol\":2087:2239  constructor(address _link, address _vrfV2Wrapper) {... */\n  pop\n  pop\n    /* \"@chainlink/contracts/src/v0.8/shared/access/ConfirmedOwnerWithProposal.sol\":618:619  0 */\n  0x00\n    /* \"@chainlink/contracts/src/v0.8/shared/access/ConfirmedOwnerWithProposal.sol\":598:620  newOwner != address(0) */\n  0xffffffffffffffffffffffffffffffffffffffff\n  and\n    /* \"@chainlink/contracts/src/v0.8/shared/access/ConfirmedOwnerWithProposal.sol\":598:606  newOwner */\n  dup3\n    /* \"@chainlink/contracts/src/v0.8/shared/access/ConfirmedOwnerWithProposal.sol\":598:620  newOwner != address(0) */\n  0xffffffffffffffffffffffffffffffffffffffff\n  and\n  sub\n    /* \"@chainlink/contracts/src/v0.8/shared/access/ConfirmedOwnerWithProposal.sol\":590:649  require(newOwner != address(0), \"Cannot set owner to zero\") */\n  tag_9\n  jumpi\n  mload(0x40)\n  0x08c379a000000000000000000000000000000000000000000000000000000000\n  dup2\n  mstore\n  0x04\n  add\n  tag_10\n  swap1\n  tag_11\n  jump\t// in\ntag_10:\n  mload(0x40)\n  dup1\n  swap2\n  sub\n  swap1\n  revert\ntag_9:\n    /* \"@chainlink/contracts/src/v0.8/shared/access/ConfirmedOwnerWithProposal.sol\":666:674  newOwner */\n  dup2\n    /* \"@chainlink/contracts/src/v0.8/shared/access/ConfirmedOwnerWithProposal.sol\":656:663  s_owner */\n  0x00\n  dup1\n    /* \"@chainlink/contracts/src/v0.8/shared/access/ConfirmedOwnerWithProposal.sol\":656:674  s_owner = newOwner */\n  0x0100\n  exp\n  dup2\n  sload\n  dup2\n  0xffffffffffffffffffffffffffffffffffffffff\n  mul\n  not\n  and\n  swap1\n  dup4\n  0xffffffffffffffffffffffffffffffffffffffff\n  and\n  mul\n  or\n  swap1\n  sstore\n  pop\n    /* \"@chainlink/contracts/src/v0.8/shared/access/ConfirmedOwnerWithProposal.sol\":708:709  0 */\n  0x00\n    /* \"@chainlink/contracts/src/v0.8/shared/access/ConfirmedOwnerWithProposal.sol\":684:710  pendingOwner != address(0) */\n  0xffffffffffffffffffffffffffffffffffffffff\n  and\n    /* \"@chainlink/contracts/src/v0.8/shared/access/ConfirmedOwnerWithProposal.sol\":684:696  pendingOwner */\n  dup2\n    /* \"@chainlink/contracts/src/v0.8/shared/access/ConfirmedOwnerWithProposal.sol\":684:710  pendingOwner != address(0) */\n  0xffffffffffffffffffffffffffffffffffffffff\n  and\n  eq\n    /* \"@chainlink/contracts/src/v0.8/shared/access/ConfirmedOwnerWithProposal.sol\":680:759  if (pendingOwner != address(0)) {... */\n  tag_12\n  jumpi\n    /* \"@chainlink/contracts/src/v0.8/shared/access/ConfirmedOwnerWithProposal.sol\":720:752  _transferOwnership(pendingOwner) */\n  tag_13\n    /* \"@chainlink/contracts/src/v0.8/shared/access/ConfirmedOwnerWithProposal.sol\":739:751  pendingOwner */\n  dup2\n    /* \"@chainlink/contracts/src/v0.8/shared/access/ConfirmedOwnerWithProposal.sol\":720:738  _transferOwnership */\n  shl(0x20, tag_14)\n    /* \"@chainlink/contracts/src/v0.8/shared/access/ConfirmedOwnerWithProposal.sol\":720:752  _transferOwnership(pendingOwner) */\n  0x20\n  shr\n  jump\t// in\ntag_13:\n    /* \"@chainlink/contracts/src/v0.8/shared/access/ConfirmedOwnerWithProposal.sol\":680:759  if (pendingOwner != address(0)) {... */\ntag_12:\n    /* \"@chainlink/contracts/src/v0.8/shared/access/ConfirmedOwnerWithProposal.sol\":481:763  constructor(address newOwner, address pendingOwner) {... */\n  pop\n  pop\n    /* \"@chainlink/contracts/src/v0.8/shared/access/ConfirmedOwner.sol\":298:379  constructor(address newOwner) ConfirmedOwnerWithProposal(newOwner, address(0)) {} */\n  pop\n    /* \"Lab10/LotteryFive.sol\":3667:3668  1 */\n  0x01\n    /* \"Lab10/LotteryFive.sol\":3652:3664  currentRound */\n  0x08\n    /* \"Lab10/LotteryFive.sol\":3652:3668  currentRound = 1 */\n  dup2\n  swap1\n  sstore\n  pop\n    /* \"Lab10/LotteryFive.sol\":3679:3708  RoundState storage roundState */\n  0x00\n    /* \"Lab10/LotteryFive.sol\":3711:3722  roundStates */\n  0x0a\n    /* \"Lab10/LotteryFive.sol\":3711:3736  roundStates[currentRound] */\n  0x00\n    /* \"Lab10/LotteryFive.sol\":3723:3735  currentRound */\n  sload(0x08)\n    /* \"Lab10/LotteryFive.sol\":3711:3736  roundStates[currentRound] */\n  dup2\n  mstore\n  0x20\n  add\n  swap1\n  dup2\n  mstore\n  0x20\n  add\n  0x00\n  keccak256\n    /* \"Lab10/LotteryFive.sol\":3679:3736  RoundState storage roundState = roundStates[currentRound] */\n  swap1\n  pop\n    /* \"Lab10/LotteryFive.sol\":3751:3757  uint i */\n  0x00\n    /* \"Lab10/LotteryFive.sol\":3747:3892  for(uint i = 0; i < 5; i++) {... */\ntag_18:\n    /* \"Lab10/LotteryFive.sol\":3767:3768  5 */\n  0x05\n    /* \"Lab10/LotteryFive.sol\":3763:3764  i */\n  dup2\n    /* \"Lab10/LotteryFive.sol\":3763:3768  i < 5 */\n  lt\n    /* \"Lab10/LotteryFive.sol\":3747:3892  for(uint i = 0; i < 5; i++) {... */\n  iszero\n  tag_19\n  jumpi\n    /* \"Lab10/LotteryFive.sol\":3790:3810  Member memory member */\n  0x00\n    /* \"Lab10/LotteryFive.sol\":3813:3834  Member(address(0), 0) */\n  mload(0x40)\n  dup1\n  0x40\n  add\n  0x40\n  mstore\n  dup1\n    /* \"Lab10/LotteryFive.sol\":3828:3829  0 */\n  0x00\n    /* \"Lab10/LotteryFive.sol\":3813:3834  Member(address(0), 0) */\n  0xffffffffffffffffffffffffffffffffffffffff\n  and\n  dup2\n  mstore\n  0x20\n  add\n    /* \"Lab10/LotteryFive.sol\":3832:3833  0 */\n  0x00\n    /* \"Lab10/LotteryFive.sol\":3813:3834  Member(address(0), 0) */\n  dup2\n  mstore\n  pop\n    /* \"Lab10/LotteryFive.sol\":3790:3834  Member memory member = Member(address(0), 0) */\n  swap1\n  pop\n    /* \"Lab10/LotteryFive.sol\":3849:3859  roundState */\n  dup3\n    /* \"Lab10/LotteryFive.sol\":3849:3867  roundState.members */\n  0x00\n  add\n    /* \"Lab10/LotteryFive.sol\":3873:3879  member */\n  dup2\n    /* \"Lab10/LotteryFive.sol\":3849:3880  roundState.members.push(member) */\n  swap1\n  dup1\n  0x01\n  dup2\n  sload\n  add\n  dup1\n  dup3\n  sstore\n  dup1\n  swap2\n  pop\n  pop\n  0x01\n  swap1\n  sub\n  swap1\n  0x00\n  mstore\n  keccak256(0x00, 0x20)\n  swap1\n  0x02\n  mul\n  add\n  0x00\n  swap1\n  swap2\n  swap1\n  swap2\n  swap1\n  swap2\n  pop\n  0x00\n  dup3\n  add\n  mload\n  dup2\n  0x00\n  add\n  exp(0x0100, 0x00)\n  dup2\n  sload\n  dup2\n  0xffffffffffffffffffffffffffffffffffffffff\n  mul\n  not\n  and\n  swap1\n  dup4\n  0xffffffffffffffffffffffffffffffffffffffff\n  and\n  mul\n  or\n  swap1\n  sstore\n  pop\n  0x20\n  dup3\n  add\n  mload\n  dup2\n  0x01\n  add\n  sstore\n  pop\n  pop\n    /* \"Lab10/LotteryFive.sol\":3775:3892  {... */\n  pop\n    /* \"Lab10/LotteryFive.sol\":3770:3773  i++ */\n  dup1\n  dup1\n  0x01\n  add\n  swap2\n  pop\n  pop\n    /* \"Lab10/LotteryFive.sol\":3747:3892  for(uint i = 0; i < 5; i++) {... */\n  jump(tag_18)\ntag_19:\n  pop\n    /* \"Lab10/LotteryFive.sol\":3641:3899  {... */\n  pop\n    /* \"Lab10/LotteryFive.sol\":2898:7479  contract LotteryFive is VRF {... */\n  jump(tag_22)\n    /* \"@chainlink/contracts/src/v0.8/shared/access/ConfirmedOwnerWithProposal.sol\":1536:1775  function _transferOwnership(address to) private {... */\ntag_14:\n    /* \"@chainlink/contracts/src/v0.8/shared/access/ConfirmedOwnerWithProposal.sol\":1655:1665  msg.sender */\n  caller\n    /* \"@chainlink/contracts/src/v0.8/shared/access/ConfirmedOwnerWithProposal.sol\":1649:1665  to != msg.sender */\n  0xffffffffffffffffffffffffffffffffffffffff\n  and\n    /* \"@chainlink/contracts/src/v0.8/shared/access/ConfirmedOwnerWithProposal.sol\":1649:1651  to */\n  dup2\n    /* \"@chainlink/contracts/src/v0.8/shared/access/ConfirmedOwnerWithProposal.sol\":1649:1665  to != msg.sender */\n  0xffffffffffffffffffffffffffffffffffffffff\n  and\n  sub\n    /* \"@chainlink/contracts/src/v0.8/shared/access/ConfirmedOwnerWithProposal.sol\":1641:1693  require(to != msg.sender, \"Cannot transfer to self\") */\n  tag_24\n  jumpi\n  mload(0x40)\n  0x08c379a000000000000000000000000000000000000000000000000000000000\n  dup2\n  mstore\n  0x04\n  add\n  tag_25\n  swap1\n  tag_26\n  jump\t// in\ntag_25:\n  mload(0x40)\n  dup1\n  swap2\n  sub\n  swap1\n  revert\ntag_24:\n    /* \"@chainlink/contracts/src/v0.8/shared/access/ConfirmedOwnerWithProposal.sol\":1717:1719  to */\n  dup1\n    /* \"@chainlink/contracts/src/v0.8/shared/access/ConfirmedOwnerWithProposal.sol\":1700:1714  s_pendingOwner */\n  0x01\n  0x00\n    /* \"@chainlink/contracts/src/v0.8/shared/access/ConfirmedOwnerWithProposal.sol\":1700:1719  s_pendingOwner = to */\n  0x0100\n  exp\n  dup2\n  sload\n  dup2\n  0xffffffffffffffffffffffffffffffffffffffff\n  mul\n  not\n  and\n  swap1\n  dup4\n  0xffffffffffffffffffffffffffffffffffffffff\n  and\n  mul\n  or\n  swap1\n  sstore\n  pop\n    /* \"@chainlink/contracts/src/v0.8/shared/access/ConfirmedOwnerWithProposal.sol\":1767:1769  to */\n  dup1\n    /* \"@chainlink/contracts/src/v0.8/shared/access/ConfirmedOwnerWithProposal.sol\":1731:1770  OwnershipTransferRequested(s_owner, to) */\n  0xffffffffffffffffffffffffffffffffffffffff\n  and\n    /* \"@chainlink/contracts/src/v0.8/shared/access/ConfirmedOwnerWithProposal.sol\":1758:1765  s_owner */\n  0x00\n  dup1\n  sload\n  swap1\n  0x0100\n  exp\n  swap1\n  div\n  0xffffffffffffffffffffffffffffffffffffffff\n  and\n    /* \"@chainlink/contracts/src/v0.8/shared/access/ConfirmedOwnerWithProposal.sol\":1731:1770  OwnershipTransferRequested(s_owner, to) */\n  0xffffffffffffffffffffffffffffffffffffffff\n  and\n  0xed8889f560326eb138920d842192f0eb3dd22b4f139c87a2c57538e05bae1278\n  mload(0x40)\n  mload(0x40)\n  dup1\n  swap2\n  sub\n  swap1\n  log3\n    /* \"@chainlink/contracts/src/v0.8/shared/access/ConfirmedOwnerWithProposal.sol\":1536:1775  function _transferOwnership(address to) private {... */\n  pop\n  jump\t// out\n    /* \"#utility.yul\":7:176   */\ntag_27:\n    /* \"#utility.yul\":91:102   */\n  0x00\n    /* \"#utility.yul\":125:131   */\n  dup3\n    /* \"#utility.yul\":120:123   */\n  dup3\n    /* \"#utility.yul\":113:132   */\n  mstore\n    /* \"#utility.yul\":165:169   */\n  0x20\n    /* \"#utility.yul\":160:163   */\n  dup3\n    /* \"#utility.yul\":156:170   */\n  add\n    /* \"#utility.yul\":141:170   */\n  swap1\n  pop\n    /* \"#utility.yul\":7:176   */\n  swap3\n  swap2\n  pop\n  pop\n  jump\t// out\n    /* \"#utility.yul\":182:356   */\ntag_28:\n    /* \"#utility.yul\":322:348   */\n  0x43616e6e6f7420736574206f776e657220746f207a65726f0000000000000000\n    /* \"#utility.yul\":318:319   */\n  0x00\n    /* \"#utility.yul\":310:316   */\n  dup3\n    /* \"#utility.yul\":306:320   */\n  add\n    /* \"#utility.yul\":299:349   */\n  mstore\n    /* \"#utility.yul\":182:356   */\n  pop\n  jump\t// out\n    /* \"#utility.yul\":362:728   */\ntag_29:\n    /* \"#utility.yul\":504:507   */\n  0x00\n    /* \"#utility.yul\":525:592   */\n  tag_36\n    /* \"#utility.yul\":589:591   */\n  0x18\n    /* \"#utility.yul\":584:587   */\n  dup4\n    /* \"#utility.yul\":525:592   */\n  tag_27\n  jump\t// in\ntag_36:\n    /* \"#utility.yul\":518:592   */\n  swap2\n  pop\n    /* \"#utility.yul\":601:694   */\n  tag_37\n    /* \"#utility.yul\":690:693   */\n  dup3\n    /* \"#utility.yul\":601:694   */\n  tag_28\n  jump\t// in\ntag_37:\n    /* \"#utility.yul\":719:721   */\n  0x20\n    /* \"#utility.yul\":714:717   */\n  dup3\n    /* \"#utility.yul\":710:722   */\n  add\n    /* \"#utility.yul\":703:722   */\n  swap1\n  pop\n    /* \"#utility.yul\":362:728   */\n  swap2\n  swap1\n  pop\n  jump\t// out\n    /* \"#utility.yul\":734:1153   */\ntag_11:\n    /* \"#utility.yul\":900:904   */\n  0x00\n    /* \"#utility.yul\":938:940   */\n  0x20\n    /* \"#utility.yul\":927:936   */\n  dup3\n    /* \"#utility.yul\":923:941   */\n  add\n    /* \"#utility.yul\":915:941   */\n  swap1\n  pop\n    /* \"#utility.yul\":987:996   */\n  dup2\n    /* \"#utility.yul\":981:985   */\n  dup2\n    /* \"#utility.yul\":977:997   */\n  sub\n    /* \"#utility.yul\":973:974   */\n  0x00\n    /* \"#utility.yul\":962:971   */\n  dup4\n    /* \"#utility.yul\":958:975   */\n  add\n    /* \"#utility.yul\":951:998   */\n  mstore\n    /* \"#utility.yul\":1015:1146   */\n  tag_39\n    /* \"#utility.yul\":1141:1145   */\n  dup2\n    /* \"#utility.yul\":1015:1146   */\n  tag_29\n  jump\t// in\ntag_39:\n    /* \"#utility.yul\":1007:1146   */\n  swap1\n  pop\n    /* \"#utility.yul\":734:1153   */\n  swap2\n  swap1\n  pop\n  jump\t// out\n    /* \"#utility.yul\":1159:1332   */\ntag_30:\n    /* \"#utility.yul\":1299:1324   */\n  0x43616e6e6f74207472616e7366657220746f2073656c66000000000000000000\n    /* \"#utility.yul\":1295:1296   */\n  0x00\n    /* \"#utility.yul\":1287:1293   */\n  dup3\n    /* \"#utility.yul\":1283:1297   */\n  add\n    /* \"#utility.yul\":1276:1325   */\n  mstore\n    /* \"#utility.yul\":1159:1332   */\n  pop\n  jump\t// out\n    /* \"#utility.yul\":1338:1704   */\ntag_31:\n    /* \"#utility.yul\":1480:1483   */\n  0x00\n    /* \"#utility.yul\":1501:1568   */\n  tag_42\n    /* \"#utility.yul\":1565:1567   */\n  0x17\n    /* \"#utility.yul\":1560:1563   */\n  dup4\n    /* \"#utility.yul\":1501:1568   */\n  tag_27\n  jump\t// in\ntag_42:\n    /* \"#utility.yul\":1494:1568   */\n  swap2\n  pop\n    /* \"#utility.yul\":1577:1670   */\n  tag_43\n    /* \"#utility.yul\":1666:1669   */\n  dup3\n    /* \"#utility.yul\":1577:1670   */\n  tag_30\n  jump\t// in\ntag_43:\n    /* \"#utility.yul\":1695:1697   */\n  0x20\n    /* \"#utility.yul\":1690:1693   */\n  dup3\n    /* \"#utility.yul\":1686:1698   */\n  add\n    /* \"#utility.yul\":1679:1698   */\n  swap1\n  pop\n    /* \"#utility.yul\":1338:1704   */\n  swap2\n  swap1\n  pop\n  jump\t// out\n    /* \"#utility.yul\":1710:2129   */\ntag_26:\n    /* \"#utility.yul\":1876:1880   */\n  0x00\n    /* \"#utility.yul\":1914:1916   */\n  0x20\n    /* \"#utility.yul\":1903:1912   */\n  dup3\n    /* \"#utility.yul\":1899:1917   */\n  add\n    /* \"#utility.yul\":1891:1917   */\n  swap1\n  pop\n    /* \"#utility.yul\":1963:1972   */\n  dup2\n    /* \"#utility.yul\":1957:1961   */\n  dup2\n    /* \"#utility.yul\":1953:1973   */\n  sub\n    /* \"#utility.yul\":1949:1950   */\n  0x00\n    /* \"#utility.yul\":1938:1947   */\n  dup4\n    /* \"#utility.yul\":1934:1951   */\n  add\n    /* \"#utility.yul\":1927:1974   */\n  mstore\n    /* \"#utility.yul\":1991:2122   */\n  tag_45\n    /* \"#utility.yul\":2117:2121   */\n  dup2\n    /* \"#utility.yul\":1991:2122   */\n  tag_31\n  jump\t// in\ntag_45:\n    /* \"#utility.yul\":1983:2122   */\n  swap1\n  pop\n    /* \"#utility.yul\":1710:2129   */\n  swap2\n  swap1\n  pop\n  jump\t// out\n    /* \"Lab10/LotteryFive.sol\":2898:7479  contract LotteryFive is VRF {... */\ntag_22:\n  mload(0x80)\n  mload(0xa0)\n  codecopy(0x00, dataOffset(sub_0), dataSize(sub_0))\n  0x00\n  assignImmutable(\"0xf6cb0138da7c8b3468e7e4d8ba389a3263d4efb90e59a6ce914e87b867b16a00\")\n  0x00\n  assignImmutable(\"0x064aab4cf973af3102587bae83caeab28cf75517d40727c9b952f0d14fb521fa\")\n  return(0x00, dataSize(sub_0))\nstop\n\nsub_0: assembly {\n        /* \"Lab10/LotteryFive.sol\":2898:7479  contract LotteryFive is VRF {... */\n      mstore(0x40, 0x80)\n      jumpi(tag_1, lt(calldatasize, 0x04))\n      shr(0xe0, calldataload(0x00))\n      dup1\n      0x8a19c8bc\n      gt\n      tag_15\n      jumpi\n      dup1\n      0x8da5cb5b\n      gt\n      tag_16\n      jumpi\n      dup1\n      0x8da5cb5b\n      eq\n      tag_11\n      jumpi\n      dup1\n      0x8dc654a2\n      eq\n      tag_12\n      jumpi\n      dup1\n      0xb688a363\n      eq\n      tag_13\n      jumpi\n      dup1\n      0xf2fde38b\n      eq\n      tag_14\n      jumpi\n      jump(tag_1)\n    tag_16:\n      dup1\n      0x8a19c8bc\n      eq\n      tag_8\n      jumpi\n      dup1\n      0x8a82c3e9\n      eq\n      tag_9\n      jumpi\n      dup1\n      0x8b7afe2e\n      eq\n      tag_10\n      jumpi\n      jump(tag_1)\n    tag_15:\n      dup1\n      0x18854939\n      eq\n      tag_2\n      jumpi\n      dup1\n      0x1fe543e3\n      eq\n      tag_3\n      jumpi\n      dup1\n      0x289af10c\n      eq\n      tag_4\n      jumpi\n      dup1\n      0x3ccfd60b\n      eq\n      tag_5\n      jumpi\n      dup1\n      0x4cdb5d40\n      eq\n      tag_6\n      jumpi\n      dup1\n      0x79ba5097\n      eq\n      tag_7\n      jumpi\n    tag_1:\n      0x00\n      dup1\n      revert\n        /* \"Lab10/LotteryFive.sol\":4555:5200  function checkWinner(uint _round) public view returns (address) {... */\n    tag_2:\n      callvalue\n      dup1\n      iszero\n      tag_17\n      jumpi\n      0x00\n      dup1\n      revert\n    tag_17:\n      pop\n      tag_18\n      0x04\n      dup1\n      calldatasize\n      sub\n      dup2\n      add\n      swap1\n      tag_19\n      swap2\n      swap1\n      tag_20\n      jump\t// in\n    tag_19:\n      tag_21\n      jump\t// in\n    tag_18:\n      mload(0x40)\n      tag_22\n      swap2\n      swap1\n      tag_23\n      jump\t// in\n    tag_22:\n      mload(0x40)\n      dup1\n      swap2\n      sub\n      swap1\n      return\n        /* \"@chainlink/contracts/src/v0.8/vrf/VRFV2WrapperConsumerBase.sol\":3804:4088  function rawFulfillRandomWords(uint256 _requestId, uint256[] memory _randomWords) external {... */\n    tag_3:\n      callvalue\n      dup1\n      iszero\n      tag_24\n      jumpi\n      0x00\n      dup1\n      revert\n    tag_24:\n      pop\n      tag_25\n      0x04\n      dup1\n      calldatasize\n      sub\n      dup2\n      add\n      swap1\n      tag_26\n      swap2\n      swap1\n      tag_27\n      jump\t// in\n    tag_26:\n      tag_28\n      jump\t// in\n    tag_25:\n      stop\n        /* \"Lab10/LotteryFive.sol\":6690:7353  function redeemPrize(uint _round) external {... */\n    tag_4:\n      callvalue\n      dup1\n      iszero\n      tag_29\n      jumpi\n      0x00\n      dup1\n      revert\n    tag_29:\n      pop\n      tag_30\n      0x04\n      dup1\n      calldatasize\n      sub\n      dup2\n      add\n      swap1\n      tag_31\n      swap2\n      swap1\n      tag_20\n      jump\t// in\n    tag_31:\n      tag_32\n      jump\t// in\n    tag_30:\n      stop\n        /* \"Lab10/LotteryFive.sol\":6070:6682  function withdraw() external {... */\n    tag_5:\n      callvalue\n      dup1\n      iszero\n      tag_33\n      jumpi\n      0x00\n      dup1\n      revert\n    tag_33:\n      pop\n      tag_34\n      tag_35\n      jump\t// in\n    tag_34:\n      stop\n        /* \"Lab10/LotteryFive.sol\":3907:4547  function performDraw() external onlyOwner returns (uint256) {... */\n    tag_6:\n      callvalue\n      dup1\n      iszero\n      tag_36\n      jumpi\n      0x00\n      dup1\n      revert\n    tag_36:\n      pop\n      tag_37\n      tag_38\n      jump\t// in\n    tag_37:\n      mload(0x40)\n      tag_39\n      swap2\n      swap1\n      tag_40\n      jump\t// in\n    tag_39:\n      mload(0x40)\n      dup1\n      swap2\n      sub\n      swap1\n      return\n        /* \"@chainlink/contracts/src/v0.8/shared/access/ConfirmedOwnerWithProposal.sol\":1026:1342  function acceptOwnership() external override {... */\n    tag_7:\n      callvalue\n      dup1\n      iszero\n      tag_41\n      jumpi\n      0x00\n      dup1\n      revert\n    tag_41:\n      pop\n      tag_42\n      tag_43\n      jump\t// in\n    tag_42:\n      stop\n        /* \"Lab10/LotteryFive.sol\":3132:3156  uint public currentRound */\n    tag_8:\n      callvalue\n      dup1\n      iszero\n      tag_44\n      jumpi\n      0x00\n      dup1\n      revert\n    tag_44:\n      pop\n      tag_45\n      tag_46\n      jump\t// in\n    tag_45:\n      mload(0x40)\n      tag_47\n      swap2\n      swap1\n      tag_40\n      jump\t// in\n    tag_47:\n      mload(0x40)\n      dup1\n      swap2\n      sub\n      swap1\n      return\n        /* \"Lab10/LotteryFive.sol\":3096:3125  uint[] public roundsCompleted */\n    tag_9:\n      callvalue\n      dup1\n      iszero\n      tag_48\n      jumpi\n      0x00\n      dup1\n      revert\n    tag_48:\n      pop\n      tag_49\n      0x04\n      dup1\n      calldatasize\n      sub\n      dup2\n      add\n      swap1\n      tag_50\n      swap2\n      swap1\n      tag_20\n      jump\t// in\n    tag_50:\n      tag_51\n      jump\t// in\n    tag_49:\n      mload(0x40)\n      tag_52\n      swap2\n      swap1\n      tag_40\n      jump\t// in\n    tag_52:\n      mload(0x40)\n      dup1\n      swap2\n      sub\n      swap1\n      return\n        /* \"Lab10/LotteryFive.sol\":7361:7474  function contractBalance() external onlyOwner view returns (uint) {... */\n    tag_10:\n      callvalue\n      dup1\n      iszero\n      tag_53\n      jumpi\n      0x00\n      dup1\n      revert\n    tag_53:\n      pop\n      tag_54\n      tag_55\n      jump\t// in\n    tag_54:\n      mload(0x40)\n      tag_56\n      swap2\n      swap1\n      tag_40\n      jump\t// in\n    tag_56:\n      mload(0x40)\n      dup1\n      swap2\n      sub\n      swap1\n      return\n        /* \"@chainlink/contracts/src/v0.8/shared/access/ConfirmedOwnerWithProposal.sol\":1382:1463  function owner() public view override returns (address) {... */\n    tag_11:\n      callvalue\n      dup1\n      iszero\n      tag_57\n      jumpi\n      0x00\n      dup1\n      revert\n    tag_57:\n      pop\n      tag_58\n      tag_59\n      jump\t// in\n    tag_58:\n      mload(0x40)\n      tag_60\n      swap2\n      swap1\n      tag_23\n      jump\t// in\n    tag_60:\n      mload(0x40)\n      dup1\n      swap2\n      sub\n      swap1\n      return\n        /* \"Lab10/LotteryFive.sol\":2639:2891  function withdrawLink() public onlyOwner {... */\n    tag_12:\n      callvalue\n      dup1\n      iszero\n      tag_61\n      jumpi\n      0x00\n      dup1\n      revert\n    tag_61:\n      pop\n      tag_62\n      tag_63\n      jump\t// in\n    tag_62:\n      stop\n        /* \"Lab10/LotteryFive.sol\":5208:6062  function join() external payable {... */\n    tag_13:\n      tag_64\n      tag_65\n      jump\t// in\n    tag_64:\n      stop\n        /* \"@chainlink/contracts/src/v0.8/shared/access/ConfirmedOwnerWithProposal.sol\":847:945  function transferOwnership(address to) public override onlyOwner {... */\n    tag_14:\n      callvalue\n      dup1\n      iszero\n      tag_66\n      jumpi\n      0x00\n      dup1\n      revert\n    tag_66:\n      pop\n      tag_67\n      0x04\n      dup1\n      calldatasize\n      sub\n      dup2\n      add\n      swap1\n      tag_68\n      swap2\n      swap1\n      tag_69\n      jump\t// in\n    tag_68:\n      tag_70\n      jump\t// in\n    tag_67:\n      stop\n        /* \"Lab10/LotteryFive.sol\":4555:5200  function checkWinner(uint _round) public view returns (address) {... */\n    tag_21:\n        /* \"Lab10/LotteryFive.sol\":4610:4617  address */\n      0x00\n        /* \"Lab10/LotteryFive.sol\":4647:4648  0 */\n      dup1\n        /* \"Lab10/LotteryFive.sol\":4638:4644  _round */\n      dup3\n        /* \"Lab10/LotteryFive.sol\":4638:4648  _round > 0 */\n      gt\n        /* \"Lab10/LotteryFive.sol\":4630:4681  require(_round > 0, 'round must be greater than 0') */\n      tag_72\n      jumpi\n      mload(0x40)\n      0x08c379a000000000000000000000000000000000000000000000000000000000\n      dup2\n      mstore\n      0x04\n      add\n      tag_73\n      swap1\n      tag_74\n      jump\t// in\n    tag_73:\n      mload(0x40)\n      dup1\n      swap2\n      sub\n      swap1\n      revert\n    tag_72:\n        /* \"Lab10/LotteryFive.sol\":4709:4721  currentRound */\n      sload(0x08)\n        /* \"Lab10/LotteryFive.sol\":4700:4706  _round */\n      dup3\n        /* \"Lab10/LotteryFive.sol\":4700:4721  _round < currentRound */\n      lt\n        /* \"Lab10/LotteryFive.sol\":4692:4767  require(_round < currentRound, 'round must be less than the current round') */\n      tag_75\n      jumpi\n      mload(0x40)\n      0x08c379a000000000000000000000000000000000000000000000000000000000\n      dup2\n      mstore\n      0x04\n      add\n      tag_76\n      swap1\n      tag_77\n      jump\t// in\n    tag_76:\n      mload(0x40)\n      dup1\n      swap2\n      sub\n      swap1\n      revert\n    tag_75:\n        /* \"Lab10/LotteryFive.sol\":4778:4795  uint256 requestId */\n      0x00\n        /* \"Lab10/LotteryFive.sol\":4798:4803  draws */\n      0x09\n        /* \"Lab10/LotteryFive.sol\":4798:4811  draws[_round] */\n      0x00\n        /* \"Lab10/LotteryFive.sol\":4804:4810  _round */\n      dup5\n        /* \"Lab10/LotteryFive.sol\":4798:4811  draws[_round] */\n      dup2\n      mstore\n      0x20\n      add\n      swap1\n      dup2\n      mstore\n      0x20\n      add\n      0x00\n      keccak256\n      sload\n        /* \"Lab10/LotteryFive.sol\":4778:4811  uint256 requestId = draws[_round] */\n      swap1\n      pop\n        /* \"Lab10/LotteryFive.sol\":4822:4857  RequestStatus storage requestStatus */\n      0x00\n        /* \"Lab10/LotteryFive.sol\":4860:4870  s_requests */\n      0x02\n        /* \"Lab10/LotteryFive.sol\":4860:4881  s_requests[requestId] */\n      0x00\n        /* \"Lab10/LotteryFive.sol\":4871:4880  requestId */\n      dup4\n        /* \"Lab10/LotteryFive.sol\":4860:4881  s_requests[requestId] */\n      dup2\n      mstore\n      0x20\n      add\n      swap1\n      dup2\n      mstore\n      0x20\n      add\n      0x00\n      keccak256\n        /* \"Lab10/LotteryFive.sol\":4822:4881  RequestStatus storage requestStatus = s_requests[requestId] */\n      swap1\n      pop\n        /* \"Lab10/LotteryFive.sol\":4896:4909  requestStatus */\n      dup1\n        /* \"Lab10/LotteryFive.sol\":4896:4919  requestStatus.fulfilled */\n      0x01\n      add\n      0x00\n      swap1\n      sload\n      swap1\n      0x0100\n      exp\n      swap1\n      div\n      0xff\n      and\n        /* \"Lab10/LotteryFive.sol\":4892:5165  if (requestStatus.fulfilled) {... */\n      iszero\n      tag_78\n      jumpi\n        /* \"Lab10/LotteryFive.sol\":4936:4955  uint256 randomValue */\n      0x00\n        /* \"Lab10/LotteryFive.sol\":4958:4971  requestStatus */\n      dup2\n        /* \"Lab10/LotteryFive.sol\":4958:4983  requestStatus.randomWords */\n      0x02\n      add\n        /* \"Lab10/LotteryFive.sol\":4984:4985  0 */\n      0x00\n        /* \"Lab10/LotteryFive.sol\":4958:4986  requestStatus.randomWords[0] */\n      dup2\n      sload\n      dup2\n      lt\n      tag_79\n      jumpi\n      tag_80\n      tag_81\n      jump\t// in\n    tag_80:\n    tag_79:\n      swap1\n      0x00\n      mstore\n      keccak256(0x00, 0x20)\n      add\n      sload\n        /* \"Lab10/LotteryFive.sol\":4936:4986  uint256 randomValue = requestStatus.randomWords[0] */\n      swap1\n      pop\n        /* \"Lab10/LotteryFive.sol\":5001:5014  uint winnerId */\n      0x00\n        /* \"Lab10/LotteryFive.sol\":5031:5032  5 */\n      0x05\n        /* \"Lab10/LotteryFive.sol\":5017:5028  randomValue */\n      dup3\n        /* \"Lab10/LotteryFive.sol\":5017:5032  randomValue % 5 */\n      tag_83\n      swap2\n      swap1\n      tag_84\n      jump\t// in\n    tag_83:\n        /* \"Lab10/LotteryFive.sol\":5001:5032  uint winnerId = randomValue % 5 */\n      swap1\n      pop\n        /* \"Lab10/LotteryFive.sol\":5047:5076  RoundState storage roundState */\n      0x00\n        /* \"Lab10/LotteryFive.sol\":5079:5090  roundStates */\n      0x0a\n        /* \"Lab10/LotteryFive.sol\":5079:5098  roundStates[_round] */\n      0x00\n        /* \"Lab10/LotteryFive.sol\":5091:5097  _round */\n      dup9\n        /* \"Lab10/LotteryFive.sol\":5079:5098  roundStates[_round] */\n      dup2\n      mstore\n      0x20\n      add\n      swap1\n      dup2\n      mstore\n      0x20\n      add\n      0x00\n      keccak256\n        /* \"Lab10/LotteryFive.sol\":5047:5098  RoundState storage roundState = roundStates[_round] */\n      swap1\n      pop\n        /* \"Lab10/LotteryFive.sol\":5120:5130  roundState */\n      dup1\n        /* \"Lab10/LotteryFive.sol\":5120:5138  roundState.members */\n      0x00\n      add\n        /* \"Lab10/LotteryFive.sol\":5139:5147  winnerId */\n      dup3\n        /* \"Lab10/LotteryFive.sol\":5120:5148  roundState.members[winnerId] */\n      dup2\n      sload\n      dup2\n      lt\n      tag_85\n      jumpi\n      tag_86\n      tag_81\n      jump\t// in\n    tag_86:\n    tag_85:\n      swap1\n      0x00\n      mstore\n      keccak256(0x00, 0x20)\n      swap1\n      0x02\n      mul\n      add\n        /* \"Lab10/LotteryFive.sol\":5120:5153  roundState.members[winnerId].addr */\n      0x00\n      add\n      0x00\n      swap1\n      sload\n      swap1\n      0x0100\n      exp\n      swap1\n      div\n      0xffffffffffffffffffffffffffffffffffffffff\n      and\n        /* \"Lab10/LotteryFive.sol\":5113:5153  return roundState.members[winnerId].addr */\n      swap6\n      pop\n      pop\n      pop\n      pop\n      pop\n      pop\n      jump(tag_71)\n        /* \"Lab10/LotteryFive.sol\":4892:5165  if (requestStatus.fulfilled) {... */\n    tag_78:\n        /* \"Lab10/LotteryFive.sol\":5190:5191  0 */\n      0x00\n        /* \"Lab10/LotteryFive.sol\":5175:5192  return address(0) */\n      swap3\n      pop\n      pop\n      pop\n        /* \"Lab10/LotteryFive.sol\":4555:5200  function checkWinner(uint _round) public view returns (address) {... */\n    tag_71:\n      swap2\n      swap1\n      pop\n      jump\t// out\n        /* \"@chainlink/contracts/src/v0.8/vrf/VRFV2WrapperConsumerBase.sol\":3804:4088  function rawFulfillRandomWords(uint256 _requestId, uint256[] memory _randomWords) external {... */\n    tag_28:\n        /* \"@chainlink/contracts/src/v0.8/vrf/VRFV2WrapperConsumerBase.sol\":3982:3996  VRF_V2_WRAPPER */\n      immutable(\"0xf6cb0138da7c8b3468e7e4d8ba389a3263d4efb90e59a6ce914e87b867b16a00\")\n        /* \"@chainlink/contracts/src/v0.8/vrf/VRFV2WrapperConsumerBase.sol\":3960:3997  msg.sender == address(VRF_V2_WRAPPER) */\n      0xffffffffffffffffffffffffffffffffffffffff\n      and\n        /* \"@chainlink/contracts/src/v0.8/vrf/VRFV2WrapperConsumerBase.sol\":3960:3970  msg.sender */\n      caller\n        /* \"@chainlink/contracts/src/v0.8/vrf/VRFV2WrapperConsumerBase.sol\":3960:3997  msg.sender == address(VRF_V2_WRAPPER) */\n      0xffffffffffffffffffffffffffffffffffffffff\n      and\n      eq\n        /* \"@chainlink/contracts/src/v0.8/vrf/VRFV2WrapperConsumerBase.sol\":3952:4033  require(msg.sender == address(VRF_V2_WRAPPER), \"only VRF V2 wrapper can fulfill\") */\n      tag_89\n      jumpi\n      mload(0x40)\n      0x08c379a000000000000000000000000000000000000000000000000000000000\n      dup2\n      mstore\n      0x04\n      add\n      tag_90\n      swap1\n      tag_91\n      jump\t// in\n    tag_90:\n      mload(0x40)\n      dup1\n      swap2\n      sub\n      swap1\n      revert\n    tag_89:\n        /* \"@chainlink/contracts/src/v0.8/vrf/VRFV2WrapperConsumerBase.sol\":4039:4083  fulfillRandomWords(_requestId, _randomWords) */\n      tag_92\n        /* \"@chainlink/contracts/src/v0.8/vrf/VRFV2WrapperConsumerBase.sol\":4058:4068  _requestId */\n      dup3\n        /* \"@chainlink/contracts/src/v0.8/vrf/VRFV2WrapperConsumerBase.sol\":4070:4082  _randomWords */\n      dup3\n        /* \"@chainlink/contracts/src/v0.8/vrf/VRFV2WrapperConsumerBase.sol\":4039:4057  fulfillRandomWords */\n      tag_93\n        /* \"@chainlink/contracts/src/v0.8/vrf/VRFV2WrapperConsumerBase.sol\":4039:4083  fulfillRandomWords(_requestId, _randomWords) */\n      jump\t// in\n    tag_92:\n        /* \"@chainlink/contracts/src/v0.8/vrf/VRFV2WrapperConsumerBase.sol\":3804:4088  function rawFulfillRandomWords(uint256 _requestId, uint256[] memory _randomWords) external {... */\n      pop\n      pop\n      jump\t// out\n        /* \"Lab10/LotteryFive.sol\":6690:7353  function redeemPrize(uint _round) external {... */\n    tag_32:\n        /* \"Lab10/LotteryFive.sol\":6744:6758  address winner */\n      0x00\n        /* \"Lab10/LotteryFive.sol\":6761:6780  checkWinner(_round) */\n      tag_95\n        /* \"Lab10/LotteryFive.sol\":6773:6779  _round */\n      dup3\n        /* \"Lab10/LotteryFive.sol\":6761:6772  checkWinner */\n      tag_21\n        /* \"Lab10/LotteryFive.sol\":6761:6780  checkWinner(_round) */\n      jump\t// in\n    tag_95:\n        /* \"Lab10/LotteryFive.sol\":6744:6780  address winner = checkWinner(_round) */\n      swap1\n      pop\n        /* \"Lab10/LotteryFive.sol\":6817:6818  0 */\n      0x00\n        /* \"Lab10/LotteryFive.sol\":6799:6819  winner != address(0) */\n      0xffffffffffffffffffffffffffffffffffffffff\n      and\n        /* \"Lab10/LotteryFive.sol\":6799:6805  winner */\n      dup2\n        /* \"Lab10/LotteryFive.sol\":6799:6819  winner != address(0) */\n      0xffffffffffffffffffffffffffffffffffffffff\n      and\n      sub\n        /* \"Lab10/LotteryFive.sol\":6791:6862  require(winner != address(0), \"Winner is not yet decided for the draw\") */\n      tag_96\n      jumpi\n      mload(0x40)\n      0x08c379a000000000000000000000000000000000000000000000000000000000\n      dup2\n      mstore\n      0x04\n      add\n      tag_97\n      swap1\n      tag_98\n      jump\t// in\n    tag_97:\n      mload(0x40)\n      dup1\n      swap2\n      sub\n      swap1\n      revert\n    tag_96:\n        /* \"Lab10/LotteryFive.sol\":6891:6901  msg.sender */\n      caller\n        /* \"Lab10/LotteryFive.sol\":6881:6901  winner == msg.sender */\n      0xffffffffffffffffffffffffffffffffffffffff\n      and\n        /* \"Lab10/LotteryFive.sol\":6881:6887  winner */\n      dup2\n        /* \"Lab10/LotteryFive.sol\":6881:6901  winner == msg.sender */\n      0xffffffffffffffffffffffffffffffffffffffff\n      and\n      eq\n        /* \"Lab10/LotteryFive.sol\":6873:6928  require(winner == msg.sender, \"You are not the winner\") */\n      tag_99\n      jumpi\n      mload(0x40)\n      0x08c379a000000000000000000000000000000000000000000000000000000000\n      dup2\n      mstore\n      0x04\n      add\n      tag_100\n      swap1\n      tag_101\n      jump\t// in\n    tag_100:\n      mload(0x40)\n      dup1\n      swap2\n      sub\n      swap1\n      revert\n    tag_99:\n        /* \"Lab10/LotteryFive.sol\":6939:6968  RoundState storage roundState */\n      0x00\n        /* \"Lab10/LotteryFive.sol\":6971:6982  roundStates */\n      0x0a\n        /* \"Lab10/LotteryFive.sol\":6971:6990  roundStates[_round] */\n      0x00\n        /* \"Lab10/LotteryFive.sol\":6983:6989  _round */\n      dup5\n        /* \"Lab10/LotteryFive.sol\":6971:6990  roundStates[_round] */\n      dup2\n      mstore\n      0x20\n      add\n      swap1\n      dup2\n      mstore\n      0x20\n      add\n      0x00\n      keccak256\n        /* \"Lab10/LotteryFive.sol\":6939:6990  RoundState storage roundState = roundStates[_round] */\n      swap1\n      pop\n        /* \"Lab10/LotteryFive.sol\":7001:7017  uint totalAmount */\n      0x00\n        /* \"Lab10/LotteryFive.sol\":7036:7042  uint i */\n      dup1\n        /* \"Lab10/LotteryFive.sol\":7032:7130  for(uint i = 0; i < 5; i++) {... */\n    tag_102:\n        /* \"Lab10/LotteryFive.sol\":7052:7053  5 */\n      0x05\n        /* \"Lab10/LotteryFive.sol\":7048:7049  i */\n      dup2\n        /* \"Lab10/LotteryFive.sol\":7048:7053  i < 5 */\n      lt\n        /* \"Lab10/LotteryFive.sol\":7032:7130  for(uint i = 0; i < 5; i++) {... */\n      iszero\n      tag_103\n      jumpi\n        /* \"Lab10/LotteryFive.sol\":7090:7100  roundState */\n      dup3\n        /* \"Lab10/LotteryFive.sol\":7090:7108  roundState.members */\n      0x00\n      add\n        /* \"Lab10/LotteryFive.sol\":7109:7110  i */\n      dup2\n        /* \"Lab10/LotteryFive.sol\":7090:7111  roundState.members[i] */\n      dup2\n      sload\n      dup2\n      lt\n      tag_105\n      jumpi\n      tag_106\n      tag_81\n      jump\t// in\n    tag_106:\n    tag_105:\n      swap1\n      0x00\n      mstore\n      keccak256(0x00, 0x20)\n      swap1\n      0x02\n      mul\n      add\n        /* \"Lab10/LotteryFive.sol\":7090:7118  roundState.members[i].amount */\n      0x01\n      add\n      sload\n        /* \"Lab10/LotteryFive.sol\":7075:7118  totalAmount += roundState.members[i].amount */\n      dup3\n      tag_108\n      swap2\n      swap1\n      tag_109\n      jump\t// in\n    tag_108:\n      swap2\n      pop\n        /* \"Lab10/LotteryFive.sol\":7055:7058  i++ */\n      dup1\n      dup1\n      0x01\n      add\n      swap2\n      pop\n      pop\n        /* \"Lab10/LotteryFive.sol\":7032:7130  for(uint i = 0; i < 5; i++) {... */\n      jump(tag_102)\n    tag_103:\n      pop\n        /* \"Lab10/LotteryFive.sol\":7216:7235  address payable _to */\n      0x00\n        /* \"Lab10/LotteryFive.sol\":7246:7256  msg.sender */\n      caller\n        /* \"Lab10/LotteryFive.sol\":7216:7257  address payable _to = payable(msg.sender) */\n      swap1\n      pop\n        /* \"Lab10/LotteryFive.sol\":7268:7286  uint winningAmount */\n      0x00\n        /* \"Lab10/LotteryFive.sol\":7305:7307  10 */\n      0x0a\n        /* \"Lab10/LotteryFive.sol\":7302:7303  9 */\n      0x09\n        /* \"Lab10/LotteryFive.sol\":7290:7301  totalAmount */\n      dup5\n        /* \"Lab10/LotteryFive.sol\":7290:7303  totalAmount*9 */\n      tag_110\n      swap2\n      swap1\n      tag_111\n      jump\t// in\n    tag_110:\n        /* \"Lab10/LotteryFive.sol\":7289:7307  (totalAmount*9)/10 */\n      tag_112\n      swap2\n      swap1\n      tag_113\n      jump\t// in\n    tag_112:\n        /* \"Lab10/LotteryFive.sol\":7268:7307  uint winningAmount = (totalAmount*9)/10 */\n      swap1\n      pop\n        /* \"Lab10/LotteryFive.sol\":7318:7321  _to */\n      dup2\n        /* \"Lab10/LotteryFive.sol\":7318:7330  _to.transfer */\n      0xffffffffffffffffffffffffffffffffffffffff\n      and\n        /* \"Lab10/LotteryFive.sol\":7318:7345  _to.transfer(winningAmount) */\n      0x08fc\n        /* \"Lab10/LotteryFive.sol\":7331:7344  winningAmount */\n      dup3\n        /* \"Lab10/LotteryFive.sol\":7318:7345  _to.transfer(winningAmount) */\n      swap1\n      dup2\n      iszero\n      mul\n      swap1\n      mload(0x40)\n      0x00\n      mload(0x40)\n      dup1\n      dup4\n      sub\n      dup2\n      dup6\n      dup9\n      dup9\n      call\n      swap4\n      pop\n      pop\n      pop\n      pop\n      iszero\n      dup1\n      iszero\n      tag_115\n      jumpi\n      returndatasize\n      0x00\n      dup1\n      returndatacopy\n      revert(0x00, returndatasize)\n    tag_115:\n      pop\n        /* \"Lab10/LotteryFive.sol\":6733:7353  {... */\n      pop\n      pop\n      pop\n      pop\n      pop\n        /* \"Lab10/LotteryFive.sol\":6690:7353  function redeemPrize(uint _round) external {... */\n      pop\n      jump\t// out\n        /* \"Lab10/LotteryFive.sol\":6070:6682  function withdraw() external {... */\n    tag_35:\n        /* \"Lab10/LotteryFive.sol\":6110:6139  RoundState storage roundState */\n      0x00\n        /* \"Lab10/LotteryFive.sol\":6142:6153  roundStates */\n      0x0a\n        /* \"Lab10/LotteryFive.sol\":6142:6167  roundStates[currentRound] */\n      0x00\n        /* \"Lab10/LotteryFive.sol\":6154:6166  currentRound */\n      sload(0x08)\n        /* \"Lab10/LotteryFive.sol\":6142:6167  roundStates[currentRound] */\n      dup2\n      mstore\n      0x20\n      add\n      swap1\n      dup2\n      mstore\n      0x20\n      add\n      0x00\n      keccak256\n        /* \"Lab10/LotteryFive.sol\":6110:6167  RoundState storage roundState = roundStates[currentRound] */\n      swap1\n      pop\n        /* \"Lab10/LotteryFive.sol\":6182:6188  uint i */\n      0x00\n        /* \"Lab10/LotteryFive.sol\":6178:6675  for(uint i = 0; i < 5; i++) {... */\n    tag_117:\n        /* \"Lab10/LotteryFive.sol\":6198:6199  5 */\n      0x05\n        /* \"Lab10/LotteryFive.sol\":6194:6195  i */\n      dup2\n        /* \"Lab10/LotteryFive.sol\":6194:6199  i < 5 */\n      lt\n        /* \"Lab10/LotteryFive.sol\":6178:6675  for(uint i = 0; i < 5; i++) {... */\n      iszero\n      tag_118\n      jumpi\n        /* \"Lab10/LotteryFive.sol\":6255:6265  msg.sender */\n      caller\n        /* \"Lab10/LotteryFive.sol\":6225:6265  roundState.members[i].addr == msg.sender */\n      0xffffffffffffffffffffffffffffffffffffffff\n      and\n        /* \"Lab10/LotteryFive.sol\":6225:6235  roundState */\n      dup3\n        /* \"Lab10/LotteryFive.sol\":6225:6243  roundState.members */\n      0x00\n      add\n        /* \"Lab10/LotteryFive.sol\":6244:6245  i */\n      dup3\n        /* \"Lab10/LotteryFive.sol\":6225:6246  roundState.members[i] */\n      dup2\n      sload\n      dup2\n      lt\n      tag_120\n      jumpi\n      tag_121\n      tag_81\n      jump\t// in\n    tag_121:\n    tag_120:\n      swap1\n      0x00\n      mstore\n      keccak256(0x00, 0x20)\n      swap1\n      0x02\n      mul\n      add\n        /* \"Lab10/LotteryFive.sol\":6225:6251  roundState.members[i].addr */\n      0x00\n      add\n      0x00\n      swap1\n      sload\n      swap1\n      0x0100\n      exp\n      swap1\n      div\n      0xffffffffffffffffffffffffffffffffffffffff\n      and\n        /* \"Lab10/LotteryFive.sol\":6225:6265  roundState.members[i].addr == msg.sender */\n      0xffffffffffffffffffffffffffffffffffffffff\n      and\n      sub\n        /* \"Lab10/LotteryFive.sol\":6221:6664  if (roundState.members[i].addr == msg.sender) {... */\n      tag_123\n      jumpi\n        /* \"Lab10/LotteryFive.sol\":6326:6334  uint amt */\n      0x00\n        /* \"Lab10/LotteryFive.sol\":6372:6373  5 */\n      0x05\n        /* \"Lab10/LotteryFive.sol\":6369:6370  4 */\n      0x04\n        /* \"Lab10/LotteryFive.sol\":6338:6348  roundState */\n      dup5\n        /* \"Lab10/LotteryFive.sol\":6338:6356  roundState.members */\n      0x00\n      add\n        /* \"Lab10/LotteryFive.sol\":6357:6358  i */\n      dup5\n        /* \"Lab10/LotteryFive.sol\":6338:6359  roundState.members[i] */\n      dup2\n      sload\n      dup2\n      lt\n      tag_124\n      jumpi\n      tag_125\n      tag_81\n      jump\t// in\n    tag_125:\n    tag_124:\n      swap1\n      0x00\n      mstore\n      keccak256(0x00, 0x20)\n      swap1\n      0x02\n      mul\n      add\n        /* \"Lab10/LotteryFive.sol\":6338:6366  roundState.members[i].amount */\n      0x01\n      add\n      sload\n        /* \"Lab10/LotteryFive.sol\":6338:6370  roundState.members[i].amount * 4 */\n      tag_127\n      swap2\n      swap1\n      tag_111\n      jump\t// in\n    tag_127:\n        /* \"Lab10/LotteryFive.sol\":6337:6373  (roundState.members[i].amount * 4)/5 */\n      tag_128\n      swap2\n      swap1\n      tag_113\n      jump\t// in\n    tag_128:\n        /* \"Lab10/LotteryFive.sol\":6326:6373  uint amt = (roundState.members[i].amount * 4)/5 */\n      swap1\n      pop\n        /* \"Lab10/LotteryFive.sol\":6392:6411  address payable _to */\n      0x00\n        /* \"Lab10/LotteryFive.sol\":6422:6432  msg.sender */\n      caller\n        /* \"Lab10/LotteryFive.sol\":6392:6433  address payable _to = payable(msg.sender) */\n      swap1\n      pop\n        /* \"Lab10/LotteryFive.sol\":6489:6490  0 */\n      0x00\n        /* \"Lab10/LotteryFive.sol\":6452:6462  roundState */\n      dup5\n        /* \"Lab10/LotteryFive.sol\":6452:6470  roundState.members */\n      0x00\n      add\n        /* \"Lab10/LotteryFive.sol\":6471:6472  i */\n      dup5\n        /* \"Lab10/LotteryFive.sol\":6452:6473  roundState.members[i] */\n      dup2\n      sload\n      dup2\n      lt\n      tag_129\n      jumpi\n      tag_130\n      tag_81\n      jump\t// in\n    tag_130:\n    tag_129:\n      swap1\n      0x00\n      mstore\n      keccak256(0x00, 0x20)\n      swap1\n      0x02\n      mul\n      add\n        /* \"Lab10/LotteryFive.sol\":6452:6478  roundState.members[i].addr */\n      0x00\n      add\n      0x00\n        /* \"Lab10/LotteryFive.sol\":6452:6491  roundState.members[i].addr = address(0) */\n      0x0100\n      exp\n      dup2\n      sload\n      dup2\n      0xffffffffffffffffffffffffffffffffffffffff\n      mul\n      not\n      and\n      swap1\n      dup4\n      0xffffffffffffffffffffffffffffffffffffffff\n      and\n      mul\n      or\n      swap1\n      sstore\n      pop\n        /* \"Lab10/LotteryFive.sol\":6541:6542  0 */\n      0x00\n        /* \"Lab10/LotteryFive.sol\":6510:6520  roundState */\n      dup5\n        /* \"Lab10/LotteryFive.sol\":6510:6528  roundState.members */\n      0x00\n      add\n        /* \"Lab10/LotteryFive.sol\":6529:6530  i */\n      dup5\n        /* \"Lab10/LotteryFive.sol\":6510:6531  roundState.members[i] */\n      dup2\n      sload\n      dup2\n      lt\n      tag_132\n      jumpi\n      tag_133\n      tag_81\n      jump\t// in\n    tag_133:\n    tag_132:\n      swap1\n      0x00\n      mstore\n      keccak256(0x00, 0x20)\n      swap1\n      0x02\n      mul\n      add\n        /* \"Lab10/LotteryFive.sol\":6510:6538  roundState.members[i].amount */\n      0x01\n      add\n        /* \"Lab10/LotteryFive.sol\":6510:6542  roundState.members[i].amount = 0 */\n      dup2\n      swap1\n      sstore\n      pop\n        /* \"Lab10/LotteryFive.sol\":6586:6587  1 */\n      0x01\n        /* \"Lab10/LotteryFive.sol\":6561:6571  roundState */\n      dup5\n        /* \"Lab10/LotteryFive.sol\":6561:6582  roundState.numMembers */\n      0x01\n      add\n      0x00\n        /* \"Lab10/LotteryFive.sol\":6561:6587  roundState.numMembers -= 1 */\n      dup3\n      dup3\n      sload\n      tag_135\n      swap2\n      swap1\n      tag_136\n      jump\t// in\n    tag_135:\n      swap3\n      pop\n      pop\n      dup2\n      swap1\n      sstore\n      pop\n        /* \"Lab10/LotteryFive.sol\":6606:6609  _to */\n      dup1\n        /* \"Lab10/LotteryFive.sol\":6606:6618  _to.transfer */\n      0xffffffffffffffffffffffffffffffffffffffff\n      and\n        /* \"Lab10/LotteryFive.sol\":6606:6623  _to.transfer(amt) */\n      0x08fc\n        /* \"Lab10/LotteryFive.sol\":6619:6622  amt */\n      dup4\n        /* \"Lab10/LotteryFive.sol\":6606:6623  _to.transfer(amt) */\n      swap1\n      dup2\n      iszero\n      mul\n      swap1\n      mload(0x40)\n      0x00\n      mload(0x40)\n      dup1\n      dup4\n      sub\n      dup2\n      dup6\n      dup9\n      dup9\n      call\n      swap4\n      pop\n      pop\n      pop\n      pop\n      iszero\n      dup1\n      iszero\n      tag_138\n      jumpi\n      returndatasize\n      0x00\n      dup1\n      returndatacopy\n      revert(0x00, returndatasize)\n    tag_138:\n      pop\n        /* \"Lab10/LotteryFive.sol\":6642:6649  return; */\n      pop\n      pop\n      pop\n      pop\n      jump(tag_116)\n        /* \"Lab10/LotteryFive.sol\":6221:6664  if (roundState.members[i].addr == msg.sender) {... */\n    tag_123:\n        /* \"Lab10/LotteryFive.sol\":6201:6204  i++ */\n      dup1\n      dup1\n      0x01\n      add\n      swap2\n      pop\n      pop\n        /* \"Lab10/LotteryFive.sol\":6178:6675  for(uint i = 0; i < 5; i++) {... */\n      jump(tag_117)\n    tag_118:\n      pop\n        /* \"Lab10/LotteryFive.sol\":6099:6682  {... */\n      pop\n        /* \"Lab10/LotteryFive.sol\":6070:6682  function withdraw() external {... */\n    tag_116:\n      jump\t// out\n        /* \"Lab10/LotteryFive.sol\":3907:4547  function performDraw() external onlyOwner returns (uint256) {... */\n    tag_38:\n        /* \"Lab10/LotteryFive.sol\":3958:3965  uint256 */\n      0x00\n        /* \"@chainlink/contracts/src/v0.8/shared/access/ConfirmedOwnerWithProposal.sol\":2075:2095  _validateOwnership() */\n      tag_140\n        /* \"@chainlink/contracts/src/v0.8/shared/access/ConfirmedOwnerWithProposal.sol\":2075:2093  _validateOwnership */\n      tag_141\n        /* \"@chainlink/contracts/src/v0.8/shared/access/ConfirmedOwnerWithProposal.sol\":2075:2095  _validateOwnership() */\n      jump\t// in\n    tag_140:\n        /* \"Lab10/LotteryFive.sol\":3978:4007  RoundState storage roundState */\n      0x00\n        /* \"Lab10/LotteryFive.sol\":4010:4021  roundStates */\n      0x0a\n        /* \"Lab10/LotteryFive.sol\":4010:4035  roundStates[currentRound] */\n      0x00\n        /* \"Lab10/LotteryFive.sol\":4022:4034  currentRound */\n      sload(0x08)\n        /* \"Lab10/LotteryFive.sol\":4010:4035  roundStates[currentRound] */\n      dup2\n      mstore\n      0x20\n      add\n      swap1\n      dup2\n      mstore\n      0x20\n      add\n      0x00\n      keccak256\n        /* \"Lab10/LotteryFive.sol\":3978:4035  RoundState storage roundState = roundStates[currentRound] */\n      swap1\n      pop\n        /* \"Lab10/LotteryFive.sol\":4079:4080  5 */\n      0x05\n        /* \"Lab10/LotteryFive.sol\":4054:4064  roundState */\n      dup2\n        /* \"Lab10/LotteryFive.sol\":4054:4075  roundState.numMembers */\n      0x01\n      add\n      sload\n        /* \"Lab10/LotteryFive.sol\":4054:4080  roundState.numMembers == 5 */\n      eq\n        /* \"Lab10/LotteryFive.sol\":4046:4141  require(roundState.numMembers == 5, \"Number of members must be 5 before draw can be performed\") */\n      tag_143\n      jumpi\n      mload(0x40)\n      0x08c379a000000000000000000000000000000000000000000000000000000000\n      dup2\n      mstore\n      0x04\n      add\n      tag_144\n      swap1\n      tag_145\n      jump\t// in\n    tag_144:\n      mload(0x40)\n      dup1\n      swap2\n      sub\n      swap1\n      revert\n    tag_143:\n        /* \"Lab10/LotteryFive.sol\":4152:4169  uint256 requestId */\n      0x00\n        /* \"Lab10/LotteryFive.sol\":4172:4192  requestRandomWords() */\n      tag_146\n        /* \"Lab10/LotteryFive.sol\":4172:4190  requestRandomWords */\n      tag_147\n        /* \"Lab10/LotteryFive.sol\":4172:4192  requestRandomWords() */\n      jump\t// in\n    tag_146:\n        /* \"Lab10/LotteryFive.sol\":4152:4192  uint256 requestId = requestRandomWords() */\n      swap1\n      pop\n        /* \"Lab10/LotteryFive.sol\":4225:4234  requestId */\n      dup1\n        /* \"Lab10/LotteryFive.sol\":4203:4208  draws */\n      0x09\n        /* \"Lab10/LotteryFive.sol\":4203:4222  draws[currentRound] */\n      0x00\n        /* \"Lab10/LotteryFive.sol\":4209:4221  currentRound */\n      sload(0x08)\n        /* \"Lab10/LotteryFive.sol\":4203:4222  draws[currentRound] */\n      dup2\n      mstore\n      0x20\n      add\n      swap1\n      dup2\n      mstore\n      0x20\n      add\n      0x00\n      keccak256\n        /* \"Lab10/LotteryFive.sol\":4203:4234  draws[currentRound] = requestId */\n      dup2\n      swap1\n      sstore\n      pop\n        /* \"Lab10/LotteryFive.sol\":4245:4260  roundsCompleted */\n      0x07\n        /* \"Lab10/LotteryFive.sol\":4266:4278  currentRound */\n      sload(0x08)\n        /* \"Lab10/LotteryFive.sol\":4245:4279  roundsCompleted.push(currentRound) */\n      swap1\n      dup1\n      0x01\n      dup2\n      sload\n      add\n      dup1\n      dup3\n      sstore\n      dup1\n      swap2\n      pop\n      pop\n      0x01\n      swap1\n      sub\n      swap1\n      0x00\n      mstore\n      keccak256(0x00, 0x20)\n      add\n      0x00\n      swap1\n      swap2\n      swap1\n      swap2\n      swap1\n      swap2\n      pop\n      sstore\n        /* \"Lab10/LotteryFive.sol\":4306:4307  1 */\n      0x01\n        /* \"Lab10/LotteryFive.sol\":4290:4302  currentRound */\n      0x08\n      0x00\n        /* \"Lab10/LotteryFive.sol\":4290:4307  currentRound += 1 */\n      dup3\n      dup3\n      sload\n      tag_149\n      swap2\n      swap1\n      tag_109\n      jump\t// in\n    tag_149:\n      swap3\n      pop\n      pop\n      dup2\n      swap1\n      sstore\n      pop\n        /* \"Lab10/LotteryFive.sol\":4331:4342  roundStates */\n      0x0a\n        /* \"Lab10/LotteryFive.sol\":4331:4356  roundStates[currentRound] */\n      0x00\n        /* \"Lab10/LotteryFive.sol\":4343:4355  currentRound */\n      sload(0x08)\n        /* \"Lab10/LotteryFive.sol\":4331:4356  roundStates[currentRound] */\n      dup2\n      mstore\n      0x20\n      add\n      swap1\n      dup2\n      mstore\n      0x20\n      add\n      0x00\n      keccak256\n        /* \"Lab10/LotteryFive.sol\":4318:4356  roundState = roundStates[currentRound] */\n      swap2\n      pop\n        /* \"Lab10/LotteryFive.sol\":4371:4377  uint i */\n      0x00\n        /* \"Lab10/LotteryFive.sol\":4367:4512  for(uint i = 0; i < 5; i++) {... */\n    tag_150:\n        /* \"Lab10/LotteryFive.sol\":4387:4388  5 */\n      0x05\n        /* \"Lab10/LotteryFive.sol\":4383:4384  i */\n      dup2\n        /* \"Lab10/LotteryFive.sol\":4383:4388  i < 5 */\n      lt\n        /* \"Lab10/LotteryFive.sol\":4367:4512  for(uint i = 0; i < 5; i++) {... */\n      iszero\n      tag_151\n      jumpi\n        /* \"Lab10/LotteryFive.sol\":4410:4430  Member memory member */\n      0x00\n        /* \"Lab10/LotteryFive.sol\":4433:4454  Member(address(0), 0) */\n      mload(0x40)\n      dup1\n      0x40\n      add\n      0x40\n      mstore\n      dup1\n        /* \"Lab10/LotteryFive.sol\":4448:4449  0 */\n      0x00\n        /* \"Lab10/LotteryFive.sol\":4433:4454  Member(address(0), 0) */\n      0xffffffffffffffffffffffffffffffffffffffff\n      and\n      dup2\n      mstore\n      0x20\n      add\n        /* \"Lab10/LotteryFive.sol\":4452:4453  0 */\n      0x00\n        /* \"Lab10/LotteryFive.sol\":4433:4454  Member(address(0), 0) */\n      dup2\n      mstore\n      pop\n        /* \"Lab10/LotteryFive.sol\":4410:4454  Member memory member = Member(address(0), 0) */\n      swap1\n      pop\n        /* \"Lab10/LotteryFive.sol\":4469:4479  roundState */\n      dup4\n        /* \"Lab10/LotteryFive.sol\":4469:4487  roundState.members */\n      0x00\n      add\n        /* \"Lab10/LotteryFive.sol\":4493:4499  member */\n      dup2\n        /* \"Lab10/LotteryFive.sol\":4469:4500  roundState.members.push(member) */\n      swap1\n      dup1\n      0x01\n      dup2\n      sload\n      add\n      dup1\n      dup3\n      sstore\n      dup1\n      swap2\n      pop\n      pop\n      0x01\n      swap1\n      sub\n      swap1\n      0x00\n      mstore\n      keccak256(0x00, 0x20)\n      swap1\n      0x02\n      mul\n      add\n      0x00\n      swap1\n      swap2\n      swap1\n      swap2\n      swap1\n      swap2\n      pop\n      0x00\n      dup3\n      add\n      mload\n      dup2\n      0x00\n      add\n      exp(0x0100, 0x00)\n      dup2\n      sload\n      dup2\n      0xffffffffffffffffffffffffffffffffffffffff\n      mul\n      not\n      and\n      swap1\n      dup4\n      0xffffffffffffffffffffffffffffffffffffffff\n      and\n      mul\n      or\n      swap1\n      sstore\n      pop\n      0x20\n      dup3\n      add\n      mload\n      dup2\n      0x01\n      add\n      sstore\n      pop\n      pop\n        /* \"Lab10/LotteryFive.sol\":4395:4512  {... */\n      pop\n        /* \"Lab10/LotteryFive.sol\":4390:4393  i++ */\n      dup1\n      dup1\n      0x01\n      add\n      swap2\n      pop\n      pop\n        /* \"Lab10/LotteryFive.sol\":4367:4512  for(uint i = 0; i < 5; i++) {... */\n      jump(tag_150)\n    tag_151:\n      pop\n        /* \"Lab10/LotteryFive.sol\":4529:4538  requestId */\n      dup1\n        /* \"Lab10/LotteryFive.sol\":4522:4538  return requestId */\n      swap3\n      pop\n      pop\n      pop\n        /* \"Lab10/LotteryFive.sol\":3907:4547  function performDraw() external onlyOwner returns (uint256) {... */\n      swap1\n      jump\t// out\n        /* \"@chainlink/contracts/src/v0.8/shared/access/ConfirmedOwnerWithProposal.sol\":1026:1342  function acceptOwnership() external override {... */\n    tag_43:\n        /* \"@chainlink/contracts/src/v0.8/shared/access/ConfirmedOwnerWithProposal.sol\":1150:1164  s_pendingOwner */\n      0x01\n      0x00\n      swap1\n      sload\n      swap1\n      0x0100\n      exp\n      swap1\n      div\n      0xffffffffffffffffffffffffffffffffffffffff\n      and\n        /* \"@chainlink/contracts/src/v0.8/shared/access/ConfirmedOwnerWithProposal.sol\":1136:1164  msg.sender == s_pendingOwner */\n      0xffffffffffffffffffffffffffffffffffffffff\n      and\n        /* \"@chainlink/contracts/src/v0.8/shared/access/ConfirmedOwnerWithProposal.sol\":1136:1146  msg.sender */\n      caller\n        /* \"@chainlink/contracts/src/v0.8/shared/access/ConfirmedOwnerWithProposal.sol\":1136:1164  msg.sender == s_pendingOwner */\n      0xffffffffffffffffffffffffffffffffffffffff\n      and\n      eq\n        /* \"@chainlink/contracts/src/v0.8/shared/access/ConfirmedOwnerWithProposal.sol\":1128:1191  require(msg.sender == s_pendingOwner, \"Must be proposed owner\") */\n      tag_155\n      jumpi\n      mload(0x40)\n      0x08c379a000000000000000000000000000000000000000000000000000000000\n      dup2\n      mstore\n      0x04\n      add\n      tag_156\n      swap1\n      tag_157\n      jump\t// in\n    tag_156:\n      mload(0x40)\n      dup1\n      swap2\n      sub\n      swap1\n      revert\n    tag_155:\n        /* \"@chainlink/contracts/src/v0.8/shared/access/ConfirmedOwnerWithProposal.sol\":1198:1214  address oldOwner */\n      0x00\n        /* \"@chainlink/contracts/src/v0.8/shared/access/ConfirmedOwnerWithProposal.sol\":1217:1224  s_owner */\n      dup1\n      0x00\n      swap1\n      sload\n      swap1\n      0x0100\n      exp\n      swap1\n      div\n      0xffffffffffffffffffffffffffffffffffffffff\n      and\n        /* \"@chainlink/contracts/src/v0.8/shared/access/ConfirmedOwnerWithProposal.sol\":1198:1224  address oldOwner = s_owner */\n      swap1\n      pop\n        /* \"@chainlink/contracts/src/v0.8/shared/access/ConfirmedOwnerWithProposal.sol\":1240:1250  msg.sender */\n      caller\n        /* \"@chainlink/contracts/src/v0.8/shared/access/ConfirmedOwnerWithProposal.sol\":1230:1237  s_owner */\n      0x00\n      dup1\n        /* \"@chainlink/contracts/src/v0.8/shared/access/ConfirmedOwnerWithProposal.sol\":1230:1250  s_owner = msg.sender */\n      0x0100\n      exp\n      dup2\n      sload\n      dup2\n      0xffffffffffffffffffffffffffffffffffffffff\n      mul\n      not\n      and\n      swap1\n      dup4\n      0xffffffffffffffffffffffffffffffffffffffff\n      and\n      mul\n      or\n      swap1\n      sstore\n      pop\n        /* \"@chainlink/contracts/src/v0.8/shared/access/ConfirmedOwnerWithProposal.sol\":1281:1282  0 */\n      0x00\n        /* \"@chainlink/contracts/src/v0.8/shared/access/ConfirmedOwnerWithProposal.sol\":1256:1270  s_pendingOwner */\n      0x01\n      0x00\n        /* \"@chainlink/contracts/src/v0.8/shared/access/ConfirmedOwnerWithProposal.sol\":1256:1283  s_pendingOwner = address(0) */\n      0x0100\n      exp\n      dup2\n      sload\n      dup2\n      0xffffffffffffffffffffffffffffffffffffffff\n      mul\n      not\n      and\n      swap1\n      dup4\n      0xffffffffffffffffffffffffffffffffffffffff\n      and\n      mul\n      or\n      swap1\n      sstore\n      pop\n        /* \"@chainlink/contracts/src/v0.8/shared/access/ConfirmedOwnerWithProposal.sol\":1326:1336  msg.sender */\n      caller\n        /* \"@chainlink/contracts/src/v0.8/shared/access/ConfirmedOwnerWithProposal.sol\":1295:1337  OwnershipTransferred(oldOwner, msg.sender) */\n      0xffffffffffffffffffffffffffffffffffffffff\n      and\n        /* \"@chainlink/contracts/src/v0.8/shared/access/ConfirmedOwnerWithProposal.sol\":1316:1324  oldOwner */\n      dup2\n        /* \"@chainlink/contracts/src/v0.8/shared/access/ConfirmedOwnerWithProposal.sol\":1295:1337  OwnershipTransferred(oldOwner, msg.sender) */\n      0xffffffffffffffffffffffffffffffffffffffff\n      and\n      0x8be0079c531659141344cd1fd0a4f28419497f9722a3daafe3b4186f6b6457e0\n      mload(0x40)\n      mload(0x40)\n      dup1\n      swap2\n      sub\n      swap1\n      log3\n        /* \"@chainlink/contracts/src/v0.8/shared/access/ConfirmedOwnerWithProposal.sol\":1071:1342  {... */\n      pop\n        /* \"@chainlink/contracts/src/v0.8/shared/access/ConfirmedOwnerWithProposal.sol\":1026:1342  function acceptOwnership() external override {... */\n      jump\t// out\n        /* \"Lab10/LotteryFive.sol\":3132:3156  uint public currentRound */\n    tag_46:\n      sload(0x08)\n      dup2\n      jump\t// out\n        /* \"Lab10/LotteryFive.sol\":3096:3125  uint[] public roundsCompleted */\n    tag_51:\n      0x07\n      dup2\n      dup2\n      sload\n      dup2\n      lt\n      tag_158\n      jumpi\n      0x00\n      dup1\n      revert\n    tag_158:\n      swap1\n      0x00\n      mstore\n      keccak256(0x00, 0x20)\n      add\n      0x00\n      swap2\n      pop\n      swap1\n      pop\n      sload\n      dup2\n      jump\t// out\n        /* \"Lab10/LotteryFive.sol\":7361:7474  function contractBalance() external onlyOwner view returns (uint) {... */\n    tag_55:\n        /* \"Lab10/LotteryFive.sol\":7421:7425  uint */\n      0x00\n        /* \"@chainlink/contracts/src/v0.8/shared/access/ConfirmedOwnerWithProposal.sol\":2075:2095  _validateOwnership() */\n      tag_161\n        /* \"@chainlink/contracts/src/v0.8/shared/access/ConfirmedOwnerWithProposal.sol\":2075:2093  _validateOwnership */\n      tag_141\n        /* \"@chainlink/contracts/src/v0.8/shared/access/ConfirmedOwnerWithProposal.sol\":2075:2095  _validateOwnership() */\n      jump\t// in\n    tag_161:\n        /* \"Lab10/LotteryFive.sol\":7445:7466  address(this).balance */\n      selfbalance\n        /* \"Lab10/LotteryFive.sol\":7438:7466  return address(this).balance */\n      swap1\n      pop\n        /* \"Lab10/LotteryFive.sol\":7361:7474  function contractBalance() external onlyOwner view returns (uint) {... */\n      swap1\n      jump\t// out\n        /* \"@chainlink/contracts/src/v0.8/shared/access/ConfirmedOwnerWithProposal.sol\":1382:1463  function owner() public view override returns (address) {... */\n    tag_59:\n        /* \"@chainlink/contracts/src/v0.8/shared/access/ConfirmedOwnerWithProposal.sol\":1429:1436  address */\n      0x00\n        /* \"@chainlink/contracts/src/v0.8/shared/access/ConfirmedOwnerWithProposal.sol\":1451:1458  s_owner */\n      dup1\n      0x00\n      swap1\n      sload\n      swap1\n      0x0100\n      exp\n      swap1\n      div\n      0xffffffffffffffffffffffffffffffffffffffff\n      and\n        /* \"@chainlink/contracts/src/v0.8/shared/access/ConfirmedOwnerWithProposal.sol\":1444:1458  return s_owner */\n      swap1\n      pop\n        /* \"@chainlink/contracts/src/v0.8/shared/access/ConfirmedOwnerWithProposal.sol\":1382:1463  function owner() public view override returns (address) {... */\n      swap1\n      jump\t// out\n        /* \"Lab10/LotteryFive.sol\":2639:2891  function withdrawLink() public onlyOwner {... */\n    tag_63:\n        /* \"@chainlink/contracts/src/v0.8/shared/access/ConfirmedOwnerWithProposal.sol\":2075:2095  _validateOwnership() */\n      tag_165\n        /* \"@chainlink/contracts/src/v0.8/shared/access/ConfirmedOwnerWithProposal.sol\":2075:2093  _validateOwnership */\n      tag_141\n        /* \"@chainlink/contracts/src/v0.8/shared/access/ConfirmedOwnerWithProposal.sol\":2075:2095  _validateOwnership() */\n      jump\t// in\n    tag_165:\n        /* \"Lab10/LotteryFive.sol\":2691:2714  LinkTokenInterface link */\n      0x00\n        /* \"Lab10/LotteryFive.sol\":2736:2747  linkAddress */\n      0x05\n      0x0a\n      swap1\n      sload\n      swap1\n      0x0100\n      exp\n      swap1\n      div\n      0xffffffffffffffffffffffffffffffffffffffff\n      and\n        /* \"Lab10/LotteryFive.sol\":2691:2748  LinkTokenInterface link = LinkTokenInterface(linkAddress) */\n      swap1\n      pop\n        /* \"Lab10/LotteryFive.sol\":2781:2785  link */\n      dup1\n        /* \"Lab10/LotteryFive.sol\":2781:2794  link.transfer */\n      0xffffffffffffffffffffffffffffffffffffffff\n      and\n      0xa9059cbb\n        /* \"Lab10/LotteryFive.sol\":2795:2805  msg.sender */\n      caller\n        /* \"Lab10/LotteryFive.sol\":2807:2811  link */\n      dup4\n        /* \"Lab10/LotteryFive.sol\":2807:2821  link.balanceOf */\n      0xffffffffffffffffffffffffffffffffffffffff\n      and\n      0x70a08231\n        /* \"Lab10/LotteryFive.sol\":2830:2834  this */\n      address\n        /* \"Lab10/LotteryFive.sol\":2807:2836  link.balanceOf(address(this)) */\n      mload(0x40)\n      dup3\n      0xffffffff\n      and\n      0xe0\n      shl\n      dup2\n      mstore\n      0x04\n      add\n      tag_167\n      swap2\n      swap1\n      tag_23\n      jump\t// in\n    tag_167:\n      0x20\n      mload(0x40)\n      dup1\n      dup4\n      sub\n      dup2\n      dup7\n      gas\n      staticcall\n      iszero\n      dup1\n      iszero\n      tag_169\n      jumpi\n      returndatasize\n      0x00\n      dup1\n      returndatacopy\n      revert(0x00, returndatasize)\n    tag_169:\n      pop\n      pop\n      pop\n      pop\n      mload(0x40)\n      returndatasize\n      not(0x1f)\n      0x1f\n      dup3\n      add\n      and\n      dup3\n      add\n      dup1\n      0x40\n      mstore\n      pop\n      dup2\n      add\n      swap1\n      tag_170\n      swap2\n      swap1\n      tag_171\n      jump\t// in\n    tag_170:\n        /* \"Lab10/LotteryFive.sol\":2781:2837  link.transfer(msg.sender, link.balanceOf(address(this))) */\n      mload(0x40)\n      dup4\n      0xffffffff\n      and\n      0xe0\n      shl\n      dup2\n      mstore\n      0x04\n      add\n      tag_172\n      swap3\n      swap2\n      swap1\n      tag_173\n      jump\t// in\n    tag_172:\n      0x20\n      mload(0x40)\n      dup1\n      dup4\n      sub\n      dup2\n      0x00\n      dup8\n      gas\n      call\n      iszero\n      dup1\n      iszero\n      tag_175\n      jumpi\n      returndatasize\n      0x00\n      dup1\n      returndatacopy\n      revert(0x00, returndatasize)\n    tag_175:\n      pop\n      pop\n      pop\n      pop\n      mload(0x40)\n      returndatasize\n      not(0x1f)\n      0x1f\n      dup3\n      add\n      and\n      dup3\n      add\n      dup1\n      0x40\n      mstore\n      pop\n      dup2\n      add\n      swap1\n      tag_176\n      swap2\n      swap1\n      tag_177\n      jump\t// in\n    tag_176:\n        /* \"Lab10/LotteryFive.sol\":2759:2883  require(... */\n      tag_178\n      jumpi\n      mload(0x40)\n      0x08c379a000000000000000000000000000000000000000000000000000000000\n      dup2\n      mstore\n      0x04\n      add\n      tag_179\n      swap1\n      tag_180\n      jump\t// in\n    tag_179:\n      mload(0x40)\n      dup1\n      swap2\n      sub\n      swap1\n      revert\n    tag_178:\n        /* \"Lab10/LotteryFive.sol\":2680:2891  {... */\n      pop\n        /* \"Lab10/LotteryFive.sol\":2639:2891  function withdrawLink() public onlyOwner {... */\n      jump\t// out\n        /* \"Lab10/LotteryFive.sol\":5208:6062  function join() external payable {... */\n    tag_65:\n        /* \"Lab10/LotteryFive.sol\":5311:5340  RoundState storage roundState */\n      0x00\n        /* \"Lab10/LotteryFive.sol\":5343:5354  roundStates */\n      0x0a\n        /* \"Lab10/LotteryFive.sol\":5343:5368  roundStates[currentRound] */\n      0x00\n        /* \"Lab10/LotteryFive.sol\":5355:5367  currentRound */\n      sload(0x08)\n        /* \"Lab10/LotteryFive.sol\":5343:5368  roundStates[currentRound] */\n      dup2\n      mstore\n      0x20\n      add\n      swap1\n      dup2\n      mstore\n      0x20\n      add\n      0x00\n      keccak256\n        /* \"Lab10/LotteryFive.sol\":5311:5368  RoundState storage roundState = roundStates[currentRound] */\n      swap1\n      pop\n        /* \"Lab10/LotteryFive.sol\":5411:5412  5 */\n      0x05\n        /* \"Lab10/LotteryFive.sol\":5387:5397  roundState */\n      dup2\n        /* \"Lab10/LotteryFive.sol\":5387:5408  roundState.numMembers */\n      0x01\n      add\n      sload\n        /* \"Lab10/LotteryFive.sol\":5387:5412  roundState.numMembers < 5 */\n      lt\n        /* \"Lab10/LotteryFive.sol\":5379:5482  require(roundState.numMembers < 5, \"Number of members are already 5. Please try to join in next round\") */\n      tag_182\n      jumpi\n      mload(0x40)\n      0x08c379a000000000000000000000000000000000000000000000000000000000\n      dup2\n      mstore\n      0x04\n      add\n      tag_183\n      swap1\n      tag_184\n      jump\t// in\n    tag_183:\n      mload(0x40)\n      dup1\n      swap2\n      sub\n      swap1\n      revert\n    tag_182:\n        /* \"Lab10/LotteryFive.sol\":5497:5503  uint i */\n      0x00\n        /* \"Lab10/LotteryFive.sol\":5493:5643  for(uint i = 0; i < 5; i++) {... */\n    tag_185:\n        /* \"Lab10/LotteryFive.sol\":5513:5514  5 */\n      0x05\n        /* \"Lab10/LotteryFive.sol\":5509:5510  i */\n      dup2\n        /* \"Lab10/LotteryFive.sol\":5509:5514  i < 5 */\n      lt\n        /* \"Lab10/LotteryFive.sol\":5493:5643  for(uint i = 0; i < 5; i++) {... */\n      iszero\n      tag_186\n      jumpi\n        /* \"Lab10/LotteryFive.sol\":5558:5568  roundState */\n      dup2\n        /* \"Lab10/LotteryFive.sol\":5558:5576  roundState.members */\n      0x00\n      add\n        /* \"Lab10/LotteryFive.sol\":5577:5578  i */\n      dup2\n        /* \"Lab10/LotteryFive.sol\":5558:5579  roundState.members[i] */\n      dup2\n      sload\n      dup2\n      lt\n      tag_188\n      jumpi\n      tag_189\n      tag_81\n      jump\t// in\n    tag_189:\n    tag_188:\n      swap1\n      0x00\n      mstore\n      keccak256(0x00, 0x20)\n      swap1\n      0x02\n      mul\n      add\n        /* \"Lab10/LotteryFive.sol\":5558:5584  roundState.members[i].addr */\n      0x00\n      add\n      0x00\n      swap1\n      sload\n      swap1\n      0x0100\n      exp\n      swap1\n      div\n      0xffffffffffffffffffffffffffffffffffffffff\n      and\n        /* \"Lab10/LotteryFive.sol\":5544:5584  msg.sender != roundState.members[i].addr */\n      0xffffffffffffffffffffffffffffffffffffffff\n      and\n        /* \"Lab10/LotteryFive.sol\":5544:5554  msg.sender */\n      caller\n        /* \"Lab10/LotteryFive.sol\":5544:5584  msg.sender != roundState.members[i].addr */\n      0xffffffffffffffffffffffffffffffffffffffff\n      and\n      sub\n        /* \"Lab10/LotteryFive.sol\":5536:5631  require(msg.sender != roundState.members[i].addr, \"You have already registered for this round\") */\n      tag_191\n      jumpi\n      mload(0x40)\n      0x08c379a000000000000000000000000000000000000000000000000000000000\n      dup2\n      mstore\n      0x04\n      add\n      tag_192\n      swap1\n      tag_193\n      jump\t// in\n    tag_192:\n      mload(0x40)\n      dup1\n      swap2\n      sub\n      swap1\n      revert\n    tag_191:\n        /* \"Lab10/LotteryFive.sol\":5516:5519  i++ */\n      dup1\n      dup1\n      0x01\n      add\n      swap2\n      pop\n      pop\n        /* \"Lab10/LotteryFive.sol\":5493:5643  for(uint i = 0; i < 5; i++) {... */\n      jump(tag_185)\n    tag_186:\n      pop\n        /* \"Lab10/LotteryFive.sol\":3584:3600  1000000000000000 */\n      0x038d7ea4c68000\n        /* \"Lab10/LotteryFive.sol\":5661:5670  msg.value */\n      callvalue\n        /* \"Lab10/LotteryFive.sol\":5661:5681  msg.value >= MIN_AMT */\n      lt\n      iszero\n        /* \"Lab10/LotteryFive.sol\":5653:5741  require(msg.value >= MIN_AMT, \"You must invest at least 0.001 ETH in the lottery round\") */\n      tag_194\n      jumpi\n      mload(0x40)\n      0x08c379a000000000000000000000000000000000000000000000000000000000\n      dup2\n      mstore\n      0x04\n      add\n      tag_195\n      swap1\n      tag_196\n      jump\t// in\n    tag_195:\n      mload(0x40)\n      dup1\n      swap2\n      sub\n      swap1\n      revert\n    tag_194:\n        /* \"Lab10/LotteryFive.sol\":5756:5762  uint i */\n      0x00\n        /* \"Lab10/LotteryFive.sol\":5752:6055  for(uint i = 0; i < 5; i++) {... */\n    tag_197:\n        /* \"Lab10/LotteryFive.sol\":5772:5773  5 */\n      0x05\n        /* \"Lab10/LotteryFive.sol\":5768:5769  i */\n      dup2\n        /* \"Lab10/LotteryFive.sol\":5768:5773  i < 5 */\n      lt\n        /* \"Lab10/LotteryFive.sol\":5752:6055  for(uint i = 0; i < 5; i++) {... */\n      iszero\n      tag_198\n      jumpi\n        /* \"Lab10/LotteryFive.sol\":5837:5838  0 */\n      0x00\n        /* \"Lab10/LotteryFive.sol\":5799:5839  roundState.members[i].addr == address(0) */\n      0xffffffffffffffffffffffffffffffffffffffff\n      and\n        /* \"Lab10/LotteryFive.sol\":5799:5809  roundState */\n      dup3\n        /* \"Lab10/LotteryFive.sol\":5799:5817  roundState.members */\n      0x00\n      add\n        /* \"Lab10/LotteryFive.sol\":5818:5819  i */\n      dup3\n        /* \"Lab10/LotteryFive.sol\":5799:5820  roundState.members[i] */\n      dup2\n      sload\n      dup2\n      lt\n      tag_200\n      jumpi\n      tag_201\n      tag_81\n      jump\t// in\n    tag_201:\n    tag_200:\n      swap1\n      0x00\n      mstore\n      keccak256(0x00, 0x20)\n      swap1\n      0x02\n      mul\n      add\n        /* \"Lab10/LotteryFive.sol\":5799:5825  roundState.members[i].addr */\n      0x00\n      add\n      0x00\n      swap1\n      sload\n      swap1\n      0x0100\n      exp\n      swap1\n      div\n      0xffffffffffffffffffffffffffffffffffffffff\n      and\n        /* \"Lab10/LotteryFive.sol\":5799:5839  roundState.members[i].addr == address(0) */\n      0xffffffffffffffffffffffffffffffffffffffff\n      and\n      sub\n        /* \"Lab10/LotteryFive.sol\":5795:6044  if (roundState.members[i].addr == address(0)) {... */\n      tag_203\n      jumpi\n        /* \"Lab10/LotteryFive.sol\":5889:5899  msg.sender */\n      caller\n        /* \"Lab10/LotteryFive.sol\":5860:5870  roundState */\n      dup3\n        /* \"Lab10/LotteryFive.sol\":5860:5878  roundState.members */\n      0x00\n      add\n        /* \"Lab10/LotteryFive.sol\":5879:5880  i */\n      dup3\n        /* \"Lab10/LotteryFive.sol\":5860:5881  roundState.members[i] */\n      dup2\n      sload\n      dup2\n      lt\n      tag_204\n      jumpi\n      tag_205\n      tag_81\n      jump\t// in\n    tag_205:\n    tag_204:\n      swap1\n      0x00\n      mstore\n      keccak256(0x00, 0x20)\n      swap1\n      0x02\n      mul\n      add\n        /* \"Lab10/LotteryFive.sol\":5860:5886  roundState.members[i].addr */\n      0x00\n      add\n      0x00\n        /* \"Lab10/LotteryFive.sol\":5860:5899  roundState.members[i].addr = msg.sender */\n      0x0100\n      exp\n      dup2\n      sload\n      dup2\n      0xffffffffffffffffffffffffffffffffffffffff\n      mul\n      not\n      and\n      swap1\n      dup4\n      0xffffffffffffffffffffffffffffffffffffffff\n      and\n      mul\n      or\n      swap1\n      sstore\n      pop\n        /* \"Lab10/LotteryFive.sol\":5949:5958  msg.value */\n      callvalue\n        /* \"Lab10/LotteryFive.sol\":5918:5928  roundState */\n      dup3\n        /* \"Lab10/LotteryFive.sol\":5918:5936  roundState.members */\n      0x00\n      add\n        /* \"Lab10/LotteryFive.sol\":5937:5938  i */\n      dup3\n        /* \"Lab10/LotteryFive.sol\":5918:5939  roundState.members[i] */\n      dup2\n      sload\n      dup2\n      lt\n      tag_207\n      jumpi\n      tag_208\n      tag_81\n      jump\t// in\n    tag_208:\n    tag_207:\n      swap1\n      0x00\n      mstore\n      keccak256(0x00, 0x20)\n      swap1\n      0x02\n      mul\n      add\n        /* \"Lab10/LotteryFive.sol\":5918:5946  roundState.members[i].amount */\n      0x01\n      add\n        /* \"Lab10/LotteryFive.sol\":5918:5958  roundState.members[i].amount = msg.value */\n      dup2\n      swap1\n      sstore\n      pop\n        /* \"Lab10/LotteryFive.sol\":6002:6003  1 */\n      0x01\n        /* \"Lab10/LotteryFive.sol\":5977:5987  roundState */\n      dup3\n        /* \"Lab10/LotteryFive.sol\":5977:5998  roundState.numMembers */\n      0x01\n      add\n      0x00\n        /* \"Lab10/LotteryFive.sol\":5977:6003  roundState.numMembers += 1 */\n      dup3\n      dup3\n      sload\n      tag_210\n      swap2\n      swap1\n      tag_109\n      jump\t// in\n    tag_210:\n      swap3\n      pop\n      pop\n      dup2\n      swap1\n      sstore\n      pop\n        /* \"Lab10/LotteryFive.sol\":6022:6029  return; */\n      pop\n      pop\n      jump(tag_181)\n        /* \"Lab10/LotteryFive.sol\":5795:6044  if (roundState.members[i].addr == address(0)) {... */\n    tag_203:\n        /* \"Lab10/LotteryFive.sol\":5775:5778  i++ */\n      dup1\n      dup1\n      0x01\n      add\n      swap2\n      pop\n      pop\n        /* \"Lab10/LotteryFive.sol\":5752:6055  for(uint i = 0; i < 5; i++) {... */\n      jump(tag_197)\n    tag_198:\n      pop\n        /* \"Lab10/LotteryFive.sol\":5241:6062  {... */\n      pop\n        /* \"Lab10/LotteryFive.sol\":5208:6062  function join() external payable {... */\n    tag_181:\n      jump\t// out\n        /* \"@chainlink/contracts/src/v0.8/shared/access/ConfirmedOwnerWithProposal.sol\":847:945  function transferOwnership(address to) public override onlyOwner {... */\n    tag_70:\n        /* \"@chainlink/contracts/src/v0.8/shared/access/ConfirmedOwnerWithProposal.sol\":2075:2095  _validateOwnership() */\n      tag_212\n        /* \"@chainlink/contracts/src/v0.8/shared/access/ConfirmedOwnerWithProposal.sol\":2075:2093  _validateOwnership */\n      tag_141\n        /* \"@chainlink/contracts/src/v0.8/shared/access/ConfirmedOwnerWithProposal.sol\":2075:2095  _validateOwnership() */\n      jump\t// in\n    tag_212:\n        /* \"@chainlink/contracts/src/v0.8/shared/access/ConfirmedOwnerWithProposal.sol\":918:940  _transferOwnership(to) */\n      tag_214\n        /* \"@chainlink/contracts/src/v0.8/shared/access/ConfirmedOwnerWithProposal.sol\":937:939  to */\n      dup2\n        /* \"@chainlink/contracts/src/v0.8/shared/access/ConfirmedOwnerWithProposal.sol\":918:936  _transferOwnership */\n      tag_215\n        /* \"@chainlink/contracts/src/v0.8/shared/access/ConfirmedOwnerWithProposal.sol\":918:940  _transferOwnership(to) */\n      jump\t// in\n    tag_214:\n        /* \"@chainlink/contracts/src/v0.8/shared/access/ConfirmedOwnerWithProposal.sol\":847:945  function transferOwnership(address to) public override onlyOwner {... */\n      pop\n      jump\t// out\n        /* \"Lab10/LotteryFive.sol\":2245:2557  function fulfillRandomWords(... */\n    tag_93:\n        /* \"Lab10/LotteryFive.sol\":2416:2417  0 */\n      0x00\n        /* \"Lab10/LotteryFive.sol\":2386:2396  s_requests */\n      0x02\n        /* \"Lab10/LotteryFive.sol\":2386:2408  s_requests[_requestId] */\n      0x00\n        /* \"Lab10/LotteryFive.sol\":2397:2407  _requestId */\n      dup5\n        /* \"Lab10/LotteryFive.sol\":2386:2408  s_requests[_requestId] */\n      dup2\n      mstore\n      0x20\n      add\n      swap1\n      dup2\n      mstore\n      0x20\n      add\n      0x00\n      keccak256\n        /* \"Lab10/LotteryFive.sol\":2386:2413  s_requests[_requestId].paid */\n      0x00\n      add\n      sload\n        /* \"Lab10/LotteryFive.sol\":2386:2417  s_requests[_requestId].paid > 0 */\n      gt\n        /* \"Lab10/LotteryFive.sol\":2378:2439  require(s_requests[_requestId].paid > 0, \"request not found\") */\n      tag_217\n      jumpi\n      mload(0x40)\n      0x08c379a000000000000000000000000000000000000000000000000000000000\n      dup2\n      mstore\n      0x04\n      add\n      tag_218\n      swap1\n      tag_219\n      jump\t// in\n    tag_218:\n      mload(0x40)\n      dup1\n      swap2\n      sub\n      swap1\n      revert\n    tag_217:\n        /* \"Lab10/LotteryFive.sol\":2485:2489  true */\n      0x01\n        /* \"Lab10/LotteryFive.sol\":2450:2460  s_requests */\n      0x02\n        /* \"Lab10/LotteryFive.sol\":2450:2472  s_requests[_requestId] */\n      0x00\n        /* \"Lab10/LotteryFive.sol\":2461:2471  _requestId */\n      dup5\n        /* \"Lab10/LotteryFive.sol\":2450:2472  s_requests[_requestId] */\n      dup2\n      mstore\n      0x20\n      add\n      swap1\n      dup2\n      mstore\n      0x20\n      add\n      0x00\n      keccak256\n        /* \"Lab10/LotteryFive.sol\":2450:2482  s_requests[_requestId].fulfilled */\n      0x01\n      add\n      0x00\n        /* \"Lab10/LotteryFive.sol\":2450:2489  s_requests[_requestId].fulfilled = true */\n      0x0100\n      exp\n      dup2\n      sload\n      dup2\n      0xff\n      mul\n      not\n      and\n      swap1\n      dup4\n      iszero\n      iszero\n      mul\n      or\n      swap1\n      sstore\n      pop\n        /* \"Lab10/LotteryFive.sol\":2537:2549  _randomWords */\n      dup1\n        /* \"Lab10/LotteryFive.sol\":2500:2510  s_requests */\n      0x02\n        /* \"Lab10/LotteryFive.sol\":2500:2522  s_requests[_requestId] */\n      0x00\n        /* \"Lab10/LotteryFive.sol\":2511:2521  _requestId */\n      dup5\n        /* \"Lab10/LotteryFive.sol\":2500:2522  s_requests[_requestId] */\n      dup2\n      mstore\n      0x20\n      add\n      swap1\n      dup2\n      mstore\n      0x20\n      add\n      0x00\n      keccak256\n        /* \"Lab10/LotteryFive.sol\":2500:2534  s_requests[_requestId].randomWords */\n      0x02\n      add\n        /* \"Lab10/LotteryFive.sol\":2500:2549  s_requests[_requestId].randomWords = _randomWords */\n      swap1\n      dup1\n      mload\n      swap1\n      0x20\n      add\n      swap1\n      tag_220\n      swap3\n      swap2\n      swap1\n      tag_221\n      jump\t// in\n    tag_220:\n      pop\n        /* \"Lab10/LotteryFive.sol\":2245:2557  function fulfillRandomWords(... */\n      pop\n      pop\n      jump\t// out\n        /* \"@chainlink/contracts/src/v0.8/shared/access/ConfirmedOwnerWithProposal.sol\":1809:1971  function _validateOwnership() internal view {... */\n    tag_141:\n        /* \"@chainlink/contracts/src/v0.8/shared/access/ConfirmedOwnerWithProposal.sol\":1932:1939  s_owner */\n      0x00\n      dup1\n      sload\n      swap1\n      0x0100\n      exp\n      swap1\n      div\n      0xffffffffffffffffffffffffffffffffffffffff\n      and\n        /* \"@chainlink/contracts/src/v0.8/shared/access/ConfirmedOwnerWithProposal.sol\":1918:1939  msg.sender == s_owner */\n      0xffffffffffffffffffffffffffffffffffffffff\n      and\n        /* \"@chainlink/contracts/src/v0.8/shared/access/ConfirmedOwnerWithProposal.sol\":1918:1928  msg.sender */\n      caller\n        /* \"@chainlink/contracts/src/v0.8/shared/access/ConfirmedOwnerWithProposal.sol\":1918:1939  msg.sender == s_owner */\n      0xffffffffffffffffffffffffffffffffffffffff\n      and\n      eq\n        /* \"@chainlink/contracts/src/v0.8/shared/access/ConfirmedOwnerWithProposal.sol\":1910:1966  require(msg.sender == s_owner, \"Only callable by owner\") */\n      tag_223\n      jumpi\n      mload(0x40)\n      0x08c379a000000000000000000000000000000000000000000000000000000000\n      dup2\n      mstore\n      0x04\n      add\n      tag_224\n      swap1\n      tag_225\n      jump\t// in\n    tag_224:\n      mload(0x40)\n      dup1\n      swap2\n      sub\n      swap1\n      revert\n    tag_223:\n        /* \"@chainlink/contracts/src/v0.8/shared/access/ConfirmedOwnerWithProposal.sol\":1809:1971  function _validateOwnership() internal view {... */\n      jump\t// out\n        /* \"Lab10/LotteryFive.sol\":1669:2237  function requestRandomWords()... */\n    tag_147:\n        /* \"Lab10/LotteryFive.sol\":1754:1771  uint256 requestId */\n      0x00\n        /* \"@chainlink/contracts/src/v0.8/shared/access/ConfirmedOwnerWithProposal.sol\":2075:2095  _validateOwnership() */\n      tag_227\n        /* \"@chainlink/contracts/src/v0.8/shared/access/ConfirmedOwnerWithProposal.sol\":2075:2093  _validateOwnership */\n      tag_141\n        /* \"@chainlink/contracts/src/v0.8/shared/access/ConfirmedOwnerWithProposal.sol\":2075:2095  _validateOwnership() */\n      jump\t// in\n    tag_227:\n        /* \"Lab10/LotteryFive.sol\":1801:1918  requestRandomness(... */\n      tag_229\n        /* \"Lab10/LotteryFive.sol\":1833:1849  callbackGasLimit */\n      0x05\n      0x00\n      swap1\n      sload\n      swap1\n      0x0100\n      exp\n      swap1\n      div\n      0xffffffff\n      and\n        /* \"Lab10/LotteryFive.sol\":1864:1884  requestConfirmations */\n      0x05\n      0x04\n      swap1\n      sload\n      swap1\n      0x0100\n      exp\n      swap1\n      div\n      0xffff\n      and\n        /* \"Lab10/LotteryFive.sol\":1899:1907  numWords */\n      0x05\n      0x06\n      swap1\n      sload\n      swap1\n      0x0100\n      exp\n      swap1\n      div\n      0xffffffff\n      and\n        /* \"Lab10/LotteryFive.sol\":1801:1818  requestRandomness */\n      tag_230\n        /* \"Lab10/LotteryFive.sol\":1801:1918  requestRandomness(... */\n      jump\t// in\n    tag_229:\n        /* \"Lab10/LotteryFive.sol\":1789:1918  requestId = requestRandomness(... */\n      swap1\n      pop\n        /* \"Lab10/LotteryFive.sol\":1953:2129  RequestStatus({... */\n      mload(0x40)\n      dup1\n      0x60\n      add\n      0x40\n      mstore\n      dup1\n        /* \"Lab10/LotteryFive.sol\":1988:2002  VRF_V2_WRAPPER */\n      immutable(\"0xf6cb0138da7c8b3468e7e4d8ba389a3263d4efb90e59a6ce914e87b867b16a00\")\n        /* \"Lab10/LotteryFive.sol\":1988:2024  VRF_V2_WRAPPER.calculateRequestPrice */\n      0xffffffffffffffffffffffffffffffffffffffff\n      and\n      0x4306d354\n        /* \"Lab10/LotteryFive.sol\":2025:2041  callbackGasLimit */\n      0x05\n      0x00\n      swap1\n      sload\n      swap1\n      0x0100\n      exp\n      swap1\n      div\n      0xffffffff\n      and\n        /* \"Lab10/LotteryFive.sol\":1988:2042  VRF_V2_WRAPPER.calculateRequestPrice(callbackGasLimit) */\n      mload(0x40)\n      dup3\n      0xffffffff\n      and\n      0xe0\n      shl\n      dup2\n      mstore\n      0x04\n      add\n      tag_231\n      swap2\n      swap1\n      tag_232\n      jump\t// in\n    tag_231:\n      0x20\n      mload(0x40)\n      dup1\n      dup4\n      sub\n      dup2\n      dup7\n      gas\n      staticcall\n      iszero\n      dup1\n      iszero\n      tag_234\n      jumpi\n      returndatasize\n      0x00\n      dup1\n      returndatacopy\n      revert(0x00, returndatasize)\n    tag_234:\n      pop\n      pop\n      pop\n      pop\n      mload(0x40)\n      returndatasize\n      not(0x1f)\n      0x1f\n      dup3\n      add\n      and\n      dup3\n      add\n      dup1\n      0x40\n      mstore\n      pop\n      dup2\n      add\n      swap1\n      tag_235\n      swap2\n      swap1\n      tag_171\n      jump\t// in\n    tag_235:\n        /* \"Lab10/LotteryFive.sol\":1953:2129  RequestStatus({... */\n      dup2\n      mstore\n      0x20\n      add\n        /* \"Lab10/LotteryFive.sol\":2112:2117  false */\n      0x00\n        /* \"Lab10/LotteryFive.sol\":1953:2129  RequestStatus({... */\n      iszero\n      iszero\n      dup2\n      mstore\n      0x20\n      add\n        /* \"Lab10/LotteryFive.sol\":2084:2085  0 */\n      0x00\n        /* \"Lab10/LotteryFive.sol\":2070:2086  new uint256[](0) */\n      0xffffffffffffffff\n      dup2\n      gt\n      iszero\n      tag_236\n      jumpi\n      tag_237\n      tag_238\n      jump\t// in\n    tag_237:\n    tag_236:\n      mload(0x40)\n      swap1\n      dup1\n      dup3\n      mstore\n      dup1\n      0x20\n      mul\n      0x20\n      add\n      dup3\n      add\n      0x40\n      mstore\n      dup1\n      iszero\n      tag_239\n      jumpi\n      dup2\n      0x20\n      add\n      0x20\n      dup3\n      mul\n      dup1\n      calldatasize\n      dup4\n      calldatacopy\n      dup1\n      dup3\n      add\n      swap2\n      pop\n      pop\n      swap1\n      pop\n    tag_239:\n      pop\n        /* \"Lab10/LotteryFive.sol\":1953:2129  RequestStatus({... */\n      dup2\n      mstore\n      pop\n        /* \"Lab10/LotteryFive.sol\":1929:1939  s_requests */\n      0x02\n        /* \"Lab10/LotteryFive.sol\":1929:1950  s_requests[requestId] */\n      0x00\n        /* \"Lab10/LotteryFive.sol\":1940:1949  requestId */\n      dup4\n        /* \"Lab10/LotteryFive.sol\":1929:1950  s_requests[requestId] */\n      dup2\n      mstore\n      0x20\n      add\n      swap1\n      dup2\n      mstore\n      0x20\n      add\n      0x00\n      keccak256\n        /* \"Lab10/LotteryFive.sol\":1929:2129  s_requests[requestId] = RequestStatus({... */\n      0x00\n      dup3\n      add\n      mload\n      dup2\n      0x00\n      add\n      sstore\n      0x20\n      dup3\n      add\n      mload\n      dup2\n      0x01\n      add\n      exp(0x0100, 0x00)\n      dup2\n      sload\n      dup2\n      0xff\n      mul\n      not\n      and\n      swap1\n      dup4\n      iszero\n      iszero\n      mul\n      or\n      swap1\n      sstore\n      pop\n      0x40\n      dup3\n      add\n      mload\n      dup2\n      0x02\n      add\n      swap1\n      dup1\n      mload\n      swap1\n      0x20\n      add\n      swap1\n      tag_240\n      swap3\n      swap2\n      swap1\n      tag_221\n      jump\t// in\n    tag_240:\n      pop\n      swap1\n      pop\n      pop\n        /* \"Lab10/LotteryFive.sol\":2140:2150  requestIds */\n      0x03\n        /* \"Lab10/LotteryFive.sol\":2156:2165  requestId */\n      dup2\n        /* \"Lab10/LotteryFive.sol\":2140:2166  requestIds.push(requestId) */\n      swap1\n      dup1\n      0x01\n      dup2\n      sload\n      add\n      dup1\n      dup3\n      sstore\n      dup1\n      swap2\n      pop\n      pop\n      0x01\n      swap1\n      sub\n      swap1\n      0x00\n      mstore\n      keccak256(0x00, 0x20)\n      add\n      0x00\n      swap1\n      swap2\n      swap1\n      swap2\n      swap1\n      swap2\n      pop\n      sstore\n        /* \"Lab10/LotteryFive.sol\":2193:2202  requestId */\n      dup1\n        /* \"Lab10/LotteryFive.sol\":2177:2190  lastRequestId */\n      0x04\n        /* \"Lab10/LotteryFive.sol\":2177:2202  lastRequestId = requestId */\n      dup2\n      swap1\n      sstore\n      pop\n        /* \"Lab10/LotteryFive.sol\":1669:2237  function requestRandomWords()... */\n      swap1\n      jump\t// out\n        /* \"@chainlink/contracts/src/v0.8/shared/access/ConfirmedOwnerWithProposal.sol\":1536:1775  function _transferOwnership(address to) private {... */\n    tag_215:\n        /* \"@chainlink/contracts/src/v0.8/shared/access/ConfirmedOwnerWithProposal.sol\":1655:1665  msg.sender */\n      caller\n        /* \"@chainlink/contracts/src/v0.8/shared/access/ConfirmedOwnerWithProposal.sol\":1649:1665  to != msg.sender */\n      0xffffffffffffffffffffffffffffffffffffffff\n      and\n        /* \"@chainlink/contracts/src/v0.8/shared/access/ConfirmedOwnerWithProposal.sol\":1649:1651  to */\n      dup2\n        /* \"@chainlink/contracts/src/v0.8/shared/access/ConfirmedOwnerWithProposal.sol\":1649:1665  to != msg.sender */\n      0xffffffffffffffffffffffffffffffffffffffff\n      and\n      sub\n        /* \"@chainlink/contracts/src/v0.8/shared/access/ConfirmedOwnerWithProposal.sol\":1641:1693  require(to != msg.sender, \"Cannot transfer to self\") */\n      tag_243\n      jumpi\n      mload(0x40)\n      0x08c379a000000000000000000000000000000000000000000000000000000000\n      dup2\n      mstore\n      0x04\n      add\n      tag_244\n      swap1\n      tag_245\n      jump\t// in\n    tag_244:\n      mload(0x40)\n      dup1\n      swap2\n      sub\n      swap1\n      revert\n    tag_243:\n        /* \"@chainlink/contracts/src/v0.8/shared/access/ConfirmedOwnerWithProposal.sol\":1717:1719  to */\n      dup1\n        /* \"@chainlink/contracts/src/v0.8/shared/access/ConfirmedOwnerWithProposal.sol\":1700:1714  s_pendingOwner */\n      0x01\n      0x00\n        /* \"@chainlink/contracts/src/v0.8/shared/access/ConfirmedOwnerWithProposal.sol\":1700:1719  s_pendingOwner = to */\n      0x0100\n      exp\n      dup2\n      sload\n      dup2\n      0xffffffffffffffffffffffffffffffffffffffff\n      mul\n      not\n      and\n      swap1\n      dup4\n      0xffffffffffffffffffffffffffffffffffffffff\n      and\n      mul\n      or\n      swap1\n      sstore\n      pop\n        /* \"@chainlink/contracts/src/v0.8/shared/access/ConfirmedOwnerWithProposal.sol\":1767:1769  to */\n      dup1\n        /* \"@chainlink/contracts/src/v0.8/shared/access/ConfirmedOwnerWithProposal.sol\":1731:1770  OwnershipTransferRequested(s_owner, to) */\n      0xffffffffffffffffffffffffffffffffffffffff\n      and\n        /* \"@chainlink/contracts/src/v0.8/shared/access/ConfirmedOwnerWithProposal.sol\":1758:1765  s_owner */\n      0x00\n      dup1\n      sload\n      swap1\n      0x0100\n      exp\n      swap1\n      div\n      0xffffffffffffffffffffffffffffffffffffffff\n      and\n        /* \"@chainlink/contracts/src/v0.8/shared/access/ConfirmedOwnerWithProposal.sol\":1731:1770  OwnershipTransferRequested(s_owner, to) */\n      0xffffffffffffffffffffffffffffffffffffffff\n      and\n      0xed8889f560326eb138920d842192f0eb3dd22b4f139c87a2c57538e05bae1278\n      mload(0x40)\n      mload(0x40)\n      dup1\n      swap2\n      sub\n      swap1\n      log3\n        /* \"@chainlink/contracts/src/v0.8/shared/access/ConfirmedOwnerWithProposal.sol\":1536:1775  function _transferOwnership(address to) private {... */\n      pop\n      jump\t// out\n        /* \"@chainlink/contracts/src/v0.8/vrf/VRFV2WrapperConsumerBase.sol\":2968:3367  function requestRandomness(... */\n    tag_230:\n        /* \"@chainlink/contracts/src/v0.8/vrf/VRFV2WrapperConsumerBase.sol\":3103:3120  uint256 requestId */\n      0x00\n        /* \"@chainlink/contracts/src/v0.8/vrf/VRFV2WrapperConsumerBase.sol\":3128:3132  LINK */\n      immutable(\"0x064aab4cf973af3102587bae83caeab28cf75517d40727c9b952f0d14fb521fa\")\n        /* \"@chainlink/contracts/src/v0.8/vrf/VRFV2WrapperConsumerBase.sol\":3128:3148  LINK.transferAndCall */\n      0xffffffffffffffffffffffffffffffffffffffff\n      and\n      0x4000aea0\n        /* \"@chainlink/contracts/src/v0.8/vrf/VRFV2WrapperConsumerBase.sol\":3164:3178  VRF_V2_WRAPPER */\n      immutable(\"0xf6cb0138da7c8b3468e7e4d8ba389a3263d4efb90e59a6ce914e87b867b16a00\")\n        /* \"@chainlink/contracts/src/v0.8/vrf/VRFV2WrapperConsumerBase.sol\":3187:3201  VRF_V2_WRAPPER */\n      immutable(\"0xf6cb0138da7c8b3468e7e4d8ba389a3263d4efb90e59a6ce914e87b867b16a00\")\n        /* \"@chainlink/contracts/src/v0.8/vrf/VRFV2WrapperConsumerBase.sol\":3187:3223  VRF_V2_WRAPPER.calculateRequestPrice */\n      0xffffffffffffffffffffffffffffffffffffffff\n      and\n      0x4306d354\n        /* \"@chainlink/contracts/src/v0.8/vrf/VRFV2WrapperConsumerBase.sol\":3224:3241  _callbackGasLimit */\n      dup9\n        /* \"@chainlink/contracts/src/v0.8/vrf/VRFV2WrapperConsumerBase.sol\":3187:3242  VRF_V2_WRAPPER.calculateRequestPrice(_callbackGasLimit) */\n      mload(0x40)\n      dup3\n      0xffffffff\n      and\n      0xe0\n      shl\n      dup2\n      mstore\n      0x04\n      add\n      tag_247\n      swap2\n      swap1\n      tag_232\n      jump\t// in\n    tag_247:\n      0x20\n      mload(0x40)\n      dup1\n      dup4\n      sub\n      dup2\n      dup7\n      gas\n      staticcall\n      iszero\n      dup1\n      iszero\n      tag_249\n      jumpi\n      returndatasize\n      0x00\n      dup1\n      returndatacopy\n      revert(0x00, returndatasize)\n    tag_249:\n      pop\n      pop\n      pop\n      pop\n      mload(0x40)\n      returndatasize\n      not(0x1f)\n      0x1f\n      dup3\n      add\n      and\n      dup3\n      add\n      dup1\n      0x40\n      mstore\n      pop\n      dup2\n      add\n      swap1\n      tag_250\n      swap2\n      swap1\n      tag_171\n      jump\t// in\n    tag_250:\n        /* \"@chainlink/contracts/src/v0.8/vrf/VRFV2WrapperConsumerBase.sol\":3261:3278  _callbackGasLimit */\n      dup8\n        /* \"@chainlink/contracts/src/v0.8/vrf/VRFV2WrapperConsumerBase.sol\":3280:3301  _requestConfirmations */\n      dup8\n        /* \"@chainlink/contracts/src/v0.8/vrf/VRFV2WrapperConsumerBase.sol\":3303:3312  _numWords */\n      dup8\n        /* \"@chainlink/contracts/src/v0.8/vrf/VRFV2WrapperConsumerBase.sol\":3250:3313  abi.encode(_callbackGasLimit, _requestConfirmations, _numWords) */\n      add(0x20, mload(0x40))\n      tag_251\n      swap4\n      swap3\n      swap2\n      swap1\n      tag_252\n      jump\t// in\n    tag_251:\n      mload(0x40)\n      0x20\n      dup2\n      dup4\n      sub\n      sub\n      dup2\n      mstore\n      swap1\n      0x40\n      mstore\n        /* \"@chainlink/contracts/src/v0.8/vrf/VRFV2WrapperConsumerBase.sol\":3128:3319  LINK.transferAndCall(... */\n      mload(0x40)\n      dup5\n      0xffffffff\n      and\n      0xe0\n      shl\n      dup2\n      mstore\n      0x04\n      add\n      tag_253\n      swap4\n      swap3\n      swap2\n      swap1\n      tag_254\n      jump\t// in\n    tag_253:\n      0x20\n      mload(0x40)\n      dup1\n      dup4\n      sub\n      dup2\n      0x00\n      dup8\n      gas\n      call\n      iszero\n      dup1\n      iszero\n      tag_256\n      jumpi\n      returndatasize\n      0x00\n      dup1\n      returndatacopy\n      revert(0x00, returndatasize)\n    tag_256:\n      pop\n      pop\n      pop\n      pop\n      mload(0x40)\n      returndatasize\n      not(0x1f)\n      0x1f\n      dup3\n      add\n      and\n      dup3\n      add\n      dup1\n      0x40\n      mstore\n      pop\n      dup2\n      add\n      swap1\n      tag_257\n      swap2\n      swap1\n      tag_177\n      jump\t// in\n    tag_257:\n      pop\n        /* \"@chainlink/contracts/src/v0.8/vrf/VRFV2WrapperConsumerBase.sol\":3332:3346  VRF_V2_WRAPPER */\n      immutable(\"0xf6cb0138da7c8b3468e7e4d8ba389a3263d4efb90e59a6ce914e87b867b16a00\")\n        /* \"@chainlink/contracts/src/v0.8/vrf/VRFV2WrapperConsumerBase.sol\":3332:3360  VRF_V2_WRAPPER.lastRequestId */\n      0xffffffffffffffffffffffffffffffffffffffff\n      and\n      0xfc2a88c3\n        /* \"@chainlink/contracts/src/v0.8/vrf/VRFV2WrapperConsumerBase.sol\":3332:3362  VRF_V2_WRAPPER.lastRequestId() */\n      mload(0x40)\n      dup2\n      0xffffffff\n      and\n      0xe0\n      shl\n      dup2\n      mstore\n      0x04\n      add\n      0x20\n      mload(0x40)\n      dup1\n      dup4\n      sub\n      dup2\n      dup7\n      gas\n      staticcall\n      iszero\n      dup1\n      iszero\n      tag_259\n      jumpi\n      returndatasize\n      0x00\n      dup1\n      returndatacopy\n      revert(0x00, returndatasize)\n    tag_259:\n      pop\n      pop\n      pop\n      pop\n      mload(0x40)\n      returndatasize\n      not(0x1f)\n      0x1f\n      dup3\n      add\n      and\n      dup3\n      add\n      dup1\n      0x40\n      mstore\n      pop\n      dup2\n      add\n      swap1\n      tag_260\n      swap2\n      swap1\n      tag_171\n      jump\t// in\n    tag_260:\n        /* \"@chainlink/contracts/src/v0.8/vrf/VRFV2WrapperConsumerBase.sol\":3325:3362  return VRF_V2_WRAPPER.lastRequestId() */\n      swap1\n      pop\n        /* \"@chainlink/contracts/src/v0.8/vrf/VRFV2WrapperConsumerBase.sol\":2968:3367  function requestRandomness(... */\n      swap4\n      swap3\n      pop\n      pop\n      pop\n      jump\t// out\n    tag_221:\n      dup3\n      dup1\n      sload\n      dup3\n      dup3\n      sstore\n      swap1\n      0x00\n      mstore\n      keccak256(0x00, 0x20)\n      swap1\n      dup2\n      add\n      swap3\n      dup3\n      iszero\n      tag_261\n      jumpi\n      swap2\n      0x20\n      mul\n      dup3\n      add\n    tag_262:\n      dup3\n      dup2\n      gt\n      iszero\n      tag_263\n      jumpi\n      dup3\n      mload\n      dup3\n      sstore\n      swap2\n      0x20\n      add\n      swap2\n      swap1\n      0x01\n      add\n      swap1\n      jump(tag_262)\n    tag_263:\n    tag_261:\n      pop\n      swap1\n      pop\n      tag_264\n      swap2\n      swap1\n      tag_265\n      jump\t// in\n    tag_264:\n      pop\n      swap1\n      jump\t// out\n    tag_265:\n    tag_266:\n      dup1\n      dup3\n      gt\n      iszero\n      tag_267\n      jumpi\n      0x00\n      dup2\n      0x00\n      swap1\n      sstore\n      pop\n      0x01\n      add\n      jump(tag_266)\n    tag_267:\n      pop\n      swap1\n      jump\t// out\n        /* \"#utility.yul\":7:82   */\n    tag_268:\n        /* \"#utility.yul\":40:46   */\n      0x00\n        /* \"#utility.yul\":73:75   */\n      0x40\n        /* \"#utility.yul\":67:76   */\n      mload\n        /* \"#utility.yul\":57:76   */\n      swap1\n      pop\n        /* \"#utility.yul\":7:82   */\n      swap1\n      jump\t// out\n        /* \"#utility.yul\":88:205   */\n    tag_269:\n        /* \"#utility.yul\":197:198   */\n      0x00\n        /* \"#utility.yul\":194:195   */\n      dup1\n        /* \"#utility.yul\":187:199   */\n      revert\n        /* \"#utility.yul\":211:328   */\n    tag_270:\n        /* \"#utility.yul\":320:321   */\n      0x00\n        /* \"#utility.yul\":317:318   */\n      dup1\n        /* \"#utility.yul\":310:322   */\n      revert\n        /* \"#utility.yul\":334:411   */\n    tag_271:\n        /* \"#utility.yul\":371:378   */\n      0x00\n        /* \"#utility.yul\":400:405   */\n      dup2\n        /* \"#utility.yul\":389:405   */\n      swap1\n      pop\n        /* \"#utility.yul\":334:411   */\n      swap2\n      swap1\n      pop\n      jump\t// out\n        /* \"#utility.yul\":417:539   */\n    tag_272:\n        /* \"#utility.yul\":490:514   */\n      tag_337\n        /* \"#utility.yul\":508:513   */\n      dup2\n        /* \"#utility.yul\":490:514   */\n      tag_271\n      jump\t// in\n    tag_337:\n        /* \"#utility.yul\":483:488   */\n      dup2\n        /* \"#utility.yul\":480:515   */\n      eq\n        /* \"#utility.yul\":470:533   */\n      tag_338\n      jumpi\n        /* \"#utility.yul\":529:530   */\n      0x00\n        /* \"#utility.yul\":526:527   */\n      dup1\n        /* \"#utility.yul\":519:531   */\n      revert\n        /* \"#utility.yul\":470:533   */\n    tag_338:\n        /* \"#utility.yul\":417:539   */\n      pop\n      jump\t// out\n        /* \"#utility.yul\":545:684   */\n    tag_273:\n        /* \"#utility.yul\":591:596   */\n      0x00\n        /* \"#utility.yul\":629:635   */\n      dup2\n        /* \"#utility.yul\":616:636   */\n      calldataload\n        /* \"#utility.yul\":607:636   */\n      swap1\n      pop\n        /* \"#utility.yul\":645:678   */\n      tag_340\n        /* \"#utility.yul\":672:677   */\n      dup2\n        /* \"#utility.yul\":645:678   */\n      tag_272\n      jump\t// in\n    tag_340:\n        /* \"#utility.yul\":545:684   */\n      swap3\n      swap2\n      pop\n      pop\n      jump\t// out\n        /* \"#utility.yul\":690:1019   */\n    tag_20:\n        /* \"#utility.yul\":749:755   */\n      0x00\n        /* \"#utility.yul\":798:800   */\n      0x20\n        /* \"#utility.yul\":786:795   */\n      dup3\n        /* \"#utility.yul\":777:784   */\n      dup5\n        /* \"#utility.yul\":773:796   */\n      sub\n        /* \"#utility.yul\":769:801   */\n      slt\n        /* \"#utility.yul\":766:885   */\n      iszero\n      tag_342\n      jumpi\n        /* \"#utility.yul\":804:883   */\n      tag_343\n      tag_269\n      jump\t// in\n    tag_343:\n        /* \"#utility.yul\":766:885   */\n    tag_342:\n        /* \"#utility.yul\":924:925   */\n      0x00\n        /* \"#utility.yul\":949:1002   */\n      tag_344\n        /* \"#utility.yul\":994:1001   */\n      dup5\n        /* \"#utility.yul\":985:991   */\n      dup3\n        /* \"#utility.yul\":974:983   */\n      dup6\n        /* \"#utility.yul\":970:992   */\n      add\n        /* \"#utility.yul\":949:1002   */\n      tag_273\n      jump\t// in\n    tag_344:\n        /* \"#utility.yul\":939:1002   */\n      swap2\n      pop\n        /* \"#utility.yul\":895:1012   */\n      pop\n        /* \"#utility.yul\":690:1019   */\n      swap3\n      swap2\n      pop\n      pop\n      jump\t// out\n        /* \"#utility.yul\":1025:1151   */\n    tag_274:\n        /* \"#utility.yul\":1062:1069   */\n      0x00\n        /* \"#utility.yul\":1102:1144   */\n      0xffffffffffffffffffffffffffffffffffffffff\n        /* \"#utility.yul\":1095:1100   */\n      dup3\n        /* \"#utility.yul\":1091:1145   */\n      and\n        /* \"#utility.yul\":1080:1145   */\n      swap1\n      pop\n        /* \"#utility.yul\":1025:1151   */\n      swap2\n      swap1\n      pop\n      jump\t// out\n        /* \"#utility.yul\":1157:1253   */\n    tag_275:\n        /* \"#utility.yul\":1194:1201   */\n      0x00\n        /* \"#utility.yul\":1223:1247   */\n      tag_347\n        /* \"#utility.yul\":1241:1246   */\n      dup3\n        /* \"#utility.yul\":1223:1247   */\n      tag_274\n      jump\t// in\n    tag_347:\n        /* \"#utility.yul\":1212:1247   */\n      swap1\n      pop\n        /* \"#utility.yul\":1157:1253   */\n      swap2\n      swap1\n      pop\n      jump\t// out\n        /* \"#utility.yul\":1259:1377   */\n    tag_276:\n        /* \"#utility.yul\":1346:1370   */\n      tag_349\n        /* \"#utility.yul\":1364:1369   */\n      dup2\n        /* \"#utility.yul\":1346:1370   */\n      tag_275\n      jump\t// in\n    tag_349:\n        /* \"#utility.yul\":1341:1344   */\n      dup3\n        /* \"#utility.yul\":1334:1371   */\n      mstore\n        /* \"#utility.yul\":1259:1377   */\n      pop\n      pop\n      jump\t// out\n        /* \"#utility.yul\":1383:1605   */\n    tag_23:\n        /* \"#utility.yul\":1476:1480   */\n      0x00\n        /* \"#utility.yul\":1514:1516   */\n      0x20\n        /* \"#utility.yul\":1503:1512   */\n      dup3\n        /* \"#utility.yul\":1499:1517   */\n      add\n        /* \"#utility.yul\":1491:1517   */\n      swap1\n      pop\n        /* \"#utility.yul\":1527:1598   */\n      tag_351\n        /* \"#utility.yul\":1595:1596   */\n      0x00\n        /* \"#utility.yul\":1584:1593   */\n      dup4\n        /* \"#utility.yul\":1580:1597   */\n      add\n        /* \"#utility.yul\":1571:1577   */\n      dup5\n        /* \"#utility.yul\":1527:1598   */\n      tag_276\n      jump\t// in\n    tag_351:\n        /* \"#utility.yul\":1383:1605   */\n      swap3\n      swap2\n      pop\n      pop\n      jump\t// out\n        /* \"#utility.yul\":1611:1728   */\n    tag_277:\n        /* \"#utility.yul\":1720:1721   */\n      0x00\n        /* \"#utility.yul\":1717:1718   */\n      dup1\n        /* \"#utility.yul\":1710:1722   */\n      revert\n        /* \"#utility.yul\":1734:1836   */\n    tag_278:\n        /* \"#utility.yul\":1775:1781   */\n      0x00\n        /* \"#utility.yul\":1826:1828   */\n      0x1f\n        /* \"#utility.yul\":1822:1829   */\n      not\n        /* \"#utility.yul\":1817:1819   */\n      0x1f\n        /* \"#utility.yul\":1810:1815   */\n      dup4\n        /* \"#utility.yul\":1806:1820   */\n      add\n        /* \"#utility.yul\":1802:1830   */\n      and\n        /* \"#utility.yul\":1792:1830   */\n      swap1\n      pop\n        /* \"#utility.yul\":1734:1836   */\n      swap2\n      swap1\n      pop\n      jump\t// out\n        /* \"#utility.yul\":1842:2022   */\n    tag_238:\n        /* \"#utility.yul\":1890:1967   */\n      0x4e487b7100000000000000000000000000000000000000000000000000000000\n        /* \"#utility.yul\":1887:1888   */\n      0x00\n        /* \"#utility.yul\":1880:1968   */\n      mstore\n        /* \"#utility.yul\":1987:1991   */\n      0x41\n        /* \"#utility.yul\":1984:1985   */\n      0x04\n        /* \"#utility.yul\":1977:1992   */\n      mstore\n        /* \"#utility.yul\":2011:2015   */\n      0x24\n        /* \"#utility.yul\":2008:2009   */\n      0x00\n        /* \"#utility.yul\":2001:2016   */\n      revert\n        /* \"#utility.yul\":2028:2309   */\n    tag_279:\n        /* \"#utility.yul\":2111:2138   */\n      tag_356\n        /* \"#utility.yul\":2133:2137   */\n      dup3\n        /* \"#utility.yul\":2111:2138   */\n      tag_278\n      jump\t// in\n    tag_356:\n        /* \"#utility.yul\":2103:2109   */\n      dup2\n        /* \"#utility.yul\":2099:2139   */\n      add\n        /* \"#utility.yul\":2241:2247   */\n      dup2\n        /* \"#utility.yul\":2229:2239   */\n      dup2\n        /* \"#utility.yul\":2226:2248   */\n      lt\n        /* \"#utility.yul\":2205:2223   */\n      0xffffffffffffffff\n        /* \"#utility.yul\":2193:2203   */\n      dup3\n        /* \"#utility.yul\":2190:2224   */\n      gt\n        /* \"#utility.yul\":2187:2249   */\n      or\n        /* \"#utility.yul\":2184:2272   */\n      iszero\n      tag_357\n      jumpi\n        /* \"#utility.yul\":2252:2270   */\n      tag_358\n      tag_238\n      jump\t// in\n    tag_358:\n        /* \"#utility.yul\":2184:2272   */\n    tag_357:\n        /* \"#utility.yul\":2292:2302   */\n      dup1\n        /* \"#utility.yul\":2288:2290   */\n      0x40\n        /* \"#utility.yul\":2281:2303   */\n      mstore\n        /* \"#utility.yul\":2071:2309   */\n      pop\n        /* \"#utility.yul\":2028:2309   */\n      pop\n      pop\n      jump\t// out\n        /* \"#utility.yul\":2315:2444   */\n    tag_280:\n        /* \"#utility.yul\":2349:2355   */\n      0x00\n        /* \"#utility.yul\":2376:2396   */\n      tag_360\n      tag_268\n      jump\t// in\n    tag_360:\n        /* \"#utility.yul\":2366:2396   */\n      swap1\n      pop\n        /* \"#utility.yul\":2405:2438   */\n      tag_361\n        /* \"#utility.yul\":2433:2437   */\n      dup3\n        /* \"#utility.yul\":2425:2431   */\n      dup3\n        /* \"#utility.yul\":2405:2438   */\n      tag_279\n      jump\t// in\n    tag_361:\n        /* \"#utility.yul\":2315:2444   */\n      swap2\n      swap1\n      pop\n      jump\t// out\n        /* \"#utility.yul\":2450:2761   */\n    tag_281:\n        /* \"#utility.yul\":2527:2531   */\n      0x00\n        /* \"#utility.yul\":2617:2635   */\n      0xffffffffffffffff\n        /* \"#utility.yul\":2609:2615   */\n      dup3\n        /* \"#utility.yul\":2606:2636   */\n      gt\n        /* \"#utility.yul\":2603:2659   */\n      iszero\n      tag_363\n      jumpi\n        /* \"#utility.yul\":2639:2657   */\n      tag_364\n      tag_238\n      jump\t// in\n    tag_364:\n        /* \"#utility.yul\":2603:2659   */\n    tag_363:\n        /* \"#utility.yul\":2689:2693   */\n      0x20\n        /* \"#utility.yul\":2681:2687   */\n      dup3\n        /* \"#utility.yul\":2677:2694   */\n      mul\n        /* \"#utility.yul\":2669:2694   */\n      swap1\n      pop\n        /* \"#utility.yul\":2749:2753   */\n      0x20\n        /* \"#utility.yul\":2743:2747   */\n      dup2\n        /* \"#utility.yul\":2739:2754   */\n      add\n        /* \"#utility.yul\":2731:2754   */\n      swap1\n      pop\n        /* \"#utility.yul\":2450:2761   */\n      swap2\n      swap1\n      pop\n      jump\t// out\n        /* \"#utility.yul\":2767:2884   */\n    tag_282:\n        /* \"#utility.yul\":2876:2877   */\n      0x00\n        /* \"#utility.yul\":2873:2874   */\n      dup1\n        /* \"#utility.yul\":2866:2878   */\n      revert\n        /* \"#utility.yul\":2907:3617   */\n    tag_283:\n        /* \"#utility.yul\":3003:3008   */\n      0x00\n        /* \"#utility.yul\":3028:3109   */\n      tag_367\n        /* \"#utility.yul\":3044:3108   */\n      tag_368\n        /* \"#utility.yul\":3101:3107   */\n      dup5\n        /* \"#utility.yul\":3044:3108   */\n      tag_281\n      jump\t// in\n    tag_368:\n        /* \"#utility.yul\":3028:3109   */\n      tag_280\n      jump\t// in\n    tag_367:\n        /* \"#utility.yul\":3019:3109   */\n      swap1\n      pop\n        /* \"#utility.yul\":3129:3134   */\n      dup1\n        /* \"#utility.yul\":3158:3164   */\n      dup4\n        /* \"#utility.yul\":3151:3156   */\n      dup3\n        /* \"#utility.yul\":3144:3165   */\n      mstore\n        /* \"#utility.yul\":3192:3196   */\n      0x20\n        /* \"#utility.yul\":3185:3190   */\n      dup3\n        /* \"#utility.yul\":3181:3197   */\n      add\n        /* \"#utility.yul\":3174:3197   */\n      swap1\n      pop\n        /* \"#utility.yul\":3245:3249   */\n      0x20\n        /* \"#utility.yul\":3237:3243   */\n      dup5\n        /* \"#utility.yul\":3233:3250   */\n      mul\n        /* \"#utility.yul\":3225:3231   */\n      dup4\n        /* \"#utility.yul\":3221:3251   */\n      add\n        /* \"#utility.yul\":3274:3277   */\n      dup6\n        /* \"#utility.yul\":3266:3272   */\n      dup2\n        /* \"#utility.yul\":3263:3278   */\n      gt\n        /* \"#utility.yul\":3260:3382   */\n      iszero\n      tag_369\n      jumpi\n        /* \"#utility.yul\":3293:3372   */\n      tag_370\n      tag_282\n      jump\t// in\n    tag_370:\n        /* \"#utility.yul\":3260:3382   */\n    tag_369:\n        /* \"#utility.yul\":3408:3414   */\n      dup4\n        /* \"#utility.yul\":3391:3611   */\n    tag_371:\n        /* \"#utility.yul\":3425:3431   */\n      dup2\n        /* \"#utility.yul\":3420:3423   */\n      dup2\n        /* \"#utility.yul\":3417:3432   */\n      lt\n        /* \"#utility.yul\":3391:3611   */\n      iszero\n      tag_373\n      jumpi\n        /* \"#utility.yul\":3500:3503   */\n      dup1\n        /* \"#utility.yul\":3529:3566   */\n      tag_374\n        /* \"#utility.yul\":3562:3565   */\n      dup9\n        /* \"#utility.yul\":3550:3560   */\n      dup3\n        /* \"#utility.yul\":3529:3566   */\n      tag_273\n      jump\t// in\n    tag_374:\n        /* \"#utility.yul\":3524:3527   */\n      dup5\n        /* \"#utility.yul\":3517:3567   */\n      mstore\n        /* \"#utility.yul\":3596:3600   */\n      0x20\n        /* \"#utility.yul\":3591:3594   */\n      dup5\n        /* \"#utility.yul\":3587:3601   */\n      add\n        /* \"#utility.yul\":3580:3601   */\n      swap4\n      pop\n        /* \"#utility.yul\":3467:3611   */\n      pop\n        /* \"#utility.yul\":3451:3455   */\n      0x20\n        /* \"#utility.yul\":3446:3449   */\n      dup2\n        /* \"#utility.yul\":3442:3456   */\n      add\n        /* \"#utility.yul\":3435:3456   */\n      swap1\n      pop\n        /* \"#utility.yul\":3391:3611   */\n      jump(tag_371)\n    tag_373:\n        /* \"#utility.yul\":3395:3416   */\n      pop\n        /* \"#utility.yul\":3009:3617   */\n      pop\n      pop\n        /* \"#utility.yul\":2907:3617   */\n      swap4\n      swap3\n      pop\n      pop\n      pop\n      jump\t// out\n        /* \"#utility.yul\":3640:4010   */\n    tag_284:\n        /* \"#utility.yul\":3711:3716   */\n      0x00\n        /* \"#utility.yul\":3760:3763   */\n      dup3\n        /* \"#utility.yul\":3753:3757   */\n      0x1f\n        /* \"#utility.yul\":3745:3751   */\n      dup4\n        /* \"#utility.yul\":3741:3758   */\n      add\n        /* \"#utility.yul\":3737:3764   */\n      slt\n        /* \"#utility.yul\":3727:3849   */\n      tag_376\n      jumpi\n        /* \"#utility.yul\":3768:3847   */\n      tag_377\n      tag_277\n      jump\t// in\n    tag_377:\n        /* \"#utility.yul\":3727:3849   */\n    tag_376:\n        /* \"#utility.yul\":3885:3891   */\n      dup2\n        /* \"#utility.yul\":3872:3892   */\n      calldataload\n        /* \"#utility.yul\":3910:4004   */\n      tag_378\n        /* \"#utility.yul\":4000:4003   */\n      dup5\n        /* \"#utility.yul\":3992:3998   */\n      dup3\n        /* \"#utility.yul\":3985:3989   */\n      0x20\n        /* \"#utility.yul\":3977:3983   */\n      dup7\n        /* \"#utility.yul\":3973:3990   */\n      add\n        /* \"#utility.yul\":3910:4004   */\n      tag_283\n      jump\t// in\n    tag_378:\n        /* \"#utility.yul\":3901:4004   */\n      swap2\n      pop\n        /* \"#utility.yul\":3717:4010   */\n      pop\n        /* \"#utility.yul\":3640:4010   */\n      swap3\n      swap2\n      pop\n      pop\n      jump\t// out\n        /* \"#utility.yul\":4016:4700   */\n    tag_27:\n        /* \"#utility.yul\":4109:4115   */\n      0x00\n        /* \"#utility.yul\":4117:4123   */\n      dup1\n        /* \"#utility.yul\":4166:4168   */\n      0x40\n        /* \"#utility.yul\":4154:4163   */\n      dup4\n        /* \"#utility.yul\":4145:4152   */\n      dup6\n        /* \"#utility.yul\":4141:4164   */\n      sub\n        /* \"#utility.yul\":4137:4169   */\n      slt\n        /* \"#utility.yul\":4134:4253   */\n      iszero\n      tag_380\n      jumpi\n        /* \"#utility.yul\":4172:4251   */\n      tag_381\n      tag_269\n      jump\t// in\n    tag_381:\n        /* \"#utility.yul\":4134:4253   */\n    tag_380:\n        /* \"#utility.yul\":4292:4293   */\n      0x00\n        /* \"#utility.yul\":4317:4370   */\n      tag_382\n        /* \"#utility.yul\":4362:4369   */\n      dup6\n        /* \"#utility.yul\":4353:4359   */\n      dup3\n        /* \"#utility.yul\":4342:4351   */\n      dup7\n        /* \"#utility.yul\":4338:4360   */\n      add\n        /* \"#utility.yul\":4317:4370   */\n      tag_273\n      jump\t// in\n    tag_382:\n        /* \"#utility.yul\":4307:4370   */\n      swap3\n      pop\n        /* \"#utility.yul\":4263:4380   */\n      pop\n        /* \"#utility.yul\":4447:4449   */\n      0x20\n        /* \"#utility.yul\":4436:4445   */\n      dup4\n        /* \"#utility.yul\":4432:4450   */\n      add\n        /* \"#utility.yul\":4419:4451   */\n      calldataload\n        /* \"#utility.yul\":4478:4496   */\n      0xffffffffffffffff\n        /* \"#utility.yul\":4470:4476   */\n      dup2\n        /* \"#utility.yul\":4467:4497   */\n      gt\n        /* \"#utility.yul\":4464:4581   */\n      iszero\n      tag_383\n      jumpi\n        /* \"#utility.yul\":4500:4579   */\n      tag_384\n      tag_270\n      jump\t// in\n    tag_384:\n        /* \"#utility.yul\":4464:4581   */\n    tag_383:\n        /* \"#utility.yul\":4605:4683   */\n      tag_385\n        /* \"#utility.yul\":4675:4682   */\n      dup6\n        /* \"#utility.yul\":4666:4672   */\n      dup3\n        /* \"#utility.yul\":4655:4664   */\n      dup7\n        /* \"#utility.yul\":4651:4673   */\n      add\n        /* \"#utility.yul\":4605:4683   */\n      tag_284\n      jump\t// in\n    tag_385:\n        /* \"#utility.yul\":4595:4683   */\n      swap2\n      pop\n        /* \"#utility.yul\":4390:4693   */\n      pop\n        /* \"#utility.yul\":4016:4700   */\n      swap3\n      pop\n      swap3\n      swap1\n      pop\n      jump\t// out\n        /* \"#utility.yul\":4706:4824   */\n    tag_285:\n        /* \"#utility.yul\":4793:4817   */\n      tag_387\n        /* \"#utility.yul\":4811:4816   */\n      dup2\n        /* \"#utility.yul\":4793:4817   */\n      tag_271\n      jump\t// in\n    tag_387:\n        /* \"#utility.yul\":4788:4791   */\n      dup3\n        /* \"#utility.yul\":4781:4818   */\n      mstore\n        /* \"#utility.yul\":4706:4824   */\n      pop\n      pop\n      jump\t// out\n        /* \"#utility.yul\":4830:5052   */\n    tag_40:\n        /* \"#utility.yul\":4923:4927   */\n      0x00\n        /* \"#utility.yul\":4961:4963   */\n      0x20\n        /* \"#utility.yul\":4950:4959   */\n      dup3\n        /* \"#utility.yul\":4946:4964   */\n      add\n        /* \"#utility.yul\":4938:4964   */\n      swap1\n      pop\n        /* \"#utility.yul\":4974:5045   */\n      tag_389\n        /* \"#utility.yul\":5042:5043   */\n      0x00\n        /* \"#utility.yul\":5031:5040   */\n      dup4\n        /* \"#utility.yul\":5027:5044   */\n      add\n        /* \"#utility.yul\":5018:5024   */\n      dup5\n        /* \"#utility.yul\":4974:5045   */\n      tag_285\n      jump\t// in\n    tag_389:\n        /* \"#utility.yul\":4830:5052   */\n      swap3\n      swap2\n      pop\n      pop\n      jump\t// out\n        /* \"#utility.yul\":5058:5180   */\n    tag_286:\n        /* \"#utility.yul\":5131:5155   */\n      tag_391\n        /* \"#utility.yul\":5149:5154   */\n      dup2\n        /* \"#utility.yul\":5131:5155   */\n      tag_275\n      jump\t// in\n    tag_391:\n        /* \"#utility.yul\":5124:5129   */\n      dup2\n        /* \"#utility.yul\":5121:5156   */\n      eq\n        /* \"#utility.yul\":5111:5174   */\n      tag_392\n      jumpi\n        /* \"#utility.yul\":5170:5171   */\n      0x00\n        /* \"#utility.yul\":5167:5168   */\n      dup1\n        /* \"#utility.yul\":5160:5172   */\n      revert\n        /* \"#utility.yul\":5111:5174   */\n    tag_392:\n        /* \"#utility.yul\":5058:5180   */\n      pop\n      jump\t// out\n        /* \"#utility.yul\":5186:5325   */\n    tag_287:\n        /* \"#utility.yul\":5232:5237   */\n      0x00\n        /* \"#utility.yul\":5270:5276   */\n      dup2\n        /* \"#utility.yul\":5257:5277   */\n      calldataload\n        /* \"#utility.yul\":5248:5277   */\n      swap1\n      pop\n        /* \"#utility.yul\":5286:5319   */\n      tag_394\n        /* \"#utility.yul\":5313:5318   */\n      dup2\n        /* \"#utility.yul\":5286:5319   */\n      tag_286\n      jump\t// in\n    tag_394:\n        /* \"#utility.yul\":5186:5325   */\n      swap3\n      swap2\n      pop\n      pop\n      jump\t// out\n        /* \"#utility.yul\":5331:5660   */\n    tag_69:\n        /* \"#utility.yul\":5390:5396   */\n      0x00\n        /* \"#utility.yul\":5439:5441   */\n      0x20\n        /* \"#utility.yul\":5427:5436   */\n      dup3\n        /* \"#utility.yul\":5418:5425   */\n      dup5\n        /* \"#utility.yul\":5414:5437   */\n      sub\n        /* \"#utility.yul\":5410:5442   */\n      slt\n        /* \"#utility.yul\":5407:5526   */\n      iszero\n      tag_396\n      jumpi\n        /* \"#utility.yul\":5445:5524   */\n      tag_397\n      tag_269\n      jump\t// in\n    tag_397:\n        /* \"#utility.yul\":5407:5526   */\n    tag_396:\n        /* \"#utility.yul\":5565:5566   */\n      0x00\n        /* \"#utility.yul\":5590:5643   */\n      tag_398\n        /* \"#utility.yul\":5635:5642   */\n      dup5\n        /* \"#utility.yul\":5626:5632   */\n      dup3\n        /* \"#utility.yul\":5615:5624   */\n      dup6\n        /* \"#utility.yul\":5611:5633   */\n      add\n        /* \"#utility.yul\":5590:5643   */\n      tag_287\n      jump\t// in\n    tag_398:\n        /* \"#utility.yul\":5580:5643   */\n      swap2\n      pop\n        /* \"#utility.yul\":5536:5653   */\n      pop\n        /* \"#utility.yul\":5331:5660   */\n      swap3\n      swap2\n      pop\n      pop\n      jump\t// out\n        /* \"#utility.yul\":5666:5835   */\n    tag_288:\n        /* \"#utility.yul\":5750:5761   */\n      0x00\n        /* \"#utility.yul\":5784:5790   */\n      dup3\n        /* \"#utility.yul\":5779:5782   */\n      dup3\n        /* \"#utility.yul\":5772:5791   */\n      mstore\n        /* \"#utility.yul\":5824:5828   */\n      0x20\n        /* \"#utility.yul\":5819:5822   */\n      dup3\n        /* \"#utility.yul\":5815:5829   */\n      add\n        /* \"#utility.yul\":5800:5829   */\n      swap1\n      pop\n        /* \"#utility.yul\":5666:5835   */\n      swap3\n      swap2\n      pop\n      pop\n      jump\t// out\n        /* \"#utility.yul\":5841:6019   */\n    tag_289:\n        /* \"#utility.yul\":5981:6011   */\n      0x726f756e64206d7573742062652067726561746572207468616e203000000000\n        /* \"#utility.yul\":5977:5978   */\n      0x00\n        /* \"#utility.yul\":5969:5975   */\n      dup3\n        /* \"#utility.yul\":5965:5979   */\n      add\n        /* \"#utility.yul\":5958:6012   */\n      mstore\n        /* \"#utility.yul\":5841:6019   */\n      pop\n      jump\t// out\n        /* \"#utility.yul\":6025:6391   */\n    tag_290:\n        /* \"#utility.yul\":6167:6170   */\n      0x00\n        /* \"#utility.yul\":6188:6255   */\n      tag_402\n        /* \"#utility.yul\":6252:6254   */\n      0x1c\n        /* \"#utility.yul\":6247:6250   */\n      dup4\n        /* \"#utility.yul\":6188:6255   */\n      tag_288\n      jump\t// in\n    tag_402:\n        /* \"#utility.yul\":6181:6255   */\n      swap2\n      pop\n        /* \"#utility.yul\":6264:6357   */\n      tag_403\n        /* \"#utility.yul\":6353:6356   */\n      dup3\n        /* \"#utility.yul\":6264:6357   */\n      tag_289\n      jump\t// in\n    tag_403:\n        /* \"#utility.yul\":6382:6384   */\n      0x20\n        /* \"#utility.yul\":6377:6380   */\n      dup3\n        /* \"#utility.yul\":6373:6385   */\n      add\n        /* \"#utility.yul\":6366:6385   */\n      swap1\n      pop\n        /* \"#utility.yul\":6025:6391   */\n      swap2\n      swap1\n      pop\n      jump\t// out\n        /* \"#utility.yul\":6397:6816   */\n    tag_74:\n        /* \"#utility.yul\":6563:6567   */\n      0x00\n        /* \"#utility.yul\":6601:6603   */\n      0x20\n        /* \"#utility.yul\":6590:6599   */\n      dup3\n        /* \"#utility.yul\":6586:6604   */\n      add\n        /* \"#utility.yul\":6578:6604   */\n      swap1\n      pop\n        /* \"#utility.yul\":6650:6659   */\n      dup2\n        /* \"#utility.yul\":6644:6648   */\n      dup2\n        /* \"#utility.yul\":6640:6660   */\n      sub\n        /* \"#utility.yul\":6636:6637   */\n      0x00\n        /* \"#utility.yul\":6625:6634   */\n      dup4\n        /* \"#utility.yul\":6621:6638   */\n      add\n        /* \"#utility.yul\":6614:6661   */\n      mstore\n        /* \"#utility.yul\":6678:6809   */\n      tag_405\n        /* \"#utility.yul\":6804:6808   */\n      dup2\n        /* \"#utility.yul\":6678:6809   */\n      tag_290\n      jump\t// in\n    tag_405:\n        /* \"#utility.yul\":6670:6809   */\n      swap1\n      pop\n        /* \"#utility.yul\":6397:6816   */\n      swap2\n      swap1\n      pop\n      jump\t// out\n        /* \"#utility.yul\":6822:7050   */\n    tag_291:\n        /* \"#utility.yul\":6962:6996   */\n      0x726f756e64206d757374206265206c657373207468616e207468652063757272\n        /* \"#utility.yul\":6958:6959   */\n      0x00\n        /* \"#utility.yul\":6950:6956   */\n      dup3\n        /* \"#utility.yul\":6946:6960   */\n      add\n        /* \"#utility.yul\":6939:6997   */\n      mstore\n        /* \"#utility.yul\":7031:7042   */\n      0x656e7420726f756e640000000000000000000000000000000000000000000000\n        /* \"#utility.yul\":7026:7028   */\n      0x20\n        /* \"#utility.yul\":7018:7024   */\n      dup3\n        /* \"#utility.yul\":7014:7029   */\n      add\n        /* \"#utility.yul\":7007:7043   */\n      mstore\n        /* \"#utility.yul\":6822:7050   */\n      pop\n      jump\t// out\n        /* \"#utility.yul\":7056:7422   */\n    tag_292:\n        /* \"#utility.yul\":7198:7201   */\n      0x00\n        /* \"#utility.yul\":7219:7286   */\n      tag_408\n        /* \"#utility.yul\":7283:7285   */\n      0x29\n        /* \"#utility.yul\":7278:7281   */\n      dup4\n        /* \"#utility.yul\":7219:7286   */\n      tag_288\n      jump\t// in\n    tag_408:\n        /* \"#utility.yul\":7212:7286   */\n      swap2\n      pop\n        /* \"#utility.yul\":7295:7388   */\n      tag_409\n        /* \"#utility.yul\":7384:7387   */\n      dup3\n        /* \"#utility.yul\":7295:7388   */\n      tag_291\n      jump\t// in\n    tag_409:\n        /* \"#utility.yul\":7413:7415   */\n      0x40\n        /* \"#utility.yul\":7408:7411   */\n      dup3\n        /* \"#utility.yul\":7404:7416   */\n      add\n        /* \"#utility.yul\":7397:7416   */\n      swap1\n      pop\n        /* \"#utility.yul\":7056:7422   */\n      swap2\n      swap1\n      pop\n      jump\t// out\n        /* \"#utility.yul\":7428:7847   */\n    tag_77:\n        /* \"#utility.yul\":7594:7598   */\n      0x00\n        /* \"#utility.yul\":7632:7634   */\n      0x20\n        /* \"#utility.yul\":7621:7630   */\n      dup3\n        /* \"#utility.yul\":7617:7635   */\n      add\n        /* \"#utility.yul\":7609:7635   */\n      swap1\n      pop\n        /* \"#utility.yul\":7681:7690   */\n      dup2\n        /* \"#utility.yul\":7675:7679   */\n      dup2\n        /* \"#utility.yul\":7671:7691   */\n      sub\n        /* \"#utility.yul\":7667:7668   */\n      0x00\n        /* \"#utility.yul\":7656:7665   */\n      dup4\n        /* \"#utility.yul\":7652:7669   */\n      add\n        /* \"#utility.yul\":7645:7692   */\n      mstore\n        /* \"#utility.yul\":7709:7840   */\n      tag_411\n        /* \"#utility.yul\":7835:7839   */\n      dup2\n        /* \"#utility.yul\":7709:7840   */\n      tag_292\n      jump\t// in\n    tag_411:\n        /* \"#utility.yul\":7701:7840   */\n      swap1\n      pop\n        /* \"#utility.yul\":7428:7847   */\n      swap2\n      swap1\n      pop\n      jump\t// out\n        /* \"#utility.yul\":7853:8033   */\n    tag_81:\n        /* \"#utility.yul\":7901:7978   */\n      0x4e487b7100000000000000000000000000000000000000000000000000000000\n        /* \"#utility.yul\":7898:7899   */\n      0x00\n        /* \"#utility.yul\":7891:7979   */\n      mstore\n        /* \"#utility.yul\":7998:8002   */\n      0x32\n        /* \"#utility.yul\":7995:7996   */\n      0x04\n        /* \"#utility.yul\":7988:8003   */\n      mstore\n        /* \"#utility.yul\":8022:8026   */\n      0x24\n        /* \"#utility.yul\":8019:8020   */\n      0x00\n        /* \"#utility.yul\":8012:8027   */\n      revert\n        /* \"#utility.yul\":8039:8219   */\n    tag_293:\n        /* \"#utility.yul\":8087:8164   */\n      0x4e487b7100000000000000000000000000000000000000000000000000000000\n        /* \"#utility.yul\":8084:8085   */\n      0x00\n        /* \"#utility.yul\":8077:8165   */\n      mstore\n        /* \"#utility.yul\":8184:8188   */\n      0x12\n        /* \"#utility.yul\":8181:8182   */\n      0x04\n        /* \"#utility.yul\":8174:8189   */\n      mstore\n        /* \"#utility.yul\":8208:8212   */\n      0x24\n        /* \"#utility.yul\":8205:8206   */\n      0x00\n        /* \"#utility.yul\":8198:8213   */\n      revert\n        /* \"#utility.yul\":8225:8401   */\n    tag_84:\n        /* \"#utility.yul\":8257:8258   */\n      0x00\n        /* \"#utility.yul\":8274:8294   */\n      tag_415\n        /* \"#utility.yul\":8292:8293   */\n      dup3\n        /* \"#utility.yul\":8274:8294   */\n      tag_271\n      jump\t// in\n    tag_415:\n        /* \"#utility.yul\":8269:8294   */\n      swap2\n      pop\n        /* \"#utility.yul\":8308:8328   */\n      tag_416\n        /* \"#utility.yul\":8326:8327   */\n      dup4\n        /* \"#utility.yul\":8308:8328   */\n      tag_271\n      jump\t// in\n    tag_416:\n        /* \"#utility.yul\":8303:8328   */\n      swap3\n      pop\n        /* \"#utility.yul\":8347:8348   */\n      dup3\n        /* \"#utility.yul\":8337:8372   */\n      tag_417\n      jumpi\n        /* \"#utility.yul\":8352:8370   */\n      tag_418\n      tag_293\n      jump\t// in\n    tag_418:\n        /* \"#utility.yul\":8337:8372   */\n    tag_417:\n        /* \"#utility.yul\":8393:8394   */\n      dup3\n        /* \"#utility.yul\":8390:8391   */\n      dup3\n        /* \"#utility.yul\":8386:8395   */\n      mod\n        /* \"#utility.yul\":8381:8395   */\n      swap1\n      pop\n        /* \"#utility.yul\":8225:8401   */\n      swap3\n      swap2\n      pop\n      pop\n      jump\t// out\n        /* \"#utility.yul\":8407:8588   */\n    tag_294:\n        /* \"#utility.yul\":8547:8580   */\n      0x6f6e6c792056524620563220777261707065722063616e2066756c66696c6c00\n        /* \"#utility.yul\":8543:8544   */\n      0x00\n        /* \"#utility.yul\":8535:8541   */\n      dup3\n        /* \"#utility.yul\":8531:8545   */\n      add\n        /* \"#utility.yul\":8524:8581   */\n      mstore\n        /* \"#utility.yul\":8407:8588   */\n      pop\n      jump\t// out\n        /* \"#utility.yul\":8594:8960   */\n    tag_295:\n        /* \"#utility.yul\":8736:8739   */\n      0x00\n        /* \"#utility.yul\":8757:8824   */\n      tag_421\n        /* \"#utility.yul\":8821:8823   */\n      0x1f\n        /* \"#utility.yul\":8816:8819   */\n      dup4\n        /* \"#utility.yul\":8757:8824   */\n      tag_288\n      jump\t// in\n    tag_421:\n        /* \"#utility.yul\":8750:8824   */\n      swap2\n      pop\n        /* \"#utility.yul\":8833:8926   */\n      tag_422\n        /* \"#utility.yul\":8922:8925   */\n      dup3\n        /* \"#utility.yul\":8833:8926   */\n      tag_294\n      jump\t// in\n    tag_422:\n        /* \"#utility.yul\":8951:8953   */\n      0x20\n        /* \"#utility.yul\":8946:8949   */\n      dup3\n        /* \"#utility.yul\":8942:8954   */\n      add\n        /* \"#utility.yul\":8935:8954   */\n      swap1\n      pop\n        /* \"#utility.yul\":8594:8960   */\n      swap2\n      swap1\n      pop\n      jump\t// out\n        /* \"#utility.yul\":8966:9385   */\n    tag_91:\n        /* \"#utility.yul\":9132:9136   */\n      0x00\n        /* \"#utility.yul\":9170:9172   */\n      0x20\n        /* \"#utility.yul\":9159:9168   */\n      dup3\n        /* \"#utility.yul\":9155:9173   */\n      add\n        /* \"#utility.yul\":9147:9173   */\n      swap1\n      pop\n        /* \"#utility.yul\":9219:9228   */\n      dup2\n        /* \"#utility.yul\":9213:9217   */\n      dup2\n        /* \"#utility.yul\":9209:9229   */\n      sub\n        /* \"#utility.yul\":9205:9206   */\n      0x00\n        /* \"#utility.yul\":9194:9203   */\n      dup4\n        /* \"#utility.yul\":9190:9207   */\n      add\n        /* \"#utility.yul\":9183:9230   */\n      mstore\n        /* \"#utility.yul\":9247:9378   */\n      tag_424\n        /* \"#utility.yul\":9373:9377   */\n      dup2\n        /* \"#utility.yul\":9247:9378   */\n      tag_295\n      jump\t// in\n    tag_424:\n        /* \"#utility.yul\":9239:9378   */\n      swap1\n      pop\n        /* \"#utility.yul\":8966:9385   */\n      swap2\n      swap1\n      pop\n      jump\t// out\n        /* \"#utility.yul\":9391:9616   */\n    tag_296:\n        /* \"#utility.yul\":9531:9565   */\n      0x57696e6e6572206973206e6f7420796574206465636964656420666f72207468\n        /* \"#utility.yul\":9527:9528   */\n      0x00\n        /* \"#utility.yul\":9519:9525   */\n      dup3\n        /* \"#utility.yul\":9515:9529   */\n      add\n        /* \"#utility.yul\":9508:9566   */\n      mstore\n        /* \"#utility.yul\":9600:9608   */\n      0x6520647261770000000000000000000000000000000000000000000000000000\n        /* \"#utility.yul\":9595:9597   */\n      0x20\n        /* \"#utility.yul\":9587:9593   */\n      dup3\n        /* \"#utility.yul\":9583:9598   */\n      add\n        /* \"#utility.yul\":9576:9609   */\n      mstore\n        /* \"#utility.yul\":9391:9616   */\n      pop\n      jump\t// out\n        /* \"#utility.yul\":9622:9988   */\n    tag_297:\n        /* \"#utility.yul\":9764:9767   */\n      0x00\n        /* \"#utility.yul\":9785:9852   */\n      tag_427\n        /* \"#utility.yul\":9849:9851   */\n      0x26\n        /* \"#utility.yul\":9844:9847   */\n      dup4\n        /* \"#utility.yul\":9785:9852   */\n      tag_288\n      jump\t// in\n    tag_427:\n        /* \"#utility.yul\":9778:9852   */\n      swap2\n      pop\n        /* \"#utility.yul\":9861:9954   */\n      tag_428\n        /* \"#utility.yul\":9950:9953   */\n      dup3\n        /* \"#utility.yul\":9861:9954   */\n      tag_296\n      jump\t// in\n    tag_428:\n        /* \"#utility.yul\":9979:9981   */\n      0x40\n        /* \"#utility.yul\":9974:9977   */\n      dup3\n        /* \"#utility.yul\":9970:9982   */\n      add\n        /* \"#utility.yul\":9963:9982   */\n      swap1\n      pop\n        /* \"#utility.yul\":9622:9988   */\n      swap2\n      swap1\n      pop\n      jump\t// out\n        /* \"#utility.yul\":9994:10413   */\n    tag_98:\n        /* \"#utility.yul\":10160:10164   */\n      0x00\n        /* \"#utility.yul\":10198:10200   */\n      0x20\n        /* \"#utility.yul\":10187:10196   */\n      dup3\n        /* \"#utility.yul\":10183:10201   */\n      add\n        /* \"#utility.yul\":10175:10201   */\n      swap1\n      pop\n        /* \"#utility.yul\":10247:10256   */\n      dup2\n        /* \"#utility.yul\":10241:10245   */\n      dup2\n        /* \"#utility.yul\":10237:10257   */\n      sub\n        /* \"#utility.yul\":10233:10234   */\n      0x00\n        /* \"#utility.yul\":10222:10231   */\n      dup4\n        /* \"#utility.yul\":10218:10235   */\n      add\n        /* \"#utility.yul\":10211:10258   */\n      mstore\n        /* \"#utility.yul\":10275:10406   */\n      tag_430\n        /* \"#utility.yul\":10401:10405   */\n      dup2\n        /* \"#utility.yul\":10275:10406   */\n      tag_297\n      jump\t// in\n    tag_430:\n        /* \"#utility.yul\":10267:10406   */\n      swap1\n      pop\n        /* \"#utility.yul\":9994:10413   */\n      swap2\n      swap1\n      pop\n      jump\t// out\n        /* \"#utility.yul\":10419:10591   */\n    tag_298:\n        /* \"#utility.yul\":10559:10583   */\n      0x596f7520617265206e6f74207468652077696e6e657200000000000000000000\n        /* \"#utility.yul\":10555:10556   */\n      0x00\n        /* \"#utility.yul\":10547:10553   */\n      dup3\n        /* \"#utility.yul\":10543:10557   */\n      add\n        /* \"#utility.yul\":10536:10584   */\n      mstore\n        /* \"#utility.yul\":10419:10591   */\n      pop\n      jump\t// out\n        /* \"#utility.yul\":10597:10963   */\n    tag_299:\n        /* \"#utility.yul\":10739:10742   */\n      0x00\n        /* \"#utility.yul\":10760:10827   */\n      tag_433\n        /* \"#utility.yul\":10824:10826   */\n      0x16\n        /* \"#utility.yul\":10819:10822   */\n      dup4\n        /* \"#utility.yul\":10760:10827   */\n      tag_288\n      jump\t// in\n    tag_433:\n        /* \"#utility.yul\":10753:10827   */\n      swap2\n      pop\n        /* \"#utility.yul\":10836:10929   */\n      tag_434\n        /* \"#utility.yul\":10925:10928   */\n      dup3\n        /* \"#utility.yul\":10836:10929   */\n      tag_298\n      jump\t// in\n    tag_434:\n        /* \"#utility.yul\":10954:10956   */\n      0x20\n        /* \"#utility.yul\":10949:10952   */\n      dup3\n        /* \"#utility.yul\":10945:10957   */\n      add\n        /* \"#utility.yul\":10938:10957   */\n      swap1\n      pop\n        /* \"#utility.yul\":10597:10963   */\n      swap2\n      swap1\n      pop\n      jump\t// out\n        /* \"#utility.yul\":10969:11388   */\n    tag_101:\n        /* \"#utility.yul\":11135:11139   */\n      0x00\n        /* \"#utility.yul\":11173:11175   */\n      0x20\n        /* \"#utility.yul\":11162:11171   */\n      dup3\n        /* \"#utility.yul\":11158:11176   */\n      add\n        /* \"#utility.yul\":11150:11176   */\n      swap1\n      pop\n        /* \"#utility.yul\":11222:11231   */\n      dup2\n        /* \"#utility.yul\":11216:11220   */\n      dup2\n        /* \"#utility.yul\":11212:11232   */\n      sub\n        /* \"#utility.yul\":11208:11209   */\n      0x00\n        /* \"#utility.yul\":11197:11206   */\n      dup4\n        /* \"#utility.yul\":11193:11210   */\n      add\n        /* \"#utility.yul\":11186:11233   */\n      mstore\n        /* \"#utility.yul\":11250:11381   */\n      tag_436\n        /* \"#utility.yul\":11376:11380   */\n      dup2\n        /* \"#utility.yul\":11250:11381   */\n      tag_299\n      jump\t// in\n    tag_436:\n        /* \"#utility.yul\":11242:11381   */\n      swap1\n      pop\n        /* \"#utility.yul\":10969:11388   */\n      swap2\n      swap1\n      pop\n      jump\t// out\n        /* \"#utility.yul\":11394:11574   */\n    tag_300:\n        /* \"#utility.yul\":11442:11519   */\n      0x4e487b7100000000000000000000000000000000000000000000000000000000\n        /* \"#utility.yul\":11439:11440   */\n      0x00\n        /* \"#utility.yul\":11432:11520   */\n      mstore\n        /* \"#utility.yul\":11539:11543   */\n      0x11\n        /* \"#utility.yul\":11536:11537   */\n      0x04\n        /* \"#utility.yul\":11529:11544   */\n      mstore\n        /* \"#utility.yul\":11563:11567   */\n      0x24\n        /* \"#utility.yul\":11560:11561   */\n      0x00\n        /* \"#utility.yul\":11553:11568   */\n      revert\n        /* \"#utility.yul\":11580:11771   */\n    tag_109:\n        /* \"#utility.yul\":11620:11623   */\n      0x00\n        /* \"#utility.yul\":11639:11659   */\n      tag_439\n        /* \"#utility.yul\":11657:11658   */\n      dup3\n        /* \"#utility.yul\":11639:11659   */\n      tag_271\n      jump\t// in\n    tag_439:\n        /* \"#utility.yul\":11634:11659   */\n      swap2\n      pop\n        /* \"#utility.yul\":11673:11693   */\n      tag_440\n        /* \"#utility.yul\":11691:11692   */\n      dup4\n        /* \"#utility.yul\":11673:11693   */\n      tag_271\n      jump\t// in\n    tag_440:\n        /* \"#utility.yul\":11668:11693   */\n      swap3\n      pop\n        /* \"#utility.yul\":11716:11717   */\n      dup3\n        /* \"#utility.yul\":11713:11714   */\n      dup3\n        /* \"#utility.yul\":11709:11718   */\n      add\n        /* \"#utility.yul\":11702:11718   */\n      swap1\n      pop\n        /* \"#utility.yul\":11737:11740   */\n      dup1\n        /* \"#utility.yul\":11734:11735   */\n      dup3\n        /* \"#utility.yul\":11731:11741   */\n      gt\n        /* \"#utility.yul\":11728:11764   */\n      iszero\n      tag_441\n      jumpi\n        /* \"#utility.yul\":11744:11762   */\n      tag_442\n      tag_300\n      jump\t// in\n    tag_442:\n        /* \"#utility.yul\":11728:11764   */\n    tag_441:\n        /* \"#utility.yul\":11580:11771   */\n      swap3\n      swap2\n      pop\n      pop\n      jump\t// out\n        /* \"#utility.yul\":11777:12187   */\n    tag_111:\n        /* \"#utility.yul\":11817:11824   */\n      0x00\n        /* \"#utility.yul\":11840:11860   */\n      tag_444\n        /* \"#utility.yul\":11858:11859   */\n      dup3\n        /* \"#utility.yul\":11840:11860   */\n      tag_271\n      jump\t// in\n    tag_444:\n        /* \"#utility.yul\":11835:11860   */\n      swap2\n      pop\n        /* \"#utility.yul\":11874:11894   */\n      tag_445\n        /* \"#utility.yul\":11892:11893   */\n      dup4\n        /* \"#utility.yul\":11874:11894   */\n      tag_271\n      jump\t// in\n    tag_445:\n        /* \"#utility.yul\":11869:11894   */\n      swap3\n      pop\n        /* \"#utility.yul\":11929:11930   */\n      dup3\n        /* \"#utility.yul\":11926:11927   */\n      dup3\n        /* \"#utility.yul\":11922:11931   */\n      mul\n        /* \"#utility.yul\":11951:11981   */\n      tag_446\n        /* \"#utility.yul\":11969:11980   */\n      dup2\n        /* \"#utility.yul\":11951:11981   */\n      tag_271\n      jump\t// in\n    tag_446:\n        /* \"#utility.yul\":11940:11981   */\n      swap2\n      pop\n        /* \"#utility.yul\":12130:12131   */\n      dup3\n        /* \"#utility.yul\":12121:12128   */\n      dup3\n        /* \"#utility.yul\":12117:12132   */\n      div\n        /* \"#utility.yul\":12114:12115   */\n      dup5\n        /* \"#utility.yul\":12111:12133   */\n      eq\n        /* \"#utility.yul\":12091:12092   */\n      dup4\n        /* \"#utility.yul\":12084:12093   */\n      iszero\n        /* \"#utility.yul\":12064:12147   */\n      or\n        /* \"#utility.yul\":12041:12180   */\n      tag_447\n      jumpi\n        /* \"#utility.yul\":12160:12178   */\n      tag_448\n      tag_300\n      jump\t// in\n    tag_448:\n        /* \"#utility.yul\":12041:12180   */\n    tag_447:\n        /* \"#utility.yul\":11825:12187   */\n      pop\n        /* \"#utility.yul\":11777:12187   */\n      swap3\n      swap2\n      pop\n      pop\n      jump\t// out\n        /* \"#utility.yul\":12193:12378   */\n    tag_113:\n        /* \"#utility.yul\":12233:12234   */\n      0x00\n        /* \"#utility.yul\":12250:12270   */\n      tag_450\n        /* \"#utility.yul\":12268:12269   */\n      dup3\n        /* \"#utility.yul\":12250:12270   */\n      tag_271\n      jump\t// in\n    tag_450:\n        /* \"#utility.yul\":12245:12270   */\n      swap2\n      pop\n        /* \"#utility.yul\":12284:12304   */\n      tag_451\n        /* \"#utility.yul\":12302:12303   */\n      dup4\n        /* \"#utility.yul\":12284:12304   */\n      tag_271\n      jump\t// in\n    tag_451:\n        /* \"#utility.yul\":12279:12304   */\n      swap3\n      pop\n        /* \"#utility.yul\":12323:12324   */\n      dup3\n        /* \"#utility.yul\":12313:12348   */\n      tag_452\n      jumpi\n        /* \"#utility.yul\":12328:12346   */\n      tag_453\n      tag_293\n      jump\t// in\n    tag_453:\n        /* \"#utility.yul\":12313:12348   */\n    tag_452:\n        /* \"#utility.yul\":12370:12371   */\n      dup3\n        /* \"#utility.yul\":12367:12368   */\n      dup3\n        /* \"#utility.yul\":12363:12372   */\n      div\n        /* \"#utility.yul\":12358:12372   */\n      swap1\n      pop\n        /* \"#utility.yul\":12193:12378   */\n      swap3\n      swap2\n      pop\n      pop\n      jump\t// out\n        /* \"#utility.yul\":12384:12578   */\n    tag_136:\n        /* \"#utility.yul\":12424:12428   */\n      0x00\n        /* \"#utility.yul\":12444:12464   */\n      tag_455\n        /* \"#utility.yul\":12462:12463   */\n      dup3\n        /* \"#utility.yul\":12444:12464   */\n      tag_271\n      jump\t// in\n    tag_455:\n        /* \"#utility.yul\":12439:12464   */\n      swap2\n      pop\n        /* \"#utility.yul\":12478:12498   */\n      tag_456\n        /* \"#utility.yul\":12496:12497   */\n      dup4\n        /* \"#utility.yul\":12478:12498   */\n      tag_271\n      jump\t// in\n    tag_456:\n        /* \"#utility.yul\":12473:12498   */\n      swap3\n      pop\n        /* \"#utility.yul\":12522:12523   */\n      dup3\n        /* \"#utility.yul\":12519:12520   */\n      dup3\n        /* \"#utility.yul\":12515:12524   */\n      sub\n        /* \"#utility.yul\":12507:12524   */\n      swap1\n      pop\n        /* \"#utility.yul\":12546:12547   */\n      dup2\n        /* \"#utility.yul\":12540:12544   */\n      dup2\n        /* \"#utility.yul\":12537:12548   */\n      gt\n        /* \"#utility.yul\":12534:12571   */\n      iszero\n      tag_457\n      jumpi\n        /* \"#utility.yul\":12551:12569   */\n      tag_458\n      tag_300\n      jump\t// in\n    tag_458:\n        /* \"#utility.yul\":12534:12571   */\n    tag_457:\n        /* \"#utility.yul\":12384:12578   */\n      swap3\n      swap2\n      pop\n      pop\n      jump\t// out\n        /* \"#utility.yul\":12584:12827   */\n    tag_301:\n        /* \"#utility.yul\":12724:12758   */\n      0x4e756d626572206f66206d656d62657273206d7573742062652035206265666f\n        /* \"#utility.yul\":12720:12721   */\n      0x00\n        /* \"#utility.yul\":12712:12718   */\n      dup3\n        /* \"#utility.yul\":12708:12722   */\n      add\n        /* \"#utility.yul\":12701:12759   */\n      mstore\n        /* \"#utility.yul\":12793:12819   */\n      0x726520647261772063616e20626520706572666f726d65640000000000000000\n        /* \"#utility.yul\":12788:12790   */\n      0x20\n        /* \"#utility.yul\":12780:12786   */\n      dup3\n        /* \"#utility.yul\":12776:12791   */\n      add\n        /* \"#utility.yul\":12769:12820   */\n      mstore\n        /* \"#utility.yul\":12584:12827   */\n      pop\n      jump\t// out\n        /* \"#utility.yul\":12833:13199   */\n    tag_302:\n        /* \"#utility.yul\":12975:12978   */\n      0x00\n        /* \"#utility.yul\":12996:13063   */\n      tag_461\n        /* \"#utility.yul\":13060:13062   */\n      0x38\n        /* \"#utility.yul\":13055:13058   */\n      dup4\n        /* \"#utility.yul\":12996:13063   */\n      tag_288\n      jump\t// in\n    tag_461:\n        /* \"#utility.yul\":12989:13063   */\n      swap2\n      pop\n        /* \"#utility.yul\":13072:13165   */\n      tag_462\n        /* \"#utility.yul\":13161:13164   */\n      dup3\n        /* \"#utility.yul\":13072:13165   */\n      tag_301\n      jump\t// in\n    tag_462:\n        /* \"#utility.yul\":13190:13192   */\n      0x40\n        /* \"#utility.yul\":13185:13188   */\n      dup3\n        /* \"#utility.yul\":13181:13193   */\n      add\n        /* \"#utility.yul\":13174:13193   */\n      swap1\n      pop\n        /* \"#utility.yul\":12833:13199   */\n      swap2\n      swap1\n      pop\n      jump\t// out\n        /* \"#utility.yul\":13205:13624   */\n    tag_145:\n        /* \"#utility.yul\":13371:13375   */\n      0x00\n        /* \"#utility.yul\":13409:13411   */\n      0x20\n        /* \"#utility.yul\":13398:13407   */\n      dup3\n        /* \"#utility.yul\":13394:13412   */\n      add\n        /* \"#utility.yul\":13386:13412   */\n      swap1\n      pop\n        /* \"#utility.yul\":13458:13467   */\n      dup2\n        /* \"#utility.yul\":13452:13456   */\n      dup2\n        /* \"#utility.yul\":13448:13468   */\n      sub\n        /* \"#utility.yul\":13444:13445   */\n      0x00\n        /* \"#utility.yul\":13433:13442   */\n      dup4\n        /* \"#utility.yul\":13429:13446   */\n      add\n        /* \"#utility.yul\":13422:13469   */\n      mstore\n        /* \"#utility.yul\":13486:13617   */\n      tag_464\n        /* \"#utility.yul\":13612:13616   */\n      dup2\n        /* \"#utility.yul\":13486:13617   */\n      tag_302\n      jump\t// in\n    tag_464:\n        /* \"#utility.yul\":13478:13617   */\n      swap1\n      pop\n        /* \"#utility.yul\":13205:13624   */\n      swap2\n      swap1\n      pop\n      jump\t// out\n        /* \"#utility.yul\":13630:13802   */\n    tag_303:\n        /* \"#utility.yul\":13770:13794   */\n      0x4d7573742062652070726f706f736564206f776e657200000000000000000000\n        /* \"#utility.yul\":13766:13767   */\n      0x00\n        /* \"#utility.yul\":13758:13764   */\n      dup3\n        /* \"#utility.yul\":13754:13768   */\n      add\n        /* \"#utility.yul\":13747:13795   */\n      mstore\n        /* \"#utility.yul\":13630:13802   */\n      pop\n      jump\t// out\n        /* \"#utility.yul\":13808:14174   */\n    tag_304:\n        /* \"#utility.yul\":13950:13953   */\n      0x00\n        /* \"#utility.yul\":13971:14038   */\n      tag_467\n        /* \"#utility.yul\":14035:14037   */\n      0x16\n        /* \"#utility.yul\":14030:14033   */\n      dup4\n        /* \"#utility.yul\":13971:14038   */\n      tag_288\n      jump\t// in\n    tag_467:\n        /* \"#utility.yul\":13964:14038   */\n      swap2\n      pop\n        /* \"#utility.yul\":14047:14140   */\n      tag_468\n        /* \"#utility.yul\":14136:14139   */\n      dup3\n        /* \"#utility.yul\":14047:14140   */\n      tag_303\n      jump\t// in\n    tag_468:\n        /* \"#utility.yul\":14165:14167   */\n      0x20\n        /* \"#utility.yul\":14160:14163   */\n      dup3\n        /* \"#utility.yul\":14156:14168   */\n      add\n        /* \"#utility.yul\":14149:14168   */\n      swap1\n      pop\n        /* \"#utility.yul\":13808:14174   */\n      swap2\n      swap1\n      pop\n      jump\t// out\n        /* \"#utility.yul\":14180:14599   */\n    tag_157:\n        /* \"#utility.yul\":14346:14350   */\n      0x00\n        /* \"#utility.yul\":14384:14386   */\n      0x20\n        /* \"#utility.yul\":14373:14382   */\n      dup3\n        /* \"#utility.yul\":14369:14387   */\n      add\n        /* \"#utility.yul\":14361:14387   */\n      swap1\n      pop\n        /* \"#utility.yul\":14433:14442   */\n      dup2\n        /* \"#utility.yul\":14427:14431   */\n      dup2\n        /* \"#utility.yul\":14423:14443   */\n      sub\n        /* \"#utility.yul\":14419:14420   */\n      0x00\n        /* \"#utility.yul\":14408:14417   */\n      dup4\n        /* \"#utility.yul\":14404:14421   */\n      add\n        /* \"#utility.yul\":14397:14444   */\n      mstore\n        /* \"#utility.yul\":14461:14592   */\n      tag_470\n        /* \"#utility.yul\":14587:14591   */\n      dup2\n        /* \"#utility.yul\":14461:14592   */\n      tag_304\n      jump\t// in\n    tag_470:\n        /* \"#utility.yul\":14453:14592   */\n      swap1\n      pop\n        /* \"#utility.yul\":14180:14599   */\n      swap2\n      swap1\n      pop\n      jump\t// out\n        /* \"#utility.yul\":14605:14748   */\n    tag_305:\n        /* \"#utility.yul\":14662:14667   */\n      0x00\n        /* \"#utility.yul\":14693:14699   */\n      dup2\n        /* \"#utility.yul\":14687:14700   */\n      mload\n        /* \"#utility.yul\":14678:14700   */\n      swap1\n      pop\n        /* \"#utility.yul\":14709:14742   */\n      tag_472\n        /* \"#utility.yul\":14736:14741   */\n      dup2\n        /* \"#utility.yul\":14709:14742   */\n      tag_272\n      jump\t// in\n    tag_472:\n        /* \"#utility.yul\":14605:14748   */\n      swap3\n      swap2\n      pop\n      pop\n      jump\t// out\n        /* \"#utility.yul\":14754:15105   */\n    tag_171:\n        /* \"#utility.yul\":14824:14830   */\n      0x00\n        /* \"#utility.yul\":14873:14875   */\n      0x20\n        /* \"#utility.yul\":14861:14870   */\n      dup3\n        /* \"#utility.yul\":14852:14859   */\n      dup5\n        /* \"#utility.yul\":14848:14871   */\n      sub\n        /* \"#utility.yul\":14844:14876   */\n      slt\n        /* \"#utility.yul\":14841:14960   */\n      iszero\n      tag_474\n      jumpi\n        /* \"#utility.yul\":14879:14958   */\n      tag_475\n      tag_269\n      jump\t// in\n    tag_475:\n        /* \"#utility.yul\":14841:14960   */\n    tag_474:\n        /* \"#utility.yul\":14999:15000   */\n      0x00\n        /* \"#utility.yul\":15024:15088   */\n      tag_476\n        /* \"#utility.yul\":15080:15087   */\n      dup5\n        /* \"#utility.yul\":15071:15077   */\n      dup3\n        /* \"#utility.yul\":15060:15069   */\n      dup6\n        /* \"#utility.yul\":15056:15078   */\n      add\n        /* \"#utility.yul\":15024:15088   */\n      tag_305\n      jump\t// in\n    tag_476:\n        /* \"#utility.yul\":15014:15088   */\n      swap2\n      pop\n        /* \"#utility.yul\":14970:15098   */\n      pop\n        /* \"#utility.yul\":14754:15105   */\n      swap3\n      swap2\n      pop\n      pop\n      jump\t// out\n        /* \"#utility.yul\":15111:15443   */\n    tag_173:\n        /* \"#utility.yul\":15232:15236   */\n      0x00\n        /* \"#utility.yul\":15270:15272   */\n      0x40\n        /* \"#utility.yul\":15259:15268   */\n      dup3\n        /* \"#utility.yul\":15255:15273   */\n      add\n        /* \"#utility.yul\":15247:15273   */\n      swap1\n      pop\n        /* \"#utility.yul\":15283:15354   */\n      tag_478\n        /* \"#utility.yul\":15351:15352   */\n      0x00\n        /* \"#utility.yul\":15340:15349   */\n      dup4\n        /* \"#utility.yul\":15336:15353   */\n      add\n        /* \"#utility.yul\":15327:15333   */\n      dup6\n        /* \"#utility.yul\":15283:15354   */\n      tag_276\n      jump\t// in\n    tag_478:\n        /* \"#utility.yul\":15364:15436   */\n      tag_479\n        /* \"#utility.yul\":15432:15434   */\n      0x20\n        /* \"#utility.yul\":15421:15430   */\n      dup4\n        /* \"#utility.yul\":15417:15435   */\n      add\n        /* \"#utility.yul\":15408:15414   */\n      dup5\n        /* \"#utility.yul\":15364:15436   */\n      tag_285\n      jump\t// in\n    tag_479:\n        /* \"#utility.yul\":15111:15443   */\n      swap4\n      swap3\n      pop\n      pop\n      pop\n      jump\t// out\n        /* \"#utility.yul\":15449:15539   */\n    tag_306:\n        /* \"#utility.yul\":15483:15490   */\n      0x00\n        /* \"#utility.yul\":15526:15531   */\n      dup2\n        /* \"#utility.yul\":15519:15532   */\n      iszero\n        /* \"#utility.yul\":15512:15533   */\n      iszero\n        /* \"#utility.yul\":15501:15533   */\n      swap1\n      pop\n        /* \"#utility.yul\":15449:15539   */\n      swap2\n      swap1\n      pop\n      jump\t// out\n        /* \"#utility.yul\":15545:15661   */\n    tag_307:\n        /* \"#utility.yul\":15615:15636   */\n      tag_482\n        /* \"#utility.yul\":15630:15635   */\n      dup2\n        /* \"#utility.yul\":15615:15636   */\n      tag_306\n      jump\t// in\n    tag_482:\n        /* \"#utility.yul\":15608:15613   */\n      dup2\n        /* \"#utility.yul\":15605:15637   */\n      eq\n        /* \"#utility.yul\":15595:15655   */\n      tag_483\n      jumpi\n        /* \"#utility.yul\":15651:15652   */\n      0x00\n        /* \"#utility.yul\":15648:15649   */\n      dup1\n        /* \"#utility.yul\":15641:15653   */\n      revert\n        /* \"#utility.yul\":15595:15655   */\n    tag_483:\n        /* \"#utility.yul\":15545:15661   */\n      pop\n      jump\t// out\n        /* \"#utility.yul\":15667:15804   */\n    tag_308:\n        /* \"#utility.yul\":15721:15726   */\n      0x00\n        /* \"#utility.yul\":15752:15758   */\n      dup2\n        /* \"#utility.yul\":15746:15759   */\n      mload\n        /* \"#utility.yul\":15737:15759   */\n      swap1\n      pop\n        /* \"#utility.yul\":15768:15798   */\n      tag_485\n        /* \"#utility.yul\":15792:15797   */\n      dup2\n        /* \"#utility.yul\":15768:15798   */\n      tag_307\n      jump\t// in\n    tag_485:\n        /* \"#utility.yul\":15667:15804   */\n      swap3\n      swap2\n      pop\n      pop\n      jump\t// out\n        /* \"#utility.yul\":15810:16155   */\n    tag_177:\n        /* \"#utility.yul\":15877:15883   */\n      0x00\n        /* \"#utility.yul\":15926:15928   */\n      0x20\n        /* \"#utility.yul\":15914:15923   */\n      dup3\n        /* \"#utility.yul\":15905:15912   */\n      dup5\n        /* \"#utility.yul\":15901:15924   */\n      sub\n        /* \"#utility.yul\":15897:15929   */\n      slt\n        /* \"#utility.yul\":15894:16013   */\n      iszero\n      tag_487\n      jumpi\n        /* \"#utility.yul\":15932:16011   */\n      tag_488\n      tag_269\n      jump\t// in\n    tag_488:\n        /* \"#utility.yul\":15894:16013   */\n    tag_487:\n        /* \"#utility.yul\":16052:16053   */\n      0x00\n        /* \"#utility.yul\":16077:16138   */\n      tag_489\n        /* \"#utility.yul\":16130:16137   */\n      dup5\n        /* \"#utility.yul\":16121:16127   */\n      dup3\n        /* \"#utility.yul\":16110:16119   */\n      dup6\n        /* \"#utility.yul\":16106:16128   */\n      add\n        /* \"#utility.yul\":16077:16138   */\n      tag_308\n      jump\t// in\n    tag_489:\n        /* \"#utility.yul\":16067:16138   */\n      swap2\n      pop\n        /* \"#utility.yul\":16023:16148   */\n      pop\n        /* \"#utility.yul\":15810:16155   */\n      swap3\n      swap2\n      pop\n      pop\n      jump\t// out\n        /* \"#utility.yul\":16161:16329   */\n    tag_309:\n        /* \"#utility.yul\":16301:16321   */\n      0x556e61626c6520746f207472616e736665720000000000000000000000000000\n        /* \"#utility.yul\":16297:16298   */\n      0x00\n        /* \"#utility.yul\":16289:16295   */\n      dup3\n        /* \"#utility.yul\":16285:16299   */\n      add\n        /* \"#utility.yul\":16278:16322   */\n      mstore\n        /* \"#utility.yul\":16161:16329   */\n      pop\n      jump\t// out\n        /* \"#utility.yul\":16335:16701   */\n    tag_310:\n        /* \"#utility.yul\":16477:16480   */\n      0x00\n        /* \"#utility.yul\":16498:16565   */\n      tag_492\n        /* \"#utility.yul\":16562:16564   */\n      0x12\n        /* \"#utility.yul\":16557:16560   */\n      dup4\n        /* \"#utility.yul\":16498:16565   */\n      tag_288\n      jump\t// in\n    tag_492:\n        /* \"#utility.yul\":16491:16565   */\n      swap2\n      pop\n        /* \"#utility.yul\":16574:16667   */\n      tag_493\n        /* \"#utility.yul\":16663:16666   */\n      dup3\n        /* \"#utility.yul\":16574:16667   */\n      tag_309\n      jump\t// in\n    tag_493:\n        /* \"#utility.yul\":16692:16694   */\n      0x20\n        /* \"#utility.yul\":16687:16690   */\n      dup3\n        /* \"#utility.yul\":16683:16695   */\n      add\n        /* \"#utility.yul\":16676:16695   */\n      swap1\n      pop\n        /* \"#utility.yul\":16335:16701   */\n      swap2\n      swap1\n      pop\n      jump\t// out\n        /* \"#utility.yul\":16707:17126   */\n    tag_180:\n        /* \"#utility.yul\":16873:16877   */\n      0x00\n        /* \"#utility.yul\":16911:16913   */\n      0x20\n        /* \"#utility.yul\":16900:16909   */\n      dup3\n        /* \"#utility.yul\":16896:16914   */\n      add\n        /* \"#utility.yul\":16888:16914   */\n      swap1\n      pop\n        /* \"#utility.yul\":16960:16969   */\n      dup2\n        /* \"#utility.yul\":16954:16958   */\n      dup2\n        /* \"#utility.yul\":16950:16970   */\n      sub\n        /* \"#utility.yul\":16946:16947   */\n      0x00\n        /* \"#utility.yul\":16935:16944   */\n      dup4\n        /* \"#utility.yul\":16931:16948   */\n      add\n        /* \"#utility.yul\":16924:16971   */\n      mstore\n        /* \"#utility.yul\":16988:17119   */\n      tag_495\n        /* \"#utility.yul\":17114:17118   */\n      dup2\n        /* \"#utility.yul\":16988:17119   */\n      tag_310\n      jump\t// in\n    tag_495:\n        /* \"#utility.yul\":16980:17119   */\n      swap1\n      pop\n        /* \"#utility.yul\":16707:17126   */\n      swap2\n      swap1\n      pop\n      jump\t// out\n        /* \"#utility.yul\":17132:17421   */\n    tag_311:\n        /* \"#utility.yul\":17272:17306   */\n      0x4e756d626572206f66206d656d626572732061726520616c726561647920352e\n        /* \"#utility.yul\":17268:17269   */\n      0x00\n        /* \"#utility.yul\":17260:17266   */\n      dup3\n        /* \"#utility.yul\":17256:17270   */\n      add\n        /* \"#utility.yul\":17249:17307   */\n      mstore\n        /* \"#utility.yul\":17341:17375   */\n      0x20506c656173652074727920746f206a6f696e20696e206e65787420726f756e\n        /* \"#utility.yul\":17336:17338   */\n      0x20\n        /* \"#utility.yul\":17328:17334   */\n      dup3\n        /* \"#utility.yul\":17324:17339   */\n      add\n        /* \"#utility.yul\":17317:17376   */\n      mstore\n        /* \"#utility.yul\":17410:17413   */\n      0x6400000000000000000000000000000000000000000000000000000000000000\n        /* \"#utility.yul\":17405:17407   */\n      0x40\n        /* \"#utility.yul\":17397:17403   */\n      dup3\n        /* \"#utility.yul\":17393:17408   */\n      add\n        /* \"#utility.yul\":17386:17414   */\n      mstore\n        /* \"#utility.yul\":17132:17421   */\n      pop\n      jump\t// out\n        /* \"#utility.yul\":17427:17793   */\n    tag_312:\n        /* \"#utility.yul\":17569:17572   */\n      0x00\n        /* \"#utility.yul\":17590:17657   */\n      tag_498\n        /* \"#utility.yul\":17654:17656   */\n      0x41\n        /* \"#utility.yul\":17649:17652   */\n      dup4\n        /* \"#utility.yul\":17590:17657   */\n      tag_288\n      jump\t// in\n    tag_498:\n        /* \"#utility.yul\":17583:17657   */\n      swap2\n      pop\n        /* \"#utility.yul\":17666:17759   */\n      tag_499\n        /* \"#utility.yul\":17755:17758   */\n      dup3\n        /* \"#utility.yul\":17666:17759   */\n      tag_311\n      jump\t// in\n    tag_499:\n        /* \"#utility.yul\":17784:17786   */\n      0x60\n        /* \"#utility.yul\":17779:17782   */\n      dup3\n        /* \"#utility.yul\":17775:17787   */\n      add\n        /* \"#utility.yul\":17768:17787   */\n      swap1\n      pop\n        /* \"#utility.yul\":17427:17793   */\n      swap2\n      swap1\n      pop\n      jump\t// out\n        /* \"#utility.yul\":17799:18218   */\n    tag_184:\n        /* \"#utility.yul\":17965:17969   */\n      0x00\n        /* \"#utility.yul\":18003:18005   */\n      0x20\n        /* \"#utility.yul\":17992:18001   */\n      dup3\n        /* \"#utility.yul\":17988:18006   */\n      add\n        /* \"#utility.yul\":17980:18006   */\n      swap1\n      pop\n        /* \"#utility.yul\":18052:18061   */\n      dup2\n        /* \"#utility.yul\":18046:18050   */\n      dup2\n        /* \"#utility.yul\":18042:18062   */\n      sub\n        /* \"#utility.yul\":18038:18039   */\n      0x00\n        /* \"#utility.yul\":18027:18036   */\n      dup4\n        /* \"#utility.yul\":18023:18040   */\n      add\n        /* \"#utility.yul\":18016:18063   */\n      mstore\n        /* \"#utility.yul\":18080:18211   */\n      tag_501\n        /* \"#utility.yul\":18206:18210   */\n      dup2\n        /* \"#utility.yul\":18080:18211   */\n      tag_312\n      jump\t// in\n    tag_501:\n        /* \"#utility.yul\":18072:18211   */\n      swap1\n      pop\n        /* \"#utility.yul\":17799:18218   */\n      swap2\n      swap1\n      pop\n      jump\t// out\n        /* \"#utility.yul\":18224:18453   */\n    tag_313:\n        /* \"#utility.yul\":18364:18398   */\n      0x596f75206861766520616c7265616479207265676973746572656420666f7220\n        /* \"#utility.yul\":18360:18361   */\n      0x00\n        /* \"#utility.yul\":18352:18358   */\n      dup3\n        /* \"#utility.yul\":18348:18362   */\n      add\n        /* \"#utility.yul\":18341:18399   */\n      mstore\n        /* \"#utility.yul\":18433:18445   */\n      0x7468697320726f756e6400000000000000000000000000000000000000000000\n        /* \"#utility.yul\":18428:18430   */\n      0x20\n        /* \"#utility.yul\":18420:18426   */\n      dup3\n        /* \"#utility.yul\":18416:18431   */\n      add\n        /* \"#utility.yul\":18409:18446   */\n      mstore\n        /* \"#utility.yul\":18224:18453   */\n      pop\n      jump\t// out\n        /* \"#utility.yul\":18459:18825   */\n    tag_314:\n        /* \"#utility.yul\":18601:18604   */\n      0x00\n        /* \"#utility.yul\":18622:18689   */\n      tag_504\n        /* \"#utility.yul\":18686:18688   */\n      0x2a\n        /* \"#utility.yul\":18681:18684   */\n      dup4\n        /* \"#utility.yul\":18622:18689   */\n      tag_288\n      jump\t// in\n    tag_504:\n        /* \"#utility.yul\":18615:18689   */\n      swap2\n      pop\n        /* \"#utility.yul\":18698:18791   */\n      tag_505\n        /* \"#utility.yul\":18787:18790   */\n      dup3\n        /* \"#utility.yul\":18698:18791   */\n      tag_313\n      jump\t// in\n    tag_505:\n        /* \"#utility.yul\":18816:18818   */\n      0x40\n        /* \"#utility.yul\":18811:18814   */\n      dup3\n        /* \"#utility.yul\":18807:18819   */\n      add\n        /* \"#utility.yul\":18800:18819   */\n      swap1\n      pop\n        /* \"#utility.yul\":18459:18825   */\n      swap2\n      swap1\n      pop\n      jump\t// out\n        /* \"#utility.yul\":18831:19250   */\n    tag_193:\n        /* \"#utility.yul\":18997:19001   */\n      0x00\n        /* \"#utility.yul\":19035:19037   */\n      0x20\n        /* \"#utility.yul\":19024:19033   */\n      dup3\n        /* \"#utility.yul\":19020:19038   */\n      add\n        /* \"#utility.yul\":19012:19038   */\n      swap1\n      pop\n        /* \"#utility.yul\":19084:19093   */\n      dup2\n        /* \"#utility.yul\":19078:19082   */\n      dup2\n        /* \"#utility.yul\":19074:19094   */\n      sub\n        /* \"#utility.yul\":19070:19071   */\n      0x00\n        /* \"#utility.yul\":19059:19068   */\n      dup4\n        /* \"#utility.yul\":19055:19072   */\n      add\n        /* \"#utility.yul\":19048:19095   */\n      mstore\n        /* \"#utility.yul\":19112:19243   */\n      tag_507\n        /* \"#utility.yul\":19238:19242   */\n      dup2\n        /* \"#utility.yul\":19112:19243   */\n      tag_314\n      jump\t// in\n    tag_507:\n        /* \"#utility.yul\":19104:19243   */\n      swap1\n      pop\n        /* \"#utility.yul\":18831:19250   */\n      swap2\n      swap1\n      pop\n      jump\t// out\n        /* \"#utility.yul\":19256:19498   */\n    tag_315:\n        /* \"#utility.yul\":19396:19430   */\n      0x596f75206d75737420696e76657374206174206c6561737420302e3030312045\n        /* \"#utility.yul\":19392:19393   */\n      0x00\n        /* \"#utility.yul\":19384:19390   */\n      dup3\n        /* \"#utility.yul\":19380:19394   */\n      add\n        /* \"#utility.yul\":19373:19431   */\n      mstore\n        /* \"#utility.yul\":19465:19490   */\n      0x544820696e20746865206c6f747465727920726f756e64000000000000000000\n        /* \"#utility.yul\":19460:19462   */\n      0x20\n        /* \"#utility.yul\":19452:19458   */\n      dup3\n        /* \"#utility.yul\":19448:19463   */\n      add\n        /* \"#utility.yul\":19441:19491   */\n      mstore\n        /* \"#utility.yul\":19256:19498   */\n      pop\n      jump\t// out\n        /* \"#utility.yul\":19504:19870   */\n    tag_316:\n        /* \"#utility.yul\":19646:19649   */\n      0x00\n        /* \"#utility.yul\":19667:19734   */\n      tag_510\n        /* \"#utility.yul\":19731:19733   */\n      0x37\n        /* \"#utility.yul\":19726:19729   */\n      dup4\n        /* \"#utility.yul\":19667:19734   */\n      tag_288\n      jump\t// in\n    tag_510:\n        /* \"#utility.yul\":19660:19734   */\n      swap2\n      pop\n        /* \"#utility.yul\":19743:19836   */\n      tag_511\n        /* \"#utility.yul\":19832:19835   */\n      dup3\n        /* \"#utility.yul\":19743:19836   */\n      tag_315\n      jump\t// in\n    tag_511:\n        /* \"#utility.yul\":19861:19863   */\n      0x40\n        /* \"#utility.yul\":19856:19859   */\n      dup3\n        /* \"#utility.yul\":19852:19864   */\n      add\n        /* \"#utility.yul\":19845:19864   */\n      swap1\n      pop\n        /* \"#utility.yul\":19504:19870   */\n      swap2\n      swap1\n      pop\n      jump\t// out\n        /* \"#utility.yul\":19876:20295   */\n    tag_196:\n        /* \"#utility.yul\":20042:20046   */\n      0x00\n        /* \"#utility.yul\":20080:20082   */\n      0x20\n        /* \"#utility.yul\":20069:20078   */\n      dup3\n        /* \"#utility.yul\":20065:20083   */\n      add\n        /* \"#utility.yul\":20057:20083   */\n      swap1\n      pop\n        /* \"#utility.yul\":20129:20138   */\n      dup2\n        /* \"#utility.yul\":20123:20127   */\n      dup2\n        /* \"#utility.yul\":20119:20139   */\n      sub\n        /* \"#utility.yul\":20115:20116   */\n      0x00\n        /* \"#utility.yul\":20104:20113   */\n      dup4\n        /* \"#utility.yul\":20100:20117   */\n      add\n        /* \"#utility.yul\":20093:20140   */\n      mstore\n        /* \"#utility.yul\":20157:20288   */\n      tag_513\n        /* \"#utility.yul\":20283:20287   */\n      dup2\n        /* \"#utility.yul\":20157:20288   */\n      tag_316\n      jump\t// in\n    tag_513:\n        /* \"#utility.yul\":20149:20288   */\n      swap1\n      pop\n        /* \"#utility.yul\":19876:20295   */\n      swap2\n      swap1\n      pop\n      jump\t// out\n        /* \"#utility.yul\":20301:20468   */\n    tag_317:\n        /* \"#utility.yul\":20441:20460   */\n      0x72657175657374206e6f7420666f756e64000000000000000000000000000000\n        /* \"#utility.yul\":20437:20438   */\n      0x00\n        /* \"#utility.yul\":20429:20435   */\n      dup3\n        /* \"#utility.yul\":20425:20439   */\n      add\n        /* \"#utility.yul\":20418:20461   */\n      mstore\n        /* \"#utility.yul\":20301:20468   */\n      pop\n      jump\t// out\n        /* \"#utility.yul\":20474:20840   */\n    tag_318:\n        /* \"#utility.yul\":20616:20619   */\n      0x00\n        /* \"#utility.yul\":20637:20704   */\n      tag_516\n        /* \"#utility.yul\":20701:20703   */\n      0x11\n        /* \"#utility.yul\":20696:20699   */\n      dup4\n        /* \"#utility.yul\":20637:20704   */\n      tag_288\n      jump\t// in\n    tag_516:\n        /* \"#utility.yul\":20630:20704   */\n      swap2\n      pop\n        /* \"#utility.yul\":20713:20806   */\n      tag_517\n        /* \"#utility.yul\":20802:20805   */\n      dup3\n        /* \"#utility.yul\":20713:20806   */\n      tag_317\n      jump\t// in\n    tag_517:\n        /* \"#utility.yul\":20831:20833   */\n      0x20\n        /* \"#utility.yul\":20826:20829   */\n      dup3\n        /* \"#utility.yul\":20822:20834   */\n      add\n        /* \"#utility.yul\":20815:20834   */\n      swap1\n      pop\n        /* \"#utility.yul\":20474:20840   */\n      swap2\n      swap1\n      pop\n      jump\t// out\n        /* \"#utility.yul\":20846:21265   */\n    tag_219:\n        /* \"#utility.yul\":21012:21016   */\n      0x00\n        /* \"#utility.yul\":21050:21052   */\n      0x20\n        /* \"#utility.yul\":21039:21048   */\n      dup3\n        /* \"#utility.yul\":21035:21053   */\n      add\n        /* \"#utility.yul\":21027:21053   */\n      swap1\n      pop\n        /* \"#utility.yul\":21099:21108   */\n      dup2\n        /* \"#utility.yul\":21093:21097   */\n      dup2\n        /* \"#utility.yul\":21089:21109   */\n      sub\n        /* \"#utility.yul\":21085:21086   */\n      0x00\n        /* \"#utility.yul\":21074:21083   */\n      dup4\n        /* \"#utility.yul\":21070:21087   */\n      add\n        /* \"#utility.yul\":21063:21110   */\n      mstore\n        /* \"#utility.yul\":21127:21258   */\n      tag_519\n        /* \"#utility.yul\":21253:21257   */\n      dup2\n        /* \"#utility.yul\":21127:21258   */\n      tag_318\n      jump\t// in\n    tag_519:\n        /* \"#utility.yul\":21119:21258   */\n      swap1\n      pop\n        /* \"#utility.yul\":20846:21265   */\n      swap2\n      swap1\n      pop\n      jump\t// out\n        /* \"#utility.yul\":21271:21443   */\n    tag_319:\n        /* \"#utility.yul\":21411:21435   */\n      0x4f6e6c792063616c6c61626c65206279206f776e657200000000000000000000\n        /* \"#utility.yul\":21407:21408   */\n      0x00\n        /* \"#utility.yul\":21399:21405   */\n      dup3\n        /* \"#utility.yul\":21395:21409   */\n      add\n        /* \"#utility.yul\":21388:21436   */\n      mstore\n        /* \"#utility.yul\":21271:21443   */\n      pop\n      jump\t// out\n        /* \"#utility.yul\":21449:21815   */\n    tag_320:\n        /* \"#utility.yul\":21591:21594   */\n      0x00\n        /* \"#utility.yul\":21612:21679   */\n      tag_522\n        /* \"#utility.yul\":21676:21678   */\n      0x16\n        /* \"#utility.yul\":21671:21674   */\n      dup4\n        /* \"#utility.yul\":21612:21679   */\n      tag_288\n      jump\t// in\n    tag_522:\n        /* \"#utility.yul\":21605:21679   */\n      swap2\n      pop\n        /* \"#utility.yul\":21688:21781   */\n      tag_523\n        /* \"#utility.yul\":21777:21780   */\n      dup3\n        /* \"#utility.yul\":21688:21781   */\n      tag_319\n      jump\t// in\n    tag_523:\n        /* \"#utility.yul\":21806:21808   */\n      0x20\n        /* \"#utility.yul\":21801:21804   */\n      dup3\n        /* \"#utility.yul\":21797:21809   */\n      add\n        /* \"#utility.yul\":21790:21809   */\n      swap1\n      pop\n        /* \"#utility.yul\":21449:21815   */\n      swap2\n      swap1\n      pop\n      jump\t// out\n        /* \"#utility.yul\":21821:22240   */\n    tag_225:\n        /* \"#utility.yul\":21987:21991   */\n      0x00\n        /* \"#utility.yul\":22025:22027   */\n      0x20\n        /* \"#utility.yul\":22014:22023   */\n      dup3\n        /* \"#utility.yul\":22010:22028   */\n      add\n        /* \"#utility.yul\":22002:22028   */\n      swap1\n      pop\n        /* \"#utility.yul\":22074:22083   */\n      dup2\n        /* \"#utility.yul\":22068:22072   */\n      dup2\n        /* \"#utility.yul\":22064:22084   */\n      sub\n        /* \"#utility.yul\":22060:22061   */\n      0x00\n        /* \"#utility.yul\":22049:22058   */\n      dup4\n        /* \"#utility.yul\":22045:22062   */\n      add\n        /* \"#utility.yul\":22038:22085   */\n      mstore\n        /* \"#utility.yul\":22102:22233   */\n      tag_525\n        /* \"#utility.yul\":22228:22232   */\n      dup2\n        /* \"#utility.yul\":22102:22233   */\n      tag_320\n      jump\t// in\n    tag_525:\n        /* \"#utility.yul\":22094:22233   */\n      swap1\n      pop\n        /* \"#utility.yul\":21821:22240   */\n      swap2\n      swap1\n      pop\n      jump\t// out\n        /* \"#utility.yul\":22246:22339   */\n    tag_321:\n        /* \"#utility.yul\":22282:22289   */\n      0x00\n        /* \"#utility.yul\":22322:22332   */\n      0xffffffff\n        /* \"#utility.yul\":22315:22320   */\n      dup3\n        /* \"#utility.yul\":22311:22333   */\n      and\n        /* \"#utility.yul\":22300:22333   */\n      swap1\n      pop\n        /* \"#utility.yul\":22246:22339   */\n      swap2\n      swap1\n      pop\n      jump\t// out\n        /* \"#utility.yul\":22345:22460   */\n    tag_322:\n        /* \"#utility.yul\":22430:22453   */\n      tag_528\n        /* \"#utility.yul\":22447:22452   */\n      dup2\n        /* \"#utility.yul\":22430:22453   */\n      tag_321\n      jump\t// in\n    tag_528:\n        /* \"#utility.yul\":22425:22428   */\n      dup3\n        /* \"#utility.yul\":22418:22454   */\n      mstore\n        /* \"#utility.yul\":22345:22460   */\n      pop\n      pop\n      jump\t// out\n        /* \"#utility.yul\":22466:22684   */\n    tag_232:\n        /* \"#utility.yul\":22557:22561   */\n      0x00\n        /* \"#utility.yul\":22595:22597   */\n      0x20\n        /* \"#utility.yul\":22584:22593   */\n      dup3\n        /* \"#utility.yul\":22580:22598   */\n      add\n        /* \"#utility.yul\":22572:22598   */\n      swap1\n      pop\n        /* \"#utility.yul\":22608:22677   */\n      tag_530\n        /* \"#utility.yul\":22674:22675   */\n      0x00\n        /* \"#utility.yul\":22663:22672   */\n      dup4\n        /* \"#utility.yul\":22659:22676   */\n      add\n        /* \"#utility.yul\":22650:22656   */\n      dup5\n        /* \"#utility.yul\":22608:22677   */\n      tag_322\n      jump\t// in\n    tag_530:\n        /* \"#utility.yul\":22466:22684   */\n      swap3\n      swap2\n      pop\n      pop\n      jump\t// out\n        /* \"#utility.yul\":22690:22863   */\n    tag_323:\n        /* \"#utility.yul\":22830:22855   */\n      0x43616e6e6f74207472616e7366657220746f2073656c66000000000000000000\n        /* \"#utility.yul\":22826:22827   */\n      0x00\n        /* \"#utility.yul\":22818:22824   */\n      dup3\n        /* \"#utility.yul\":22814:22828   */\n      add\n        /* \"#utility.yul\":22807:22856   */\n      mstore\n        /* \"#utility.yul\":22690:22863   */\n      pop\n      jump\t// out\n        /* \"#utility.yul\":22869:23235   */\n    tag_324:\n        /* \"#utility.yul\":23011:23014   */\n      0x00\n        /* \"#utility.yul\":23032:23099   */\n      tag_533\n        /* \"#utility.yul\":23096:23098   */\n      0x17\n        /* \"#utility.yul\":23091:23094   */\n      dup4\n        /* \"#utility.yul\":23032:23099   */\n      tag_288\n      jump\t// in\n    tag_533:\n        /* \"#utility.yul\":23025:23099   */\n      swap2\n      pop\n        /* \"#utility.yul\":23108:23201   */\n      tag_534\n        /* \"#utility.yul\":23197:23200   */\n      dup3\n        /* \"#utility.yul\":23108:23201   */\n      tag_323\n      jump\t// in\n    tag_534:\n        /* \"#utility.yul\":23226:23228   */\n      0x20\n        /* \"#utility.yul\":23221:23224   */\n      dup3\n        /* \"#utility.yul\":23217:23229   */\n      add\n        /* \"#utility.yul\":23210:23229   */\n      swap1\n      pop\n        /* \"#utility.yul\":22869:23235   */\n      swap2\n      swap1\n      pop\n      jump\t// out\n        /* \"#utility.yul\":23241:23660   */\n    tag_245:\n        /* \"#utility.yul\":23407:23411   */\n      0x00\n        /* \"#utility.yul\":23445:23447   */\n      0x20\n        /* \"#utility.yul\":23434:23443   */\n      dup3\n        /* \"#utility.yul\":23430:23448   */\n      add\n        /* \"#utility.yul\":23422:23448   */\n      swap1\n      pop\n        /* \"#utility.yul\":23494:23503   */\n      dup2\n        /* \"#utility.yul\":23488:23492   */\n      dup2\n        /* \"#utility.yul\":23484:23504   */\n      sub\n        /* \"#utility.yul\":23480:23481   */\n      0x00\n        /* \"#utility.yul\":23469:23478   */\n      dup4\n        /* \"#utility.yul\":23465:23482   */\n      add\n        /* \"#utility.yul\":23458:23505   */\n      mstore\n        /* \"#utility.yul\":23522:23653   */\n      tag_536\n        /* \"#utility.yul\":23648:23652   */\n      dup2\n        /* \"#utility.yul\":23522:23653   */\n      tag_324\n      jump\t// in\n    tag_536:\n        /* \"#utility.yul\":23514:23653   */\n      swap1\n      pop\n        /* \"#utility.yul\":23241:23660   */\n      swap2\n      swap1\n      pop\n      jump\t// out\n        /* \"#utility.yul\":23666:23755   */\n    tag_325:\n        /* \"#utility.yul\":23702:23709   */\n      0x00\n        /* \"#utility.yul\":23742:23748   */\n      0xffff\n        /* \"#utility.yul\":23735:23740   */\n      dup3\n        /* \"#utility.yul\":23731:23749   */\n      and\n        /* \"#utility.yul\":23720:23749   */\n      swap1\n      pop\n        /* \"#utility.yul\":23666:23755   */\n      swap2\n      swap1\n      pop\n      jump\t// out\n        /* \"#utility.yul\":23761:23876   */\n    tag_326:\n        /* \"#utility.yul\":23846:23869   */\n      tag_539\n        /* \"#utility.yul\":23863:23868   */\n      dup2\n        /* \"#utility.yul\":23846:23869   */\n      tag_325\n      jump\t// in\n    tag_539:\n        /* \"#utility.yul\":23841:23844   */\n      dup3\n        /* \"#utility.yul\":23834:23870   */\n      mstore\n        /* \"#utility.yul\":23761:23876   */\n      pop\n      pop\n      jump\t// out\n        /* \"#utility.yul\":23882:24312   */\n    tag_252:\n        /* \"#utility.yul\":24025:24029   */\n      0x00\n        /* \"#utility.yul\":24063:24065   */\n      0x60\n        /* \"#utility.yul\":24052:24061   */\n      dup3\n        /* \"#utility.yul\":24048:24066   */\n      add\n        /* \"#utility.yul\":24040:24066   */\n      swap1\n      pop\n        /* \"#utility.yul\":24076:24145   */\n      tag_541\n        /* \"#utility.yul\":24142:24143   */\n      0x00\n        /* \"#utility.yul\":24131:24140   */\n      dup4\n        /* \"#utility.yul\":24127:24144   */\n      add\n        /* \"#utility.yul\":24118:24124   */\n      dup7\n        /* \"#utility.yul\":24076:24145   */\n      tag_322\n      jump\t// in\n    tag_541:\n        /* \"#utility.yul\":24155:24225   */\n      tag_542\n        /* \"#utility.yul\":24221:24223   */\n      0x20\n        /* \"#utility.yul\":24210:24219   */\n      dup4\n        /* \"#utility.yul\":24206:24224   */\n      add\n        /* \"#utility.yul\":24197:24203   */\n      dup6\n        /* \"#utility.yul\":24155:24225   */\n      tag_326\n      jump\t// in\n    tag_542:\n        /* \"#utility.yul\":24235:24305   */\n      tag_543\n        /* \"#utility.yul\":24301:24303   */\n      0x40\n        /* \"#utility.yul\":24290:24299   */\n      dup4\n        /* \"#utility.yul\":24286:24304   */\n      add\n        /* \"#utility.yul\":24277:24283   */\n      dup5\n        /* \"#utility.yul\":24235:24305   */\n      tag_322\n      jump\t// in\n    tag_543:\n        /* \"#utility.yul\":23882:24312   */\n      swap5\n      swap4\n      pop\n      pop\n      pop\n      pop\n      jump\t// out\n        /* \"#utility.yul\":24318:24416   */\n    tag_327:\n        /* \"#utility.yul\":24369:24375   */\n      0x00\n        /* \"#utility.yul\":24403:24408   */\n      dup2\n        /* \"#utility.yul\":24397:24409   */\n      mload\n        /* \"#utility.yul\":24387:24409   */\n      swap1\n      pop\n        /* \"#utility.yul\":24318:24416   */\n      swap2\n      swap1\n      pop\n      jump\t// out\n        /* \"#utility.yul\":24422:24590   */\n    tag_328:\n        /* \"#utility.yul\":24505:24516   */\n      0x00\n        /* \"#utility.yul\":24539:24545   */\n      dup3\n        /* \"#utility.yul\":24534:24537   */\n      dup3\n        /* \"#utility.yul\":24527:24546   */\n      mstore\n        /* \"#utility.yul\":24579:24583   */\n      0x20\n        /* \"#utility.yul\":24574:24577   */\n      dup3\n        /* \"#utility.yul\":24570:24584   */\n      add\n        /* \"#utility.yul\":24555:24584   */\n      swap1\n      pop\n        /* \"#utility.yul\":24422:24590   */\n      swap3\n      swap2\n      pop\n      pop\n      jump\t// out\n        /* \"#utility.yul\":24596:24735   */\n    tag_329:\n        /* \"#utility.yul\":24685:24691   */\n      dup3\n        /* \"#utility.yul\":24680:24683   */\n      dup2\n        /* \"#utility.yul\":24675:24678   */\n      dup4\n        /* \"#utility.yul\":24669:24692   */\n      mcopy\n        /* \"#utility.yul\":24726:24727   */\n      0x00\n        /* \"#utility.yul\":24717:24723   */\n      dup4\n        /* \"#utility.yul\":24712:24715   */\n      dup4\n        /* \"#utility.yul\":24708:24724   */\n      add\n        /* \"#utility.yul\":24701:24728   */\n      mstore\n        /* \"#utility.yul\":24596:24735   */\n      pop\n      pop\n      pop\n      jump\t// out\n        /* \"#utility.yul\":24741:25114   */\n    tag_330:\n        /* \"#utility.yul\":24827:24830   */\n      0x00\n        /* \"#utility.yul\":24855:24893   */\n      tag_548\n        /* \"#utility.yul\":24887:24892   */\n      dup3\n        /* \"#utility.yul\":24855:24893   */\n      tag_327\n      jump\t// in\n    tag_548:\n        /* \"#utility.yul\":24909:24979   */\n      tag_549\n        /* \"#utility.yul\":24972:24978   */\n      dup2\n        /* \"#utility.yul\":24967:24970   */\n      dup6\n        /* \"#utility.yul\":24909:24979   */\n      tag_328\n      jump\t// in\n    tag_549:\n        /* \"#utility.yul\":24902:24979   */\n      swap4\n      pop\n        /* \"#utility.yul\":24988:25053   */\n      tag_550\n        /* \"#utility.yul\":25046:25052   */\n      dup2\n        /* \"#utility.yul\":25041:25044   */\n      dup6\n        /* \"#utility.yul\":25034:25038   */\n      0x20\n        /* \"#utility.yul\":25027:25032   */\n      dup7\n        /* \"#utility.yul\":25023:25039   */\n      add\n        /* \"#utility.yul\":24988:25053   */\n      tag_329\n      jump\t// in\n    tag_550:\n        /* \"#utility.yul\":25078:25107   */\n      tag_551\n        /* \"#utility.yul\":25100:25106   */\n      dup2\n        /* \"#utility.yul\":25078:25107   */\n      tag_278\n      jump\t// in\n    tag_551:\n        /* \"#utility.yul\":25073:25076   */\n      dup5\n        /* \"#utility.yul\":25069:25108   */\n      add\n        /* \"#utility.yul\":25062:25108   */\n      swap2\n      pop\n        /* \"#utility.yul\":24831:25114   */\n      pop\n        /* \"#utility.yul\":24741:25114   */\n      swap3\n      swap2\n      pop\n      pop\n      jump\t// out\n        /* \"#utility.yul\":25120:25649   */\n    tag_254:\n        /* \"#utility.yul\":25287:25291   */\n      0x00\n        /* \"#utility.yul\":25325:25327   */\n      0x60\n        /* \"#utility.yul\":25314:25323   */\n      dup3\n        /* \"#utility.yul\":25310:25328   */\n      add\n        /* \"#utility.yul\":25302:25328   */\n      swap1\n      pop\n        /* \"#utility.yul\":25338:25409   */\n      tag_553\n        /* \"#utility.yul\":25406:25407   */\n      0x00\n        /* \"#utility.yul\":25395:25404   */\n      dup4\n        /* \"#utility.yul\":25391:25408   */\n      add\n        /* \"#utility.yul\":25382:25388   */\n      dup7\n        /* \"#utility.yul\":25338:25409   */\n      tag_276\n      jump\t// in\n    tag_553:\n        /* \"#utility.yul\":25419:25491   */\n      tag_554\n        /* \"#utility.yul\":25487:25489   */\n      0x20\n        /* \"#utility.yul\":25476:25485   */\n      dup4\n        /* \"#utility.yul\":25472:25490   */\n      add\n        /* \"#utility.yul\":25463:25469   */\n      dup6\n        /* \"#utility.yul\":25419:25491   */\n      tag_285\n      jump\t// in\n    tag_554:\n        /* \"#utility.yul\":25538:25547   */\n      dup2\n        /* \"#utility.yul\":25532:25536   */\n      dup2\n        /* \"#utility.yul\":25528:25548   */\n      sub\n        /* \"#utility.yul\":25523:25525   */\n      0x40\n        /* \"#utility.yul\":25512:25521   */\n      dup4\n        /* \"#utility.yul\":25508:25526   */\n      add\n        /* \"#utility.yul\":25501:25549   */\n      mstore\n        /* \"#utility.yul\":25566:25642   */\n      tag_555\n        /* \"#utility.yul\":25637:25641   */\n      dup2\n        /* \"#utility.yul\":25628:25634   */\n      dup5\n        /* \"#utility.yul\":25566:25642   */\n      tag_330\n      jump\t// in\n    tag_555:\n        /* \"#utility.yul\":25558:25642   */\n      swap1\n      pop\n        /* \"#utility.yul\":25120:25649   */\n      swap5\n      swap4\n      pop\n      pop\n      pop\n      pop\n      jump\t// out\n\n    auxdata: 0xa26469706673582212207cba36b266535cc5f61c6e8f4a63a73ed9ff32ddf95874b8d9187fe913eeaea564736f6c634300081a0033\n}\n",
				"bytecode": {
					"linkReferences": {},
					"object": "60c0604052620186a060055f6101000a81548163ffffffff021916908363ffffffff1602179055506003600560046101000a81548161ffff021916908361ffff1602179055506001600560066101000a81548163ffffffff021916908363ffffffff16021790555073779877a7b0d9e8603169ddbd7836e478b46247896005600a6101000a81548173ffffffffffffffffffffffffffffffffffffffff021916908373ffffffffffffffffffffffffffffffffffffffff16021790555073ab18414cd93297b0d12ac29e63ca20f515b3db4660065f6101000a81548173ffffffffffffffffffffffffffffffffffffffff021916908373ffffffffffffffffffffffffffffffffffffffff16021790555034801561011b575f80fd5b5033805f6005600a9054906101000a900473ffffffffffffffffffffffffffffffffffffffff1660065f9054906101000a900473ffffffffffffffffffffffffffffffffffffffff168173ffffffffffffffffffffffffffffffffffffffff1660808173ffffffffffffffffffffffffffffffffffffffff16815250508073ffffffffffffffffffffffffffffffffffffffff1660a08173ffffffffffffffffffffffffffffffffffffffff168152505050505f73ffffffffffffffffffffffffffffffffffffffff168273ffffffffffffffffffffffffffffffffffffffff160361023c576040517f08c379a00000000000000000000000000000000000000000000000000000000081526004016102339061052b565b60405180910390fd5b815f806101000a81548173ffffffffffffffffffffffffffffffffffffffff021916908373ffffffffffffffffffffffffffffffffffffffff1602179055505f73ffffffffffffffffffffffffffffffffffffffff168173ffffffffffffffffffffffffffffffffffffffff16146102be576102bd816103a760201b60201c565b5b50505060016008819055505f600a5f60085481526020019081526020015f2090505f5b60058110156103a0575f60405180604001604052805f73ffffffffffffffffffffffffffffffffffffffff1681526020015f8152509050825f0181908060018154018082558091505060019003905f5260205f2090600202015f909190919091505f820151815f015f6101000a81548173ffffffffffffffffffffffffffffffffffffffff021916908373ffffffffffffffffffffffffffffffffffffffff1602179055506020820151816001015550505080806001019150506102e1565b50506105b1565b3373ffffffffffffffffffffffffffffffffffffffff168173ffffffffffffffffffffffffffffffffffffffff1603610415576040517f08c379a000000000000000000000000000000000000000000000000000000000815260040161040c90610593565b60405180910390fd5b8060015f6101000a81548173ffffffffffffffffffffffffffffffffffffffff021916908373ffffffffffffffffffffffffffffffffffffffff1602179055508073ffffffffffffffffffffffffffffffffffffffff165f8054906101000a900473ffffffffffffffffffffffffffffffffffffffff1673ffffffffffffffffffffffffffffffffffffffff167fed8889f560326eb138920d842192f0eb3dd22b4f139c87a2c57538e05bae127860405160405180910390a350565b5f82825260208201905092915050565b7f43616e6e6f7420736574206f776e657220746f207a65726f00000000000000005f82015250565b5f6105156018836104d1565b9150610520826104e1565b602082019050919050565b5f6020820190508181035f83015261054281610509565b9050919050565b7f43616e6e6f74207472616e7366657220746f2073656c660000000000000000005f82015250565b5f61057d6017836104d1565b915061058882610549565b602082019050919050565b5f6020820190508181035f8301526105aa81610571565b9050919050565b60805160a0516124156105ee5f395f818161041101528181611188015281816114790152818161149a01526115b501525f61143d01526124155ff3fe6080604052600436106100c1575f3560e01c80638a19c8bc1161007e5780638da5cb5b116100585780638da5cb5b146102375780638dc654a214610261578063b688a36314610277578063f2fde38b14610281576100c1565b80638a19c8bc146101a75780638a82c3e9146101d15780638b7afe2e1461020d576100c1565b806318854939146100c55780631fe543e314610101578063289af10c146101295780633ccfd60b146101515780634cdb5d401461016757806379ba509714610191575b5f80fd5b3480156100d0575f80fd5b506100eb60048036038101906100e691906116f3565b6102a9565b6040516100f8919061175d565b60405180910390f35b34801561010c575f80fd5b50610127600480360381019061012291906118c6565b61040f565b005b348015610134575f80fd5b5061014f600480360381019061014a91906116f3565b6104ab565b005b34801561015c575f80fd5b5061016561065f565b005b348015610172575f80fd5b5061017b61083d565b604051610188919061192f565b60405180910390f35b34801561019c575f80fd5b506101a56109e6565b005b3480156101b2575f80fd5b506101bb610b75565b6040516101c8919061192f565b60405180910390f35b3480156101dc575f80fd5b506101f760048036038101906101f291906116f3565b610b7b565b604051610204919061192f565b60405180910390f35b348015610218575f80fd5b50610221610b9b565b60405161022e919061192f565b60405180910390f35b348015610242575f80fd5b5061024b610baa565b604051610258919061175d565b60405180910390f35b34801561026c575f80fd5b50610275610bd1565b005b61027f610d33565b005b34801561028c575f80fd5b506102a760048036038101906102a29190611972565b610fe1565b005b5f8082116102ec576040517f08c379a00000000000000000000000000000000000000000000000000000000081526004016102e3906119f7565b60405180910390fd5b6008548210610330576040517f08c379a000000000000000000000000000000000000000000000000000000000815260040161032790611a85565b60405180910390fd5b5f60095f8481526020019081526020015f205490505f60025f8381526020019081526020015f209050806001015f9054906101000a900460ff1615610404575f816002015f8154811061038657610385611aa3565b5b905f5260205f20015490505f60058261039f9190611afd565b90505f600a5f8881526020019081526020015f209050805f0182815481106103ca576103c9611aa3565b5b905f5260205f2090600202015f015f9054906101000a900473ffffffffffffffffffffffffffffffffffffffff169550505050505061040a565b5f925050505b919050565b7f000000000000000000000000000000000000000000000000000000000000000073ffffffffffffffffffffffffffffffffffffffff163373ffffffffffffffffffffffffffffffffffffffff161461049d576040517f08c379a000000000000000000000000000000000000000000000000000000000815260040161049490611b77565b60405180910390fd5b6104a78282610ff5565b5050565b5f6104b5826102a9565b90505f73ffffffffffffffffffffffffffffffffffffffff168173ffffffffffffffffffffffffffffffffffffffff1603610525576040517f08c379a000000000000000000000000000000000000000000000000000000000815260040161051c90611c05565b60405180910390fd5b3373ffffffffffffffffffffffffffffffffffffffff168173ffffffffffffffffffffffffffffffffffffffff1614610593576040517f08c379a000000000000000000000000000000000000000000000000000000000815260040161058a90611c6d565b60405180910390fd5b5f600a5f8481526020019081526020015f2090505f805b60058110156105f257825f0181815481106105c8576105c7611aa3565b5b905f5260205f20906002020160010154826105e39190611cb8565b915080806001019150506105aa565b505f3390505f600a6009846106079190611ceb565b6106119190611d2c565b90508173ffffffffffffffffffffffffffffffffffffffff166108fc8290811502906040515f60405180830381858888f19350505050158015610656573d5f803e3d5ffd5b50505050505050565b5f600a5f60085481526020019081526020015f2090505f5b6005811015610838573373ffffffffffffffffffffffffffffffffffffffff16825f0182815481106106ac576106ab611aa3565b5b905f5260205f2090600202015f015f9054906101000a900473ffffffffffffffffffffffffffffffffffffffff1673ffffffffffffffffffffffffffffffffffffffff160361082b575f60056004845f01848154811061070f5761070e611aa3565b5b905f5260205f209060020201600101546107299190611ceb565b6107339190611d2c565b90505f3390505f845f01848154811061074f5761074e611aa3565b5b905f5260205f2090600202015f015f6101000a81548173ffffffffffffffffffffffffffffffffffffffff021916908373ffffffffffffffffffffffffffffffffffffffff1602179055505f845f0184815481106107b0576107af611aa3565b5b905f5260205f209060020201600101819055506001846001015f8282546107d79190611d5c565b925050819055508073ffffffffffffffffffffffffffffffffffffffff166108fc8390811502906040515f60405180830381858888f19350505050158015610821573d5f803e3d5ffd5b505050505061083b565b8080600101915050610677565b50505b565b5f6108466110a3565b5f600a5f60085481526020019081526020015f20905060058160010154146108a3576040517f08c379a000000000000000000000000000000000000000000000000000000000815260040161089a90611dff565b60405180910390fd5b5f6108ac611132565b90508060095f60085481526020019081526020015f20819055506007600854908060018154018082558091505060019003905f5260205f20015f9091909190915055600160085f8282546109009190611cb8565b92505081905550600a5f60085481526020019081526020015f2091505f5b60058110156109dd575f60405180604001604052805f73ffffffffffffffffffffffffffffffffffffffff1681526020015f8152509050835f0181908060018154018082558091505060019003905f5260205f2090600202015f909190919091505f820151815f015f6101000a81548173ffffffffffffffffffffffffffffffffffffffff021916908373ffffffffffffffffffffffffffffffffffffffff16021790555060208201518160010155505050808060010191505061091e565b50809250505090565b60015f9054906101000a900473ffffffffffffffffffffffffffffffffffffffff1673ffffffffffffffffffffffffffffffffffffffff163373ffffffffffffffffffffffffffffffffffffffff1614610a75576040517f08c379a0000000000000000000000000000000000000000000000000000000008152600401610a6c90611e67565b60405180910390fd5b5f805f9054906101000a900473ffffffffffffffffffffffffffffffffffffffff169050335f806101000a81548173ffffffffffffffffffffffffffffffffffffffff021916908373ffffffffffffffffffffffffffffffffffffffff1602179055505f60015f6101000a81548173ffffffffffffffffffffffffffffffffffffffff021916908373ffffffffffffffffffffffffffffffffffffffff1602179055503373ffffffffffffffffffffffffffffffffffffffff168173ffffffffffffffffffffffffffffffffffffffff167f8be0079c531659141344cd1fd0a4f28419497f9722a3daafe3b4186f6b6457e060405160405180910390a350565b60085481565b60078181548110610b8a575f80fd5b905f5260205f20015f915090505481565b5f610ba46110a3565b47905090565b5f805f9054906101000a900473ffffffffffffffffffffffffffffffffffffffff16905090565b610bd96110a3565b5f6005600a9054906101000a900473ffffffffffffffffffffffffffffffffffffffff1690508073ffffffffffffffffffffffffffffffffffffffff1663a9059cbb338373ffffffffffffffffffffffffffffffffffffffff166370a08231306040518263ffffffff1660e01b8152600401610c55919061175d565b602060405180830381865afa158015610c70573d5f803e3d5ffd5b505050506040513d601f19601f82011682018060405250810190610c949190611e99565b6040518363ffffffff1660e01b8152600401610cb1929190611ec4565b6020604051808303815f875af1158015610ccd573d5f803e3d5ffd5b505050506040513d601f19601f82011682018060405250810190610cf19190611f20565b610d30576040517f08c379a0000000000000000000000000000000000000000000000000000000008152600401610d2790611f95565b60405180910390fd5b50565b5f600a5f60085481526020019081526020015f2090506005816001015410610d90576040517f08c379a0000000000000000000000000000000000000000000000000000000008152600401610d8790612049565b60405180910390fd5b5f5b6005811015610e5857815f018181548110610db057610daf611aa3565b5b905f5260205f2090600202015f015f9054906101000a900473ffffffffffffffffffffffffffffffffffffffff1673ffffffffffffffffffffffffffffffffffffffff163373ffffffffffffffffffffffffffffffffffffffff1603610e4b576040517f08c379a0000000000000000000000000000000000000000000000000000000008152600401610e42906120d7565b60405180910390fd5b8080600101915050610d92565b5066038d7ea4c68000341015610ea3576040517f08c379a0000000000000000000000000000000000000000000000000000000008152600401610e9a90612165565b60405180910390fd5b5f5b6005811015610fdc575f73ffffffffffffffffffffffffffffffffffffffff16825f018281548110610eda57610ed9611aa3565b5b905f5260205f2090600202015f015f9054906101000a900473ffffffffffffffffffffffffffffffffffffffff1673ffffffffffffffffffffffffffffffffffffffff1603610fcf5733825f018281548110610f3957610f38611aa3565b5b905f5260205f2090600202015f015f6101000a81548173ffffffffffffffffffffffffffffffffffffffff021916908373ffffffffffffffffffffffffffffffffffffffff16021790555034825f018281548110610f9a57610f99611aa3565b5b905f5260205f209060020201600101819055506001826001015f828254610fc19190611cb8565b925050819055505050610fdf565b8080600101915050610ea5565b50505b565b610fe96110a3565b610ff281611310565b50565b5f60025f8481526020019081526020015f205f01541161104a576040517f08c379a0000000000000000000000000000000000000000000000000000000008152600401611041906121cd565b60405180910390fd5b600160025f8481526020019081526020015f206001015f6101000a81548160ff0219169083151502179055508060025f8481526020019081526020015f20600201908051906020019061109e929190611649565b505050565b5f8054906101000a900473ffffffffffffffffffffffffffffffffffffffff1673ffffffffffffffffffffffffffffffffffffffff163373ffffffffffffffffffffffffffffffffffffffff1614611130576040517f08c379a000000000000000000000000000000000000000000000000000000000815260040161112790612235565b60405180910390fd5b565b5f61113b6110a3565b61117960055f9054906101000a900463ffffffff16600560049054906101000a900461ffff16600560069054906101000a900463ffffffff1661143a565b905060405180606001604052807f000000000000000000000000000000000000000000000000000000000000000073ffffffffffffffffffffffffffffffffffffffff16634306d35460055f9054906101000a900463ffffffff166040518263ffffffff1660e01b81526004016111f09190612271565b602060405180830381865afa15801561120b573d5f803e3d5ffd5b505050506040513d601f19601f8201168201806040525081019061122f9190611e99565b81526020015f151581526020015f67ffffffffffffffff8111156112565761125561178a565b5b6040519080825280602002602001820160405280156112845781602001602082028036833780820191505090505b5081525060025f8381526020019081526020015f205f820151815f01556020820151816001015f6101000a81548160ff02191690831515021790555060408201518160020190805190602001906112dc929190611649565b50905050600381908060018154018082558091505060019003905f5260205f20015f90919091909150558060048190555090565b3373ffffffffffffffffffffffffffffffffffffffff168173ffffffffffffffffffffffffffffffffffffffff160361137e576040517f08c379a0000000000000000000000000000000000000000000000000000000008152600401611375906122d4565b60405180910390fd5b8060015f6101000a81548173ffffffffffffffffffffffffffffffffffffffff021916908373ffffffffffffffffffffffffffffffffffffffff1602179055508073ffffffffffffffffffffffffffffffffffffffff165f8054906101000a900473ffffffffffffffffffffffffffffffffffffffff1673ffffffffffffffffffffffffffffffffffffffff167fed8889f560326eb138920d842192f0eb3dd22b4f139c87a2c57538e05bae127860405160405180910390a350565b5f7f000000000000000000000000000000000000000000000000000000000000000073ffffffffffffffffffffffffffffffffffffffff16634000aea07f00000000000000000000000000000000000000000000000000000000000000007f000000000000000000000000000000000000000000000000000000000000000073ffffffffffffffffffffffffffffffffffffffff16634306d354886040518263ffffffff1660e01b81526004016114f19190612271565b602060405180830381865afa15801561150c573d5f803e3d5ffd5b505050506040513d601f19601f820116820180604052508101906115309190611e99565b8787876040516020016115459392919061230e565b6040516020818303038152906040526040518463ffffffff1660e01b8152600401611572939291906123a3565b6020604051808303815f875af115801561158e573d5f803e3d5ffd5b505050506040513d601f19601f820116820180604052508101906115b29190611f20565b507f000000000000000000000000000000000000000000000000000000000000000073ffffffffffffffffffffffffffffffffffffffff1663fc2a88c36040518163ffffffff1660e01b8152600401602060405180830381865afa15801561161c573d5f803e3d5ffd5b505050506040513d601f19601f820116820180604052508101906116409190611e99565b90509392505050565b828054828255905f5260205f20908101928215611683579160200282015b82811115611682578251825591602001919060010190611667565b5b5090506116909190611694565b5090565b5b808211156116ab575f815f905550600101611695565b5090565b5f604051905090565b5f80fd5b5f80fd5b5f819050919050565b6116d2816116c0565b81146116dc575f80fd5b50565b5f813590506116ed816116c9565b92915050565b5f60208284031215611708576117076116b8565b5b5f611715848285016116df565b91505092915050565b5f73ffffffffffffffffffffffffffffffffffffffff82169050919050565b5f6117478261171e565b9050919050565b6117578161173d565b82525050565b5f6020820190506117705f83018461174e565b92915050565b5f80fd5b5f601f19601f8301169050919050565b7f4e487b71000000000000000000000000000000000000000000000000000000005f52604160045260245ffd5b6117c08261177a565b810181811067ffffffffffffffff821117156117df576117de61178a565b5b80604052505050565b5f6117f16116af565b90506117fd82826117b7565b919050565b5f67ffffffffffffffff82111561181c5761181b61178a565b5b602082029050602081019050919050565b5f80fd5b5f61184361183e84611802565b6117e8565b905080838252602082019050602084028301858111156118665761186561182d565b5b835b8181101561188f578061187b88826116df565b845260208401935050602081019050611868565b5050509392505050565b5f82601f8301126118ad576118ac611776565b5b81356118bd848260208601611831565b91505092915050565b5f80604083850312156118dc576118db6116b8565b5b5f6118e9858286016116df565b925050602083013567ffffffffffffffff81111561190a576119096116bc565b5b61191685828601611899565b9150509250929050565b611929816116c0565b82525050565b5f6020820190506119425f830184611920565b92915050565b6119518161173d565b811461195b575f80fd5b50565b5f8135905061196c81611948565b92915050565b5f60208284031215611987576119866116b8565b5b5f6119948482850161195e565b91505092915050565b5f82825260208201905092915050565b7f726f756e64206d7573742062652067726561746572207468616e2030000000005f82015250565b5f6119e1601c8361199d565b91506119ec826119ad565b602082019050919050565b5f6020820190508181035f830152611a0e816119d5565b9050919050565b7f726f756e64206d757374206265206c657373207468616e2074686520637572725f8201527f656e7420726f756e640000000000000000000000000000000000000000000000602082015250565b5f611a6f60298361199d565b9150611a7a82611a15565b604082019050919050565b5f6020820190508181035f830152611a9c81611a63565b9050919050565b7f4e487b71000000000000000000000000000000000000000000000000000000005f52603260045260245ffd5b7f4e487b71000000000000000000000000000000000000000000000000000000005f52601260045260245ffd5b5f611b07826116c0565b9150611b12836116c0565b925082611b2257611b21611ad0565b5b828206905092915050565b7f6f6e6c792056524620563220777261707065722063616e2066756c66696c6c005f82015250565b5f611b61601f8361199d565b9150611b6c82611b2d565b602082019050919050565b5f6020820190508181035f830152611b8e81611b55565b9050919050565b7f57696e6e6572206973206e6f7420796574206465636964656420666f722074685f8201527f6520647261770000000000000000000000000000000000000000000000000000602082015250565b5f611bef60268361199d565b9150611bfa82611b95565b604082019050919050565b5f6020820190508181035f830152611c1c81611be3565b9050919050565b7f596f7520617265206e6f74207468652077696e6e6572000000000000000000005f82015250565b5f611c5760168361199d565b9150611c6282611c23565b602082019050919050565b5f6020820190508181035f830152611c8481611c4b565b9050919050565b7f4e487b71000000000000000000000000000000000000000000000000000000005f52601160045260245ffd5b5f611cc2826116c0565b9150611ccd836116c0565b9250828201905080821115611ce557611ce4611c8b565b5b92915050565b5f611cf5826116c0565b9150611d00836116c0565b9250828202611d0e816116c0565b91508282048414831517611d2557611d24611c8b565b5b5092915050565b5f611d36826116c0565b9150611d41836116c0565b925082611d5157611d50611ad0565b5b828204905092915050565b5f611d66826116c0565b9150611d71836116c0565b9250828203905081811115611d8957611d88611c8b565b5b92915050565b7f4e756d626572206f66206d656d62657273206d7573742062652035206265666f5f8201527f726520647261772063616e20626520706572666f726d65640000000000000000602082015250565b5f611de960388361199d565b9150611df482611d8f565b604082019050919050565b5f6020820190508181035f830152611e1681611ddd565b9050919050565b7f4d7573742062652070726f706f736564206f776e6572000000000000000000005f82015250565b5f611e5160168361199d565b9150611e5c82611e1d565b602082019050919050565b5f6020820190508181035f830152611e7e81611e45565b9050919050565b5f81519050611e93816116c9565b92915050565b5f60208284031215611eae57611ead6116b8565b5b5f611ebb84828501611e85565b91505092915050565b5f604082019050611ed75f83018561174e565b611ee46020830184611920565b9392505050565b5f8115159050919050565b611eff81611eeb565b8114611f09575f80fd5b50565b5f81519050611f1a81611ef6565b92915050565b5f60208284031215611f3557611f346116b8565b5b5f611f4284828501611f0c565b91505092915050565b7f556e61626c6520746f207472616e7366657200000000000000000000000000005f82015250565b5f611f7f60128361199d565b9150611f8a82611f4b565b602082019050919050565b5f6020820190508181035f830152611fac81611f73565b9050919050565b7f4e756d626572206f66206d656d626572732061726520616c726561647920352e5f8201527f20506c656173652074727920746f206a6f696e20696e206e65787420726f756e60208201527f6400000000000000000000000000000000000000000000000000000000000000604082015250565b5f61203360418361199d565b915061203e82611fb3565b606082019050919050565b5f6020820190508181035f83015261206081612027565b9050919050565b7f596f75206861766520616c7265616479207265676973746572656420666f72205f8201527f7468697320726f756e6400000000000000000000000000000000000000000000602082015250565b5f6120c1602a8361199d565b91506120cc82612067565b604082019050919050565b5f6020820190508181035f8301526120ee816120b5565b9050919050565b7f596f75206d75737420696e76657374206174206c6561737420302e30303120455f8201527f544820696e20746865206c6f747465727920726f756e64000000000000000000602082015250565b5f61214f60378361199d565b915061215a826120f5565b604082019050919050565b5f6020820190508181035f83015261217c81612143565b9050919050565b7f72657175657374206e6f7420666f756e640000000000000000000000000000005f82015250565b5f6121b760118361199d565b91506121c282612183565b602082019050919050565b5f6020820190508181035f8301526121e4816121ab565b9050919050565b7f4f6e6c792063616c6c61626c65206279206f776e6572000000000000000000005f82015250565b5f61221f60168361199d565b915061222a826121eb565b602082019050919050565b5f6020820190508181035f83015261224c81612213565b9050919050565b5f63ffffffff82169050919050565b61226b81612253565b82525050565b5f6020820190506122845f830184612262565b92915050565b7f43616e6e6f74207472616e7366657220746f2073656c660000000000000000005f82015250565b5f6122be60178361199d565b91506122c98261228a565b602082019050919050565b5f6020820190508181035f8301526122eb816122b2565b9050919050565b5f61ffff82169050919050565b612308816122f2565b82525050565b5f6060820190506123215f830186612262565b61232e60208301856122ff565b61233b6040830184612262565b949350505050565b5f81519050919050565b5f82825260208201905092915050565b8281835e5f83830152505050565b5f61237582612343565b61237f818561234d565b935061238f81856020860161235d565b6123988161177a565b840191505092915050565b5f6060820190506123b65f83018661174e565b6123c36020830185611920565b81810360408301526123d5818461236b565b905094935050505056fea26469706673582212207cba36b266535cc5f61c6e8f4a63a73ed9ff32ddf95874b8d9187fe913eeaea564736f6c634300081a0033",
					"opcodes": "PUSH1 0xC0 PUSH1 0x40 MSTORE PUSH3 0x186A0 PUSH1 0x5 PUSH0 PUSH2 0x100 EXP DUP2 SLOAD DUP2 PUSH4 0xFFFFFFFF MUL NOT AND SWAP1 DUP4 PUSH4 0xFFFFFFFF AND MUL OR SWAP1 SSTORE POP PUSH1 0x3 PUSH1 0x5 PUSH1 0x4 PUSH2 0x100 EXP DUP2 SLOAD DUP2 PUSH2 0xFFFF MUL NOT AND SWAP1 DUP4 PUSH2 0xFFFF AND MUL OR SWAP1 SSTORE POP PUSH1 0x1 PUSH1 0x5 PUSH1 0x6 PUSH2 0x100 EXP DUP2 SLOAD DUP2 PUSH4 0xFFFFFFFF MUL NOT AND SWAP1 DUP4 PUSH4 0xFFFFFFFF AND MUL OR SWAP1 SSTORE POP PUSH20 0x779877A7B0D9E8603169DDBD7836E478B4624789 PUSH1 0x5 PUSH1 0xA PUSH2 0x100 EXP DUP2 SLOAD DUP2 PUSH20 0xFFFFFFFFFFFFFFFFFFFFFFFFFFFFFFFFFFFFFFFF MUL NOT AND SWAP1 DUP4 PUSH20 0xFFFFFFFFFFFFFFFFFFFFFFFFFFFFFFFFFFFFFFFF AND MUL OR SWAP1 SSTORE POP PUSH20 0xAB18414CD93297B0D12AC29E63CA20F515B3DB46 PUSH1 0x6 PUSH0 PUSH2 0x100 EXP DUP2 SLOAD DUP2 PUSH20 0xFFFFFFFFFFFFFFFFFFFFFFFFFFFFFFFFFFFFFFFF MUL NOT AND SWAP1 DUP4 PUSH20 0xFFFFFFFFFFFFFFFFFFFFFFFFFFFFFFFFFFFFFFFF AND MUL OR SWAP1 SSTORE POP CALLVALUE DUP1 ISZERO PUSH2 0x11B JUMPI PUSH0 DUP1 REVERT JUMPDEST POP CALLER DUP1 PUSH0 PUSH1 0x5 PUSH1 0xA SWAP1 SLOAD SWAP1 PUSH2 0x100 EXP SWAP1 DIV PUSH20 0xFFFFFFFFFFFFFFFFFFFFFFFFFFFFFFFFFFFFFFFF AND PUSH1 0x6 PUSH0 SWAP1 SLOAD SWAP1 PUSH2 0x100 EXP SWAP1 DIV PUSH20 0xFFFFFFFFFFFFFFFFFFFFFFFFFFFFFFFFFFFFFFFF AND DUP2 PUSH20 0xFFFFFFFFFFFFFFFFFFFFFFFFFFFFFFFFFFFFFFFF AND PUSH1 0x80 DUP2 PUSH20 0xFFFFFFFFFFFFFFFFFFFFFFFFFFFFFFFFFFFFFFFF AND DUP2 MSTORE POP POP DUP1 PUSH20 0xFFFFFFFFFFFFFFFFFFFFFFFFFFFFFFFFFFFFFFFF AND PUSH1 0xA0 DUP2 PUSH20 0xFFFFFFFFFFFFFFFFFFFFFFFFFFFFFFFFFFFFFFFF AND DUP2 MSTORE POP POP POP POP PUSH0 PUSH20 0xFFFFFFFFFFFFFFFFFFFFFFFFFFFFFFFFFFFFFFFF AND DUP3 PUSH20 0xFFFFFFFFFFFFFFFFFFFFFFFFFFFFFFFFFFFFFFFF AND SUB PUSH2 0x23C JUMPI PUSH1 0x40 MLOAD PUSH32 0x8C379A000000000000000000000000000000000000000000000000000000000 DUP2 MSTORE PUSH1 0x4 ADD PUSH2 0x233 SWAP1 PUSH2 0x52B JUMP JUMPDEST PUSH1 0x40 MLOAD DUP1 SWAP2 SUB SWAP1 REVERT JUMPDEST DUP2 PUSH0 DUP1 PUSH2 0x100 EXP DUP2 SLOAD DUP2 PUSH20 0xFFFFFFFFFFFFFFFFFFFFFFFFFFFFFFFFFFFFFFFF MUL NOT AND SWAP1 DUP4 PUSH20 0xFFFFFFFFFFFFFFFFFFFFFFFFFFFFFFFFFFFFFFFF AND MUL OR SWAP1 SSTORE POP PUSH0 PUSH20 0xFFFFFFFFFFFFFFFFFFFFFFFFFFFFFFFFFFFFFFFF AND DUP2 PUSH20 0xFFFFFFFFFFFFFFFFFFFFFFFFFFFFFFFFFFFFFFFF AND EQ PUSH2 0x2BE JUMPI PUSH2 0x2BD DUP2 PUSH2 0x3A7 PUSH1 0x20 SHL PUSH1 0x20 SHR JUMP JUMPDEST JUMPDEST POP POP POP PUSH1 0x1 PUSH1 0x8 DUP2 SWAP1 SSTORE POP PUSH0 PUSH1 0xA PUSH0 PUSH1 0x8 SLOAD DUP2 MSTORE PUSH1 0x20 ADD SWAP1 DUP2 MSTORE PUSH1 0x20 ADD PUSH0 KECCAK256 SWAP1 POP PUSH0 JUMPDEST PUSH1 0x5 DUP2 LT ISZERO PUSH2 0x3A0 JUMPI PUSH0 PUSH1 0x40 MLOAD DUP1 PUSH1 0x40 ADD PUSH1 0x40 MSTORE DUP1 PUSH0 PUSH20 0xFFFFFFFFFFFFFFFFFFFFFFFFFFFFFFFFFFFFFFFF AND DUP2 MSTORE PUSH1 0x20 ADD PUSH0 DUP2 MSTORE POP SWAP1 POP DUP3 PUSH0 ADD DUP2 SWAP1 DUP1 PUSH1 0x1 DUP2 SLOAD ADD DUP1 DUP3 SSTORE DUP1 SWAP2 POP POP PUSH1 0x1 SWAP1 SUB SWAP1 PUSH0 MSTORE PUSH1 0x20 PUSH0 KECCAK256 SWAP1 PUSH1 0x2 MUL ADD PUSH0 SWAP1 SWAP2 SWAP1 SWAP2 SWAP1 SWAP2 POP PUSH0 DUP3 ADD MLOAD DUP2 PUSH0 ADD PUSH0 PUSH2 0x100 EXP DUP2 SLOAD DUP2 PUSH20 0xFFFFFFFFFFFFFFFFFFFFFFFFFFFFFFFFFFFFFFFF MUL NOT AND SWAP1 DUP4 PUSH20 0xFFFFFFFFFFFFFFFFFFFFFFFFFFFFFFFFFFFFFFFF AND MUL OR SWAP1 SSTORE POP PUSH1 0x20 DUP3 ADD MLOAD DUP2 PUSH1 0x1 ADD SSTORE POP POP POP DUP1 DUP1 PUSH1 0x1 ADD SWAP2 POP POP PUSH2 0x2E1 JUMP JUMPDEST POP POP PUSH2 0x5B1 JUMP JUMPDEST CALLER PUSH20 0xFFFFFFFFFFFFFFFFFFFFFFFFFFFFFFFFFFFFFFFF AND DUP2 PUSH20 0xFFFFFFFFFFFFFFFFFFFFFFFFFFFFFFFFFFFFFFFF AND SUB PUSH2 0x415 JUMPI PUSH1 0x40 MLOAD PUSH32 0x8C379A000000000000000000000000000000000000000000000000000000000 DUP2 MSTORE PUSH1 0x4 ADD PUSH2 0x40C SWAP1 PUSH2 0x593 JUMP JUMPDEST PUSH1 0x40 MLOAD DUP1 SWAP2 SUB SWAP1 REVERT JUMPDEST DUP1 PUSH1 0x1 PUSH0 PUSH2 0x100 EXP DUP2 SLOAD DUP2 PUSH20 0xFFFFFFFFFFFFFFFFFFFFFFFFFFFFFFFFFFFFFFFF MUL NOT AND SWAP1 DUP4 PUSH20 0xFFFFFFFFFFFFFFFFFFFFFFFFFFFFFFFFFFFFFFFF AND MUL OR SWAP1 SSTORE POP DUP1 PUSH20 0xFFFFFFFFFFFFFFFFFFFFFFFFFFFFFFFFFFFFFFFF AND PUSH0 DUP1 SLOAD SWAP1 PUSH2 0x100 EXP SWAP1 DIV PUSH20 0xFFFFFFFFFFFFFFFFFFFFFFFFFFFFFFFFFFFFFFFF AND PUSH20 0xFFFFFFFFFFFFFFFFFFFFFFFFFFFFFFFFFFFFFFFF AND PUSH32 0xED8889F560326EB138920D842192F0EB3DD22B4F139C87A2C57538E05BAE1278 PUSH1 0x40 MLOAD PUSH1 0x40 MLOAD DUP1 SWAP2 SUB SWAP1 LOG3 POP JUMP JUMPDEST PUSH0 DUP3 DUP3 MSTORE PUSH1 0x20 DUP3 ADD SWAP1 POP SWAP3 SWAP2 POP POP JUMP JUMPDEST PUSH32 0x43616E6E6F7420736574206F776E657220746F207A65726F0000000000000000 PUSH0 DUP3 ADD MSTORE POP JUMP JUMPDEST PUSH0 PUSH2 0x515 PUSH1 0x18 DUP4 PUSH2 0x4D1 JUMP JUMPDEST SWAP2 POP PUSH2 0x520 DUP3 PUSH2 0x4E1 JUMP JUMPDEST PUSH1 0x20 DUP3 ADD SWAP1 POP SWAP2 SWAP1 POP JUMP JUMPDEST PUSH0 PUSH1 0x20 DUP3 ADD SWAP1 POP DUP2 DUP2 SUB PUSH0 DUP4 ADD MSTORE PUSH2 0x542 DUP2 PUSH2 0x509 JUMP JUMPDEST SWAP1 POP SWAP2 SWAP1 POP JUMP JUMPDEST PUSH32 0x43616E6E6F74207472616E7366657220746F2073656C66000000000000000000 PUSH0 DUP3 ADD MSTORE POP JUMP JUMPDEST PUSH0 PUSH2 0x57D PUSH1 0x17 DUP4 PUSH2 0x4D1 JUMP JUMPDEST SWAP2 POP PUSH2 0x588 DUP3 PUSH2 0x549 JUMP JUMPDEST PUSH1 0x20 DUP3 ADD SWAP1 POP SWAP2 SWAP1 POP JUMP JUMPDEST PUSH0 PUSH1 0x20 DUP3 ADD SWAP1 POP DUP2 DUP2 SUB PUSH0 DUP4 ADD MSTORE PUSH2 0x5AA DUP2 PUSH2 0x571 JUMP JUMPDEST SWAP1 POP SWAP2 SWAP1 POP JUMP JUMPDEST PUSH1 0x80 MLOAD PUSH1 0xA0 MLOAD PUSH2 0x2415 PUSH2 0x5EE PUSH0 CODECOPY PUSH0 DUP2 DUP2 PUSH2 0x411 ADD MSTORE DUP2 DUP2 PUSH2 0x1188 ADD MSTORE DUP2 DUP2 PUSH2 0x1479 ADD MSTORE DUP2 DUP2 PUSH2 0x149A ADD MSTORE PUSH2 0x15B5 ADD MSTORE PUSH0 PUSH2 0x143D ADD MSTORE PUSH2 0x2415 PUSH0 RETURN INVALID PUSH1 0x80 PUSH1 0x40 MSTORE PUSH1 0x4 CALLDATASIZE LT PUSH2 0xC1 JUMPI PUSH0 CALLDATALOAD PUSH1 0xE0 SHR DUP1 PUSH4 0x8A19C8BC GT PUSH2 0x7E JUMPI DUP1 PUSH4 0x8DA5CB5B GT PUSH2 0x58 JUMPI DUP1 PUSH4 0x8DA5CB5B EQ PUSH2 0x237 JUMPI DUP1 PUSH4 0x8DC654A2 EQ PUSH2 0x261 JUMPI DUP1 PUSH4 0xB688A363 EQ PUSH2 0x277 JUMPI DUP1 PUSH4 0xF2FDE38B EQ PUSH2 0x281 JUMPI PUSH2 0xC1 JUMP JUMPDEST DUP1 PUSH4 0x8A19C8BC EQ PUSH2 0x1A7 JUMPI DUP1 PUSH4 0x8A82C3E9 EQ PUSH2 0x1D1 JUMPI DUP1 PUSH4 0x8B7AFE2E EQ PUSH2 0x20D JUMPI PUSH2 0xC1 JUMP JUMPDEST DUP1 PUSH4 0x18854939 EQ PUSH2 0xC5 JUMPI DUP1 PUSH4 0x1FE543E3 EQ PUSH2 0x101 JUMPI DUP1 PUSH4 0x289AF10C EQ PUSH2 0x129 JUMPI DUP1 PUSH4 0x3CCFD60B EQ PUSH2 0x151 JUMPI DUP1 PUSH4 0x4CDB5D40 EQ PUSH2 0x167 JUMPI DUP1 PUSH4 0x79BA5097 EQ PUSH2 0x191 JUMPI JUMPDEST PUSH0 DUP1 REVERT JUMPDEST CALLVALUE DUP1 ISZERO PUSH2 0xD0 JUMPI PUSH0 DUP1 REVERT JUMPDEST POP PUSH2 0xEB PUSH1 0x4 DUP1 CALLDATASIZE SUB DUP2 ADD SWAP1 PUSH2 0xE6 SWAP2 SWAP1 PUSH2 0x16F3 JUMP JUMPDEST PUSH2 0x2A9 JUMP JUMPDEST PUSH1 0x40 MLOAD PUSH2 0xF8 SWAP2 SWAP1 PUSH2 0x175D JUMP JUMPDEST PUSH1 0x40 MLOAD DUP1 SWAP2 SUB SWAP1 RETURN JUMPDEST CALLVALUE DUP1 ISZERO PUSH2 0x10C JUMPI PUSH0 DUP1 REVERT JUMPDEST POP PUSH2 0x127 PUSH1 0x4 DUP1 CALLDATASIZE SUB DUP2 ADD SWAP1 PUSH2 0x122 SWAP2 SWAP1 PUSH2 0x18C6 JUMP JUMPDEST PUSH2 0x40F JUMP JUMPDEST STOP JUMPDEST CALLVALUE DUP1 ISZERO PUSH2 0x134 JUMPI PUSH0 DUP1 REVERT JUMPDEST POP PUSH2 0x14F PUSH1 0x4 DUP1 CALLDATASIZE SUB DUP2 ADD SWAP1 PUSH2 0x14A SWAP2 SWAP1 PUSH2 0x16F3 JUMP JUMPDEST PUSH2 0x4AB JUMP JUMPDEST STOP JUMPDEST CALLVALUE DUP1 ISZERO PUSH2 0x15C JUMPI PUSH0 DUP1 REVERT JUMPDEST POP PUSH2 0x165 PUSH2 0x65F JUMP JUMPDEST STOP JUMPDEST CALLVALUE DUP1 ISZERO PUSH2 0x172 JUMPI PUSH0 DUP1 REVERT JUMPDEST POP PUSH2 0x17B PUSH2 0x83D JUMP JUMPDEST PUSH1 0x40 MLOAD PUSH2 0x188 SWAP2 SWAP1 PUSH2 0x192F JUMP JUMPDEST PUSH1 0x40 MLOAD DUP1 SWAP2 SUB SWAP1 RETURN JUMPDEST CALLVALUE DUP1 ISZERO PUSH2 0x19C JUMPI PUSH0 DUP1 REVERT JUMPDEST POP PUSH2 0x1A5 PUSH2 0x9E6 JUMP JUMPDEST STOP JUMPDEST CALLVALUE DUP1 ISZERO PUSH2 0x1B2 JUMPI PUSH0 DUP1 REVERT JUMPDEST POP PUSH2 0x1BB PUSH2 0xB75 JUMP JUMPDEST PUSH1 0x40 MLOAD PUSH2 0x1C8 SWAP2 SWAP1 PUSH2 0x192F JUMP JUMPDEST PUSH1 0x40 MLOAD DUP1 SWAP2 SUB SWAP1 RETURN JUMPDEST CALLVALUE DUP1 ISZERO PUSH2 0x1DC JUMPI PUSH0 DUP1 REVERT JUMPDEST POP PUSH2 0x1F7 PUSH1 0x4 DUP1 CALLDATASIZE SUB DUP2 ADD SWAP1 PUSH2 0x1F2 SWAP2 SWAP1 PUSH2 0x16F3 JUMP JUMPDEST PUSH2 0xB7B JUMP JUMPDEST PUSH1 0x40 MLOAD PUSH2 0x204 SWAP2 SWAP1 PUSH2 0x192F JUMP JUMPDEST PUSH1 0x40 MLOAD DUP1 SWAP2 SUB SWAP1 RETURN JUMPDEST CALLVALUE DUP1 ISZERO PUSH2 0x218 JUMPI PUSH0 DUP1 REVERT JUMPDEST POP PUSH2 0x221 PUSH2 0xB9B JUMP JUMPDEST PUSH1 0x40 MLOAD PUSH2 0x22E SWAP2 SWAP1 PUSH2 0x192F JUMP JUMPDEST PUSH1 0x40 MLOAD DUP1 SWAP2 SUB SWAP1 RETURN JUMPDEST CALLVALUE DUP1 ISZERO PUSH2 0x242 JUMPI PUSH0 DUP1 REVERT JUMPDEST POP PUSH2 0x24B PUSH2 0xBAA JUMP JUMPDEST PUSH1 0x40 MLOAD PUSH2 0x258 SWAP2 SWAP1 PUSH2 0x175D JUMP JUMPDEST PUSH1 0x40 MLOAD DUP1 SWAP2 SUB SWAP1 RETURN JUMPDEST CALLVALUE DUP1 ISZERO PUSH2 0x26C JUMPI PUSH0 DUP1 REVERT JUMPDEST POP PUSH2 0x275 PUSH2 0xBD1 JUMP JUMPDEST STOP JUMPDEST PUSH2 0x27F PUSH2 0xD33 JUMP JUMPDEST STOP JUMPDEST CALLVALUE DUP1 ISZERO PUSH2 0x28C JUMPI PUSH0 DUP1 REVERT JUMPDEST POP PUSH2 0x2A7 PUSH1 0x4 DUP1 CALLDATASIZE SUB DUP2 ADD SWAP1 PUSH2 0x2A2 SWAP2 SWAP1 PUSH2 0x1972 JUMP JUMPDEST PUSH2 0xFE1 JUMP JUMPDEST STOP JUMPDEST PUSH0 DUP1 DUP3 GT PUSH2 0x2EC JUMPI PUSH1 0x40 MLOAD PUSH32 0x8C379A000000000000000000000000000000000000000000000000000000000 DUP2 MSTORE PUSH1 0x4 ADD PUSH2 0x2E3 SWAP1 PUSH2 0x19F7 JUMP JUMPDEST PUSH1 0x40 MLOAD DUP1 SWAP2 SUB SWAP1 REVERT JUMPDEST PUSH1 0x8 SLOAD DUP3 LT PUSH2 0x330 JUMPI PUSH1 0x40 MLOAD PUSH32 0x8C379A000000000000000000000000000000000000000000000000000000000 DUP2 MSTORE PUSH1 0x4 ADD PUSH2 0x327 SWAP1 PUSH2 0x1A85 JUMP JUMPDEST PUSH1 0x40 MLOAD DUP1 SWAP2 SUB SWAP1 REVERT JUMPDEST PUSH0 PUSH1 0x9 PUSH0 DUP5 DUP2 MSTORE PUSH1 0x20 ADD SWAP1 DUP2 MSTORE PUSH1 0x20 ADD PUSH0 KECCAK256 SLOAD SWAP1 POP PUSH0 PUSH1 0x2 PUSH0 DUP4 DUP2 MSTORE PUSH1 0x20 ADD SWAP1 DUP2 MSTORE PUSH1 0x20 ADD PUSH0 KECCAK256 SWAP1 POP DUP1 PUSH1 0x1 ADD PUSH0 SWAP1 SLOAD SWAP1 PUSH2 0x100 EXP SWAP1 DIV PUSH1 0xFF AND ISZERO PUSH2 0x404 JUMPI PUSH0 DUP2 PUSH1 0x2 ADD PUSH0 DUP2 SLOAD DUP2 LT PUSH2 0x386 JUMPI PUSH2 0x385 PUSH2 0x1AA3 JUMP JUMPDEST JUMPDEST SWAP1 PUSH0 MSTORE PUSH1 0x20 PUSH0 KECCAK256 ADD SLOAD SWAP1 POP PUSH0 PUSH1 0x5 DUP3 PUSH2 0x39F SWAP2 SWAP1 PUSH2 0x1AFD JUMP JUMPDEST SWAP1 POP PUSH0 PUSH1 0xA PUSH0 DUP9 DUP2 MSTORE PUSH1 0x20 ADD SWAP1 DUP2 MSTORE PUSH1 0x20 ADD PUSH0 KECCAK256 SWAP1 POP DUP1 PUSH0 ADD DUP3 DUP2 SLOAD DUP2 LT PUSH2 0x3CA JUMPI PUSH2 0x3C9 PUSH2 0x1AA3 JUMP JUMPDEST JUMPDEST SWAP1 PUSH0 MSTORE PUSH1 0x20 PUSH0 KECCAK256 SWAP1 PUSH1 0x2 MUL ADD PUSH0 ADD PUSH0 SWAP1 SLOAD SWAP1 PUSH2 0x100 EXP SWAP1 DIV PUSH20 0xFFFFFFFFFFFFFFFFFFFFFFFFFFFFFFFFFFFFFFFF AND SWAP6 POP POP POP POP POP POP PUSH2 0x40A JUMP JUMPDEST PUSH0 SWAP3 POP POP POP JUMPDEST SWAP2 SWAP1 POP JUMP JUMPDEST PUSH32 0x0 PUSH20 0xFFFFFFFFFFFFFFFFFFFFFFFFFFFFFFFFFFFFFFFF AND CALLER PUSH20 0xFFFFFFFFFFFFFFFFFFFFFFFFFFFFFFFFFFFFFFFF AND EQ PUSH2 0x49D JUMPI PUSH1 0x40 MLOAD PUSH32 0x8C379A000000000000000000000000000000000000000000000000000000000 DUP2 MSTORE PUSH1 0x4 ADD PUSH2 0x494 SWAP1 PUSH2 0x1B77 JUMP JUMPDEST PUSH1 0x40 MLOAD DUP1 SWAP2 SUB SWAP1 REVERT JUMPDEST PUSH2 0x4A7 DUP3 DUP3 PUSH2 0xFF5 JUMP JUMPDEST POP POP JUMP JUMPDEST PUSH0 PUSH2 0x4B5 DUP3 PUSH2 0x2A9 JUMP JUMPDEST SWAP1 POP PUSH0 PUSH20 0xFFFFFFFFFFFFFFFFFFFFFFFFFFFFFFFFFFFFFFFF AND DUP2 PUSH20 0xFFFFFFFFFFFFFFFFFFFFFFFFFFFFFFFFFFFFFFFF AND SUB PUSH2 0x525 JUMPI PUSH1 0x40 MLOAD PUSH32 0x8C379A000000000000000000000000000000000000000000000000000000000 DUP2 MSTORE PUSH1 0x4 ADD PUSH2 0x51C SWAP1 PUSH2 0x1C05 JUMP JUMPDEST PUSH1 0x40 MLOAD DUP1 SWAP2 SUB SWAP1 REVERT JUMPDEST CALLER PUSH20 0xFFFFFFFFFFFFFFFFFFFFFFFFFFFFFFFFFFFFFFFF AND DUP2 PUSH20 0xFFFFFFFFFFFFFFFFFFFFFFFFFFFFFFFFFFFFFFFF AND EQ PUSH2 0x593 JUMPI PUSH1 0x40 MLOAD PUSH32 0x8C379A000000000000000000000000000000000000000000000000000000000 DUP2 MSTORE PUSH1 0x4 ADD PUSH2 0x58A SWAP1 PUSH2 0x1C6D JUMP JUMPDEST PUSH1 0x40 MLOAD DUP1 SWAP2 SUB SWAP1 REVERT JUMPDEST PUSH0 PUSH1 0xA PUSH0 DUP5 DUP2 MSTORE PUSH1 0x20 ADD SWAP1 DUP2 MSTORE PUSH1 0x20 ADD PUSH0 KECCAK256 SWAP1 POP PUSH0 DUP1 JUMPDEST PUSH1 0x5 DUP2 LT ISZERO PUSH2 0x5F2 JUMPI DUP3 PUSH0 ADD DUP2 DUP2 SLOAD DUP2 LT PUSH2 0x5C8 JUMPI PUSH2 0x5C7 PUSH2 0x1AA3 JUMP JUMPDEST JUMPDEST SWAP1 PUSH0 MSTORE PUSH1 0x20 PUSH0 KECCAK256 SWAP1 PUSH1 0x2 MUL ADD PUSH1 0x1 ADD SLOAD DUP3 PUSH2 0x5E3 SWAP2 SWAP1 PUSH2 0x1CB8 JUMP JUMPDEST SWAP2 POP DUP1 DUP1 PUSH1 0x1 ADD SWAP2 POP POP PUSH2 0x5AA JUMP JUMPDEST POP PUSH0 CALLER SWAP1 POP PUSH0 PUSH1 0xA PUSH1 0x9 DUP5 PUSH2 0x607 SWAP2 SWAP1 PUSH2 0x1CEB JUMP JUMPDEST PUSH2 0x611 SWAP2 SWAP1 PUSH2 0x1D2C JUMP JUMPDEST SWAP1 POP DUP2 PUSH20 0xFFFFFFFFFFFFFFFFFFFFFFFFFFFFFFFFFFFFFFFF AND PUSH2 0x8FC DUP3 SWAP1 DUP2 ISZERO MUL SWAP1 PUSH1 0x40 MLOAD PUSH0 PUSH1 0x40 MLOAD DUP1 DUP4 SUB DUP2 DUP6 DUP9 DUP9 CALL SWAP4 POP POP POP POP ISZERO DUP1 ISZERO PUSH2 0x656 JUMPI RETURNDATASIZE PUSH0 DUP1 RETURNDATACOPY RETURNDATASIZE PUSH0 REVERT JUMPDEST POP POP POP POP POP POP POP JUMP JUMPDEST PUSH0 PUSH1 0xA PUSH0 PUSH1 0x8 SLOAD DUP2 MSTORE PUSH1 0x20 ADD SWAP1 DUP2 MSTORE PUSH1 0x20 ADD PUSH0 KECCAK256 SWAP1 POP PUSH0 JUMPDEST PUSH1 0x5 DUP2 LT ISZERO PUSH2 0x838 JUMPI CALLER PUSH20 0xFFFFFFFFFFFFFFFFFFFFFFFFFFFFFFFFFFFFFFFF AND DUP3 PUSH0 ADD DUP3 DUP2 SLOAD DUP2 LT PUSH2 0x6AC JUMPI PUSH2 0x6AB PUSH2 0x1AA3 JUMP JUMPDEST JUMPDEST SWAP1 PUSH0 MSTORE PUSH1 0x20 PUSH0 KECCAK256 SWAP1 PUSH1 0x2 MUL ADD PUSH0 ADD PUSH0 SWAP1 SLOAD SWAP1 PUSH2 0x100 EXP SWAP1 DIV PUSH20 0xFFFFFFFFFFFFFFFFFFFFFFFFFFFFFFFFFFFFFFFF AND PUSH20 0xFFFFFFFFFFFFFFFFFFFFFFFFFFFFFFFFFFFFFFFF AND SUB PUSH2 0x82B JUMPI PUSH0 PUSH1 0x5 PUSH1 0x4 DUP5 PUSH0 ADD DUP5 DUP2 SLOAD DUP2 LT PUSH2 0x70F JUMPI PUSH2 0x70E PUSH2 0x1AA3 JUMP JUMPDEST JUMPDEST SWAP1 PUSH0 MSTORE PUSH1 0x20 PUSH0 KECCAK256 SWAP1 PUSH1 0x2 MUL ADD PUSH1 0x1 ADD SLOAD PUSH2 0x729 SWAP2 SWAP1 PUSH2 0x1CEB JUMP JUMPDEST PUSH2 0x733 SWAP2 SWAP1 PUSH2 0x1D2C JUMP JUMPDEST SWAP1 POP PUSH0 CALLER SWAP1 POP PUSH0 DUP5 PUSH0 ADD DUP5 DUP2 SLOAD DUP2 LT PUSH2 0x74F JUMPI PUSH2 0x74E PUSH2 0x1AA3 JUMP JUMPDEST JUMPDEST SWAP1 PUSH0 MSTORE PUSH1 0x20 PUSH0 KECCAK256 SWAP1 PUSH1 0x2 MUL ADD PUSH0 ADD PUSH0 PUSH2 0x100 EXP DUP2 SLOAD DUP2 PUSH20 0xFFFFFFFFFFFFFFFFFFFFFFFFFFFFFFFFFFFFFFFF MUL NOT AND SWAP1 DUP4 PUSH20 0xFFFFFFFFFFFFFFFFFFFFFFFFFFFFFFFFFFFFFFFF AND MUL OR SWAP1 SSTORE POP PUSH0 DUP5 PUSH0 ADD DUP5 DUP2 SLOAD DUP2 LT PUSH2 0x7B0 JUMPI PUSH2 0x7AF PUSH2 0x1AA3 JUMP JUMPDEST JUMPDEST SWAP1 PUSH0 MSTORE PUSH1 0x20 PUSH0 KECCAK256 SWAP1 PUSH1 0x2 MUL ADD PUSH1 0x1 ADD DUP2 SWAP1 SSTORE POP PUSH1 0x1 DUP5 PUSH1 0x1 ADD PUSH0 DUP3 DUP3 SLOAD PUSH2 0x7D7 SWAP2 SWAP1 PUSH2 0x1D5C JUMP JUMPDEST SWAP3 POP POP DUP2 SWAP1 SSTORE POP DUP1 PUSH20 0xFFFFFFFFFFFFFFFFFFFFFFFFFFFFFFFFFFFFFFFF AND PUSH2 0x8FC DUP4 SWAP1 DUP2 ISZERO MUL SWAP1 PUSH1 0x40 MLOAD PUSH0 PUSH1 0x40 MLOAD DUP1 DUP4 SUB DUP2 DUP6 DUP9 DUP9 CALL SWAP4 POP POP POP POP ISZERO DUP1 ISZERO PUSH2 0x821 JUMPI RETURNDATASIZE PUSH0 DUP1 RETURNDATACOPY RETURNDATASIZE PUSH0 REVERT JUMPDEST POP POP POP POP POP PUSH2 0x83B JUMP JUMPDEST DUP1 DUP1 PUSH1 0x1 ADD SWAP2 POP POP PUSH2 0x677 JUMP JUMPDEST POP POP JUMPDEST JUMP JUMPDEST PUSH0 PUSH2 0x846 PUSH2 0x10A3 JUMP JUMPDEST PUSH0 PUSH1 0xA PUSH0 PUSH1 0x8 SLOAD DUP2 MSTORE PUSH1 0x20 ADD SWAP1 DUP2 MSTORE PUSH1 0x20 ADD PUSH0 KECCAK256 SWAP1 POP PUSH1 0x5 DUP2 PUSH1 0x1 ADD SLOAD EQ PUSH2 0x8A3 JUMPI PUSH1 0x40 MLOAD PUSH32 0x8C379A000000000000000000000000000000000000000000000000000000000 DUP2 MSTORE PUSH1 0x4 ADD PUSH2 0x89A SWAP1 PUSH2 0x1DFF JUMP JUMPDEST PUSH1 0x40 MLOAD DUP1 SWAP2 SUB SWAP1 REVERT JUMPDEST PUSH0 PUSH2 0x8AC PUSH2 0x1132 JUMP JUMPDEST SWAP1 POP DUP1 PUSH1 0x9 PUSH0 PUSH1 0x8 SLOAD DUP2 MSTORE PUSH1 0x20 ADD SWAP1 DUP2 MSTORE PUSH1 0x20 ADD PUSH0 KECCAK256 DUP2 SWAP1 SSTORE POP PUSH1 0x7 PUSH1 0x8 SLOAD SWAP1 DUP1 PUSH1 0x1 DUP2 SLOAD ADD DUP1 DUP3 SSTORE DUP1 SWAP2 POP POP PUSH1 0x1 SWAP1 SUB SWAP1 PUSH0 MSTORE PUSH1 0x20 PUSH0 KECCAK256 ADD PUSH0 SWAP1 SWAP2 SWAP1 SWAP2 SWAP1 SWAP2 POP SSTORE PUSH1 0x1 PUSH1 0x8 PUSH0 DUP3 DUP3 SLOAD PUSH2 0x900 SWAP2 SWAP1 PUSH2 0x1CB8 JUMP JUMPDEST SWAP3 POP POP DUP2 SWAP1 SSTORE POP PUSH1 0xA PUSH0 PUSH1 0x8 SLOAD DUP2 MSTORE PUSH1 0x20 ADD SWAP1 DUP2 MSTORE PUSH1 0x20 ADD PUSH0 KECCAK256 SWAP2 POP PUSH0 JUMPDEST PUSH1 0x5 DUP2 LT ISZERO PUSH2 0x9DD JUMPI PUSH0 PUSH1 0x40 MLOAD DUP1 PUSH1 0x40 ADD PUSH1 0x40 MSTORE DUP1 PUSH0 PUSH20 0xFFFFFFFFFFFFFFFFFFFFFFFFFFFFFFFFFFFFFFFF AND DUP2 MSTORE PUSH1 0x20 ADD PUSH0 DUP2 MSTORE POP SWAP1 POP DUP4 PUSH0 ADD DUP2 SWAP1 DUP1 PUSH1 0x1 DUP2 SLOAD ADD DUP1 DUP3 SSTORE DUP1 SWAP2 POP POP PUSH1 0x1 SWAP1 SUB SWAP1 PUSH0 MSTORE PUSH1 0x20 PUSH0 KECCAK256 SWAP1 PUSH1 0x2 MUL ADD PUSH0 SWAP1 SWAP2 SWAP1 SWAP2 SWAP1 SWAP2 POP PUSH0 DUP3 ADD MLOAD DUP2 PUSH0 ADD PUSH0 PUSH2 0x100 EXP DUP2 SLOAD DUP2 PUSH20 0xFFFFFFFFFFFFFFFFFFFFFFFFFFFFFFFFFFFFFFFF MUL NOT AND SWAP1 DUP4 PUSH20 0xFFFFFFFFFFFFFFFFFFFFFFFFFFFFFFFFFFFFFFFF AND MUL OR SWAP1 SSTORE POP PUSH1 0x20 DUP3 ADD MLOAD DUP2 PUSH1 0x1 ADD SSTORE POP POP POP DUP1 DUP1 PUSH1 0x1 ADD SWAP2 POP POP PUSH2 0x91E JUMP JUMPDEST POP DUP1 SWAP3 POP POP POP SWAP1 JUMP JUMPDEST PUSH1 0x1 PUSH0 SWAP1 SLOAD SWAP1 PUSH2 0x100 EXP SWAP1 DIV PUSH20 0xFFFFFFFFFFFFFFFFFFFFFFFFFFFFFFFFFFFFFFFF AND PUSH20 0xFFFFFFFFFFFFFFFFFFFFFFFFFFFFFFFFFFFFFFFF AND CALLER PUSH20 0xFFFFFFFFFFFFFFFFFFFFFFFFFFFFFFFFFFFFFFFF AND EQ PUSH2 0xA75 JUMPI PUSH1 0x40 MLOAD PUSH32 0x8C379A000000000000000000000000000000000000000000000000000000000 DUP2 MSTORE PUSH1 0x4 ADD PUSH2 0xA6C SWAP1 PUSH2 0x1E67 JUMP JUMPDEST PUSH1 0x40 MLOAD DUP1 SWAP2 SUB SWAP1 REVERT JUMPDEST PUSH0 DUP1 PUSH0 SWAP1 SLOAD SWAP1 PUSH2 0x100 EXP SWAP1 DIV PUSH20 0xFFFFFFFFFFFFFFFFFFFFFFFFFFFFFFFFFFFFFFFF AND SWAP1 POP CALLER PUSH0 DUP1 PUSH2 0x100 EXP DUP2 SLOAD DUP2 PUSH20 0xFFFFFFFFFFFFFFFFFFFFFFFFFFFFFFFFFFFFFFFF MUL NOT AND SWAP1 DUP4 PUSH20 0xFFFFFFFFFFFFFFFFFFFFFFFFFFFFFFFFFFFFFFFF AND MUL OR SWAP1 SSTORE POP PUSH0 PUSH1 0x1 PUSH0 PUSH2 0x100 EXP DUP2 SLOAD DUP2 PUSH20 0xFFFFFFFFFFFFFFFFFFFFFFFFFFFFFFFFFFFFFFFF MUL NOT AND SWAP1 DUP4 PUSH20 0xFFFFFFFFFFFFFFFFFFFFFFFFFFFFFFFFFFFFFFFF AND MUL OR SWAP1 SSTORE POP CALLER PUSH20 0xFFFFFFFFFFFFFFFFFFFFFFFFFFFFFFFFFFFFFFFF AND DUP2 PUSH20 0xFFFFFFFFFFFFFFFFFFFFFFFFFFFFFFFFFFFFFFFF AND PUSH32 0x8BE0079C531659141344CD1FD0A4F28419497F9722A3DAAFE3B4186F6B6457E0 PUSH1 0x40 MLOAD PUSH1 0x40 MLOAD DUP1 SWAP2 SUB SWAP1 LOG3 POP JUMP JUMPDEST PUSH1 0x8 SLOAD DUP2 JUMP JUMPDEST PUSH1 0x7 DUP2 DUP2 SLOAD DUP2 LT PUSH2 0xB8A JUMPI PUSH0 DUP1 REVERT JUMPDEST SWAP1 PUSH0 MSTORE PUSH1 0x20 PUSH0 KECCAK256 ADD PUSH0 SWAP2 POP SWAP1 POP SLOAD DUP2 JUMP JUMPDEST PUSH0 PUSH2 0xBA4 PUSH2 0x10A3 JUMP JUMPDEST SELFBALANCE SWAP1 POP SWAP1 JUMP JUMPDEST PUSH0 DUP1 PUSH0 SWAP1 SLOAD SWAP1 PUSH2 0x100 EXP SWAP1 DIV PUSH20 0xFFFFFFFFFFFFFFFFFFFFFFFFFFFFFFFFFFFFFFFF AND SWAP1 POP SWAP1 JUMP JUMPDEST PUSH2 0xBD9 PUSH2 0x10A3 JUMP JUMPDEST PUSH0 PUSH1 0x5 PUSH1 0xA SWAP1 SLOAD SWAP1 PUSH2 0x100 EXP SWAP1 DIV PUSH20 0xFFFFFFFFFFFFFFFFFFFFFFFFFFFFFFFFFFFFFFFF AND SWAP1 POP DUP1 PUSH20 0xFFFFFFFFFFFFFFFFFFFFFFFFFFFFFFFFFFFFFFFF AND PUSH4 0xA9059CBB CALLER DUP4 PUSH20 0xFFFFFFFFFFFFFFFFFFFFFFFFFFFFFFFFFFFFFFFF AND PUSH4 0x70A08231 ADDRESS PUSH1 0x40 MLOAD DUP3 PUSH4 0xFFFFFFFF AND PUSH1 0xE0 SHL DUP2 MSTORE PUSH1 0x4 ADD PUSH2 0xC55 SWAP2 SWAP1 PUSH2 0x175D JUMP JUMPDEST PUSH1 0x20 PUSH1 0x40 MLOAD DUP1 DUP4 SUB DUP2 DUP7 GAS STATICCALL ISZERO DUP1 ISZERO PUSH2 0xC70 JUMPI RETURNDATASIZE PUSH0 DUP1 RETURNDATACOPY RETURNDATASIZE PUSH0 REVERT JUMPDEST POP POP POP POP PUSH1 0x40 MLOAD RETURNDATASIZE PUSH1 0x1F NOT PUSH1 0x1F DUP3 ADD AND DUP3 ADD DUP1 PUSH1 0x40 MSTORE POP DUP2 ADD SWAP1 PUSH2 0xC94 SWAP2 SWAP1 PUSH2 0x1E99 JUMP JUMPDEST PUSH1 0x40 MLOAD DUP4 PUSH4 0xFFFFFFFF AND PUSH1 0xE0 SHL DUP2 MSTORE PUSH1 0x4 ADD PUSH2 0xCB1 SWAP3 SWAP2 SWAP1 PUSH2 0x1EC4 JUMP JUMPDEST PUSH1 0x20 PUSH1 0x40 MLOAD DUP1 DUP4 SUB DUP2 PUSH0 DUP8 GAS CALL ISZERO DUP1 ISZERO PUSH2 0xCCD JUMPI RETURNDATASIZE PUSH0 DUP1 RETURNDATACOPY RETURNDATASIZE PUSH0 REVERT JUMPDEST POP POP POP POP PUSH1 0x40 MLOAD RETURNDATASIZE PUSH1 0x1F NOT PUSH1 0x1F DUP3 ADD AND DUP3 ADD DUP1 PUSH1 0x40 MSTORE POP DUP2 ADD SWAP1 PUSH2 0xCF1 SWAP2 SWAP1 PUSH2 0x1F20 JUMP JUMPDEST PUSH2 0xD30 JUMPI PUSH1 0x40 MLOAD PUSH32 0x8C379A000000000000000000000000000000000000000000000000000000000 DUP2 MSTORE PUSH1 0x4 ADD PUSH2 0xD27 SWAP1 PUSH2 0x1F95 JUMP JUMPDEST PUSH1 0x40 MLOAD DUP1 SWAP2 SUB SWAP1 REVERT JUMPDEST POP JUMP JUMPDEST PUSH0 PUSH1 0xA PUSH0 PUSH1 0x8 SLOAD DUP2 MSTORE PUSH1 0x20 ADD SWAP1 DUP2 MSTORE PUSH1 0x20 ADD PUSH0 KECCAK256 SWAP1 POP PUSH1 0x5 DUP2 PUSH1 0x1 ADD SLOAD LT PUSH2 0xD90 JUMPI PUSH1 0x40 MLOAD PUSH32 0x8C379A000000000000000000000000000000000000000000000000000000000 DUP2 MSTORE PUSH1 0x4 ADD PUSH2 0xD87 SWAP1 PUSH2 0x2049 JUMP JUMPDEST PUSH1 0x40 MLOAD DUP1 SWAP2 SUB SWAP1 REVERT JUMPDEST PUSH0 JUMPDEST PUSH1 0x5 DUP2 LT ISZERO PUSH2 0xE58 JUMPI DUP2 PUSH0 ADD DUP2 DUP2 SLOAD DUP2 LT PUSH2 0xDB0 JUMPI PUSH2 0xDAF PUSH2 0x1AA3 JUMP JUMPDEST JUMPDEST SWAP1 PUSH0 MSTORE PUSH1 0x20 PUSH0 KECCAK256 SWAP1 PUSH1 0x2 MUL ADD PUSH0 ADD PUSH0 SWAP1 SLOAD SWAP1 PUSH2 0x100 EXP SWAP1 DIV PUSH20 0xFFFFFFFFFFFFFFFFFFFFFFFFFFFFFFFFFFFFFFFF AND PUSH20 0xFFFFFFFFFFFFFFFFFFFFFFFFFFFFFFFFFFFFFFFF AND CALLER PUSH20 0xFFFFFFFFFFFFFFFFFFFFFFFFFFFFFFFFFFFFFFFF AND SUB PUSH2 0xE4B JUMPI PUSH1 0x40 MLOAD PUSH32 0x8C379A000000000000000000000000000000000000000000000000000000000 DUP2 MSTORE PUSH1 0x4 ADD PUSH2 0xE42 SWAP1 PUSH2 0x20D7 JUMP JUMPDEST PUSH1 0x40 MLOAD DUP1 SWAP2 SUB SWAP1 REVERT JUMPDEST DUP1 DUP1 PUSH1 0x1 ADD SWAP2 POP POP PUSH2 0xD92 JUMP JUMPDEST POP PUSH7 0x38D7EA4C68000 CALLVALUE LT ISZERO PUSH2 0xEA3 JUMPI PUSH1 0x40 MLOAD PUSH32 0x8C379A000000000000000000000000000000000000000000000000000000000 DUP2 MSTORE PUSH1 0x4 ADD PUSH2 0xE9A SWAP1 PUSH2 0x2165 JUMP JUMPDEST PUSH1 0x40 MLOAD DUP1 SWAP2 SUB SWAP1 REVERT JUMPDEST PUSH0 JUMPDEST PUSH1 0x5 DUP2 LT ISZERO PUSH2 0xFDC JUMPI PUSH0 PUSH20 0xFFFFFFFFFFFFFFFFFFFFFFFFFFFFFFFFFFFFFFFF AND DUP3 PUSH0 ADD DUP3 DUP2 SLOAD DUP2 LT PUSH2 0xEDA JUMPI PUSH2 0xED9 PUSH2 0x1AA3 JUMP JUMPDEST JUMPDEST SWAP1 PUSH0 MSTORE PUSH1 0x20 PUSH0 KECCAK256 SWAP1 PUSH1 0x2 MUL ADD PUSH0 ADD PUSH0 SWAP1 SLOAD SWAP1 PUSH2 0x100 EXP SWAP1 DIV PUSH20 0xFFFFFFFFFFFFFFFFFFFFFFFFFFFFFFFFFFFFFFFF AND PUSH20 0xFFFFFFFFFFFFFFFFFFFFFFFFFFFFFFFFFFFFFFFF AND SUB PUSH2 0xFCF JUMPI CALLER DUP3 PUSH0 ADD DUP3 DUP2 SLOAD DUP2 LT PUSH2 0xF39 JUMPI PUSH2 0xF38 PUSH2 0x1AA3 JUMP JUMPDEST JUMPDEST SWAP1 PUSH0 MSTORE PUSH1 0x20 PUSH0 KECCAK256 SWAP1 PUSH1 0x2 MUL ADD PUSH0 ADD PUSH0 PUSH2 0x100 EXP DUP2 SLOAD DUP2 PUSH20 0xFFFFFFFFFFFFFFFFFFFFFFFFFFFFFFFFFFFFFFFF MUL NOT AND SWAP1 DUP4 PUSH20 0xFFFFFFFFFFFFFFFFFFFFFFFFFFFFFFFFFFFFFFFF AND MUL OR SWAP1 SSTORE POP CALLVALUE DUP3 PUSH0 ADD DUP3 DUP2 SLOAD DUP2 LT PUSH2 0xF9A JUMPI PUSH2 0xF99 PUSH2 0x1AA3 JUMP JUMPDEST JUMPDEST SWAP1 PUSH0 MSTORE PUSH1 0x20 PUSH0 KECCAK256 SWAP1 PUSH1 0x2 MUL ADD PUSH1 0x1 ADD DUP2 SWAP1 SSTORE POP PUSH1 0x1 DUP3 PUSH1 0x1 ADD PUSH0 DUP3 DUP3 SLOAD PUSH2 0xFC1 SWAP2 SWAP1 PUSH2 0x1CB8 JUMP JUMPDEST SWAP3 POP POP DUP2 SWAP1 SSTORE POP POP POP PUSH2 0xFDF JUMP JUMPDEST DUP1 DUP1 PUSH1 0x1 ADD SWAP2 POP POP PUSH2 0xEA5 JUMP JUMPDEST POP POP JUMPDEST JUMP JUMPDEST PUSH2 0xFE9 PUSH2 0x10A3 JUMP JUMPDEST PUSH2 0xFF2 DUP2 PUSH2 0x1310 JUMP JUMPDEST POP JUMP JUMPDEST PUSH0 PUSH1 0x2 PUSH0 DUP5 DUP2 MSTORE PUSH1 0x20 ADD SWAP1 DUP2 MSTORE PUSH1 0x20 ADD PUSH0 KECCAK256 PUSH0 ADD SLOAD GT PUSH2 0x104A JUMPI PUSH1 0x40 MLOAD PUSH32 0x8C379A000000000000000000000000000000000000000000000000000000000 DUP2 MSTORE PUSH1 0x4 ADD PUSH2 0x1041 SWAP1 PUSH2 0x21CD JUMP JUMPDEST PUSH1 0x40 MLOAD DUP1 SWAP2 SUB SWAP1 REVERT JUMPDEST PUSH1 0x1 PUSH1 0x2 PUSH0 DUP5 DUP2 MSTORE PUSH1 0x20 ADD SWAP1 DUP2 MSTORE PUSH1 0x20 ADD PUSH0 KECCAK256 PUSH1 0x1 ADD PUSH0 PUSH2 0x100 EXP DUP2 SLOAD DUP2 PUSH1 0xFF MUL NOT AND SWAP1 DUP4 ISZERO ISZERO MUL OR SWAP1 SSTORE POP DUP1 PUSH1 0x2 PUSH0 DUP5 DUP2 MSTORE PUSH1 0x20 ADD SWAP1 DUP2 MSTORE PUSH1 0x20 ADD PUSH0 KECCAK256 PUSH1 0x2 ADD SWAP1 DUP1 MLOAD SWAP1 PUSH1 0x20 ADD SWAP1 PUSH2 0x109E SWAP3 SWAP2 SWAP1 PUSH2 0x1649 JUMP JUMPDEST POP POP POP JUMP JUMPDEST PUSH0 DUP1 SLOAD SWAP1 PUSH2 0x100 EXP SWAP1 DIV PUSH20 0xFFFFFFFFFFFFFFFFFFFFFFFFFFFFFFFFFFFFFFFF AND PUSH20 0xFFFFFFFFFFFFFFFFFFFFFFFFFFFFFFFFFFFFFFFF AND CALLER PUSH20 0xFFFFFFFFFFFFFFFFFFFFFFFFFFFFFFFFFFFFFFFF AND EQ PUSH2 0x1130 JUMPI PUSH1 0x40 MLOAD PUSH32 0x8C379A000000000000000000000000000000000000000000000000000000000 DUP2 MSTORE PUSH1 0x4 ADD PUSH2 0x1127 SWAP1 PUSH2 0x2235 JUMP JUMPDEST PUSH1 0x40 MLOAD DUP1 SWAP2 SUB SWAP1 REVERT JUMPDEST JUMP JUMPDEST PUSH0 PUSH2 0x113B PUSH2 0x10A3 JUMP JUMPDEST PUSH2 0x1179 PUSH1 0x5 PUSH0 SWAP1 SLOAD SWAP1 PUSH2 0x100 EXP SWAP1 DIV PUSH4 0xFFFFFFFF AND PUSH1 0x5 PUSH1 0x4 SWAP1 SLOAD SWAP1 PUSH2 0x100 EXP SWAP1 DIV PUSH2 0xFFFF AND PUSH1 0x5 PUSH1 0x6 SWAP1 SLOAD SWAP1 PUSH2 0x100 EXP SWAP1 DIV PUSH4 0xFFFFFFFF AND PUSH2 0x143A JUMP JUMPDEST SWAP1 POP PUSH1 0x40 MLOAD DUP1 PUSH1 0x60 ADD PUSH1 0x40 MSTORE DUP1 PUSH32 0x0 PUSH20 0xFFFFFFFFFFFFFFFFFFFFFFFFFFFFFFFFFFFFFFFF AND PUSH4 0x4306D354 PUSH1 0x5 PUSH0 SWAP1 SLOAD SWAP1 PUSH2 0x100 EXP SWAP1 DIV PUSH4 0xFFFFFFFF AND PUSH1 0x40 MLOAD DUP3 PUSH4 0xFFFFFFFF AND PUSH1 0xE0 SHL DUP2 MSTORE PUSH1 0x4 ADD PUSH2 0x11F0 SWAP2 SWAP1 PUSH2 0x2271 JUMP JUMPDEST PUSH1 0x20 PUSH1 0x40 MLOAD DUP1 DUP4 SUB DUP2 DUP7 GAS STATICCALL ISZERO DUP1 ISZERO PUSH2 0x120B JUMPI RETURNDATASIZE PUSH0 DUP1 RETURNDATACOPY RETURNDATASIZE PUSH0 REVERT JUMPDEST POP POP POP POP PUSH1 0x40 MLOAD RETURNDATASIZE PUSH1 0x1F NOT PUSH1 0x1F DUP3 ADD AND DUP3 ADD DUP1 PUSH1 0x40 MSTORE POP DUP2 ADD SWAP1 PUSH2 0x122F SWAP2 SWAP1 PUSH2 0x1E99 JUMP JUMPDEST DUP2 MSTORE PUSH1 0x20 ADD PUSH0 ISZERO ISZERO DUP2 MSTORE PUSH1 0x20 ADD PUSH0 PUSH8 0xFFFFFFFFFFFFFFFF DUP2 GT ISZERO PUSH2 0x1256 JUMPI PUSH2 0x1255 PUSH2 0x178A JUMP JUMPDEST JUMPDEST PUSH1 0x40 MLOAD SWAP1 DUP1 DUP3 MSTORE DUP1 PUSH1 0x20 MUL PUSH1 0x20 ADD DUP3 ADD PUSH1 0x40 MSTORE DUP1 ISZERO PUSH2 0x1284 JUMPI DUP2 PUSH1 0x20 ADD PUSH1 0x20 DUP3 MUL DUP1 CALLDATASIZE DUP4 CALLDATACOPY DUP1 DUP3 ADD SWAP2 POP POP SWAP1 POP JUMPDEST POP DUP2 MSTORE POP PUSH1 0x2 PUSH0 DUP4 DUP2 MSTORE PUSH1 0x20 ADD SWAP1 DUP2 MSTORE PUSH1 0x20 ADD PUSH0 KECCAK256 PUSH0 DUP3 ADD MLOAD DUP2 PUSH0 ADD SSTORE PUSH1 0x20 DUP3 ADD MLOAD DUP2 PUSH1 0x1 ADD PUSH0 PUSH2 0x100 EXP DUP2 SLOAD DUP2 PUSH1 0xFF MUL NOT AND SWAP1 DUP4 ISZERO ISZERO MUL OR SWAP1 SSTORE POP PUSH1 0x40 DUP3 ADD MLOAD DUP2 PUSH1 0x2 ADD SWAP1 DUP1 MLOAD SWAP1 PUSH1 0x20 ADD SWAP1 PUSH2 0x12DC SWAP3 SWAP2 SWAP1 PUSH2 0x1649 JUMP JUMPDEST POP SWAP1 POP POP PUSH1 0x3 DUP2 SWAP1 DUP1 PUSH1 0x1 DUP2 SLOAD ADD DUP1 DUP3 SSTORE DUP1 SWAP2 POP POP PUSH1 0x1 SWAP1 SUB SWAP1 PUSH0 MSTORE PUSH1 0x20 PUSH0 KECCAK256 ADD PUSH0 SWAP1 SWAP2 SWAP1 SWAP2 SWAP1 SWAP2 POP SSTORE DUP1 PUSH1 0x4 DUP2 SWAP1 SSTORE POP SWAP1 JUMP JUMPDEST CALLER PUSH20 0xFFFFFFFFFFFFFFFFFFFFFFFFFFFFFFFFFFFFFFFF AND DUP2 PUSH20 0xFFFFFFFFFFFFFFFFFFFFFFFFFFFFFFFFFFFFFFFF AND SUB PUSH2 0x137E JUMPI PUSH1 0x40 MLOAD PUSH32 0x8C379A000000000000000000000000000000000000000000000000000000000 DUP2 MSTORE PUSH1 0x4 ADD PUSH2 0x1375 SWAP1 PUSH2 0x22D4 JUMP JUMPDEST PUSH1 0x40 MLOAD DUP1 SWAP2 SUB SWAP1 REVERT JUMPDEST DUP1 PUSH1 0x1 PUSH0 PUSH2 0x100 EXP DUP2 SLOAD DUP2 PUSH20 0xFFFFFFFFFFFFFFFFFFFFFFFFFFFFFFFFFFFFFFFF MUL NOT AND SWAP1 DUP4 PUSH20 0xFFFFFFFFFFFFFFFFFFFFFFFFFFFFFFFFFFFFFFFF AND MUL OR SWAP1 SSTORE POP DUP1 PUSH20 0xFFFFFFFFFFFFFFFFFFFFFFFFFFFFFFFFFFFFFFFF AND PUSH0 DUP1 SLOAD SWAP1 PUSH2 0x100 EXP SWAP1 DIV PUSH20 0xFFFFFFFFFFFFFFFFFFFFFFFFFFFFFFFFFFFFFFFF AND PUSH20 0xFFFFFFFFFFFFFFFFFFFFFFFFFFFFFFFFFFFFFFFF AND PUSH32 0xED8889F560326EB138920D842192F0EB3DD22B4F139C87A2C57538E05BAE1278 PUSH1 0x40 MLOAD PUSH1 0x40 MLOAD DUP1 SWAP2 SUB SWAP1 LOG3 POP JUMP JUMPDEST PUSH0 PUSH32 0x0 PUSH20 0xFFFFFFFFFFFFFFFFFFFFFFFFFFFFFFFFFFFFFFFF AND PUSH4 0x4000AEA0 PUSH32 0x0 PUSH32 0x0 PUSH20 0xFFFFFFFFFFFFFFFFFFFFFFFFFFFFFFFFFFFFFFFF AND PUSH4 0x4306D354 DUP9 PUSH1 0x40 MLOAD DUP3 PUSH4 0xFFFFFFFF AND PUSH1 0xE0 SHL DUP2 MSTORE PUSH1 0x4 ADD PUSH2 0x14F1 SWAP2 SWAP1 PUSH2 0x2271 JUMP JUMPDEST PUSH1 0x20 PUSH1 0x40 MLOAD DUP1 DUP4 SUB DUP2 DUP7 GAS STATICCALL ISZERO DUP1 ISZERO PUSH2 0x150C JUMPI RETURNDATASIZE PUSH0 DUP1 RETURNDATACOPY RETURNDATASIZE PUSH0 REVERT JUMPDEST POP POP POP POP PUSH1 0x40 MLOAD RETURNDATASIZE PUSH1 0x1F NOT PUSH1 0x1F DUP3 ADD AND DUP3 ADD DUP1 PUSH1 0x40 MSTORE POP DUP2 ADD SWAP1 PUSH2 0x1530 SWAP2 SWAP1 PUSH2 0x1E99 JUMP JUMPDEST DUP8 DUP8 DUP8 PUSH1 0x40 MLOAD PUSH1 0x20 ADD PUSH2 0x1545 SWAP4 SWAP3 SWAP2 SWAP1 PUSH2 0x230E JUMP JUMPDEST PUSH1 0x40 MLOAD PUSH1 0x20 DUP2 DUP4 SUB SUB DUP2 MSTORE SWAP1 PUSH1 0x40 MSTORE PUSH1 0x40 MLOAD DUP5 PUSH4 0xFFFFFFFF AND PUSH1 0xE0 SHL DUP2 MSTORE PUSH1 0x4 ADD PUSH2 0x1572 SWAP4 SWAP3 SWAP2 SWAP1 PUSH2 0x23A3 JUMP JUMPDEST PUSH1 0x20 PUSH1 0x40 MLOAD DUP1 DUP4 SUB DUP2 PUSH0 DUP8 GAS CALL ISZERO DUP1 ISZERO PUSH2 0x158E JUMPI RETURNDATASIZE PUSH0 DUP1 RETURNDATACOPY RETURNDATASIZE PUSH0 REVERT JUMPDEST POP POP POP POP PUSH1 0x40 MLOAD RETURNDATASIZE PUSH1 0x1F NOT PUSH1 0x1F DUP3 ADD AND DUP3 ADD DUP1 PUSH1 0x40 MSTORE POP DUP2 ADD SWAP1 PUSH2 0x15B2 SWAP2 SWAP1 PUSH2 0x1F20 JUMP JUMPDEST POP PUSH32 0x0 PUSH20 0xFFFFFFFFFFFFFFFFFFFFFFFFFFFFFFFFFFFFFFFF AND PUSH4 0xFC2A88C3 PUSH1 0x40 MLOAD DUP2 PUSH4 0xFFFFFFFF AND PUSH1 0xE0 SHL DUP2 MSTORE PUSH1 0x4 ADD PUSH1 0x20 PUSH1 0x40 MLOAD DUP1 DUP4 SUB DUP2 DUP7 GAS STATICCALL ISZERO DUP1 ISZERO PUSH2 0x161C JUMPI RETURNDATASIZE PUSH0 DUP1 RETURNDATACOPY RETURNDATASIZE PUSH0 REVERT JUMPDEST POP POP POP POP PUSH1 0x40 MLOAD RETURNDATASIZE PUSH1 0x1F NOT PUSH1 0x1F DUP3 ADD AND DUP3 ADD DUP1 PUSH1 0x40 MSTORE POP DUP2 ADD SWAP1 PUSH2 0x1640 SWAP2 SWAP1 PUSH2 0x1E99 JUMP JUMPDEST SWAP1 POP SWAP4 SWAP3 POP POP POP JUMP JUMPDEST DUP3 DUP1 SLOAD DUP3 DUP3 SSTORE SWAP1 PUSH0 MSTORE PUSH1 0x20 PUSH0 KECCAK256 SWAP1 DUP2 ADD SWAP3 DUP3 ISZERO PUSH2 0x1683 JUMPI SWAP2 PUSH1 0x20 MUL DUP3 ADD JUMPDEST DUP3 DUP2 GT ISZERO PUSH2 0x1682 JUMPI DUP3 MLOAD DUP3 SSTORE SWAP2 PUSH1 0x20 ADD SWAP2 SWAP1 PUSH1 0x1 ADD SWAP1 PUSH2 0x1667 JUMP JUMPDEST JUMPDEST POP SWAP1 POP PUSH2 0x1690 SWAP2 SWAP1 PUSH2 0x1694 JUMP JUMPDEST POP SWAP1 JUMP JUMPDEST JUMPDEST DUP1 DUP3 GT ISZERO PUSH2 0x16AB JUMPI PUSH0 DUP2 PUSH0 SWAP1 SSTORE POP PUSH1 0x1 ADD PUSH2 0x1695 JUMP JUMPDEST POP SWAP1 JUMP JUMPDEST PUSH0 PUSH1 0x40 MLOAD SWAP1 POP SWAP1 JUMP JUMPDEST PUSH0 DUP1 REVERT JUMPDEST PUSH0 DUP1 REVERT JUMPDEST PUSH0 DUP2 SWAP1 POP SWAP2 SWAP1 POP JUMP JUMPDEST PUSH2 0x16D2 DUP2 PUSH2 0x16C0 JUMP JUMPDEST DUP2 EQ PUSH2 0x16DC JUMPI PUSH0 DUP1 REVERT JUMPDEST POP JUMP JUMPDEST PUSH0 DUP2 CALLDATALOAD SWAP1 POP PUSH2 0x16ED DUP2 PUSH2 0x16C9 JUMP JUMPDEST SWAP3 SWAP2 POP POP JUMP JUMPDEST PUSH0 PUSH1 0x20 DUP3 DUP5 SUB SLT ISZERO PUSH2 0x1708 JUMPI PUSH2 0x1707 PUSH2 0x16B8 JUMP JUMPDEST JUMPDEST PUSH0 PUSH2 0x1715 DUP5 DUP3 DUP6 ADD PUSH2 0x16DF JUMP JUMPDEST SWAP2 POP POP SWAP3 SWAP2 POP POP JUMP JUMPDEST PUSH0 PUSH20 0xFFFFFFFFFFFFFFFFFFFFFFFFFFFFFFFFFFFFFFFF DUP3 AND SWAP1 POP SWAP2 SWAP1 POP JUMP JUMPDEST PUSH0 PUSH2 0x1747 DUP3 PUSH2 0x171E JUMP JUMPDEST SWAP1 POP SWAP2 SWAP1 POP JUMP JUMPDEST PUSH2 0x1757 DUP2 PUSH2 0x173D JUMP JUMPDEST DUP3 MSTORE POP POP JUMP JUMPDEST PUSH0 PUSH1 0x20 DUP3 ADD SWAP1 POP PUSH2 0x1770 PUSH0 DUP4 ADD DUP5 PUSH2 0x174E JUMP JUMPDEST SWAP3 SWAP2 POP POP JUMP JUMPDEST PUSH0 DUP1 REVERT JUMPDEST PUSH0 PUSH1 0x1F NOT PUSH1 0x1F DUP4 ADD AND SWAP1 POP SWAP2 SWAP1 POP JUMP JUMPDEST PUSH32 0x4E487B7100000000000000000000000000000000000000000000000000000000 PUSH0 MSTORE PUSH1 0x41 PUSH1 0x4 MSTORE PUSH1 0x24 PUSH0 REVERT JUMPDEST PUSH2 0x17C0 DUP3 PUSH2 0x177A JUMP JUMPDEST DUP2 ADD DUP2 DUP2 LT PUSH8 0xFFFFFFFFFFFFFFFF DUP3 GT OR ISZERO PUSH2 0x17DF JUMPI PUSH2 0x17DE PUSH2 0x178A JUMP JUMPDEST JUMPDEST DUP1 PUSH1 0x40 MSTORE POP POP POP JUMP JUMPDEST PUSH0 PUSH2 0x17F1 PUSH2 0x16AF JUMP JUMPDEST SWAP1 POP PUSH2 0x17FD DUP3 DUP3 PUSH2 0x17B7 JUMP JUMPDEST SWAP2 SWAP1 POP JUMP JUMPDEST PUSH0 PUSH8 0xFFFFFFFFFFFFFFFF DUP3 GT ISZERO PUSH2 0x181C JUMPI PUSH2 0x181B PUSH2 0x178A JUMP JUMPDEST JUMPDEST PUSH1 0x20 DUP3 MUL SWAP1 POP PUSH1 0x20 DUP2 ADD SWAP1 POP SWAP2 SWAP1 POP JUMP JUMPDEST PUSH0 DUP1 REVERT JUMPDEST PUSH0 PUSH2 0x1843 PUSH2 0x183E DUP5 PUSH2 0x1802 JUMP JUMPDEST PUSH2 0x17E8 JUMP JUMPDEST SWAP1 POP DUP1 DUP4 DUP3 MSTORE PUSH1 0x20 DUP3 ADD SWAP1 POP PUSH1 0x20 DUP5 MUL DUP4 ADD DUP6 DUP2 GT ISZERO PUSH2 0x1866 JUMPI PUSH2 0x1865 PUSH2 0x182D JUMP JUMPDEST JUMPDEST DUP4 JUMPDEST DUP2 DUP2 LT ISZERO PUSH2 0x188F JUMPI DUP1 PUSH2 0x187B DUP9 DUP3 PUSH2 0x16DF JUMP JUMPDEST DUP5 MSTORE PUSH1 0x20 DUP5 ADD SWAP4 POP POP PUSH1 0x20 DUP2 ADD SWAP1 POP PUSH2 0x1868 JUMP JUMPDEST POP POP POP SWAP4 SWAP3 POP POP POP JUMP JUMPDEST PUSH0 DUP3 PUSH1 0x1F DUP4 ADD SLT PUSH2 0x18AD JUMPI PUSH2 0x18AC PUSH2 0x1776 JUMP JUMPDEST JUMPDEST DUP2 CALLDATALOAD PUSH2 0x18BD DUP5 DUP3 PUSH1 0x20 DUP7 ADD PUSH2 0x1831 JUMP JUMPDEST SWAP2 POP POP SWAP3 SWAP2 POP POP JUMP JUMPDEST PUSH0 DUP1 PUSH1 0x40 DUP4 DUP6 SUB SLT ISZERO PUSH2 0x18DC JUMPI PUSH2 0x18DB PUSH2 0x16B8 JUMP JUMPDEST JUMPDEST PUSH0 PUSH2 0x18E9 DUP6 DUP3 DUP7 ADD PUSH2 0x16DF JUMP JUMPDEST SWAP3 POP POP PUSH1 0x20 DUP4 ADD CALLDATALOAD PUSH8 0xFFFFFFFFFFFFFFFF DUP2 GT ISZERO PUSH2 0x190A JUMPI PUSH2 0x1909 PUSH2 0x16BC JUMP JUMPDEST JUMPDEST PUSH2 0x1916 DUP6 DUP3 DUP7 ADD PUSH2 0x1899 JUMP JUMPDEST SWAP2 POP POP SWAP3 POP SWAP3 SWAP1 POP JUMP JUMPDEST PUSH2 0x1929 DUP2 PUSH2 0x16C0 JUMP JUMPDEST DUP3 MSTORE POP POP JUMP JUMPDEST PUSH0 PUSH1 0x20 DUP3 ADD SWAP1 POP PUSH2 0x1942 PUSH0 DUP4 ADD DUP5 PUSH2 0x1920 JUMP JUMPDEST SWAP3 SWAP2 POP POP JUMP JUMPDEST PUSH2 0x1951 DUP2 PUSH2 0x173D JUMP JUMPDEST DUP2 EQ PUSH2 0x195B JUMPI PUSH0 DUP1 REVERT JUMPDEST POP JUMP JUMPDEST PUSH0 DUP2 CALLDATALOAD SWAP1 POP PUSH2 0x196C DUP2 PUSH2 0x1948 JUMP JUMPDEST SWAP3 SWAP2 POP POP JUMP JUMPDEST PUSH0 PUSH1 0x20 DUP3 DUP5 SUB SLT ISZERO PUSH2 0x1987 JUMPI PUSH2 0x1986 PUSH2 0x16B8 JUMP JUMPDEST JUMPDEST PUSH0 PUSH2 0x1994 DUP5 DUP3 DUP6 ADD PUSH2 0x195E JUMP JUMPDEST SWAP2 POP POP SWAP3 SWAP2 POP POP JUMP JUMPDEST PUSH0 DUP3 DUP3 MSTORE PUSH1 0x20 DUP3 ADD SWAP1 POP SWAP3 SWAP2 POP POP JUMP JUMPDEST PUSH32 0x726F756E64206D7573742062652067726561746572207468616E203000000000 PUSH0 DUP3 ADD MSTORE POP JUMP JUMPDEST PUSH0 PUSH2 0x19E1 PUSH1 0x1C DUP4 PUSH2 0x199D JUMP JUMPDEST SWAP2 POP PUSH2 0x19EC DUP3 PUSH2 0x19AD JUMP JUMPDEST PUSH1 0x20 DUP3 ADD SWAP1 POP SWAP2 SWAP1 POP JUMP JUMPDEST PUSH0 PUSH1 0x20 DUP3 ADD SWAP1 POP DUP2 DUP2 SUB PUSH0 DUP4 ADD MSTORE PUSH2 0x1A0E DUP2 PUSH2 0x19D5 JUMP JUMPDEST SWAP1 POP SWAP2 SWAP1 POP JUMP JUMPDEST PUSH32 0x726F756E64206D757374206265206C657373207468616E207468652063757272 PUSH0 DUP3 ADD MSTORE PUSH32 0x656E7420726F756E640000000000000000000000000000000000000000000000 PUSH1 0x20 DUP3 ADD MSTORE POP JUMP JUMPDEST PUSH0 PUSH2 0x1A6F PUSH1 0x29 DUP4 PUSH2 0x199D JUMP JUMPDEST SWAP2 POP PUSH2 0x1A7A DUP3 PUSH2 0x1A15 JUMP JUMPDEST PUSH1 0x40 DUP3 ADD SWAP1 POP SWAP2 SWAP1 POP JUMP JUMPDEST PUSH0 PUSH1 0x20 DUP3 ADD SWAP1 POP DUP2 DUP2 SUB PUSH0 DUP4 ADD MSTORE PUSH2 0x1A9C DUP2 PUSH2 0x1A63 JUMP JUMPDEST SWAP1 POP SWAP2 SWAP1 POP JUMP JUMPDEST PUSH32 0x4E487B7100000000000000000000000000000000000000000000000000000000 PUSH0 MSTORE PUSH1 0x32 PUSH1 0x4 MSTORE PUSH1 0x24 PUSH0 REVERT JUMPDEST PUSH32 0x4E487B7100000000000000000000000000000000000000000000000000000000 PUSH0 MSTORE PUSH1 0x12 PUSH1 0x4 MSTORE PUSH1 0x24 PUSH0 REVERT JUMPDEST PUSH0 PUSH2 0x1B07 DUP3 PUSH2 0x16C0 JUMP JUMPDEST SWAP2 POP PUSH2 0x1B12 DUP4 PUSH2 0x16C0 JUMP JUMPDEST SWAP3 POP DUP3 PUSH2 0x1B22 JUMPI PUSH2 0x1B21 PUSH2 0x1AD0 JUMP JUMPDEST JUMPDEST DUP3 DUP3 MOD SWAP1 POP SWAP3 SWAP2 POP POP JUMP JUMPDEST PUSH32 0x6F6E6C792056524620563220777261707065722063616E2066756C66696C6C00 PUSH0 DUP3 ADD MSTORE POP JUMP JUMPDEST PUSH0 PUSH2 0x1B61 PUSH1 0x1F DUP4 PUSH2 0x199D JUMP JUMPDEST SWAP2 POP PUSH2 0x1B6C DUP3 PUSH2 0x1B2D JUMP JUMPDEST PUSH1 0x20 DUP3 ADD SWAP1 POP SWAP2 SWAP1 POP JUMP JUMPDEST PUSH0 PUSH1 0x20 DUP3 ADD SWAP1 POP DUP2 DUP2 SUB PUSH0 DUP4 ADD MSTORE PUSH2 0x1B8E DUP2 PUSH2 0x1B55 JUMP JUMPDEST SWAP1 POP SWAP2 SWAP1 POP JUMP JUMPDEST PUSH32 0x57696E6E6572206973206E6F7420796574206465636964656420666F72207468 PUSH0 DUP3 ADD MSTORE PUSH32 0x6520647261770000000000000000000000000000000000000000000000000000 PUSH1 0x20 DUP3 ADD MSTORE POP JUMP JUMPDEST PUSH0 PUSH2 0x1BEF PUSH1 0x26 DUP4 PUSH2 0x199D JUMP JUMPDEST SWAP2 POP PUSH2 0x1BFA DUP3 PUSH2 0x1B95 JUMP JUMPDEST PUSH1 0x40 DUP3 ADD SWAP1 POP SWAP2 SWAP1 POP JUMP JUMPDEST PUSH0 PUSH1 0x20 DUP3 ADD SWAP1 POP DUP2 DUP2 SUB PUSH0 DUP4 ADD MSTORE PUSH2 0x1C1C DUP2 PUSH2 0x1BE3 JUMP JUMPDEST SWAP1 POP SWAP2 SWAP1 POP JUMP JUMPDEST PUSH32 0x596F7520617265206E6F74207468652077696E6E657200000000000000000000 PUSH0 DUP3 ADD MSTORE POP JUMP JUMPDEST PUSH0 PUSH2 0x1C57 PUSH1 0x16 DUP4 PUSH2 0x199D JUMP JUMPDEST SWAP2 POP PUSH2 0x1C62 DUP3 PUSH2 0x1C23 JUMP JUMPDEST PUSH1 0x20 DUP3 ADD SWAP1 POP SWAP2 SWAP1 POP JUMP JUMPDEST PUSH0 PUSH1 0x20 DUP3 ADD SWAP1 POP DUP2 DUP2 SUB PUSH0 DUP4 ADD MSTORE PUSH2 0x1C84 DUP2 PUSH2 0x1C4B JUMP JUMPDEST SWAP1 POP SWAP2 SWAP1 POP JUMP JUMPDEST PUSH32 0x4E487B7100000000000000000000000000000000000000000000000000000000 PUSH0 MSTORE PUSH1 0x11 PUSH1 0x4 MSTORE PUSH1 0x24 PUSH0 REVERT JUMPDEST PUSH0 PUSH2 0x1CC2 DUP3 PUSH2 0x16C0 JUMP JUMPDEST SWAP2 POP PUSH2 0x1CCD DUP4 PUSH2 0x16C0 JUMP JUMPDEST SWAP3 POP DUP3 DUP3 ADD SWAP1 POP DUP1 DUP3 GT ISZERO PUSH2 0x1CE5 JUMPI PUSH2 0x1CE4 PUSH2 0x1C8B JUMP JUMPDEST JUMPDEST SWAP3 SWAP2 POP POP JUMP JUMPDEST PUSH0 PUSH2 0x1CF5 DUP3 PUSH2 0x16C0 JUMP JUMPDEST SWAP2 POP PUSH2 0x1D00 DUP4 PUSH2 0x16C0 JUMP JUMPDEST SWAP3 POP DUP3 DUP3 MUL PUSH2 0x1D0E DUP2 PUSH2 0x16C0 JUMP JUMPDEST SWAP2 POP DUP3 DUP3 DIV DUP5 EQ DUP4 ISZERO OR PUSH2 0x1D25 JUMPI PUSH2 0x1D24 PUSH2 0x1C8B JUMP JUMPDEST JUMPDEST POP SWAP3 SWAP2 POP POP JUMP JUMPDEST PUSH0 PUSH2 0x1D36 DUP3 PUSH2 0x16C0 JUMP JUMPDEST SWAP2 POP PUSH2 0x1D41 DUP4 PUSH2 0x16C0 JUMP JUMPDEST SWAP3 POP DUP3 PUSH2 0x1D51 JUMPI PUSH2 0x1D50 PUSH2 0x1AD0 JUMP JUMPDEST JUMPDEST DUP3 DUP3 DIV SWAP1 POP SWAP3 SWAP2 POP POP JUMP JUMPDEST PUSH0 PUSH2 0x1D66 DUP3 PUSH2 0x16C0 JUMP JUMPDEST SWAP2 POP PUSH2 0x1D71 DUP4 PUSH2 0x16C0 JUMP JUMPDEST SWAP3 POP DUP3 DUP3 SUB SWAP1 POP DUP2 DUP2 GT ISZERO PUSH2 0x1D89 JUMPI PUSH2 0x1D88 PUSH2 0x1C8B JUMP JUMPDEST JUMPDEST SWAP3 SWAP2 POP POP JUMP JUMPDEST PUSH32 0x4E756D626572206F66206D656D62657273206D7573742062652035206265666F PUSH0 DUP3 ADD MSTORE PUSH32 0x726520647261772063616E20626520706572666F726D65640000000000000000 PUSH1 0x20 DUP3 ADD MSTORE POP JUMP JUMPDEST PUSH0 PUSH2 0x1DE9 PUSH1 0x38 DUP4 PUSH2 0x199D JUMP JUMPDEST SWAP2 POP PUSH2 0x1DF4 DUP3 PUSH2 0x1D8F JUMP JUMPDEST PUSH1 0x40 DUP3 ADD SWAP1 POP SWAP2 SWAP1 POP JUMP JUMPDEST PUSH0 PUSH1 0x20 DUP3 ADD SWAP1 POP DUP2 DUP2 SUB PUSH0 DUP4 ADD MSTORE PUSH2 0x1E16 DUP2 PUSH2 0x1DDD JUMP JUMPDEST SWAP1 POP SWAP2 SWAP1 POP JUMP JUMPDEST PUSH32 0x4D7573742062652070726F706F736564206F776E657200000000000000000000 PUSH0 DUP3 ADD MSTORE POP JUMP JUMPDEST PUSH0 PUSH2 0x1E51 PUSH1 0x16 DUP4 PUSH2 0x199D JUMP JUMPDEST SWAP2 POP PUSH2 0x1E5C DUP3 PUSH2 0x1E1D JUMP JUMPDEST PUSH1 0x20 DUP3 ADD SWAP1 POP SWAP2 SWAP1 POP JUMP JUMPDEST PUSH0 PUSH1 0x20 DUP3 ADD SWAP1 POP DUP2 DUP2 SUB PUSH0 DUP4 ADD MSTORE PUSH2 0x1E7E DUP2 PUSH2 0x1E45 JUMP JUMPDEST SWAP1 POP SWAP2 SWAP1 POP JUMP JUMPDEST PUSH0 DUP2 MLOAD SWAP1 POP PUSH2 0x1E93 DUP2 PUSH2 0x16C9 JUMP JUMPDEST SWAP3 SWAP2 POP POP JUMP JUMPDEST PUSH0 PUSH1 0x20 DUP3 DUP5 SUB SLT ISZERO PUSH2 0x1EAE JUMPI PUSH2 0x1EAD PUSH2 0x16B8 JUMP JUMPDEST JUMPDEST PUSH0 PUSH2 0x1EBB DUP5 DUP3 DUP6 ADD PUSH2 0x1E85 JUMP JUMPDEST SWAP2 POP POP SWAP3 SWAP2 POP POP JUMP JUMPDEST PUSH0 PUSH1 0x40 DUP3 ADD SWAP1 POP PUSH2 0x1ED7 PUSH0 DUP4 ADD DUP6 PUSH2 0x174E JUMP JUMPDEST PUSH2 0x1EE4 PUSH1 0x20 DUP4 ADD DUP5 PUSH2 0x1920 JUMP JUMPDEST SWAP4 SWAP3 POP POP POP JUMP JUMPDEST PUSH0 DUP2 ISZERO ISZERO SWAP1 POP SWAP2 SWAP1 POP JUMP JUMPDEST PUSH2 0x1EFF DUP2 PUSH2 0x1EEB JUMP JUMPDEST DUP2 EQ PUSH2 0x1F09 JUMPI PUSH0 DUP1 REVERT JUMPDEST POP JUMP JUMPDEST PUSH0 DUP2 MLOAD SWAP1 POP PUSH2 0x1F1A DUP2 PUSH2 0x1EF6 JUMP JUMPDEST SWAP3 SWAP2 POP POP JUMP JUMPDEST PUSH0 PUSH1 0x20 DUP3 DUP5 SUB SLT ISZERO PUSH2 0x1F35 JUMPI PUSH2 0x1F34 PUSH2 0x16B8 JUMP JUMPDEST JUMPDEST PUSH0 PUSH2 0x1F42 DUP5 DUP3 DUP6 ADD PUSH2 0x1F0C JUMP JUMPDEST SWAP2 POP POP SWAP3 SWAP2 POP POP JUMP JUMPDEST PUSH32 0x556E61626C6520746F207472616E736665720000000000000000000000000000 PUSH0 DUP3 ADD MSTORE POP JUMP JUMPDEST PUSH0 PUSH2 0x1F7F PUSH1 0x12 DUP4 PUSH2 0x199D JUMP JUMPDEST SWAP2 POP PUSH2 0x1F8A DUP3 PUSH2 0x1F4B JUMP JUMPDEST PUSH1 0x20 DUP3 ADD SWAP1 POP SWAP2 SWAP1 POP JUMP JUMPDEST PUSH0 PUSH1 0x20 DUP3 ADD SWAP1 POP DUP2 DUP2 SUB PUSH0 DUP4 ADD MSTORE PUSH2 0x1FAC DUP2 PUSH2 0x1F73 JUMP JUMPDEST SWAP1 POP SWAP2 SWAP1 POP JUMP JUMPDEST PUSH32 0x4E756D626572206F66206D656D626572732061726520616C726561647920352E PUSH0 DUP3 ADD MSTORE PUSH32 0x20506C656173652074727920746F206A6F696E20696E206E65787420726F756E PUSH1 0x20 DUP3 ADD MSTORE PUSH32 0x6400000000000000000000000000000000000000000000000000000000000000 PUSH1 0x40 DUP3 ADD MSTORE POP JUMP JUMPDEST PUSH0 PUSH2 0x2033 PUSH1 0x41 DUP4 PUSH2 0x199D JUMP JUMPDEST SWAP2 POP PUSH2 0x203E DUP3 PUSH2 0x1FB3 JUMP JUMPDEST PUSH1 0x60 DUP3 ADD SWAP1 POP SWAP2 SWAP1 POP JUMP JUMPDEST PUSH0 PUSH1 0x20 DUP3 ADD SWAP1 POP DUP2 DUP2 SUB PUSH0 DUP4 ADD MSTORE PUSH2 0x2060 DUP2 PUSH2 0x2027 JUMP JUMPDEST SWAP1 POP SWAP2 SWAP1 POP JUMP JUMPDEST PUSH32 0x596F75206861766520616C7265616479207265676973746572656420666F7220 PUSH0 DUP3 ADD MSTORE PUSH32 0x7468697320726F756E6400000000000000000000000000000000000000000000 PUSH1 0x20 DUP3 ADD MSTORE POP JUMP JUMPDEST PUSH0 PUSH2 0x20C1 PUSH1 0x2A DUP4 PUSH2 0x199D JUMP JUMPDEST SWAP2 POP PUSH2 0x20CC DUP3 PUSH2 0x2067 JUMP JUMPDEST PUSH1 0x40 DUP3 ADD SWAP1 POP SWAP2 SWAP1 POP JUMP JUMPDEST PUSH0 PUSH1 0x20 DUP3 ADD SWAP1 POP DUP2 DUP2 SUB PUSH0 DUP4 ADD MSTORE PUSH2 0x20EE DUP2 PUSH2 0x20B5 JUMP JUMPDEST SWAP1 POP SWAP2 SWAP1 POP JUMP JUMPDEST PUSH32 0x596F75206D75737420696E76657374206174206C6561737420302E3030312045 PUSH0 DUP3 ADD MSTORE PUSH32 0x544820696E20746865206C6F747465727920726F756E64000000000000000000 PUSH1 0x20 DUP3 ADD MSTORE POP JUMP JUMPDEST PUSH0 PUSH2 0x214F PUSH1 0x37 DUP4 PUSH2 0x199D JUMP JUMPDEST SWAP2 POP PUSH2 0x215A DUP3 PUSH2 0x20F5 JUMP JUMPDEST PUSH1 0x40 DUP3 ADD SWAP1 POP SWAP2 SWAP1 POP JUMP JUMPDEST PUSH0 PUSH1 0x20 DUP3 ADD SWAP1 POP DUP2 DUP2 SUB PUSH0 DUP4 ADD MSTORE PUSH2 0x217C DUP2 PUSH2 0x2143 JUMP JUMPDEST SWAP1 POP SWAP2 SWAP1 POP JUMP JUMPDEST PUSH32 0x72657175657374206E6F7420666F756E64000000000000000000000000000000 PUSH0 DUP3 ADD MSTORE POP JUMP JUMPDEST PUSH0 PUSH2 0x21B7 PUSH1 0x11 DUP4 PUSH2 0x199D JUMP JUMPDEST SWAP2 POP PUSH2 0x21C2 DUP3 PUSH2 0x2183 JUMP JUMPDEST PUSH1 0x20 DUP3 ADD SWAP1 POP SWAP2 SWAP1 POP JUMP JUMPDEST PUSH0 PUSH1 0x20 DUP3 ADD SWAP1 POP DUP2 DUP2 SUB PUSH0 DUP4 ADD MSTORE PUSH2 0x21E4 DUP2 PUSH2 0x21AB JUMP JUMPDEST SWAP1 POP SWAP2 SWAP1 POP JUMP JUMPDEST PUSH32 0x4F6E6C792063616C6C61626C65206279206F776E657200000000000000000000 PUSH0 DUP3 ADD MSTORE POP JUMP JUMPDEST PUSH0 PUSH2 0x221F PUSH1 0x16 DUP4 PUSH2 0x199D JUMP JUMPDEST SWAP2 POP PUSH2 0x222A DUP3 PUSH2 0x21EB JUMP JUMPDEST PUSH1 0x20 DUP3 ADD SWAP1 POP SWAP2 SWAP1 POP JUMP JUMPDEST PUSH0 PUSH1 0x20 DUP3 ADD SWAP1 POP DUP2 DUP2 SUB PUSH0 DUP4 ADD MSTORE PUSH2 0x224C DUP2 PUSH2 0x2213 JUMP JUMPDEST SWAP1 POP SWAP2 SWAP1 POP JUMP JUMPDEST PUSH0 PUSH4 0xFFFFFFFF DUP3 AND SWAP1 POP SWAP2 SWAP1 POP JUMP JUMPDEST PUSH2 0x226B DUP2 PUSH2 0x2253 JUMP JUMPDEST DUP3 MSTORE POP POP JUMP JUMPDEST PUSH0 PUSH1 0x20 DUP3 ADD SWAP1 POP PUSH2 0x2284 PUSH0 DUP4 ADD DUP5 PUSH2 0x2262 JUMP JUMPDEST SWAP3 SWAP2 POP POP JUMP JUMPDEST PUSH32 0x43616E6E6F74207472616E7366657220746F2073656C66000000000000000000 PUSH0 DUP3 ADD MSTORE POP JUMP JUMPDEST PUSH0 PUSH2 0x22BE PUSH1 0x17 DUP4 PUSH2 0x199D JUMP JUMPDEST SWAP2 POP PUSH2 0x22C9 DUP3 PUSH2 0x228A JUMP JUMPDEST PUSH1 0x20 DUP3 ADD SWAP1 POP SWAP2 SWAP1 POP JUMP JUMPDEST PUSH0 PUSH1 0x20 DUP3 ADD SWAP1 POP DUP2 DUP2 SUB PUSH0 DUP4 ADD MSTORE PUSH2 0x22EB DUP2 PUSH2 0x22B2 JUMP JUMPDEST SWAP1 POP SWAP2 SWAP1 POP JUMP JUMPDEST PUSH0 PUSH2 0xFFFF DUP3 AND SWAP1 POP SWAP2 SWAP1 POP JUMP JUMPDEST PUSH2 0x2308 DUP2 PUSH2 0x22F2 JUMP JUMPDEST DUP3 MSTORE POP POP JUMP JUMPDEST PUSH0 PUSH1 0x60 DUP3 ADD SWAP1 POP PUSH2 0x2321 PUSH0 DUP4 ADD DUP7 PUSH2 0x2262 JUMP JUMPDEST PUSH2 0x232E PUSH1 0x20 DUP4 ADD DUP6 PUSH2 0x22FF JUMP JUMPDEST PUSH2 0x233B PUSH1 0x40 DUP4 ADD DUP5 PUSH2 0x2262 JUMP JUMPDEST SWAP5 SWAP4 POP POP POP POP JUMP JUMPDEST PUSH0 DUP2 MLOAD SWAP1 POP SWAP2 SWAP1 POP JUMP JUMPDEST PUSH0 DUP3 DUP3 MSTORE PUSH1 0x20 DUP3 ADD SWAP1 POP SWAP3 SWAP2 POP POP JUMP JUMPDEST DUP3 DUP2 DUP4 MCOPY PUSH0 DUP4 DUP4 ADD MSTORE POP POP POP JUMP JUMPDEST PUSH0 PUSH2 0x2375 DUP3 PUSH2 0x2343 JUMP JUMPDEST PUSH2 0x237F DUP2 DUP6 PUSH2 0x234D JUMP JUMPDEST SWAP4 POP PUSH2 0x238F DUP2 DUP6 PUSH1 0x20 DUP7 ADD PUSH2 0x235D JUMP JUMPDEST PUSH2 0x2398 DUP2 PUSH2 0x177A JUMP JUMPDEST DUP5 ADD SWAP2 POP POP SWAP3 SWAP2 POP POP JUMP JUMPDEST PUSH0 PUSH1 0x60 DUP3 ADD SWAP1 POP PUSH2 0x23B6 PUSH0 DUP4 ADD DUP7 PUSH2 0x174E JUMP JUMPDEST PUSH2 0x23C3 PUSH1 0x20 DUP4 ADD DUP6 PUSH2 0x1920 JUMP JUMPDEST DUP2 DUP2 SUB PUSH1 0x40 DUP4 ADD MSTORE PUSH2 0x23D5 DUP2 DUP5 PUSH2 0x236B JUMP JUMPDEST SWAP1 POP SWAP5 SWAP4 POP POP POP POP JUMP INVALID LOG2 PUSH5 0x6970667358 0x22 SLT KECCAK256 PUSH29 0xBA36B266535CC5F61C6E8F4A63A73ED9FF32DDF95874B8D9187FE913EE 0xAE 0xA5 PUSH5 0x736F6C6343 STOP ADDMOD BYTE STOP CALLER "
				},
				"gasEstimates": {
					"creation": {
						"codeDepositCost": "1847400",
						"executionCost": "infinite",
						"totalCost": "infinite"
					},
					"external": {
						"acceptOwnership()": "54644",
						"checkWinner(uint256)": "infinite",
						"contractBalance()": "2677",
						"currentRound()": "2448",
						"join()": "infinite",
						"owner()": "2537",
						"performDraw()": "infinite",
						"rawFulfillRandomWords(uint256,uint256[])": "infinite",
						"redeemPrize(uint256)": "infinite",
						"roundsCompleted(uint256)": "infinite",
						"transferOwnership(address)": "30733",
						"withdraw()": "infinite",
						"withdrawLink()": "infinite"
					}
				},
				"methodIdentifiers": {
					"acceptOwnership()": "79ba5097",
					"checkWinner(uint256)": "18854939",
					"contractBalance()": "8b7afe2e",
					"currentRound()": "8a19c8bc",
					"join()": "b688a363",
					"owner()": "8da5cb5b",
					"performDraw()": "4cdb5d40",
					"rawFulfillRandomWords(uint256,uint256[])": "1fe543e3",
					"redeemPrize(uint256)": "289af10c",
					"roundsCompleted(uint256)": "8a82c3e9",
					"transferOwnership(address)": "f2fde38b",
					"withdraw()": "3ccfd60b",
					"withdrawLink()": "8dc654a2"
				}
			},
			"storageLayout": {
				"storage": [
					{
						"astId": 29,
						"contract": "Lab10/LotteryFive.sol:LotteryFive",
						"label": "s_owner",
						"offset": 0,
						"slot": "0",
						"type": "t_address"
					},
					{
						"astId": 31,
						"contract": "Lab10/LotteryFive.sol:LotteryFive",
						"label": "s_pendingOwner",
						"offset": 0,
						"slot": "1",
						"type": "t_address"
					},
					{
						"astId": 447,
						"contract": "Lab10/LotteryFive.sol:LotteryFive",
						"label": "s_requests",
						"offset": 0,
						"slot": "2",
						"type": "t_mapping(t_uint256,t_struct(RequestStatus)442_storage)"
					},
					{
						"astId": 450,
						"contract": "Lab10/LotteryFive.sol:LotteryFive",
						"label": "requestIds",
						"offset": 0,
						"slot": "3",
						"type": "t_array(t_uint256)dyn_storage"
					},
					{
						"astId": 452,
						"contract": "Lab10/LotteryFive.sol:LotteryFive",
						"label": "lastRequestId",
						"offset": 0,
						"slot": "4",
						"type": "t_uint256"
					},
					{
						"astId": 455,
						"contract": "Lab10/LotteryFive.sol:LotteryFive",
						"label": "callbackGasLimit",
						"offset": 0,
						"slot": "5",
						"type": "t_uint32"
					},
					{
						"astId": 458,
						"contract": "Lab10/LotteryFive.sol:LotteryFive",
						"label": "requestConfirmations",
						"offset": 4,
						"slot": "5",
						"type": "t_uint16"
					},
					{
						"astId": 461,
						"contract": "Lab10/LotteryFive.sol:LotteryFive",
						"label": "numWords",
						"offset": 6,
						"slot": "5",
						"type": "t_uint32"
					},
					{
						"astId": 464,
						"contract": "Lab10/LotteryFive.sol:LotteryFive",
						"label": "linkAddress",
						"offset": 10,
						"slot": "5",
						"type": "t_address"
					},
					{
						"astId": 467,
						"contract": "Lab10/LotteryFive.sol:LotteryFive",
						"label": "wrapperAddress",
						"offset": 0,
						"slot": "6",
						"type": "t_address"
					},
					{
						"astId": 606,
						"contract": "Lab10/LotteryFive.sol:LotteryFive",
						"label": "roundsCompleted",
						"offset": 0,
						"slot": "7",
						"type": "t_array(t_uint256)dyn_storage"
					},
					{
						"astId": 608,
						"contract": "Lab10/LotteryFive.sol:LotteryFive",
						"label": "currentRound",
						"offset": 0,
						"slot": "8",
						"type": "t_uint256"
					},
					{
						"astId": 612,
						"contract": "Lab10/LotteryFive.sol:LotteryFive",
						"label": "draws",
						"offset": 0,
						"slot": "9",
						"type": "t_mapping(t_uint256,t_uint256)"
					},
					{
						"astId": 617,
						"contract": "Lab10/LotteryFive.sol:LotteryFive",
						"label": "roundStates",
						"offset": 0,
						"slot": "10",
						"type": "t_mapping(t_uint256,t_struct(RoundState)603_storage)"
					}
				],
				"types": {
					"t_address": {
						"encoding": "inplace",
						"label": "address",
						"numberOfBytes": "20"
					},
					"t_array(t_struct(Member)596_storage)dyn_storage": {
						"base": "t_struct(Member)596_storage",
						"encoding": "dynamic_array",
						"label": "struct LotteryFive.Member[]",
						"numberOfBytes": "32"
					},
					"t_array(t_uint256)dyn_storage": {
						"base": "t_uint256",
						"encoding": "dynamic_array",
						"label": "uint256[]",
						"numberOfBytes": "32"
					},
					"t_bool": {
						"encoding": "inplace",
						"label": "bool",
						"numberOfBytes": "1"
					},
					"t_mapping(t_uint256,t_struct(RequestStatus)442_storage)": {
						"encoding": "mapping",
						"key": "t_uint256",
						"label": "mapping(uint256 => struct VRF.RequestStatus)",
						"numberOfBytes": "32",
						"value": "t_struct(RequestStatus)442_storage"
					},
					"t_mapping(t_uint256,t_struct(RoundState)603_storage)": {
						"encoding": "mapping",
						"key": "t_uint256",
						"label": "mapping(uint256 => struct LotteryFive.RoundState)",
						"numberOfBytes": "32",
						"value": "t_struct(RoundState)603_storage"
					},
					"t_mapping(t_uint256,t_uint256)": {
						"encoding": "mapping",
						"key": "t_uint256",
						"label": "mapping(uint256 => uint256)",
						"numberOfBytes": "32",
						"value": "t_uint256"
					},
					"t_struct(Member)596_storage": {
						"encoding": "inplace",
						"label": "struct LotteryFive.Member",
						"members": [
							{
								"astId": 593,
								"contract": "Lab10/LotteryFive.sol:LotteryFive",
								"label": "addr",
								"offset": 0,
								"slot": "0",
								"type": "t_address"
							},
							{
								"astId": 595,
								"contract": "Lab10/LotteryFive.sol:LotteryFive",
								"label": "amount",
								"offset": 0,
								"slot": "1",
								"type": "t_uint256"
							}
						],
						"numberOfBytes": "64"
					},
					"t_struct(RequestStatus)442_storage": {
						"encoding": "inplace",
						"label": "struct VRF.RequestStatus",
						"members": [
							{
								"astId": 436,
								"contract": "Lab10/LotteryFive.sol:LotteryFive",
								"label": "paid",
								"offset": 0,
								"slot": "0",
								"type": "t_uint256"
							},
							{
								"astId": 438,
								"contract": "Lab10/LotteryFive.sol:LotteryFive",
								"label": "fulfilled",
								"offset": 0,
								"slot": "1",
								"type": "t_bool"
							},
							{
								"astId": 441,
								"contract": "Lab10/LotteryFive.sol:LotteryFive",
								"label": "randomWords",
								"offset": 0,
								"slot": "2",
								"type": "t_array(t_uint256)dyn_storage"
							}
						],
						"numberOfBytes": "96"
					},
					"t_struct(RoundState)603_storage": {
						"encoding": "inplace",
						"label": "struct LotteryFive.RoundState",
						"members": [
							{
								"astId": 600,
								"contract": "Lab10/LotteryFive.sol:LotteryFive",
								"label": "members",
								"offset": 0,
								"slot": "0",
								"type": "t_array(t_struct(Member)596_storage)dyn_storage"
							},
							{
								"astId": 602,
								"contract": "Lab10/LotteryFive.sol:LotteryFive",
								"label": "numMembers",
								"offset": 0,
								"slot": "1",
								"type": "t_uint256"
							}
						],
						"numberOfBytes": "64"
					},
					"t_uint16": {
						"encoding": "inplace",
						"label": "uint16",
						"numberOfBytes": "2"
					},
					"t_uint256": {
						"encoding": "inplace",
						"label": "uint256",
						"numberOfBytes": "32"
					},
					"t_uint32": {
						"encoding": "inplace",
						"label": "uint32",
						"numberOfBytes": "4"
					}
				}
			},
			"userdoc": {
				"kind": "user",
				"methods": {
					"acceptOwnership()": {
						"notice": "Allows an ownership transfer to be completed by the recipient."
					},
					"owner()": {
						"notice": "Get the current owner"
					},
					"transferOwnership(address)": {
						"notice": "Allows an owner to begin transferring ownership to a new address."
					},
					"withdrawLink()": {
						"notice": "Allow withdraw of Link tokens from the contract"
					}
				},
				"version": 1
			}
		}
	}
}